:020000041000EA
:1000000000B5324B212058609868022188439860DF
:10001000D860186158612E4B002199600221596106
:100020000121F02299502B49196001219960352056
:1000300000F044F80222904214D00621196600F024
:1000400034F8196E01211966002018661A6600F04E
:100050002CF8196E196E196E052000F02FF8012189
:100060000842F9D1002199601B49196000215960AB
:100070001A491B48016001219960EB211966A021F2
:10008000196600F012F800219960164914480160C1
:100090000121996001BC002800D000471248134993
:1000A000086003C880F30888084703B5996A0420EC
:1000B0000142FBD001200142F8D103BD02B5186610
:1000C0001866FFF7F2FF186E186E02BD00000240BE
:1000D000000000180000070000035F00212200005C
:1000E000F4000018222000A00001001008ED00E03C
:1000F00000000000000000000000000074B24E7A12
:1001000000200420F7010010C3010010C5010010F9
:10011000C1010010C1010010C1010010C101001097
:10012000C1010010C1010010C1010010C701001081
:10013000C1010010C1010010C9010010CB01001065
:10014000CD010010CD010010CD010010CD01001037
:10015000CD010010CD010010CD010010CD01001027
:10016000CD010010CD010010CD010010CD01001017
:10017000CD010010CD010010CD010010CD01001007
:10018000CD010010CD010010CD010010CD010010F7
:10019000CD010010CD010010CD010010CD010010E7
:1001A000CD010010CD010010CD010010CD010010D7
:1001B000CD010010CD010010CD010010CD010010C7
:1001C00000BE00BE00BE00BE00BE00BEEFF3058054
:1001D000103800BEF2EB8871E0990010049A00100C
:1001E0003402001090A31AE700201F49086006C8D7
:1001F00081F3088810471D48006800282FD10DA4FE
:100200000ECC002902D000F012F8F9E71849194A7B
:10021000002000E001C19142FCD1174988471749ED
:1002200088471749884700BEFDE701C901C29A42C5
:10023000FBD37047049A0010C0000020D80E0020A5
:100240001CA8001000000420000004201CA80010BE
:10025000001004200010042000000000704709482E
:1002600005F040FE0047000008ED00E0000000D06F
:10027000E00E0020B42100205D5D00100507001095
:10028000515E00105756000006005250ABB3605349
:10029000A097001006005250861C0302B097001071
:1002A000060052505422A29DBC97001005005250E7
:1002B000DE65F4681CA80010F8B5C046064807497A
:1002C000091A8B10C90FC91810B5491003D0044B77
:1002D000002B00D0984710BDD80E0020D80E00206B
:1002E00000000000054B10B5002B03D00449054861
:1002F00000E000BFFFF7E2FF10BDC04600000000B5
:1003000014210020C89300100122014B1A7070477D
:10031000A2210020244B10B51B78002B16D0D0232F
:1003200040221B065A6140325A61204B1A88002A2B
:1003300003D01A88013A92B21A801D4B1A88002AFB
:1003400003D01A88013A92B21A8010BD1948037876
:10035000002B03D0D02340221B065A6116490B788C
:10036000002B03D0D02380221B065A61134A137836
:100370000133DBB21370132B06D9D02340241B06A4
:100380009C610023037013700D4A13780133DBB2B4
:100390001370132BC9D9D02380201B06986100232A
:1003A0000B701370C1E7C046A421002088210020F3
:1003B00082210020A7210020A82100209F210020C9
:1003C000A0210020D0231B065A68920103D5802269
:1003D00092049A617047802292045A61FAE7C046FB
:1003E000F8B5444D444CAE6823784448F2B2C25448
:1003F000552A2BD0C1180139097855291ED0C218A9
:10040000023A1578552D2ED0C218033A1178552985
:1004100042D0C218043A1578552D46D0C218053A74
:10042000117855294AD0C218063A1278552A4ED06A
:100430000133DBB22370642B0ED0F8BD092A1FD91B
:100440002F4F3F789742DAD1FF2232400133DBB29F
:10045000AA602370642BF0D16422002106F0E0F939
:1004600000232370E9E7264A12788A42CCD1254A34
:100470001278002A38D0244A11781E4A9160D7E7B2
:10048000224B00211A70642206F0CAF900221D4B8B
:100490001A7001232370D0E7194A1278AA42B8D102
:1004A0001B4A1178134A9160C2E7154A12788A42B2
:1004B000B4D1174A51780F4A9160B9E7104A1278BF
:1004C000AA42B0D1124A91780A4A9160B0E70C4A28
:1004D00012788A42ACD10E4B0021DA78054B9A6033
:1004E000642206F09DF9D4E70A4A1178014A916026
:1004F0009EE7C04600C003409A210020A4160020B9
:10050000C8960010D00D0020C9960010A12100202F
:1005100008170020CA9600101023304930B58A69A8
:10052000134220D101222E4B2E4C1A7025880F32F7
:10053000ADB210008B6918401A42FAD10A682A4BF2
:100540005A55238801339BB223808C2322889B0039
:100550009A4231D0214B5B68012B32D01F4B5B6834
:10056000082B26D030BD21498A691342FAD10122D5
:100570001F4B204C1A7023880F329DB201339BB25F
:10058000238010008B6918401A42FAD10A681A4B6E
:100590005A558C2322889B009A4219D0134B5B68D2
:1005A000012B17D0114B5B68082BDBD1134A13606A
:1005B000D8E7134A1360D5E7084B20805B68012B0E
:1005C000CCD10F4A1360054B5B68082BCAD1F0E70A
:1005D0002080E3E7094A1360E4E7C0460080034057
:1005E000A72100208C210020E00E002000400340C5
:1005F000A821002090210020101100200470034049
:1006000004B00340F0B585B004000E00170004F0FC
:10061000C1FAFA22050000232000E117920006F03B
:1006200043F80B0000210200029728000191009678
:1006300004F0B2FB05B0F0BDF0B587B003AC21000B
:100640002D4B020021CB21C11B880B80002A04D036
:100650000020012A2BD007B0F0BDA823274E23701D
:100660006821A73B00923000220008F08DFC642036
:10067000002104F0F5FC6423214D00272B8002E0CB
:10068000A3787F2B0DD90323220068213000009727
:1006900008F0E0FC0A20002104F0E2FC2B88002B8B
:1006A000EED1237860781B02C01880B2D3E788238C
:1006B000124E23702200873B68210090300008F022
:1006C00063FC6420002104F0CBFC64230C4D002764
:1006D0002B8002E0A3787F2BE3D90323220068213B
:1006E0003000009708F0B6FC0A20002104F0B8FCA6
:1006F0002B88002BEED1D4E7D8930010B00E002049
:1007000082210020F0B5DE4657464E464546E0B50C
:1007100085B006F0F5F9FA200121400105F078FADC
:10072000122003F0B3FC132003F0B0FC142003F0FC
:10073000ADFC152003F0AAFC1A2003F0A7FC1B2037
:1007400003F0A4FC192003F0A1FC072003F09EFC99
:10075000062003F09BFC162003F098FC0A2003F00F
:1007600095FCD02480232406DB0263629B46802311
:100770001B0363629A4680235B036362994680236E
:100780009B0363629846802780268023FF043605FA
:100790009B04676266626362802340218022DB03E0
:1007A0006262616263628023DB000D0000220A2026
:1007B000A3623F3903F058FC5846A0615046A0613F
:1007C00048468023A06140469B04A061A761A661C2
:1007D000A36180238022DB03A261AC49A561AC4AFE
:1007E000A361AC48FFF70EFF0A20AB4AAB49FFF705
:1007F00009FFFA2304275B001800A94AA949984673
:10080000FFF700FFA84EA949300008F073FB002253
:100810003000002108F098FB03210D2003F00CFCB0
:1008200003210C2003F008FCA14E002201210D2021
:1008300003F01AFC002201210C2003F015FC30000B
:100840009A4908F05DFC9B4B01211F60052003F0D5
:10085000F3FB0121032003F0EFFB0121042003F04F
:10086000EBFB0121022003F0E7FB01220021032022
:1008700003F0FAFB776112208F4903F001FD01219B
:10088000122003F0C5FC96218C4F0902380004F0B9
:100890008BFF0221092003F0CFFB0221082003F087
:1008A000CBFB9621864E0902300004F07DFF022129
:1008B000102003F0C1FB0221112003F0BDFBC02278
:1008C0003B6B1202944613407E4A602013607E49BF
:1008D0006E228946FB6A4D46434013400B6010234D
:1008E000F96A194029606546316B2940774D2960C6
:1008F000F16A41400A4076494B380A60F26A134077
:100900000B60744B19009A4603F0BAFC01211520C4
:1009100003F07EFC5023BB6399467B6B38276E4AFD
:100920003B4013605146142003F0AAFC012114201F
:1009300003F06EFC4B46B363736B684A1F40684B11
:10094000684E1F60002302921370674A3370137061
:10095000664A674913708023DB03636143460B805B
:100960000B889AB2002BFBD1624BD0271A80624BC6
:1009700080251A80614B624C1A80624B3F061A80B8
:10098000614BED031A000193604B1380604B1A001A
:100990000393604B1380604B9846604B9A46604BC4
:1009A0009B46604B00930023994605F027F9434688
:1009B0001B78002B20D12378002B22D13378002BF9
:1009C00032D15B464A467D611A7000F047F9002833
:1009D000EBD0009A1388022B39D102990B78002BA7
:1009E00046D04B460B70138001F06EFF05F006F900
:1009F00043461B78002BDED002F00EFB2378002B41
:100A0000DCD00020FFF718FE53461B8898420DD912
:100A1000C31A454A9BB293420DD9524610804A46AA
:100A200033782270002BCCD0BD61BEE71B1A3E4A42
:100A30009BB29342F1D8019B1B8883420AD90123C0
:100A40003370534618804B462370BD61ADE700F00C
:100A5000D3FFAAE73378002B0DD0039B1B8883427A
:100A60000DD24B463370534618804B462370A8E78F
:100A700001F0BCFA99E7524623701080A1E7534673
:100A800018804B462370BD618FE7C04609030010F4
:100A9000601600208813000048160020150300107F
:100AA00078160020C5030010B00E0020A0860100BB
:100AB00000C0034004E00340E10300100080034055
:100AC00000400340309003402C90034030500340DE
:100AD0002C5003401905001034900340A62100203B
:100AE00034500340A4210020A7210020A821002089
:100AF000882100208A2100208C2100208E210020C6
:100B0000A2210020902100209421002049320000E1
:100B1000962100202B380000A121002098210020E0
:100B2000A3210020862100208713000010B50400B7
:100B30000100044804F038FE2100034804F034FEAC
:100B400010BDC046008003400040034010B505F0D2
:100B500055F810BD08220C498B691A42FCD10B4B89
:100B600002229B5E834206D02021074A93691942E4
:100B7000FCD1106070472021034A93691942FCD1CF
:100B80000D231360F0E7C046008003406C21002075
:100B900008220C498B691A42FCD10B4B00229B5E48
:100BA000834206D02021074A93691942FCD1106084
:100BB00070472021034A93691942FCD10D23136029
:100BC000F0E7C046004003406C2100200E4B0F4A66
:100BD0001988128810B5914213D0198801244A1C33
:100BE00092B21A800A4A525C02708C2219889200D2
:100BF000914203D0FFF7AAFF200010BD00221A8007
:100C0000F8E70024F6E7C0468A2100208C21002066
:100C1000E00E00200E4B0F4A1988128810B5914241
:100C200013D0198801244A1C92B21A800A4A525CD5
:100C300002708C2219889200914203D0FFF786FF40
:100C4000200010BD00221A80F8E70024F6E7C04615
:100C50008E2100209021002010110020F0B5574671
:100C6000DE464E464546E0B589B006ABDF1D0023A3
:100C7000644A654D13709346644A3B701380F533A4
:100C8000FF332B80002300930193614B92469946DA
:100C9000604C614E2B88002B20D0228833889A42EA
:100CA0002CD02288531C9BB223804B469B5C22880D
:100CB00098463B708C239B009A4201D100232380ED
:100CC000FFF744FFFA235B002B804346102B5ED0D6
:100CD0000023009301932B88002BDED12B88002B5F
:100CE00003D15B461B78002B0BD1288880B209B05A
:100CF000F0BCBB46B246A946A046F0BDFFF726FFB2
:100D0000C8E7082245498B691A42FCD1444B0220AE
:100D1000185E102833D02021404A93691942FCD133
:100D20001023136008223D498B691A42FCD119280F
:100D30001DD02021394A93691942FCD1192313602F
:100D4000082236498B691A42FCD1012807D020219C
:100D5000324A93691942FCD101231360C5E720216F
:100D60002E4A93691942FCD10D231360EFE720212D
:100D70002A4A93691942FCD10D231360D9E7202137
:100D8000264A93691942FCD10D231360C3E7102250
:100D9000019B009810339BB20393030A21495340EF
:100DA0005B00CA5A03029BB25A4002910092228809
:100DB00033889A421BD02288531C9BB223804B4617
:100DC0009B5C228898463B708C239B009A4214D0EF
:100DD000FFF7BCFE4346132B26D0152B00D02AE18B
:100DE0002B88002B00D061E1039B019351E7FFF7B3
:100DF000ADFE2B88002BDAD1F6E700232380FFF726
:100E0000A5FEE7E7A52100208821002086210020FB
:100E1000E00E00208A2100208C2100200080034069
:100E20006C210020F09300102B88002BDCD00123D4
:100E3000524613801322019B009923339BB20393E4
:100E40000B0A53409BB2029A5B00D25A0B029BB230
:100E50005A400092228833889A4200D1E4E02288E6
:100E6000531C9BB223804B469B5C228898463B7068
:100E70008C239B009A4200D107E1FFF767FE4346AF
:100E8000FF2B00D151E3002B00D12B888C220021B5
:100E90009200484605F0C4FC01235A461370002313
:100EA0007F4A23803380083391690B42FCD17D4B0C
:100EB00002229B5E102B00D12FE32021784A9069FB
:100EC0000142FCD110211160082275498869024253
:100ED000FCD1212B00D118E32021714A90690142F5
:100EE000FCD121211160704A6D4811780822866971
:100EF0003242FCD1994200D1FFE22020684A966933
:100F00003042FCD111600822654988690242FCD157
:100F1000102B01D100F004FD2021614A90690142AB
:100F2000FCD11021116008225D4988690242FCD180
:100F30001A2B01D100F0D0FC2021594A90690142BE
:100F4000FCD11A2111600822554988690242FCD15E
:100F5000022B01D100F0D2FC2021514A90690142BC
:100F6000FCD10221116008224D4988690242FCD15E
:100F7000012B01D100F09EFC2021494A90690142D9
:100F8000FCD1012111600822454988690242FCD147
:100F9000182B01D100F0BBFC2021414A906901428D
:100FA000FCD11821116008223D4988690242FCD118
:100FB000102B01D100F087FC2021394A90690142B1
:100FC000FCD1102111600822354988690242FCD108
:100FD0001F2B01D100F089FC2021314A9069014288
:100FE000FCD11F21116008222D4988690242FCD1E1
:100FF000002B01D100F055FC2021294A0E009069F8
:1010000006400142FAD11660082225498869024249
:10101000FCD1742B00D13FE22022214B99690A4276
:10102000FCD174221A60DFE6FFF790FD2B88002BBD
:1010300000D00FE72AE7212B00D0D5E62B88002B24
:1010400000D1D1E6228833889A4218D02288531CD6
:101050009BB223804B469B5C228898463B708C2336
:101060009B009A4216D0FFF771FD01235A46137078
:1010700042460D4B1A70002303930093B4E6FFF72A
:1010800065FD2B88002BDDD1EFE700232380FFF7E0
:101090005DFDF4E600232380FFF758FDE5E7C04639
:1010A000008003406C210020AA2100206423152227
:1010B0002B80019B009925339BB203930B0A53406D
:1010C0009BB2029A5B00B046D65A0B029BB25E40BE
:1010D000434622881B889A4200D11BE12288531C78
:1010E0009BB223804B469B5C228800933B708C23F1
:1010F0009B009A4200D12EE1FFF728FD009AE52AD5
:1011000010D12B88002B0DD0019B0B33FF339BB2EA
:101110000393330A5A405300029AD25A33029BB2C5
:101120005A401600434622881B889A4200D1FFE0AD
:101130002288531C9BB223804B469B5C22880093E1
:101140003B708C239B009A4200D1FFE0FFF7FEFC2E
:10115000009BA22B00D1BDE1434622881B889A4206
:1011600000D1DEE02288531C9BB223804B469B5C5F
:10117000228800933B708C239B009A4200D1E0E0D0
:10118000FFF7E4FC009BFD2B00D8A7E52B88002B84
:1011900000D1A3E5009A0299944693B20593039B6C
:1011A00063449BB20393330A53405B00CB5A36022D
:1011B000B6B273400493C24BFE2A00D179E11A0003
:1011C0000193002346461370228833889A4200D147
:1011D000C6E02288531C9BB223804B469B5C22882E
:1011E00000933B708C239B009A4200D15CE1FFF797
:1011F000ADFC2B88002B00D170E5009904988C463B
:10120000030A029C4B405B00039EE45A03029BB21C
:1012100066445C408AB2AB4BB6B2002900D0FEE017
:10122000012100921970019B1B78002B00D1CFE0A7
:101230002B88002B00D151E53B78102B03D1DDE04A
:101240002B88002B04D03800FFF7C0FC0128F7D111
:101250002B88002B00D141E53A78230AB618534079
:10126000029A5B00D25A23029BB25A40019B14009F
:101270001B78B6B2002B00D196E02B88002B00D152
:101280002CE5019B1B78002B06D0009B102B03D074
:10129000E6E02B88002B04D03800FFF797FC0128EC
:1012A000F7D12B88002B00D118E53B78984602E057
:1012B0002B88002B04D03800FFF788FC0128F7D1D9
:1012C000019B1B782B88002B00D107E543463A7819
:1012D0001B029B189BB2B3420AD0A34208D0102035
:1012E000FFF738FC1920FFF735FC0620FFF732FC2A
:1012F0000A2003F0C9FE5B461B78002B00D0C0E03B
:101300001020FFF727FC1620FFF724FC022352468B
:101310001380E3E4FFF71AFC2B88002B00D0D7E6FC
:1013200000E7FFF713FC2B88002B00D014E729E718
:10133000FFF70CFC2B88002B00D0F3E63B780093E2
:1013400006E700232380FFF701FC1BE7002323802F
:10135000FFF7FCFBFCE600232380FFF7F7FBCDE65D
:10136000FFF7F4FB2B889AB2002B00D02CE72B88D8
:10137000002B00D1B2E4039B04999C4600980B0A11
:10138000029C43405B00E45A0B02059E9BB25C400A
:1013900001384C4B6644C0B2B6B21A7001F01EFD63
:1013A00041E72B88002B04D03800FFF70FFC012801
:1013B000F7D13A78230AB6185340029A5B00D35A01
:1013C0002402A4B2B6B25C4057E72B88002B04D0AD
:1013D0003800FFF7FBFB0128F7D13A783A4BB618F3
:1013E0001A70230A5340029A5B00D35A2402A4B213
:1013F000B6B25C401CE72B88002B04D03800FFF706
:10140000E5FB0128F7D13A78230AB6185340029A2F
:101410005B00D35A2402A4B2B6B25C4013E70022A8
:10142000481EC0B21A7001F0D9FC009B102B03D0EB
:10143000F9E62B88002B04D03800FFF7C7FB012802
:10144000F7D13A78230AB6185340029A5B00D35A70
:101450002402A4B2B6B25C40E5E62B88002B04D08F
:101460003800FFF7B3FB0128F7D13A78230AB61802
:101470005340029A5B00D35A2402A4B2B6B25C4035
:101480000AE71020FFF766FB2120FFF763FB0F4BF5
:101490001878FFF75FFB33E720220D4B99690A426A
:1014A000FCD10D221A60B7E500232380FFF74EFB25
:1014B0009FE61A00019301234646137084E6C04656
:1014C000A6210020A3210020A9210020AA2100207C
:1014D000008003402B88002B00D13DE6039B009A3F
:1014E000A2339BB20393330A5340029A5B00D25A51
:1014F00033029BB25A4016002EE62020D04A96694D
:101500003042FCD10D201060F7E42021CC4A9069D4
:101510000142FCD10D211160DEE42021C84A90690E
:101520000142FCD10D211160C7E42B88002B00D1B2
:10153000ACE4330046469846019B009A2333FF33C0
:101540009BB20393130A734002995B00CE5A1302B5
:101550009BB25E40434622881B889A4200D128E114
:101560002288531C9BB223804B469B5C22889A4660
:101570003B708C239B009A4200D177E1FFF7E6FA9B
:101580002B88002B01D1FFF7A9FB5246039B534444
:101590009BB20093330A5340029A5B00D25A330243
:1015A0009BB25A4053461600002B00D023E1A54BB6
:1015B000984601234246137002E02B88002B04D08A
:1015C0003800FFF703FB0128F7D12B88002B01D14E
:1015D000FFF784FB3A789C4B029901931A70009BA9
:1015E0009B189BB29A46330A53405B00C95A330298
:1015F0009BB259400E00102A03D13FE12B88002BEB
:1016000004D03800FFF7E2FA0128F7D12B88002B2D
:1016100001D1FFF763FB53463A789B189BB29A4679
:10162000330A5340029A5B00D25A33029BB25A40AB
:10163000160002E02B88002B04D03800FFF7C6FA12
:101640000128F7D12B88002B01D1FFF747FB534628
:101650003A789B189BB29A46330A5340029A5B0031
:10166000D35A3602B6B27340009302E02B88002BA7
:1016700004D03800FFF7AAFA0128F7D12B88002BF5
:1016800001D1FFF72BFB3E7802E02B88002B04D022
:101690003800FFF79BFA0128F7D12B88002B01D1E6
:1016A000FFF71CFB3A7833029B189BB29A4500D196
:1016B0003FE1009A02269A4209D01020FFF74AFA29
:1016C0001920FFF747FA0620FFF744FA00260A2000
:1016D00003F0DAFC5B461B78002B08D048465B49D8
:1016E0005B4A07F089FD2388033B9BB223800023DC
:1016F000584F3B8043461B78DAB2002B00D142E1C1
:10170000019B1B78FD2B01D0FFF7E8FA1020FFF7B3
:1017100021FA012E00D10EE14F4B1A203B80FFF73A
:1017200019FA4E4B02203B80FFF714FA4C4B9E24D3
:101730003B804C4BE4011E88F0B2FFF70BFADD232F
:10174000300A029A43405B00D35AC0B25C403C80EE
:10175000F6B2FFF7FFF9230A7340029E5B00F35ACB
:1017600024025C40A4B210203C80FFF7F3F9102360
:10177000220A53405B00F35A24025C40A4B21F20AB
:101780003C80FFF7E7F91F22230A5A405200230248
:10179000B45A5C40A4B2200A3C80FFF7DBF9E0B207
:1017A000FFF7D8F9002342461370019A1370FFF730
:1017B00095FAFFF7CBF92B889AB2002B00D0C9E637
:1017C0002B88002B01D1FFF789FA2749019B8C4612
:1017D00063449BB20093FF23310A4B4002995B00A4
:1017E000CB5A3602B6B25E40164BFE2098461A70AF
:1017F00001F0F4FAE4E6134B9846002342461370D6
:101800005346581EC0B201F0E9FA5346102B03D0DC
:10181000D6E62B88002B04D03800FFF7D7F9012833
:10182000F7D13A78009B9B189BB20093330A534040
:10183000029A5B00D35A3602B6B25E40C0E6C0469A
:1018400000800340A3210020A9210020E30E0020F6
:101850002D020000842100206380FFFF5C600000F7
:101860004FDDFFFF92210020210200000023238092
:10187000FFF76CF984E62B88002B04D03800FFF7C3
:10188000A5F90128F7D153463A789B189BB29A469E
:10189000330A5340029A5B00D35A3602B6B25E4016
:1018A000AFE62021524A90690142FCD10D2111601E
:1018B000FFF7A2FB20214E4A90690142FCD10D2185
:1018C0001160FFF759FB2021494A90690142FCD180
:1018D0000D211160FFF770FB2021454A90690142FC
:1018E000FCD10D211160FFF727FB2021404A9069B0
:1018F0000142FCD10D211160FFF76EFB20213C4A13
:1019000090690142FCD10D211160FFF725FB2021D8
:10191000374A90690142FCD10D211160FFF73CFB71
:101920002021334A90690142FCD10D211160FFF75B
:10193000F3FA0126CBE60F361A203E80FFF70AF9AC
:101940002A2302203B80FFF705F92C233B80294BFB
:101950001B889946D8B2FFF7FDF84B46180A0400D9
:10196000C0B22C343C80FFF7F5F84B46DBB2E418EC
:1019700030003C80FFF7EEF8A3191F203B802F3486
:10198000FFF7E8F807E790464B462200A946444691
:101990001D00904618E0A31E012B13D9042C02D180
:1019A000EB78102B0ED0285DFFF7F2F8012E1AD03D
:1019B0003A88295D130A4B4002995B00CB5A120208
:1019C00053403B800134A4B243461B88023B9C42F7
:1019D000E1DB3C884D46200AFFF7DAF8E0B2FFF77A
:1019E000D7F8FFF77BF93A882B5D9B183B80E9E736
:1019F0000080034092210020F0B54546DE46574660
:101A00004E46E0B5B54D83B02B88002B00D17EE269
:101A10008C239B0099460023B14C9A46B14EB24F9D
:101A200011E02288531C9BB22380BB5C984623881C
:101A30004B4500D190E0FFF789F84346102B30D09A
:101A40002B88002B08D0228833889A42E9D1FFF7EF
:101A50007DF82B88002BF6D12B88002B00D1DEE0FF
:101A60008C22002400219200A04804F0D9FE8C2290
:101A70009F4B00211C809F4B380092001C8004F07B
:101A8000CFFE34803480288880B203B0F0BCBB46DF
:101A9000B246A946A046F0BDFFF758F82B88002BA8
:101AA000CED0228833889A42F6D02288531C9BB22B
:101AB0002380BB5C984623884B4552D0FFF746F8FD
:101AC00043461A2B58D0192BBAD1228833889A4210
:101AD00000D19BE02288531C9BB22380BB5C2288F0
:101AE00098468C239B009A4200D112E1FFF72EF812
:101AF000434640460821804CA2691142FCD17F4AEE
:101B00000221525E9446102A00D132E220247A4902
:101B10008A691442FCD110220A600821764CA2691D
:101B20001142FCD16246192A00D132E220247249C6
:101B30008A691442FCD119220A6008216E4CA269FC
:101B40001142FCD19C4500D11BE220216A4A9369D5
:101B50001942FCD110607FE753462380FEF7F6FF61
:101B60006BE753462380FEF7F1FFA9E7FEF7EEFF90
:101B70002B88002B00D192E1228833889A42F5D03D
:101B80002288531C9BB22380BB5C228898468C23FE
:101B90009B009A4200D1B7E0FEF7D8FF42460732D9
:101BA0004346019242469BB2002A00D17BE1013BB1
:101BB0009BB29A468C239B00994600239B4617E0D4
:101BC0002288531C9BB22380BB5C984623884B45DC
:101BD00000D16BE1FEF7BAFF4346102B00D1D4E0F1
:101BE00053465246013B9BB2002A00D1E7E09A4699
:101BF0002B88002B00D1E2E0228833889A42DFD183
:101C0000FEF7A4FF2B88002BF6D1E5E7FEF79EFF39
:101C10002B88002B00D058E7192019336AE7384A7F
:101C2000354913780133137008228B691A42FCD1AD
:101C3000324B02229A5E102A00D199E020202E49D0
:101C40008B691842FCD110230B6008212A48836954
:101C50001942FCD1212A00D182E0202026498B693B
:101C60001842FCD121230B600821264B22481C7806
:101C700083691942FCD194426AD020201E498B69A5
:101C80001842FCD10C6008211B4883691942FCD121
:101C9000102A55D0202018498B691842FCD11023F6
:101CA0000B600821144883691942FCD1192A3FD0DE
:101CB000202011498B691842FCD119230B6008219F
:101CC0000D4883691942FCD1822A29D020210A4A71
:101CD00093691942FCD182231360C1E68821002058
:101CE0008E2100209021002010110020E00E002005
:101CF0008A2100208C210020008003406C210020DC
:101D0000B0210020AA21002000232380FEF71EFF1F
:101D100044E700232380FEF719FF43464046E9E6E7
:101D20002021AC4A93691942FCD10D231360CDE701
:101D30002020A8498B691842FCD10D230B60B7E71E
:101D40002020A4498B691842FCD10D230B60A1E728
:101D50002020A0498B691842FCD10D230B608CE731
:101D600020209C498B691842FCD10D230B6074E73D
:101D7000202098498B691842FCD10D230B605DE748
:101D8000FEF7E4FE2B88002B0FD0228833889A427E
:101D9000F6D02288531C9BB22380BB5C98462388D4
:101DA0004B4500D19AE0FEF7D1FE019B01339BB277
:101DB000019315E7FEF7CAFE2B88002B0FD022886F
:101DC00033889A42F6D0238801339BB223808C2338
:101DD00022889B009A4200D185E0FEF7B7FE228858
:101DE00033889A426DD0238801339BB223808C23A1
:101DF00022889B009A4200D17FE0FEF7A7FE22884E
:101E000033889A4257D0238801339BB223808C2396
:101E100022889B009A426BD0FEF798FE2288338876
:101E20009A4255D0238801339BB223808C23228889
:101E30009B009A4266D0FEF789FE674B1B78002B09
:101E400068D13488019BE41AA4B29C4200D303E613
:101E5000624B082002229B5E0D2220219246994669
:101E60003B199C465B4B6246127890469A69104239
:101E7000FCD1C1450DD09A691142FCD142461A608D
:101E8000012290460134019AA4B2C4449442EAD19A
:101E9000E2E59A691142FCD152461A60EBE7213320
:101EA0000193073B83E60723019388E75B46238082
:101EB000FEF74CFE90E6FEF749FE2B88002B9ED1E4
:101EC000ACE7FEF743FE2B88002B00D087E796E7B0
:101ED000FEF73CFE2B88002BA0D1AEE75B462380AB
:101EE000FEF734FE61E700232380FEF72FFE76E73E
:101EF00000232380FEF72AFE90E700232380FEF7CD
:101F000025FE7CE700232380FEF720FE95E7344E74
:101F1000344FA1E508222F498B691A42FCD12F4B7F
:101F20000220185E10283CD020212A4A93691942C9
:101F3000FCD110231360082226498B691A42FCD178
:101F400021283ED02021234A93691942FCD1212324
:101F500013600822244B1F491C788B691A42FCD15C
:101F6000844226D020211B4A93691942FCD1146077
:101F700067E7202417498A691442FCD10D220A60C0
:101F8000C4E52021134A93691942FCD10D23136043
:101F9000DBE520240F498A691442FCD10D220A6036
:101FA000C4E520210B4B9A691142FCD10D221A6025
:101FB000BAE72021074B9A691142FCD10D221A6021
:101FC000D0E72021034B9A691142FCD10D221A60FF
:101FD000B8E7C04600800340A52100206C21002006
:101FE0009021002010110020AA210020F0B55746B2
:101FF0004E464546DE460023E0B591B00EAAD371A9
:10200000059306930793A04BA04C9946A04B4E46D0
:102010009A46A04BA04F0393A04B0193A04B029371
:102020008C239B0098469F4B049353460093FA23BE
:102030005B00994600239A463B88002B00D1C3E001
:10204000228833889A4200D1B8E02288531C9BB280
:102050002380009B9D5C0EABDD712388434500D13E
:10206000D3E0FEF773FD4B463B80102DE4D11022E8
:102070003388069B059910339BB208930B0A534093
:10208000049A5B00D25A0B029BB25A4005922288F6
:1020900033889A4200D1C2E02288531C9BB223802D
:1020A000009B9B5C99464A460EABDA7123884345F8
:1020B00000D1BDE0FEF74AFD4B461A2B00D0B4E03C
:1020C0003B88002B00D1B0E01A22069B05992A33E9
:1020D0009BB29B460B0A53409BB2049A5B00D25AB8
:1020E0000B029BB25A409246228833889A4200D112
:1020F00086E12288531C9BB22380009B9B5C9946FF
:102100004A460EABDA712388434500D1B7E1FEF7AA
:102110001DFDCB445B469BB29B4653464A461B0A79
:102120005340049A5B00D25A53461B029BB25A405A
:102130004B460733DBB209934B469246002B00D146
:10214000B2E04B46013BDBB20593009B994625E08C
:102150002288531C9BB223804B469D5C0EABDD71E5
:102160002388434500D13DE1FEF7F0FC5B465B1957
:102170009BB29B4653461B0A049A6B405B00D25AA3
:1021800053461B029BB25A409246102D55D0059AD9
:10219000531EDBB2002A00D188E005933B88002B58
:1021A00000D183E0228833889A42D1D1FEF7CEFC59
:1021B0003B88002BF6D10EABDD79D7E7FEF7C6FCE6
:1021C0003B88002B00D03BE7009BB1469A468C220F
:1021D00000215046920004F023FB8C2200254B4640
:1021E00000210398920025801D8004F019FB019BBB
:1021F0001D80029B1D803B88388880B211B0F0BCE6
:10220000BB46B246A946A046F0BD53462380FEF722
:102210009DFC4B463B80102D00D00DE727E7FEF7D5
:1022200095FC3B88002B00D031E7089B0693FEE627
:1022300000232380FEF78AFC3EE7228833889A42F7
:1022400000D1D4E02288531C9BB223804B469D5C76
:102250000EABDD712388434500D103E1FEF776FC28
:10226000ABB25B449BB29B4653461B0A049A6B403D
:102270005B00D25A53461B029BB25A40099B9246BE
:102280000133DBB2099382E78C2100208A210020F0
:10229000E00E002010110020882100208E21002057
:1022A00090210020F093001007330993228833888F
:1022B0009A4200D1C5E02288531C9BB22380009B28
:1022C0009B5C99464A460EABDA712388434500D1A0
:1022D000E1E0FEF73BFC4B469BB21D0053464A46ED
:1022E0001B0A5340049A5B00D25A53461B029BB20E
:1022F0005A409246228833889A4200D199E0228837
:10230000531C9BB22380009B9B5C99464A460EABB4
:10231000DA712388434500D1B6E0FEF717FC4B463F
:102320009AB22B005B449B189BB2089353464A46D3
:102330001B0A5340049A5B00D25A53461B029BB2BD
:102340005A400592228833889A4200D183E022883D
:10235000531C9BB22380009B9B5C99464A460EAB64
:10236000DA712388434500D19AE0FEF7EFFB3B8802
:10237000002B00D159E7228833889A4200D177E0B8
:102380002288531C9BB22380009B9B5C0EAAD371B6
:102390002388434500D188E0FEF7D8FB3B88002B1B
:1023A00000D187E04B460EAAD2791B029B18089AEF
:1023B0009BB29A4200D1C8E0059A9A4200D1C1E08E
:1023C000009BB1469A46C44B1B78002B00D0AEE070
:1023D0001020FEF7BFFB1920FEF7BCFB0620FEF71E
:1023E000B9FBF4E600232380FEF7B0FBBEE6FEF760
:1023F000ADFB3B88002B00D01FE71025103330E7E2
:10240000FEF7A4FB3B88002B00D06DE6069B1A224A
:1024100044339BB29B4653461B0A5340049A5B00CD
:10242000D25A53461B029BB253409A46212309932A
:1024300087E6FEF78BFB3B88002B00D05AE72A008B
:102440006FE7FEF783FB3B88002B00D02EE70EAB37
:10245000DB7999463FE7FEF779FB3B88002B00D0FC
:1024600070E784E700232380FEF770FBABB2F8E649
:10247000FEF76CFB3B88002B00D07CE78EE7002347
:102480002380FEF763FB44E600232380FEF75EFB18
:102490004B469AB245E700232380FEF757FB1AE725
:1024A00000232380FEF752FB61E700232380FEF721
:1024B0004DFB73E7079B002B00D185E6864B069307
:1024C0001B78002B00D00323994609339A46009BC2
:1024D0001B78FF2B07D1534601339BB29A464B46DC
:1024E00001339BB299467D4B9B4600235A4613808D
:1024F0007B4B1B78002B44D0009B10209A46FEF7A4
:1025000029FB1620FEF726FB764DB1462B78FB2BD8
:102510002DD02B78FC2B1BD0FD2B00D057E653463B
:10252000997BDB7B704A1B020B4313804FE6102024
:10253000FEF710FB2120FEF70DFB6C4B1878FEF721
:1025400009FB45E702230793B8E701230793B5E7A3
:1025500053469B7B502B69D0D02380221B06D2038D
:102560005A61C8233B803B88002BFCD12FE65346A1
:102570009B7B022B63D85E4A5B00985AFEF7D6FA23
:10258000C7E74B4604330B934B4605330C934B463E
:1025900006330A93009B55461A004A440D922200C6
:1025A000B2464C465E469146BB461F001CE0FB5CB3
:1025B000102B2CD0385D102801D10135ADB2FEF7BB
:1025C000E7FA079B012B3DD00A993288795C130A00
:1025D0004B4004995B00CB5A120253403380631C7A
:1025E0009BB29D4234D91C000B9B9C42F7D00C9BA4
:1025F0009C42F4D00A9A9442D9D0385DFEF7C8FACA
:10260000079B012B0AD03288395D130AE0E70D9B46
:10261000DB79102B07D00135ADB2E0E732883B5DA6
:102620009B183380DBE70235ADB2D8E7D0231B0619
:102630005A68520595D58022D2039A6191E7962077
:1026400000029BE70A9B3288FB5C9B183380C6E73D
:102650004B46A1461C0000235F46B346019A5646EE
:102660001380029A13805B461B889A46180AFEF76D
:102670008FFA5346D8B2FEF78BFA0199029B0A886B
:102680001B889A421DD00A88531C9BB20B80039B67
:102690009B5C0EAAD3710B88434518D0FEF756FAFF
:1026A0003B88002B31D1069B1B78002B22D11020B8
:1026B000FEF750FA1920FEF74DFA0C20FEF74AFA01
:1026C000B3E5FEF743FA3B88002BD6D1E8E70023B9
:1026D0000B80FEF73BFAE3E7A521002084210020D0
:1026E000A3210020A921002092210020AA2100205E
:1026F000F09500101020FEF72DFA2120FEF72AFA9F
:10270000704B1878FEF726FAD1E7009B4D469A46A3
:102710000EABDB79B146102B10D0069B1B78002B3B
:1027200029D11020FEF716FA1920FEF713FA82209D
:10273000FEF710FA4BE53B88002B05D00EABD81DF9
:10274000FEF768FA0128F6D13B88002B1ED00EABAD
:10275000DB79162B56D0192B3FD0069B1B78002B0C
:1027600022D11020FEF7F6F91920FEF7F3F909201F
:10277000FEF7F0F92BE51020FEF7ECF92120FEF72B
:10278000E9F9504B1878FEF7E5F9CAE7069B1B7884
:10279000002B14D11020FEF7DDF91920FEF7DAF92D
:1027A0000C20FEF7D7F912E51020FEF7D3F921200F
:1027B000FEF7D0F9434B1878FEF7CCF9D1E710209B
:1027C000FEF7C8F92120FEF7C5F93E4B1878FEF751
:1027D000C1F9DFE73B88002B05D00EABD81DFEF713
:1027E00019FA0128F6D1069B1B78002B4AD110203C
:1027F000FEF7B0F91920FEF7ADF90EABD879FEF768
:10280000A9F9E4E4099B0335ADB2EE1805E053469F
:10281000585DFEF7BDF90135ADB2B542F7DBFA23DD
:102820009B003B8002E03B88002B05D00EABD81DFF
:10283000FEF7F0F90128F6D13B88002BA6D00EABAD
:10284000DB79102B89D102E03B88002B05D00EAB41
:10285000D81DFEF7DFF90128F6D13B88002B95D073
:102860000EABDB79162B18D0192B00D075E702E0E0
:102870003B88002BB7D00EABD81DFEF7CBF9012853
:10288000F6D1B0E71020FEF765F92120FEF762F9D6
:102890000C4B1878FEF75EF9A9E7069B1B78002B16
:1028A00009D01020FEF756F92120FEF753F9054B09
:1028B0001878FEF74FF91020FEF74CF91620FEF7B6
:1028C00049F984E4AA210020F0B557464546DE4682
:1028D0004E46E0B5B74FB84D3B7A83B0103B5A42F5
:1028E00053412A881433002A00D1F3E00821B34869
:1028F00082691142FCD1B24A00920221515E102934
:1029000000D14FE12024AD4882691442FCD110224D
:1029100002600820A94CA2691042FCD1212900D1F3
:102920005EE12024A54882691442FCD12122026084
:102930000820A44AA14C1678A2691042FCD18E420C
:1029400000D155E120249D4882691442FCD10660E3
:1029500008209A4CA2691042FCD1102900D14FE105
:102960002024964882691442FCD11022026008207B
:10297000924CA2691042FCD1162900D148E12020D6
:102980008E498A691042FCD116228F4E0A6002E0FD
:102990002A88002A02D032889A42F9D100238B4C2F
:1029A00023803380F533FF332B80228833889A428B
:1029B00029D02288531C9BB22380BB5C2288984676
:1029C0008C239B009A4224D0FEF7C0F84346502B3C
:1029D00026D07F4B9B467F4B99468C2200213800A6
:1029E000920003F01DFF00235A462380338013809A
:1029F0004A461380288880B203B0F0BCBB46B2467A
:102A0000A946A046F0BDFEF7A1F82B88002BCCD13B
:102A1000DFE700232380FEF799F84346502BD8D1F7
:102A20008C2200219200380003F0FAFE0023684A4D
:102A30002380934633801380664A6749914613800A
:102A400008228B691A42FCD1009B00229B5E502B0E
:102A500000D114E12021604A93691942FCD150232E
:102A600013604A4602E02B88002B02D01388002B0B
:102A7000F9D02B889146002B00D008E1574B0193E9
:102A8000019BBA461B78422BA7D18C27BF0010E0D0
:102A90002288531C9BB2238053469B5C9846238814
:102AA000BB4200D1E4E0FEF751F82B88002B00D0A8
:102AB00001E12B88002B00D1DFE04B4600221A8079
:102AC000228833889A42E3D1FEF740F82B88002B06
:102AD000F6D1EAE7082239498B691A42FCD1384B12
:102AE00002229A5E102A00D19AE0202033498B6995
:102AF0001842FCD110230B60082130488369194229
:102B0000FCD1212A00D193E020202C498B69184266
:102B1000FCD121230B6008212A4B28481C788369AB
:102B20001942FCD1944200D18AE0202023498B69CC
:102B30001842FCD10C600821204883691942FCD15D
:102B4000102A00D184E020201C498B691842FCD156
:102B500010230B600821194883691942FCD1192AF6
:102B600000D17DE0202015498B691842FCD1192342
:102B70000B600821114883691942FCD1822A09D0CF
:102B800020210E4A93691942FCD182230E4E0F4C2C
:102B900013601EE72021094A93691942FCD10D23D5
:102BA0001360EDE72024054882691442FCD10D2210
:102BB0000260A7E6E00E002088210020008003408C
:102BC0006C210020AA2100208C2100208A210020D5
:102BD0008E21002090210020004003401011002091
:102BE00020245E4882691442FCD10D22026098E6DE
:102BF00020245A4882691442FCD10D220260A1E6C9
:102C00002024564882691442FCD10D220260A7E6B6
:102C1000202052498A691042FCD10D220A60AEE69A
:102C200020204E498B691842FCD10D230B605CE7D4
:102C300020204A498B691842FCD10D230B6063E7C1
:102C4000202046498B691842FCD10D230B606CE7AC
:102C5000202042498B691842FCD10D230B6072E79A
:102C600020203E498B691842FCD10D230B6079E787
:102C700000232380FDF76AFF17E75746ADE62021C2
:102C8000374A93691942FCD10D231360E2E608220A
:102C9000344B3249187801938B691A42FCD1009B5E
:102CA00002229B5E834240D020212C4A9369194224
:102CB000FCD11060E4E64346FF2BDED00822284911
:102CC0008B691A42FCD1009B00229B5E434534D0A5
:102CD0002021234A93691942FCD1434613600A2BF1
:102CE00000D0E6E64A4602E02B88002B02D013888B
:102CF000002BF9D02B889146002BBED0019B1749A1
:102D00001A78082388690342FCD1009B02215B5E8C
:102D100093421AD02021114B98690142FCD11A60CC
:102D2000C8232B80FDF712FFAFE620210B4A9369E1
:102D30001942FCD10D231360B6E72021084A93699C
:102D40001942FCD10D231360C2E72021034B98697F
:102D50000142FCD10D211960DCE7C0460080034030
:102D600000400340101100200023194A10B5194CEF
:102D70001380118823881848994208D30BE01388E0
:102D800001339BB2138011882388994203D21388A0
:102D9000C35C102BF3D11388C118C35C102B07D070
:102DA0001388C118C35C102B0AD00920238810BDDA
:102DB0004B78162BF4D1238801209BB21380F5E7C2
:102DC0004B78192BF1D1238802209BB21380EDE7B9
:102DD0008E2100209021002010110020D022120608
:102DE000536800B55B0506D5172800D9FDE0884B70
:102DF00080001B589F46172800D9F6E0854B8000BD
:102E00001B589F46D02380221B0652035A61802202
:102E100012035A618022D2025A61802292039A617F
:102E20008022D2049A61802212055A6100BDD0230B
:102E300080221B0652035A61802212035A618022AB
:102E4000D2025A61802292039A618022D2045A618E
:102E5000802212059A61E9E7D02380221B065203E3
:102E60005A61802212035A618022D2029A61E9E7F4
:102E7000D02380221B0652035A61802212039A61DA
:102E8000DDE7D02380221B0652035A618022120301
:102E90009A618022D2029A61D4E7D02380221B0655
:102EA00052039A61802212035A618022D2029A61EF
:102EB000B3E7D02380221B0652035A61F2E7D023E6
:102EC00080221B0652039A61B6E7D02380221B069C
:102ED00052039A61C5E7D02380221B0652039A61F0
:102EE000802212039A61AAE7D02380221B06520394
:102EF0009A61CBE7D02380221B0652039A6180227D
:102F000012039A6186E7D02380221B0652035A617E
:102F1000802212039A617DE7D02380221B06520390
:102F20005A61802212035A618022D2025A618022A1
:102F300092035A618022D2049A61802212059A611A
:102F400074E7D02380221B0652035A6180221203A9
:102F50005A618022D2029A61E9E7D02380221B06BF
:102F600052035A61802212039A61DDE7D023802246
:102F70001B0652035A61802212039A618022D202F8
:102F80009A61D4E7D02380221B0652039A618022E3
:102F900012039A618022D2029A613EE7D0238022F6
:102FA0001B0652035A61F2E7D02380221B0652030C
:102FB0009A61802212035A61B6E7D02380221B0651
:102FC00052039A61C2E7D02380221B0652039A6102
:102FD000C8E7D02380221B0652039A61CBE7D02397
:102FE00080221B0652039A6111E780235B039361E1
:102FF00080231B0393618023DB02936180239B0367
:1030000093618023DB04936180231B0593610DE7AB
:10301000F895001058960010F0B5DE4657464E461B
:103020004546E0B5AD4C1422A5440024002117A864
:103030001594169403F0F4FBA94B13931B78012B02
:103040001AD0022B00D17BE0042B00D129E2082BFF
:1030500000D172E0A34B12930123129A1370002344
:10306000139A1370FDF772FD9F4B9D44F0BCBB4655
:10307000B246A946A046F0BD9A4B9C4A1C701293DA
:103080009B4B14601C808025D024ED0324060F92F6
:1030900000936420A56101F0F7FF6561C82001F08D
:1030A000F3FF002200279146924ABA469046009DBF
:1030B0005346DEB23000FFF791FE0A2001F0E4FF34
:1030C0004B4600242B800120FDF7B6FA03B2DB4308
:1030D000DB1718402880642001F0D6FF2B880134CC
:1030E000E4B2002B20D1052CEDD1FDF72FFD2B886C
:1030F000642B1DD90123524693401F43FF224146B2
:103100003B0C12023A400B401343FAB21204013650
:10311000134336060F9A3343136001239C46E2445F
:103120005346182BC4D197E7052CDED0642BE1D889
:103130000123524693409F43E0E76C4B1C6089E7B4
:103140008C22684B92001C701293684B00210F93E5
:103150001C601CAB18009B461594169403F060FB92
:10316000634B14AA00935C805C601C81002398462A
:103170000193614B94469A46604B57469946604B83
:103180004D460A93C723634409935E4B5E4E0293F8
:103190006B461B799A4600233B802B80FDF7D6FCBB
:1031A0005046FFF71BFE0A2001F06EFF0A9B20210C
:1031B0001800564ADC1D93691942FCD1037801308E
:1031C0001360A042F7D164233380328893B2002A7F
:1031D000FBD12A8894B2002A25D00020AC46B14603
:1031E00025005E4604004A4A039706E0D018005DB9
:1031F00001339BB270549D4211D9D05C1900102844
:10320000F4D1D0184778102FF0D101339BB2005D74
:10321000013301349BB2E4B270549D42EDD8B34601
:1032200065464E46039F09995C464A780B78120220
:103230001A438B78C8781B041343000618435A4678
:10324000AB235946D35CAC228A5CAD2112021343F6
:103250009C46AE225B46615C16909A5C634609040C
:1032600012060B4313432B491593059303F053FAAE
:1032700003F080FA83B20922049364230298338016
:1032800094460300002463443C8099462C8020210E
:1032900004001E4A93691942FCD10378013013607F
:1032A0004845F7D102E03388002B04D03B882A88B8
:1032B00001339342F7DAFFF757FD012800D1BFE051
:1032C00000232021114A3B802B8093691942FCD1B5
:1032D000237801341360A145F7D120E02CFBFFFFD8
:1032E000A1210020D00D0020D404000008170020E8
:1032F00090160020FF00FFFF8E210020902100206B
:10330000EC960010CC96001088210020004003406D
:103310001011002000007A443388002B04D03B8831
:103320002A8801339342F7DAFFF71EFD012857D0B0
:10333000009BDB889946009B588802F097FECB4A99
:10334000CB4B02F064FE02F0A9FE009B84B29C808D
:10335000484602F08BFEC74AC74B02F058FE02F007
:103360009DFE009B82B21A819146049A13000A3B8B
:10337000A3422EDC14339C422BDCC049059803F099
:10338000CAF903F0F7F980B203000A3B4B4520DC91
:103390000A3081451DDC0123019A934042461A43BD
:1033A0009046FF22434612021A401B0241461B0E62
:1033B00013435246C9B20904013212060B431343A8
:1033C0000F9A1360019B01330193182B00D0DFE6A5
:1033D00042E60123019A934042469A439046E0E731
:1033E0003388002BA4D0A648002304002021A54A3E
:1033F0003B8008342B8093691942FCD1037801305B
:1034000013608442F7D102E03388002B04D03B885C
:103410002A8801339342F7DAFFF7A6FC012801D18D
:1034200000F0B7FD14AB188A5B8A0321C01814ABF7
:103430009B8AC01802F088FD009B8146D8807AE7FD
:103440003388002B00D13BE700233B802B800833DF
:103450009C4620218C488B4A844493691942FCD1B4
:103460000378013013608445F7D102E03388002BE4
:1034700004D03B882A8801339342F7DAFFF774FCC3
:10348000012801D100F0A3FD14AB188A5B8A032147
:10349000C01814AB9B8AC01802F056FD009B5880E0
:1034A0000EE78C22794B00211C701293784B92000E
:1034B0000F931C601CAB18009B461594169403F0E8
:1034C000AFF98C2200219200A8A803F0A9F90023EB
:1034D000109311936F4B14AA00936F4B94469A4626
:1034E0006E4B6F4E99466F4B4F460A93C72363440A
:1034F00009936D4B02936D4B0E935B46D3469A46F0
:103500006B4640229B181B780B93052304930023E2
:103510005A461380009A3B8053609360D360538077
:103520001382FDF713FB0B98FFF758FC0A2001F0FC
:10353000ABFD0A9B20211800524ADC1D93691942F9
:10354000FCD10378013013608442F7D164233380C7
:10355000328893B2002AFBD13A88002190B2002A27
:1035600020D0B446B94656460E9A06E0D5186D5C92
:1035700001339BB23555984211D9D55C1C00102DF2
:10358000F4D1D5186F78102FF0D101339BB26D5C58
:10359000013301319BB2C9B235559842EDD8B246DC
:1035A0004F466646099900254A780B7812021A435D
:1035B0008B78C8781B041343000652461843AB238C
:1035C000D45C0133D35C51461B02AD221C43AE23B5
:1035D0008A5C1690CB5C120414431B061C432749DB
:1035E000159403F098F803F0C5F8244983B2201C21
:1035F000059303F090F803F0BDF883B208936423B9
:1036000002980922844633805B4620216244914619
:103610001C4A1D800D903D8093691942FCD10378AE
:10362000013013608145F7D1594602E03388002B01
:1036300004D00B883A8801339342F7DA8B46FFF7C0
:1036400093FB012800D149E300235A46202113802F
:1036500002980C4A3B8093691942FCD103780130EF
:1036600013608145F7D1594625E0C04660E5D02278
:10367000DB792340D9CEF753E3A5224000007A44FA
:10368000E49600100040034004970010D00D002085
:1036900008170020901600208E2100209021002085
:1036A00088210020EC960010CC960010101100200C
:1036B0003388002B04D00B883A8801339342F7DA21
:1036C0008B46FFF751FB012800D143E3009BDD88C7
:1036D000588802F0CBFCBB4ABB4B02F098FC02F0CE
:1036E000DDFC009B84B29C80280002F0BFFCB74A3E
:1036F000B74B02F08CFC02F0D1FC009B80B2188129
:10370000059B1A000A3A0C92A2420BDC0A339C4237
:1037100008DC089A13000A3B834203DC0A32904219
:1037200000DC80E38C2200219200504603F078F800
:103730008C2200219200A8A803F072F800235A46B8
:103740002021A4481380A44A3B80C41D93691942D8
:10375000FCD10378013013608442F7D164233380B5
:1037600033889DB2002BFBD13B889CB2002B26D026
:103770000020AC46B0462500002304005646974A78
:10378000019706E0D018005D01339BB270549D4252
:1037900011D9D05C19001028F4D1D0184778102F17
:1037A000F0D101339BB2005D013301349BB2E4B22E
:1037B00070549D42EDD8B24665464646019F64234B
:1037C0005A4633800023202113800298824A3B808E
:1037D00093691942FCD10378013013608145F7D118
:1037E000594602E03388002B04D00B883A88013315
:1037F0009342F7DA8B46FFF7B7FA012800D1DCE2F3
:1038000064235A4633800023138020220298724991
:103810003B8014008B691C401A42FAD103780130B6
:103820000B608145F5D1594602E03388002B04D066
:103830000B883A8801339342F7DA8B46FFF794FA04
:10384000012800D114E1009BDB890193009B58897A
:1038500002F00CFC624A634B02F0D9FB02F01EFC42
:10386000009B82B29A810198904602F0FFFB5E4A6B
:103870005E4B02F0CCFB02F011FC009B82B21A827C
:103880004046019202F04EFF594902F030FF804657
:103890000390019802F046FF554902F028FF514677
:1038A000020E8A72020C03004A724246CB71130E5A
:1038B0008B71130C4B71130A0B716B461B7B000A47
:1038C000CB7098468B78087206938978032203910F
:1038D000A8A8514602F0AAFF03990023002900D1AD
:1038E0009DE2AC46504645460191B04607970EE032
:1038F000942105198900ED7814AF7F1801340199DE
:10390000BD54A2B2914218D9C2181219D578E21842
:103910001E000332102DEBD1942614A9B60089198C
:103920008D540133A8AADBB21219D21801340199BF
:10393000D570A2B21E009142E6D8310065464646D7
:103940008246079F9BB2069A942403325218102194
:10395000A40014A800198154A8A98C461F21039C17
:1039600062440534E4185170E04661460023A4B275
:103970000A780133AD189BB2ADB201319C42F7D148
:10398000942114AA890052182B0A1355A8AB1B19AD
:103990005D7064235A463380002313803B800933D3
:1039A0009C46202213480C49844415008B691D4015
:1039B0001A42FAD1037801300B606045F5D15946BF
:1039C0001DE0C04660E5D022DB792340D9CEF75315
:1039D000E3A52240F496001000400340101100209F
:1039E0005EBA490C022B2440E7FBA9F1D28D22409C
:1039F00000007A44D89600103388002B04D00B883E
:103A00003A8801339342F7DA8B46FFF7ADF9012884
:103A100062D0049B013BDBB20493002B00D076E51F
:103A2000009B9A880C9B934204DC059B0A339A42C4
:103A300000DCF6E10123109A9340119A9A43110099
:103A40001192FF230A021B020B40120E1A430B9B1A
:103A5000C9B2090401330A431B0613430F9A1360CA
:103A6000109B01331093182B00D049E5FFF7F4FAAF
:103A70003388002B00D1E6E600235A4613803B80B2
:103A800008339C462021AE48AE4A844493691942CB
:103A9000FCD10378013013608445F7D1594602E028
:103AA0003388002B04D00B883A8801339342F7DA2D
:103AB0008B46FFF759F9012800D1C6E114AB188AEB
:103AC0005B8A0321C01814AB9B8AC01802F03CFA31
:103AD000009B0190D881B9E63388002B99D0002350
:103AE0005A46202140461380964A3B80023493690F
:103AF0001942FCD10378013513600130AC42F6D88D
:103B0000594602E03388002B04D00B883A880133F1
:103B10009342F7DA8B46FFF727F9012800D078E7C0
:103B20003388002B00D174E764235A463380002386
:103B3000202113800298834A3B8093691942FCD16B
:103B40000378013013608145F7D1594602E033888C
:103B5000002B04D00B883A8801339342F7DA8B4666
:103B6000FFF702F9012800D053E73388002B00D17A
:103B70004FE700235A4613803B80734B20211800E7
:103B8000704A083094692142FCD11C7801331460DA
:103B90008342F7D1594602E03388002B04D00B88CA
:103BA0003A8801339342F7DA8B46FFF7DDF80128B4
:103BB00000D02EE73388002B00D12AE764235A4631
:103BC000338000230D9913805E4A3B8020331C0014
:103BD000906904400342FAD10878013110608945A8
:103BE000F5D1594602E03388002B04D00B883A887F
:103BF00001339342F7DA8B46FFF7B6F8012800D07D
:103C000007E73388002B00D103E700235A464F48CB
:103C100013804C4A3B8020331D0091690D400B42BC
:103C2000FAD1015D01341160082CF5D1594602E04A
:103C30003388002B04D00B883A8801339342F7DA9B
:103C40008B46FFF791F8012800D0E2E63388002B7D
:103C500000D1DEE664235A46338000231380394ABC
:103C60003B80203391690C001C401942FAD1029923
:103C7000495D01351160092DF4D1594602E03388C0
:103C8000002B04D00B883A8801339342F7DA8B4635
:103C9000FFF76AF8012800D0BBE63388002B00D17B
:103CA000B7E600235A46138020223B802449254B47
:103CB00098691042FCD1085D01341860082CF7D1D6
:103CC000594602E03388002B04D00B883A88013330
:103CD0009342F7DA8B46FFF747F89AE63388002BD2
:103CE00000D1B1E41A4800235A4604002021138071
:103CF000144A3B80083493691942FCD1037801309F
:103D000013608442F7D1594602E03388002B04D077
:103D10000B883A8801339342F7DA8B46FFF724F891
:103D2000012800D1DDE014AB188A5B8A0321C0189A
:103D300014AB9B8AC01802F007F9009B588083E4FB
:103D4000C096001000400340FC960010B89600108A
:103D5000049700103388002B00D1B7E4B348002348
:103D60005A46040020211380B14A3B8008349369ED
:103D70001942FCD10378013013608442F7D15946CF
:103D800002E03388002B04D00B883A880133934239
:103D9000F7DA8B46FEF7E8FF012800D176E014AB96
:103DA000188A5B8A0321C01814AB9B8AC01802F0E2
:103DB000CBF8009B0500D8808AE43388002B00D123
:103DC0001EE59C4800235A46040020211380984A8F
:103DD0003B80083493691942FCD1037801301360A9
:103DE0008442F7D1594602E03388002B04D00B8877
:103DF0003A8801339342F7DA8B46FEF7B5FF012884
:103E000000D199E014AB188A5B8A0321C01814AB67
:103E10009B8AC01802F098F8009B5881F0E40021BA
:103E200091E5089B0A3B009A1289934200DD01E666
:103E3000089B0A339A4200DDFCE50123109A934067
:103E4000119A1A4311001192FBE53388002B00D11F
:103E500034E61422002117A802F0E2FC17AB9846C2
:103E60002300444698460120FCF7E6FB030400D5F6
:103E70008CE020800A2001F007F914AA162394464A
:103E800002346344A342EED1444617E63388002B44
:103E900000D184E71422002117A802F0C1FC14AB62
:103EA0009C4600231625984617AC65440120FCF774
:103EB000C3FB03040CD420800A20023401F0E4F890
:103EC000A54200D16BE70120FCF7B6FB0304F2D555
:103ED00043460A202380023401F0D6F8AC42E5D1F3
:103EE0005DE73388002B00D11DE71422002117A8BD
:103EF00002F096FC14AB9C4600231625984617AC9E
:103F000065440120FCF798FB03040CD420800A20B0
:103F1000023401F0B9F8A54200D104E70120FCF712
:103F20008BFB0304F2D543460A202380023401F0C0
:103F3000ABF8A542E5D1F6E63388002B00D161E766
:103F40001422002117A802F06BFC14AA1623944631
:103F50006344984617AC0120FCF76EFB03040CD4B5
:103F600020800A20023401F08FF8A04500D149E7F3
:103F70000120FCF761FB0304F2D500230A20238013
:103F8000023401F081F84445E5D13BE7002323806A
:103F900070E73388002B01D1FFF744FA1422002187
:103FA00017A802F03DFC14AA1623944663449946D0
:103FB00017AC0120FCF740FB03042DD420800A201D
:103FC000023401F061F8A145F3D1FFF72BFA3388F1
:103FD000002B01D1FFF758FA1422002117A802F094
:103FE0001FFC17AB03930120FCF726FB03040FD43F
:103FF000039B18800A2001F047F814A916228C466A
:10400000039B6244023303939342ECD1FFF73CFAE3
:104010000022039B1A80EDE700230A20238002344C
:1040200001F032F8A145C4D1FFF7FCF9E496001085
:1040300000400340B8960010094A10B59446402449
:10404000830063441A68C0006240803414408022B8
:10405000520113431C60034B9C466044416010BDF9
:1040600004C0014000400140074B80009C46604472
:104070000368C90092000A435A400C231A40802367
:104080005B0103431A60704704C001400123D02242
:104090008340120693629361094A4021944683004B
:1040A00063441A68C0004A408031114080225201A6
:1040B00013431960034B9C460523604443607047DB
:1040C00004C0014000400140024B18688007C00F47
:1040D0007047C04600C0064070B5EFF3108C72B652
:1040E0000D4D2B68002BFCD0BFF35F8F0724CB084E
:1040F000C618C05C01230C40A3401C0004400342CE
:1041000007D118433070BFF35F8F2C608CF3108899
:1041100070BD100001F0A0FE2C0100D0F8B547469C
:10412000CE46884680B5EFF3108C72B6214D2C68D0
:10413000002CFCD0BFF35F8F9A422CD8D4080727FD
:10414000055D061901241740BC402C421FD00721F1
:104150000127894609E0D408055D06194C46390057
:104160001440A1400C00294211D001329342F2D2F6
:1041700001204042BFF35F8F00220E4B1A608CF388
:10418000108800280FDBC0BCB946B046F8BD2543F7
:1041900010003570EEE7BFF35F8F00232B608CF3C8
:1041A0001088012040424346002BECD0089801F0D3
:1041B00053FEC0462C0100D00021044B044ABFF33B
:1041C0005F8F02C39342FAD17047C046000100D00E
:1041D000800100D0044A1078431CDBB2172B00D9B1
:1041E000102313707047C046D10D002010B5064B48
:1041F000064C82B00100009318221F232000FFF715
:104200008DFF02B010BDC0460C970010681C002046
:1042100001238340002904D0034A1360034A13603A
:104220007047034A1360FBE780E200E000E100E032
:1042300080E100E001238340014A13607047C046DB
:1042400000E200E0084B10309B688000C358002B50
:1042500007D0064A00209B1A2F229A424041C0B242
:1042600070470020FCE7C04600ED00E0D40D0020C0
:10427000024B10309B688000C058704700ED00E092
:1042800070B50D00EFF3108672B60F4A1368002B5D
:10429000FCD0BFF35F8F0D4B10309B6884001B591F
:1042A0000B4A934203D09D4201D001F0EDFD074B34
:1042B0009B681D51BFF35F8FBFF35F8F0022024BDE
:1042C0001A6086F3108870BD240100D000ED00E074
:1042D000CD010010F0B557464E46DE464546E0B5E6
:1042E00085B0060001911700EFF3108B72B6664A95
:1042F0001368002BFCD0BFF35F8F0025634B5D5725
:104300009A46002D00DAA2E06B00614C02935B1923
:104310009B009846A146C1444B4652469B791036B5
:1043200013705C4BB2009B68009299580B1B2F2BAB
:1043300034D9594B994200D0A2E0029B42469C4698
:10434000564B6544AD006353554B0232A218043BF3
:104350009B1A1B05534A5B0D651913436B80524B27
:104360000121AB80FF23AB71019BEF71AB604B462A
:104370000B431900474B009A9B689950BFF35F8F1E
:10438000BFF35F8F0022404B1A608BF3108805B09B
:10439000F0BCBB46B246A946A046F0BD01200A00CB
:1043A0008243D379BB422FD845464E4613003F493E
:1043B0001B1B5B415943090D384B6353384B023586
:1043C0006519043B5B1B1B05364D5B0D2B4373804E
:1043D0000426B446E044131F44441B1B1B055B0D1D
:1043E0001D434B46997101999D8099604946DF7143
:1043F0002F4B01431360BDE75800C0188000201800
:10440000C679BE4229D902000623D356002BF3DA1F
:10441000101D8246274803900426504676424E449B
:10442000361A3005400D844666461E48957106438F
:104430009680029A94466544AA00A4181C4AA37167
:104440002260019B039AE771A280A36092E701F0CA
:104450001BFD002553465D5756E7101D8246908888
:104460004005001584464046D44466460430201872
:10447000301AE0260005400D360230430390CBE7AA
:1044800001F002FD59E7C046240100D0AB21002015
:10449000D40D002000ED00E0CD01001000A1FFFFD1
:1044A000040E002000E0FFFF01BDFFFFAAAA0000EC
:1044B0000148804701BD0000F0B5DE4657464E4634
:1044C0004546E0B50C0083B0EFF3108972B6584A48
:1044D0001368002BFCD0BFF35F8F564B9A68030024
:1044E00010339F00D559544A9046954232D0A54288
:1044F00043D0524EAA1B2F2A2CD80122824092462A
:1045000051464F4A12681140019151464D4A11607F
:10451000BFF35F8FEFF305829346002A33D1012367
:104520002A009A4393689C4208D177E04B005B18BD
:104530009B00F3189968A1422AD01A00062151560F
:104540000029F3DA019B002B19D052463E4B1A602A
:104550003B4B1A60374B9B68DD51BFF35F8FBFF356
:104560005F8F0022324B1A6089F3108803B0F0BCD1
:10457000BB46B246A946A046F0BD1500EAE7524642
:10458000304B1A60E6E79342C9D001F07DFCC6E7E4
:1045900006215956002921DB4A00501880003418A2
:1045A0008046A0689860E079D871062020569871FE
:1045B000002824DBA488F01A64052415444400195B
:1045C000E0240005400D2402204398801F4B521820
:1045D00018789200B21890711970B3E75946002903
:1045E0000FD1FF3191711A49918018490A789A7157
:1045F000184A9B1B5B415A43120D0A70A2E71648EA
:10460000E3E7164A1649D21A083A5002400D014310
:104610009980144952080A43DA8093E706215156DB
:1046200013000029B8DA5A46002AEAD14546DCE7E9
:10463000240100D000ED00E0CD010010D40D0020D9
:1046400000E100E080E100E080E200E0AB2100203A
:1046500001BDFFFFAAAA000001BD00000E0E002050
:1046600000F0FFFF00F8FFFF70B5EFF305810124B4
:104670000443EFF3108C72B6214A1368002BFCD070
:10468000BFF35F8F1F4B05001F4AED1A6D416A4350
:10469000120D1E4D8900AE6852B27658A6421CD04B
:1046A0000621595691421CD012215956914222D0CE
:1046B0001E215956914220D02A2159560324914255
:1046C00010D0134B19781A708171BFF35F8F0022DD
:1046D0000B4B1A608CF3108870BDAB680D4C5C50AE
:1046E000EFE700246100091989005B18FF21997127
:1046F00009499980E5E70124F4E70224F2E7C0467E
:10470000240100D0D40D0020AAAA000000ED00E092
:10471000AB210020CD01001001BDFFFF054B064A73
:104720001360064A136053609360D3601361536152
:10473000936170478080808000E400E004E400E042
:1047400010B5084B084C82B00100009300220523ED
:104750002000FFF7E3FC002801DB1F23181A02B03A
:1047600010BDC04628970010B1210020024B9C4686
:1047700061448900016070474000003410B50400B6
:10478000FFF728FD01002000FFF7F0FFFF23237152
:10479000BFF35F8F10BDC04610B50400FFF71AFDD0
:1047A00001002000FFF7E2FFFF23A380BFF35F8F2C
:1047B00010BDC04610B504000120FFF717FD044BE3
:1047C0009C46604480002060BFF35F8F10BDC046F0
:1047D00040000034034B9C46614489000160BFF3F4
:1047E0005F8F70474000003483680B4810B58446E3
:1047F000614462441201090159189B185C684A68B7
:104800000120944201D802D00020C0B210BD1A6825
:104810000B689A42F9D8F7E7FFFFFF0F10B50800C1
:104820000B690C009847002802D02068616810BD11
:10483000E06000210020FAE70A4B1968EFF31080CE
:1048400072B60A68002AFCD0BFF35F8F1B68BFF303
:104850005F8F00221A6080F3108840BF0020002183
:104860007047C04650210020F8B5574645464E4691
:10487000DE46E0B599460CAB1C780DAB1B78070003
:1048800090469A460568002C44D1AC7B002C3BD066
:10489000660029683619033E89194B78AB73002BE3
:1048A00000D1EB7300238B704B700B702E4BE21812
:1048B000BB6812019B1842461A604A465A600A9A1F
:1048C0009A600B9ADA6000238B704B700B706B7BD5
:1048D0009B46002B32D022005946A8686B68984747
:1048E00000281DD05B46584629685B005B448E1942
:1048F000033BB070CA18CB5C002B00D073705B46D2
:1049000014706B735C451AD0F0BCBB46B246A94626
:10491000A046F8BD660029683619033E8919C5E727
:104920005B465B002A685B44033BD3189C7091197B
:10493000925D002A00D05A705B460B706C73424641
:104940004B46387D00F0C2FC051E02D05346002BBA
:1049500004D00E9B002BD7D01D70D5E721003868FE
:1049600000F0E4FEF5E7C046FFFFFF0FF0B5DE46BE
:1049700057464E4645460023E0B58BB00893674B3B
:104980008200D45800239B46099000F03FFC6268E7
:1049900006000F00EFF3108572B61368002BFCD0F1
:1049A000BFF35F8F23689C465B7B9946002B67D0E3
:1049B000A2685B4B90464B441B01984443461A68DF
:1049C0005B6810001900801BB941002962DD09985D
:1049D00000F07CFC002300229846002306920793F7
:1049E00000239A466368BFF35F8F5A461A6085F3C7
:1049F00010885346002B08D10028C6D10BB0F0BC5C
:104A0000BB46B246A946A046F0BD089B41461802E7
:104A10004B461843D047626806000F00EFF310853D
:104A200072B61368002BFCD0BFF35F8F002F4EDBF4
:104A300033003B4302D02369002B64D12368D97B28
:104A4000002906D01A684800411852184946033A0E
:104A500051709A7B002A01D14A469A734A46DA730A
:104A60004B46E168013BCA5C0132CA545B46236194
:104A70006368BFF35F8F5A461A6085F3108884E736
:104A8000002300229846002306920793002300206B
:104A90009A46A7E7002901D1002898D10021604655
:104AA00000F0C2FD43461A685B68069207934346CE
:104AB0009B689A464346DB689846E3684B44013B53
:104AC0001B7808931B020343236100208AE72369B4
:104AD000002BB3D0069A079B8021921BBB4109068D
:104AE0008B4202D301220F4B5242594604910121BD
:104AF000039149460291414601915146200000919F
:104B0000FFF7B2FEB2E700F081FB32003B00121863
:104B10004B41802109068B42E7D3E3E73421002093
:104B2000FFFFFF0FFFFFFF7F10B5144C6368002BE2
:104B300004D00A211248FFF719FE10BD2300114AC4
:104B40001021206800F084FC032000F053FB0320B8
:104B500000F02CFC03200C4900F072FBFFF73AFB3D
:104B60000A4B9C4603232375D0231B061B68604415
:104B70006375074B80006060DC60DAE71C0E002084
:104B800050210020E94700106D490010400000341A
:104B900034210020004870471C0E0020F0B54E461E
:104BA0005746DE464546E0B585B0019310AB1B780D
:104BB0000600039300239A46994600927268EFF329
:104BC000108B72B61368002BFCD0BFF35F8F356873
:104BD000AC7B002C00D17AE067002B683F19033FC3
:104BE000DB195A78AA73002A00D1EA734B4AA1183C
:104BF000B2680901521800980199106051600E992D
:104C000091600F99D1604A469A705A701A706B7B06
:104C10009846002B00D171E022004146A8686B68DD
:104C2000984700285CD04346404629685B004344CF
:104C3000CF19033BB870CA18CB5C002B00D07B7037
:104C4000434614706B73444559D0F3681B19013BFC
:104C500018787368BFF35F8F4A461A608BF3108829
:104C60005346002B08D10002204305B0F0BCBB46E0
:104C7000B246A946A046F0BD039B002B4CD00E9B2C
:104C800000200F999847030004000D000B4343D008
:104C9000002911DA009A019B121BAB41009201938B
:104CA00080221206934204D301231D4C5B420093E1
:104CB0000194039B9A4681E700F0A8FA8022241809
:104CC0004D411206009401959542F2D3ECE77368CA
:104CD000BFF35F8F1C608BF3108801204042C4E754
:104CE00043465B002A684344033BD3189C70D119A8
:104CF000D25D002A00D05A7043460B706C73307D31
:104D0000009A019B00F0E2FA824600289DD0210023
:104D1000306800F00BFD98E70020A6E7FFFFFF0FCB
:104D2000FFFFFF7FF8B542680400EFF3108572B60D
:104D30001368002BFCD0BFF35F8F2068CEB2437B9B
:104D4000B34209D0FF220A4003685700BA189B18E3
:104D5000033B9B78002B12D0FF22E3680A409B188C
:104D6000013B090A1B78C9B28B420ED00020636850
:104D7000BFF35F8F00221A6085F31088F8BD2269A7
:104D80008A42F3D100202361F1E7310000F0CEFC2C
:104D9000EDE7C046407D7047F0B557464E46DE46CB
:104DA00045461100E0B585B006009C46109F1943AA
:104DB00000D1E1E06146DB170193009353401C00F2
:104DC000019B4B401D0000980199241A8D416346B8
:104DD0000E997B600F9BBE607B6139613A6000F089
:104DE00015FA8023001969411B0600900191994230
:104DF00004D30123664C5B42009301940023B9461F
:104E00009A46644B03937268EFF3108B72B6136883
:104E1000002BFCD0BFF35F8F3568AC7B002C00D13A
:104E200082E067002B683F19033FDB195A78AA73A9
:104E3000002A00D1EA73584AA118B2680901521831
:104E40000098019910605160039991604946D160C2
:104E500000229A705A701A706B7B9846002B00D112
:104E60007BE022004146A8686B689847002866D01E
:104E70004346404629685B004344CF19033BB87062
:104E8000CA18CB5C002B00D07B70434614706B7348
:104E9000444563D0F36872681B19013B1B78BFF36C
:104EA0005F8F002111608BF310885246002A0DD1CC
:104EB00001324F4692461B0223435046FB6005B029
:104EC000F0BCBB46B246A946A046F0BD4B4648469C
:104ED0001B699847071E02D14F460023EDE74B465A
:104EE0001C685D6823002B434CD0002D10DA009A1B
:104EF000019B121BAB410092019380221206934248
:104F000004D30123224C5B4200930194BA467AE712
:104F100000F07CF9802224184D411206009401957E
:104F20009542EED2BA466EE74F467368BFF35F8F85
:104F30001C608BF3108800239A46013BBDE7434673
:104F40005B002A684344033BD3189C70D119D25D9F
:104F5000002A00D05A7043460B706C73307D009A63
:104F6000019B00F0B3F98246002800D192E72100AE
:104F7000306800F0DBFB8DE70023012400250122CF
:104F80009C4624E7B84600234F46C24695E7C046F4
:104F9000FFFFFF7F1D480010FFFFFF0FF0B504006B
:104FA0000D0006267642F717C64636196F4100B542
:104FB00084B08F4214D811D000F028F932003B00A1
:104FC000121A8B41002B15DC002B3ED0200029004B
:104FD00000F026F904B080BCB846F0BD8642EBD99B
:104FE0000026002700F012F932003B00121A8B4114
:104FF000002BE9DD002302930193154B320000934F
:1050000014483B00FFF7CAFD0028DFDB0023984669
:10501000BC46114A114F7B6A9C4504D8B96A8E423E
:10502000D4D99C45D2D11168EFF3108072B60B68C9
:10503000002BFCD0BFF35F8F1368BFF35F8F414637
:10504000196080F3108820BFE5E7002ABED0D1E7C1
:10505000394800101C0E002050210020004005405F
:1050600070B504000D0000F0D1F8802300196941EB
:105070001B06994202D3012002494042FFF78EFFEE
:1050800070BDC046FFFFFF7F70B5060000F0BEF8A0
:10509000FA2204000D00002330000021920001F0EC
:1050A00003FB8023001969411B06994202D30120AA
:1050B00002494042FFF772FF70BDC046FFFFFF7F0D
:1050C00070B5EFF3058305000C0084B0002B0AD007
:1050D000164A0020536A9C4203D8926A0130AA42C1
:1050E0001FD304B070BD124E02930193114B020006
:1050F000009330000B00FFF751FD011EE8DD20BFDB
:105100003000FFF70FFE094B00205A6A9442E8D89E
:105110009B6A0130AB42E4D2A41A631E9C41E0B208
:10512000DFE7E31A5A1E9341D8B2DAE700400540A0
:105130001C0E002039480010F0B5EFF30582D6466A
:105140004F4646461000C0B51038EFF3108872B6CF
:10515000214C2368002BFCD0BFF35F8F0123190083
:1051600081401E4D1F006963AA461D4D29601D4DDB
:105170002E78AC463500C5402F402B4209D1BFF3F5
:105180005F8F276088F31088E0BCBA46B146A84616
:10519000F0BD53465F6A144B8500EB589F420ED317
:1051A0006246124B8E43EB581670BFF35F8F00229E
:1051B000226088F31088002BE6D09847E4E70C4B78
:1051C00092009C46624413681360BFF35F8F002314
:1051D000236088F31088D7E7280100D000400540FD
:1051E0003C700540AF2100205C210020501B0020B6
:1051F000D03F054010B5034B01001800024AFEF7EE
:105200006BFF10BD9E21002044970010034B596A8C
:105210000A00986A596A8A42FAD1704700400540EC
:10522000064A536A9942FCD807D1044B02E05A6AF5
:10523000914202D19A6A8242F9D3704700400540F8
:1052400070B504000D00EFF3108672B61A4A1368A9
:10525000002BFCD0BFF35F8F002D1BD02000FFF789
:1052600007F8164981420AD02000FFF709F801210A
:105270002000FEF7CDFF0123A340114A1360114B1C
:10528000A400E550BFF35F8F00220B4B1A6086F33A
:10529000108870BD0121A1400A4BA200D5500A4BD5
:1052A00020001A788A4305491A70FFF705F9002192
:1052B0002000FEF7ADFFE5E7280100D039510010CE
:1052C00038600540501B0020AF210020F0B54F464C
:1052D000D6464646C0B507002F4C616A0D00A66A47
:1052E000616AA942FAD18B4208D805D00120E0BCFE
:1052F000BA46B146A846F0BDB242F7D9EFF3108ADC
:1053000072B6264801680029FCD0BFF35F8F0125E3
:10531000BD402349204C8846097889462943C9B2B3
:105320008C46414660460870391D890065630A5104
:105330001C49B8004350216A0020294219D0616AF3
:105340000800A66A616A8142FAD18B4219D801D15C
:10535000B24216D8CC451DD00F4B1F221D625D6393
:1053600001233A409340104A0120136043464A46C5
:105370001A70BFF35F8F0022084B1A608AF31088FF
:10538000B5E70020BFF35F8F0022044B1A608AF359
:105390001088ACE70120ECE700400540280100D070
:1053A000AF2100205C21002080E200E0EFF3108CB0
:1053B00072B60A490B68002BFCD0BFF35F8F012344
:1053C0008340074A0748136202789A430270BFF38A
:1053D0005F8F00230B608CF310887047280100D08A
:1053E00000400540AF21002070B5050014001600F4
:1053F000002915D00C00002A12D080686B689847ED
:10540000296800280ED073009B196200033B121913
:10541000CB18033A9C7088188A5C002A15D1067054
:10542000200070BD63001B197200033B9219CB185A
:10543000033A9E7088188A5C002A02D104703400F6
:10544000EEE75A7004703400EAE75A700670E7E736
:1054500030B583600023CCB24373013304734260E0
:105460008373C4730D000068012C06D9421C0133FC
:10547000DBB2137003329C42F9D1FF2129404B006B
:105480005B18C01800230338437030BDF8B5050021
:105490000C1E07D0630001681B19033BCB185A7818
:1054A000002A01D12000F8BD5000801803380918E7
:1054B00000204F784870210058702800FFF794FFB3
:1054C000390006002800FFF7E1FF0400002EE9D0B4
:1054D000002826D031002200A8686B689847296808
:1054E00000280FD063001B197200033B9219CB18E0
:1054F000033A9E7088188A5C002A00D05A700470A3
:105500003400CFE773009B196200033B1219CB18DC
:10551000033A9C7088188A5C002A00D05A70067082
:10552000C0E73400BEE7C046F0B557464546DE4604
:105530004E46E0B50D006B0001685B19DF1E0400EC
:10554000C85D83B00192CA19002850D043001B18CF
:10555000033BCB185E78B446002E1AD1019E002E74
:1055600042D0E67B002E04D073009B19CB18033B7E
:105570005D70A37B002B00D1A573E57300282FD1AC
:105580000023537003B0F0BCBB46B246A946A04608
:10559000F0BD72006244033A8A18517888460021AF
:1055A000517089465970320001002000FFF71CFF3E
:1055B00043468246002B07D05B0021684344033BEF
:1055C000CB185A78002A16D1424651462000FFF7E0
:1055D0000BFF2168019BCA19002BC2D10028CFD034
:1055E00043001B18033BCB1800219970C8E7019BAF
:1055F000002BB6D1C4E7500080180338091848784A
:10560000834648464870587041462000FFF7ECFE3C
:10561000594680462000FFF739FF4146020020002E
:10562000FFF7E2FE8046CFE7F0B557464546DE4637
:105630004E46E0B583B00191457B04006B000068E5
:105640005B19DF1EC15DC219002952D04B005B18E7
:10565000033BC3185E78B446002E1CD1019E002E79
:1056600044D0E67B002E04D073009B19C318033B83
:105670005D70A37B002B00D1A573E573002931D1A8
:10568000002328005370617303B0F0BCBB46B246E0
:10569000A946A046F0BD72006244033A82185078D1
:1056A0008046002050708146587032002000FFF77D
:1056B0009BFE43468246002B07D05B002168434493
:1056C000033BCB185A78002A17D142465146200096
:1056D000FFF78AFE019B01002068C219002BC0D190
:1056E0000029CDD04B005B18033BC31800209870F5
:1056F000C6E7019B002BB4D1C2E7500080180338E5
:10570000091848788346484648705870414620003A
:10571000FFF76AFE594680462000FFF7B7FE414674
:1057200002002000FFF760FE8046CEE770B504005F
:1057300000292CD0437B8B422ED0056848004018AE
:10574000033828188278002A21D053009B18033B85
:10575000EA5CEE188A4202D11BE0002A08D053000E
:105760009B18033BEB185A788A42F6D142785A705C
:1057700000230122837043702000FFF7D5FE617B78
:1057800002002000FFF730FE6073012000E00020DF
:1057900070BD43783370EBE701221900FFF7C4FEB8
:1057A00060730120F4E7C046F8B5040006200D0040
:1057B00000F0C2F9002844D02A4B2B49E21853428A
:1057C0005A418023DB039C469205284B62441A60B1
:1057D000274B1A6010008B689843FBD1214B254A58
:1057E000E31859424B4180215B0049009952062041
:1057F00000F0A2F92900C00000F0CEFBC30921D1BE
:1058000040270121260080256162A36200232C36F7
:10581000AD0135432B60062000F08EF93900800081
:1058200000F0BAFB6022E36A53400E321A40802334
:105830005B0133431A60104B236310232B600D3B35
:10584000A364F8BD0D4A934203D900230C4F0D49C0
:10585000D8E77F220240013252089F011900BF1889
:105860001300CFE70080FCBF00C0004000E0004014
:1058700000F000406C21002001030000FEFF00004A
:10588000C0FF3F00FFFF000010B50C2082B000F009
:10589000ADF9FEF719FC00280ED0854B854A1A6039
:1058A0005A609A60DA601A615A619A61DA611A6222
:1058B000814A5A6202B010BD804CA06700F03AFAEB
:1058C00001227F4B1A60636C012BFCD103227D4BBC
:1058D0001A607A4A936B012BFCD1013301217A4A79
:1058E0007A480093043300F02DF90523784A009399
:1058F0000121784800F026F9774B5A68FF2A02D830
:10590000802252005A6080226E4B694C12011A604C
:105910002169002905D0606900F03EFB01300138A3
:10592000FDD1E0226C4B6D4819680A4002600222EA
:105930001968514001320A40042102609A681142FC
:10594000FCD08021664A09011160802252005A6011
:10595000644B2361644B5968FF2900D85A600322C5
:105960000121574B1A60604A93681942FCD0E0232A
:10597000106803405D480360126803234A40022117
:105980001340594A036093681942FCD08021584B58
:10599000090119608021574B490051606361564BE2
:1059A0005A68FF2A00D859608022544B12011A60AD
:1059B000E169002905D0606900F0EEFA0130013894
:1059C000FDD1E0234C4A11680B404D490B6080210A
:1059D0004C4B090119608021364B49005160E3614D
:1059E000494B5A68FF2A00D859608022474B120160
:1059F0001A60216A002905D0606900F0CDFA0130F3
:105A00000138FDD1E023404A11680B4040490B604A
:105A10008021404B0901196080235B005360802284
:105A2000244BD20223623C4B5968914200D25A6007
:105A300080223A4B12011A60616A002905D0606920
:105A400000F0AAFA01300138FDD1E023324A116892
:105A50000B4033490B608021324B090119608023D0
:105A6000DB025360144B63622F4B5A68FF2A02D843
:105A7000802252005A6080222C4B12011A60A169C8
:105A8000002905D0606900F087FA01300138FDD1A6
:105A9000E023254A11680B4025490B608021254BE6
:105AA0000901196080235B005360124BA36101E779
:105AB0006C1C0020006CDC021BB700000080004062
:105AC0003CB0004030B00040002F685900800240D8
:105AD000008C864700C0024030800040309000407B
