:020000041000EA
:1000000000B5324B212058609868022188439860DF
:10001000D860186158612E4B002199600221596106
:100020000121F02299502B49196001219960352056
:1000300000F044F80222904214D00621196600F024
:1000400034F8196E01211966002018661A6600F04E
:100050002CF8196E196E196E052000F02FF8012189
:100060000842F9D1002199601B49196000215960AB
:100070001A491B48016001219960EB211966A021F2
:10008000196600F012F800219960164914480160C1
:100090000121996001BC002800D000471248134993
:1000A000086003C880F30888084703B5996A0420EC
:1000B0000142FBD001200142F8D103BD02B5186610
:1000C0001866FFF7F2FF186E186E02BD00000240BE
:1000D000000000180000070000035F00212200005C
:1000E000F4000018222000A00001001008ED00E03C
:1000F00000000000000000000000000074B24E7A12
:1001000000200420F7010010C3010010C5010010F9
:10011000C1010010C1010010C1010010C101001097
:10012000C1010010C1010010C1010010C701001081
:10013000C1010010C1010010C9010010CB01001065
:10014000CD010010CD010010CD010010CD01001037
:10015000CD010010CD010010CD010010CD01001027
:10016000CD010010CD010010CD010010CD01001017
:10017000CD010010CD010010CD010010CD01001007
:10018000CD010010CD010010CD010010CD010010F7
:10019000CD010010CD010010CD010010CD010010E7
:1001A000CD010010CD010010CD010010CD010010D7
:1001B000CD010010CD010010CD010010CD010010C7
:1001C00000BE00BE00BE00BE00BE00BE00F04BF888
:1001D000103800BEF2EB88712C79001054790010B1
:1001E0003402001090A31AE700202149086006C8D5
:1001F00081F3088810471F48006800282FD10DA4FC
:100200000ECC002902D000F012F8F9E71A491B4A77
:10021000002000E001C19142FCD1194988471949E9
:1002200088471949884700BEFDE701C901C29A42C3
:10023000FBD3704754790010C000002080020020DA
:10024000147B00100000042000000420147B001028
:1002500000100420001004200000000070470B482C
:1002600005F068F80047EFF30580C0B27047000062
:1002700008ED00E0000000D080020020AC08002063
:10028000F53C0010CD090010B13C0010575600009D
:1002900006005250ABB36053A478001006005250D1
:1002A000861C0302B4780010060052505422A29D0E
:1002B000B878001005005250DE65F468147B001019
:1002C000F8B5C04606480749091A8B10C90FC91866
:1002D00010B5491003D0044B002B00D0984710BD37
:1002E000800200208002002000000000054B10B5B5
:1002F000002B03D00449054800E000BFFFF7E2FFF0
:1003000010BDC046000000003C0600201868001028
:1003100070470000234B1B78012B28D0224B1B7801
:10032000012B35D0214B1B78012B36D0204A137876
:100330000133DBB21370132B08D9D0231B064022E4
:100340009A61194B00221A70194B1A70194A1378C6
:100350000133DBB21370132B0FD9D0231B0680227D
:100360009A61124B00221A70124B1A7005E0D023CA
:100370001B0640225A6140325A610F4B1B889BB2C8
:10038000002B04D00C4A1388013B9BB213807047AA
:10039000D0231B0640225A61C4E7D0231B068022CB
:1003A0005A61C3E7A1080020A5080020A808002082
:1003B0009B0800209C0800208A080020D0231B06F0
:1003C0005B689B0105D5D0231B06802292049A61AD
:1003D0007047D0231B06802292045A61F8E7F0B5DB
:1003E000C64600B584B004000E0017001D0002F0E0
:1003F00097FE8046E117FA2292000023200005F0C4
:1004000031FE02000B00029501970096404602F073
:1004100059FF04B080BCB846F0BD000082B04B4B21
:100420009B6910210A001A40194208D0484B9B6969
:1004300010210A001A40194244D002B07047454BBF
:1004400018886B46D91D002A09D1404B9B69DB06F1
:10045000FBD43E4B1B680B7001320131F3E76B4656
:10046000DA793D4B1A543B4A138801339BB213800F
:100470008C225200934211D0364B1A88374B1B887E
:100480009A420FD0314B5B68012B17D02F4B5B6822
:10049000082BD2D1324B08221A60CEE72D4B002216
:1004A0001A80E9E701339BB22C4A13808C22520058
:1004B0009342E7D1294B00221A80E3E7284B01221F
:1004C0001A60E3E7274B1888411C19806B46D91D39
:1004D00008E01F4B9B69DB06FBD41D4B1B680B70B0
:1004E00001320131002AF4D06B46DA791E4B1A54DE
:1004F0001C4B1A888C235B009A4212D0194B1A8825
:100500001A4B1B889A4210D0114B5B68012B18D0F4
:100510000F4B5B68082B00D08FE7154B08221A6041
:100520008BE7104B00221A80E8E701339BB20F4A99
:1005300013808C2252009342E6D10C4B00221A8089
:10054000E2E70B4B01221A60E2E7C046008003405D
:10055000004003408E080020800200208C0800200C
:1005600004B0034092080020A0030020900800205F
:100570000470034000B5172800D9FDE18000E84B66
:100580001B589F46D0231B06802252039A6180226B
:1005900012039A618022D2029A61802292035A61E8
:1005A0008022D2049A61802212059A6100BDD02374
:1005B0001B06802252039A61802212039A618022D4
:1005C000D2025A61802292035A618022D2049A6137
:1005D000802212059A61E9E7D0231B06802252038C
:1005E0009A61802212035A618022D2029A6180228B
:1005F00092035A618022D2049A61802212059A6184
:10060000D4E7D0231B06802252039A618022120372
:100610005A618022D2025A61802292035A6180225A
:10062000D2049A61802212059A61BFE7D0231B068B
:10063000802252035A61802212039A618022D202E0
:100640009A61802292039A618022D2049A61802268
:1006500012055A61AAE7D0231B06802252039A6131
:10066000802212039A618022D2029A618022920330
:100670009A618022D2049A61802212055A6195E71C
:10068000D0231B06802252035A61802212039A61F2
:100690008022D2029A61802292035A618022D2047F
:1006A0009A61802212059A6180E7D0231B0680227E
:1006B00052035A61802212039A618022D2025A6147
:1006C000802292035A618022D2049A61802212050C
:1006D0009A616BE7D0231B06802252035A61802265
:1006E00012035A618022D2029A61802292035A61D7
:1006F0008022D2049A61802212059A6156E7D023A3
:100700001B06802252035A61802212035A61802202
:10071000D2025A61802292035A618022D2049A61E5
:10072000802212059A6141E7D0231B0680225203E2
:100730005A61802212039A618022D2025A61802279
:1007400092039A618022D2049A61802212055A6132
:100750002CE7D0231B06802252039A6180221203C9
:100760009A618022D2025A61802292039A61802289
:10077000D2049A61802212055A6117E7D0231B0622
:10078000802252039A61802212039A618022D2024F
:100790009A61802292039A618022D2045A61802257
:1007A00012059A6102E7D0231B06802252039A6148
:1007B000802212039A618022D2025A61802292031F
:1007C0009A618022D2045A61802212059A61EDE674
:1007D000D0231B06802252039A61802212035A61A1
:1007E0008022D2029A61802292039A618022D204EE
:1007F0005A61802212059A61D8E6D0231B06802216
:1008000052039A61802212035A618022D2025A61F5
:10081000802292039A618022D2045A6180221205BA
:100820009A61C3E6D0231B06802252035A618022BC
:1008300012035A618022D2029A61802292039A6145
:100840008022D2049A61802212055A61AEE6D0233A
:100850001B06802252039A61802212035A61802271
:10086000D2029A61802292039A618022D2049A6114
:10087000802212055A6199E6D0231B06802252037A
:100880005A61802212039A618022D2029A618022E8
:1008900092039A618022D2045A61802212059A61E1
:1008A00084E6D0231B06802252035A618022120361
:1008B0009A618022D2025A61802292039A61802238
:1008C000D2045A61802212059A616FE6D0231B067A
:1008D000802252035A61802212035A618022D2027E
:1008E0009A61802292039A618022D2045A61802206
:1008F00012059A615AE6D0231B06802252035A61E0
:10090000802212035A618022D2025A61802292030D
:100910009A618022D2045A61802212059A6145E6CA
:1009200018680010D0231B06802252035A618022CF
:1009300012035A618022D2025A61802292039A6184
:100940008022D2049A61802212055A612EE6D023B9
:100950001B06802252039A61802212035A61802270
:10096000D2025A61802292039A618022D2049A6153
:10097000802212055A6119E6D0231B0680225203F9
:100980009A61802212039A618022D2029A618022A7
:1009900092039A618022D2049A61802212059A61A0
:1009A00004E6C04610B504000100044803F03EF917
:1009B0002100034803F03AF910BDC046008003400F
:1009C0000040034010B503F0D9FB10BDF0B5DE4682
:1009D00057464E464546E0B593B005F053FD12200C
:1009E00001F0C2FD132001F0BFFD142001F0BCFD99
:1009F000152001F0B9FD1A2001F0B6FD1B2001F011
:100A0000B3FD192001F0B0FD072001F0ADFD062077
:100A100001F0AAFD162001F0A7FDD02424068023B2
:100A2000DB029C46636280263603666280256D0386
:100A300065628020800360628021C9046162802237
:100A40001205626280239B0463628027B946676255
:100A5000403FB84667628027FF0367626746A76129
:100A6000A661A561A061A161A261A3614B46A361DA
:100A70004346A3618023DB03A3617D49FA2006ABD3
:100A800000228000FFF7ABFC7A490CAB00220A2061
:100A9000FFF7A5FC78496B460022FA204000FFF7DB
:100AA0009EFC7649764805F0D3FD01210D2001F02A
:100AB00043FD01210C2001F03FFD01210B2001F03D
:100AC0003BFD01210A2001F037FD96231B029A46C7
:100AD0006C4E1900300003F0A9F80221092001F042
:100AE0002BFD0221082001F027FD674D514628000B
:100AF00003F09CF80221102001F01EFD02211120BC
:100B000001F01AFD336BC02109020B405F4A1360EC
:100B1000F36A602253406E2003405D4FBC463B6049
:100B2000F36A1027BB461F005B461F40BA46674664
:100B300053463B602B6B1940564B1960E96A4A409B
:100B40001040554A1060E96A584608401060534BFF
:100B50009B461900152001F0EFFD0121152001F041
:100B6000DBFD50239A46B363736B382633404C4AFF
:100B700013605946142001F0DFFD0121142001F01B
:100B8000CBFD5346AB636B6B1E40464B1E60464A23
:100B900000231370454A1370454A1370454A137079
:100BA000454A13704B46A3614346A3618023DB0390
:100BB0006361424BFA2252001A8001E0FFF702FF04
:100BC0003E4B1B889BB2002BF8D13D4A13803D4A17
:100BD00013803D4A13803D4A13803D4B3D4A1A80A5
:100BE0003D4B9A321A8021E0304B1B78012B09D003
:100BF000314B1B78012B0FD12F4B00221A70374B32
:100C00001A8013E0294B00221A70344B1A8001F02D
:100C1000A5FB334B188009E000F08EFF304B1880A5
:100C200004E0D0231B068022D2039A61FFF7CAFE9C
:100C30001D4B1B78002BF4D1D0231B068022D2033E
:100C40005A61284B00221A7000F0EAF9244B1880F0
:100C50000028EBD0214B1B88022BC5D0164B1B78EC
:100C6000012BE3D000F0B6F81D4B1880DEE7C0463C
:100C70001103001015030010BD03001040420F00C7
:100C800000000440008003400040034030900340D7
:100C90002C900340305003402C5003401D040010A2
:100CA0003490034034500340A1080020A4080020E1
:100CB000A5080020A8080020AA0800208A08002013
:100CC0008C0800208E080020900800209208002048
:100CD00096080020260500009808002086080020BD
:100CE00088080020A00800200C4B1B880C4A1288A2
:100CF000934211D0094A591C11800A49CB5C0370F8
:100D000012888C235B009A4201D001207047034B6C
:100D100000221A800120F9E70020F7E78C08002064
:100D20008E080020800200200C4B1B880C4A128881
:100D3000934211D0094A591C11800A49CB5C0370B7
:100D400012888C235B009A4201D001207047034B2C
:100D500000221A800120F9E70020F7E79008002020
:100D600092080020A003002030B583B00400174B88
:100D70009B6908210A001A401942F8D1144B02213C
:100D80005B5EA3420ED06B46D91D0C70002A1AD1AF
:100D90000E4B9B699B06FBD408780C4B1860013204
:100DA0000131F3E76B46D91D0D230B7010000028AD
:100DB000E9D1064B9B699B06FBD40D78034B1D6064
:100DC00001300131F3E703B030BDC046008003407D
:100DD0007C08002030B583B06B460022DA71012414
:100DE0006A4B1B889BB2002B00D19AE0012C00D0EB
:100DF00097E0FFF7E7FD6B46D81DFFF795FF012849
:100E0000EED16B4607331B78102BE9D16B46D81D0A
:100E1000FFF78AFF0128F9D1FFF7D4FD6B460733AE
:100E20001B781A2B15D0192BDAD16B46D81DFFF77A
:100E30007BFF0128F9D1FFF7C5FD1020FFF794FFD4
:100E40001920FFF791FF6B46D879FFF78DFF00243B
:100E5000C6E76B46D81DFFF767FF0128F9D1FFF7FA
:100E6000B1FD6B46DC79E51D09E06B46D81DFFF747
:100E70005BFF0128F9D1013CA4B20135ADB2002CD1
:100E80000FD06B46D81DFFF74FFF0128F9D1FFF7B0
:100E900099FD6B4607331B78102BE6D0013CA4B2BA
:100EA000EDE76B46D81DFFF73FFF0128F9D1FFF7AB
:100EB00089FD6B46D81DFFF737FF0128F9D1FFF7F1
:100EC00081FD6B46D81DFFF72FFF0128F9D1FFF7F1
:100ED00079FD6B46D81DFFF727FF0128F9D12C4B70
:100EE0001B78012B04D02B4B1C88641BA4B210E090
:100EF0000F30FFF739FF2120FFF736FF264B187818
:100F0000FFF732FFEFE7254B185DFFF72DFF0134A8
:100F1000A4B2A542F7D8224A1378013313700024F3
:100F20005EE71A4B1B889BB2002B17D01D488C25FF
:100F30006D002A00002105F04FF91B4B00241C8096
:100F40001A4B1C8015482A00002105F045F9114B69
:100F50001C800E4B188880B203B030BD144A137841
:100F6000013313701020FFF7FFFE2120FFF7FCFE76
:100F7000094B1878FFF7F8FE1020FFF7F5FE19204F
:100F8000FFF7F2FE8220FFF7EFFECFE78A0800208E
:100F9000A208002092080020A9080020A003002039
:100FA000A7080020800200208C0800208E08002066
:100FB0009F08002030B583B00400174B9B690821BF
:100FC0000A001A401942F8D1144B00215B5EA3427B
:100FD0000ED06B46D91D0C70002A1AD10E4B9B699E
:100FE0009B06FBD408780C4B186001320131F3E703
:100FF0006B46D91D0D230B7010000028E9D1064B5C
:101000009B699B06FBD40D78034B1D6001300131B9
:10101000F3E703B030BDC046004003407C08002029
:10102000F0B5CE46474680B583B000236A46D371FB
:10103000B34A1370B34A1380002600270125012DFF
:1010400001D000F050FDFFF7BDFC6B46D81DFFF747
:101050004BFE04000128F2D1AB4B64221A806B4690
:1010600007331B78102B02D000260027E7E7FF1874
:10107000BFB23102360A7340A44A5B009E5A4E400A
:10108000B6B26B46D81DFFF72FFE012804D09E4B49
:101090001B889BB2002BF4D16B4607331B78132BB4
:1010A00021D0152B00D10FE3212BC8D1964B1B88E3
:1010B0009BB2002BC3D06B46D81DFFF715FE01284D
:1010C00004D0914B1B889BB2002BF4D1FFF77AFC24
:1010D0008B4B01221A708E4B6A46073212781A70B7
:1010E00000260027ABE7884A128892B2002AD8D09F
:1010F000844A01211180FF18BFB23102360A7340C1
:10110000824A5B009E5A4E40B6B26B46D81DFFF72E
:10111000EBFD012804D07C4B1B889BB2002BF4D143
:10112000FFF750FC6B4607331B78FF2B00D041E2E2
:10113000754A128892B2002A00D13BE2FF18BFB272
:101140003102360A7340714A5B009E5A4E40B6B275
:101150006B46D81DFFF7C8FD012804D06A4B1B88D9
:101160009BB2002BF4D1684B1B889BB2002B01D1A2
:10117000002564E76B46DB79DF19BFB23502320A1E
:101180005A4062495200565A6E40B6B2002B1BD1EB
:10119000604B01221A706B4607331B78102B1BD053
:1011A0006B46D81DFFF7A0FD012804D0564B1B88C5
:1011B0009BB2002BF4D1FFF705FC534B1B889BB26D
:1011C000002B22D100253AE7524A00211170013B41
:1011D000D8B2FFF7CFF9DEE76B46D81DFFF784FDE5
:1011E000012804D0484B1B889BB2002BF4D16B46DE
:1011F00007331B78FF18BFB23102360A7340434AE7
:101200005B009E5A4E40B6B2CAE76B46DA79424B53
:101210001A70BF18BFB23002330A53403B495B001B
:101220005E5A4640B6B2102A13D06B46D81DFFF75F
:101230005BFD012804D0344B1B889BB2002BF4D1FA
:10124000FFF7C0FB304B1B889BB2002B1AD1002547
:10125000F5E66B46D81DFFF747FD012804D02A4B61
:101260001B889BB2002BF4D16B4607331B78FF1809
:10127000BFB23102360A7340244A5B009E5A4E4088
:10128000B6B2D2E76B4607331B78FF18BFB2310204
:10129000360A73401D4A5B009E5A4E40B6B26B46FA
:1012A000D81DFFF721FD012804D0174B1B889BB2E6
:1012B000002BF4D1144B1B889BB2002B01D10025CD
:1012C000BDE66B4607331B78FF18BFB23102360A02
:1012D00073400E4A5B009E5A4E40B6B26B46D81D14
:1012E000FFF702FD012804D0074B1B889BB2002B9F
:1012F000F4D1054B1B889BB2002B0FD100259EE635
:10130000A2080020860800208A08002094680010A7
:10131000A9080020A0080020A30800206B46DD7962
:101320002D026B46D81DFFF7DFFC012804D0974B38
:101330001B889BB2002BF4D1944B1B889BB2002BD3
:1013400001D100F0C1FB6B4607331B78EB189BB251
:101350009F4202D09E4214D102240A2002F0A8F833
:101360008B4B1B78012B17D08A4B00221A808A4B9B
:101370001D7895424FD0894B1B78FD2B57D0002507
:101380005DE61020FFF7F0FC1920FFF7EDFC0620CA
:10139000FFF7EAFC0024E0E7162281498148FF328A
:1013A00005F08AF9804A1388033B1380DCE77D4B04
:1013B0004A46985CFFF7FEFD012C24D075490B8846
:1013C00018021B0A9C46774A4B46D25C6346534040
:1013D000764A5B009B5A43400B80434601339BB2E5
:1013E0009846C146704B1B88023B984516DA434627
:1013F000022BF2D0032BF0D0042BD8D1694BDB7831
:10140000102BD4D1E9E7674B4A469B5C614A1188AF
:101410005B181380E1E700239846E2E75D4C2088E3
:10142000000AFFF7C7FD2078FFF7C4FD07E610208C
:10143000FFF79AFC012C00D17FE056490A88100280
:10144000120A10235340594A5B009B5A43400B80B9
:101450001A20FFF789FC012C00D173E04D490A885E
:101460001002120A1A235340504A5B009B5A434011
:101470000B800220FFF778FC012C68D045490A88D0
:101480001002120A02235340484A5B009B5A434011
:101490000B80474B1878FFF767FC012C5CD03D4967
:1014A0000A881002424B1B881B0A120A53403F4A0B
:1014B0005B009B5A43400B803D4B1888000AFFF7A6
:1014C00053FC012C50D033490B8818021B0A384AB0
:1014D00012785340354A5B009B5A43400B801020E2
:1014E000FFF742FC012C46D02A490A881002120A52
:1014F000102353402D4A5B009B5A43400B801F2012
:10150000FFF732FC012C3BD022490A881002120A54
:101510001F235340254A5B009B5A43400B801D4CC0
:101520002088000AFFF720FC2078FFF71DFC1A4BEB
:1015300000251D70194B1D7081E5164A1388103364
:10154000138085E7134A13881A33138091E7114AF1
:101550001388023313809CE70E4A154B1B881B0A25
:1015600011885B181380A7E7114B1B78094A118873
:101570005B181380B3E7074A138810331380BEE764
:10158000044A13881F331380C9E7C0468A08002025
:10159000A208002084080020A0080020A308002042
:1015A00083020020800200208C0800209468001034
:1015B00094080020002B04D1C14B1B889BB2002B48
:1015C00074D16B46D81DFFF78FFB012804D0BC4BAC
:1015D0001B889BB2002BF4D1FFF7F4F96B46D81DA2
:1015E000FFF782FB012804D0B54B1B889BB2002B70
:1015F000F4D1FFF7E7F96B46D81DFFF775FB01281B
:1016000004D0AF4B1B889BB2002BF4D1FFF7DAF963
:101610006B46D81DFFF768FB012804D0A84B1B8838
:101620009BB2002BF4D1FFF7CDF96B46D81DFFF725
:101630005BFB012804D0A24B1B889BB2002BF4D18A
:10164000FFF7C0F99F488C225200002104F0C4FD2E
:101650009D4B01221A709D4B00221A809C4B1A80D0
:101660001020FFF781FB2120FFF77EFB994B1878B4
:10167000FFF77AFB1020FFF777FB1A20FFF774FBC8
:101680000220FFF771FB0120FFF76EFB1820FFF728
:101690006BFB1020FFF768FB1F20FFF765FB0020A6
:1016A000FFF762FB7420FFF75FFBC8E46B46D81DB1
:1016B000FFF71AFB012804D0814B1B889BB2002B3B
:1016C000F4D1FFF77FF97CE77D4A128892B2002AB5
:1016D00000D1E9E47A4A64211180FF18BFB23102D7
:1016E000360A73407C4A5B009E5A4E40B6B26B4647
:1016F000D81DFFF7F9FA012804D0714B1B889BB263
:10170000002BF4D1FFF75EF96B4607331B78E52B0E
:101710002AD06B46D81DFFF7E7FA012804D0684BA2
:101720001B889BB2002BF4D1FFF74CF96B460733B3
:101730001B78A22B28D06B46D81DFFF7D5FA0128BD
:1017400004D05F4B1B889BB2002BF4D1FFF73AF912
:101750006B46DA79FD2A00D8B9E1594B1B889BB258
:10176000002B21D100256AE4554A128892B2002A42
:10177000CFD0FF18BFB23102360A7340564A5B0021
:101780009E5A4E40B6B2C4E74D4A128892B2002A21
:10179000D1D0FF18BFB23102360A73404E4A5B0007
:1017A0009E5A4E40B6B2C6E7BF18BFB23002330AE7
:1017B000534049495B005E5A4640B6B2FE2A3DD0CE
:1017C000464B00221A70FFF7FDF86B46D81DFFF755
:1017D0008BFA012804D03A4B1B889BB2002BF4D122
:1017E000374B1B889BB2002B00D173E16B4607334C
:1017F0001B7898B2DF19BFB23402320A5A40364918
:101800005200565A6640B6B2354A1370002819D1B4
:10181000344B01221A706B4607331B78102B19D0FA
:101820002E4B1B78002B30D0FFF7CCF8244B1B88B5
:101830009BB2002B5AD10025FFF701FC274BFD3A44
:101840001A70C0E7274A00211170013BD8B2FEF799
:1018500091FEE0E76B46D81DFFF746FA012804D059
:10186000174B1B889BB2002BF4D1FFF7ABF86B46EC
:1018700007331B78FF18BFB23102360A7340164A8D
:101880005B009E5A4E40B6B2CAE76B46D81DFFF7C2
:101890002BFA012804D00A4B1B889BB2002BF4D1F1
:1018A0006B4607331B78104A1370FF18BFB2310222
:1018B000360A7340084A5B009E5A4E40B6B2B3E700
:1018C0008A08002080020020A20800208C08002046
:1018D0008E080020A908002094680010A4080020A9
:1018E000A6080020A0080020A30800206B460733AC
:1018F0001B78102B45D06B46D81DFFF7F5F9012852
:1019000004D0864B1B889BB2002BF4D1FFF75AF80A
:10191000824B1B889BB2002B00D1DEE06B46073365
:101920001B78FF18BFB23102360A73407C4A5B0055
:101930009E5A4E40B6B27B4B1B78012B3CD06B4677
:10194000D81DFFF7D1F9012804D0744B1B889BB236
:10195000002BF4D16B4607331B78FF18BFB231025E
:10196000360A73406E4A5B009E5A4E40B6B2FFF78D
:1019700029F86A4B1B889BB2002B20D10025FFF76A
:101980005EFB6B46D81DFFF7AFF9012804D0634B0F
:101990001B889BB2002BF4D1FFF714F86B4607337A
:1019A0001B78FF18BFB23102360A73405C4A5B00F5
:1019B0009E5A4E40B6B29EE7FFF704F8D7E7594B60
:1019C0001B78012B14D06B46D81DFFF78DF9012829
:1019D00004D0524B1B889BB2002BF4D1FEF7F2FFD0
:1019E0004E4B1B889BB2002B1FD10025FFF727FB16
:1019F0004D4B1B78102BE6D06B46D81DFFF774F9C2
:101A0000012804D0454B1B889BB2002BF4D16B46B8
:101A100007331B78FF18BFB23102360A7340404AC1
:101A20005B009E5A4E40B6B2CDE76B46DC7924028D
:101A30006B46D81DFFF758F9012804D0374B1B8897
:101A40009BB2002BF4D1FEF7BDFF344B1B889BB239
:101A5000002B45D06B4607331B78E3189BB2BB4283
:101A600001D0B34216D10A2001F022FD2F4B1B7882
:101A7000012B19D01020FFF777F91620FFF774F922
:101A80002B4B02221A80274B1B78012B17D00025E5
:101A9000FFF7D5FA1020FFF767F91920FFF764F96F
:101AA0000620FFF761F9DEE71020FFF75DF921203E
:101AB000FFF75AF91F4B1878FFF756F9DAE7FEF7E8
:101AC00081FF0025FFF7BBFA0025FFF7B8FA0025D4
:101AD000FFF7B5FA0025FFF7B2FA0025FFF7AFFAD6
:101AE0000025FFF7ACFA0D4B1B889BB2002B03D1EE
:101AF0000E4B1B78012B07D0084B188880B203B01F
:101B0000C0BCB946B046F0BD1020FFF72DF9192032
:101B1000FFF72AF90120FFF727F9EDE78A080020EF
:101B200094680010A4080020A6080020A208002045
:101B300086080020A9080020F0B5DE4657464E462C
:101B40004546E0B585B002AB0022DA7100260025DB
:101B5000012400230093C14B1B889BB2002B00D1B2
:101B6000C9E3012C00D0C6E3FEF72CFF02ABD81D61
:101B7000FFF7BAF807000128EDD1B84BFA2252005E
:101B80001A8002AB07331B78102BE4D1ED18ADB2ED
:101B90003102360A7340B24A5B009E5A4E40B6B2DA
:101BA00002ABD81DFFF7A0F8012804D0AB4B1B886F
:101BB0009BB2002BF4D1FEF705FF02AB07331B7875
:101BC0001A2BC8D1A54A128892B2002AC3D0ED18A8
:101BD000ADB23102360A7340A14A5B009E5A4E40B4
:101BE000B6B202ABD81DFFF77FF8012804D09B4B9B
:101BF0001B889BB2002BF4D1FEF7E4FE02AB073347
:101C00001B789B465D44ADB23102330A5A465340BD
:101C1000934A5B009E5A4E40B6B25B460733DBB236
:101C20009A46A0465C461AE002ABD81DFFF75CF866
:101C30000128F9D1FEF7C6FE02AB07331B78ED1879
:101C4000ADB23102360A7340854A5B009E5A4E405F
:101C5000B6B2013CE4B253460133DBB29A46002CE3
:101C60001AD0FEF7AFFE02ABD81DFFF73DF80128F2
:101C7000F9D1FEF7A7FE02ABDA79AD18ADB23002AA
:101C8000330A534076495B005E5A4640B6B2102A8A
:101C9000CAD0013CE4B2E2E7A346444602ABD81DF9
:101CA000FFF722F8012804D06C4B1B889BB2002B55
:101CB000F4D1FEF787FE02AB07331B78ED18ADB207
:101CC0003102360A7340664A5B009E5A4E40B6B2F5
:101CD00002ABD81DFFF708F8012804D05F4B1B8822
:101CE0009BB2002BF4D1FEF76DFE02AB07331B78DD
:101CF000ED18ADB23102360A7340594A5B009E5A64
:101D00004E40B6B202ABD81DFEF7EEFF012804D05C
:101D1000524B1B889BB2002BF4D1FEF753FE4F4B66
:101D20001B889BB2002B00D115E702AB07331B7851
:101D30001B02994602ABD81DFEF7D6FF012804D03E
:101D4000464B1B889BB2002BF4D1FEF73BFE434B66
:101D50001B889BB2002B23D002AB07331B784B446C
:101D60009BB29D424CD09E424CD03E4B1B78012BE7
:101D70000BD01020FEF7F8FF1920FEF7F5FF062024
:101D8000FEF7F2FF5C460094E5E61020FEF7ECFF5C
:101D90002120FEF7E9FF344B1878FEF7E5FFE8E76E
:101DA000009B002B00D1A4E22E4B1B78012B2CD0E2
:101DB00000239946093398462C4B1B78FF2B29D0DA
:101DC0002B4B00221A802B4B1B780193934200D19E
:101DD00087E01020FEF7C8FF1620FEF7C5FF264B50
:101DE0001B78FB2B00D148E2234B1B78FC2B00D146
:101DF00059E2214B1B78FD2B00D16FE25C46AAE62D
:101E00000097D1E702230093CEE7023399460933C6
:101E10009846D1E7434601339BB298464B4601337F
:101E20009BB29946CCE7114BD85DFFF7C3F8009BF6
:101E3000012B0CD00E490B8818021B0A0B4AD25DED
:101E40005340074A5B009B5A43400B8029E0074BF5
:101E5000DB5D074A11885B18138022E08A080020A6
:101E600094680010A2080020A90800208002002029
:101E700084080020A0080020A3080020C94BD85DDA
:101E8000FFF798F8009B012B24D0C7490B88180254
:101E90001B0AC44AD25D5340C44A5B009B5A43406C
:101EA0000B800137BFB2B84521D94B464A460432B0
:101EB0009742F6D04A4605329742F2D006339F4207
:101EC000DCD1B84B9B5C102BADD1434601339BB2A8
:101ED0009846E6E7B34BDB5DB34A11885B18138085
:101EE000DFE74F46D346B2462E002500DBE72C0045
:101EF00035005646AC4B98461888000AFFF75AF84A
:101F000043461878FFF756F8D84602ABD81DFEF7BF
:101F10000BFF012804D0A64B1B889BB2002BF4D1E9
:101F2000FEF750FDA24B1B889BB2002B18D1A14B92
:101F30001B78012B09D01020FEF716FF1920FEF7A1
:101F400013FF0C20FEF710FF05E61020FEF70CFF34
:101F50002120FEF709FF984B1878FEF705FFEAE706
:101F600002AB07331B78102B0FD0924B1B78012B41
:101F700000D177E11020FEF7F7FE1920FEF7F4FEFE
:101F80008220FEF7F1FE019CE5E5444602ABD81D38
:101F9000FEF7CAFE012804D0854B1B889BB2002B9C
:101FA000F4D1A246FEF70EFD814B1B889BB2002B9D
:101FB00019D1804B1B78012B0AD01020FEF7D4FEDC
:101FC0001920FEF7D1FE0C20FEF7CEFE019CC2E5E3
:101FD0001020FEF7C9FE2120FEF7C6FE764B1878CA
:101FE000FEF7C2FEE9E702AB07331B78162B12D0CF
:101FF000192B00D103E16F4B1B78012B00D126E197
:102000001020FEF7B1FE1920FEF7AEFE0920FEF704
:10201000ABFE019C9FE50237BFB23C00D04605E015
:10202000604B185DFEF7C6FF0134A4B24346FB18AF
:102030009C42F5DB5E4BFA2292001A8002ABD81D5F
:10204000FEF772FE012804D0594B1B889BB2002B6F
:10205000F4D1FEF7B7FC564B1B889BB2002B19D16D
:10206000544B1B78012B0AD01020FEF77DFE19205F
:10207000FEF77AFE0C20FEF777FE019C6BE5102040
:10208000FEF772FE2120FEF76FFE4B4B1878FEF72D
:102090006BFEE9E702AB07331B78102B0FD0454BE3
:1020A0001B78012B00D19FE01020FEF75DFE192068
:1020B000FEF75AFE0920FEF757FE019C4BE502ABE6
:1020C000D81DFEF731FE012804D0394B1B889BB286
:1020D000002BF4D1364B1B889BB2002B19D1354B0A
:1020E0001B78012B0AD01020FEF73EFE1920FEF7C8
:1020F0003BFE0C20FEF738FE019C2CE51020FEF77D
:1021000033FE2120FEF730FE2B4B1878FEF72CFE15
:10211000E9E702AB07331B78162B10D0192B25D01B
:10212000244B1B78012B54D01020FEF71DFE1920E4
:10213000FEF71AFE0920FEF717FE019C0BE51D4B6A
:102140001B78012B07D01020FEF70EFE1620FEF79D
:102150000BFE019CFFE41020FEF706FE2120FEF797
:1021600003FE154B1878FEF7FFFDECE702ABD81D18
:10217000FEF7DAFD012804D00D4B1B889BB2002B23
:10218000F4D10C4B1B78012B18D01020FEF7ECFD7E
:102190001920FEF7E9FD02ABD879FEF7E5FD019CB9
:1021A000D9E4C04680020020840800209468001012
:1021B0008A080020A2080020A90800201020FEF7AD
:1021C000D3FD2120FEF7D0FD5A4B1878FEF7CCFD49
:1021D000DBE71020FEF7C8FD2120FEF7C5FD554BBB
:1021E0001878FEF7C1FD9FE71020FEF7BDFD212006
:1021F000FEF7BAFD4F4B1878FEF7B6FD54E702AB79
:10220000D81DFEF791FD012804D04B4B1B889BB2D3
:10221000002BF4D1FEF7D6FB484B1B78012B0BD0DB
:102220001020FEF7A1FD1920FEF79EFD02ABD87924
:10223000FEF79AFD019C8EE41020FEF795FD21200B
:10224000FEF792FD3B4B1878FEF78EFDE8E7102075
:10225000FEF78AFD2120FEF787FD364B1878FEF742
:1022600083FDCDE61020FEF77FFD2120FEF77CFDEB
:10227000304B1878FEF778FD7CE6314B9B7B012BC9
:102280000BD0022B0CD0002B04D096200002FEF7BE
:1022900089FBA9E596204001F9E796208001F6E741
:1022A0009620C001F3E7264B9B7B502B08D0D02310
:1022B0001B068022D2035A611F4BC8221A8007E0F6
:1022C000D0231B068022D2039A61F5E7FEF77AFB42
:1022D000194B1B889BB2002BF8D18AE51849CB7BA0
:1022E000184A13801B021380897B0B4313805C46C2
:1022F00031E4009C2FE412488C256D002A00002157
:1023000003F06AFF104B00241C80104B1C80104807
:102310002A00002103F060FF0E4B1C800E4B1C8036
:10232000054B188880B205B0F0BCBB46B246A94642
:10233000A046F0BDA90800208A080020A2080020BD
:1023400080020020940800208C0800208E080020C5
:10235000A0030020900800209208002010B582B051
:102360006B460022DA716C4B1B7A102B17D01424A9
:102370006A4B1B889BB2002B00D1A6E01020FEF711
:10238000F3FC2120FEF7F0FC654B1878FEF7ECFC1F
:102390001020FEF7E9FC1620FEF7E6FC03E015240A
:1023A000E6E7FEF70FFB5F4B1B88A342F9D15E4BBC
:1023B00000221A805B4B1A80584BF532FF321A808C
:1023C0006B46D81DFEF790FC012804D0534B1B88A8
:1023D0009BB2002BF4D16B4607331B78502B00D0F7
:1023E00086E04D488C225200002103F0F5FE4E4A53
:1023F000002313804B4A13804C4A13804C4A1380AD
:102400005020FEF7D7FD01E0FEF7DCFA484B1B88B1
:10241000002B04D1414B1B889BB2002BF4D13F4BC6
:102420001B889BB2002B04D1424B1B78422B5FD1FF
:1024300009E0404B1878FEF797FCF5E7374B1B880F
:102440009BB2002B13D1354B1B889BB2002B4FD076
:10245000374B00221A806B46D81DFEF745FC012839
:10246000ECD02E4B1B889BB2002BF4D1E6E76B46D9
:10247000D879FF283CD0FEF79DFD6B4607331B78CB
:102480000A2BE0D12A4B1B88002B04D1234B1B883D
:102490009BB2002BF6D1214B1B889BB2002B27D07F
:1024A000244B1878FEF760FC1B488C225200002158
:1024B00003F092FE194BC8221A801A4A0023138097
:1024C0001A4A13801A4A1380BDE71020FEF74CFC0D
:1024D0002120FEF749FC124B1878FEF745FC10202E
:1024E000FEF742FC1920FEF73FFC8220FEF73CFC81
:1024F00009488C225200002103F06EFE0A4A002394
:102500001380084A1380094A1380094A1380034B39
:10251000188880B202B010BD800200208A08002016
:10252000A90800208E0800208C08002090080020B8
:1025300092080020A003002010B58300084A9446AA
:1025400063441A684024624080341440802252015F
:1025500013431C60C000034B9C466044416010BDA7
:1025600004C001400040014010B501238340D02247
:102570001206936293610521FFF7DEFF10BD000094
:10258000EFF3108072B6034B1B68002BFBD0BFF338
:102590005F8F70472C0100D0BFF35F8F024B00228A
:1025A0001A6080F3108870472C0100D0F8B506003F
:1025B0000C001500FFF7E4FFE308F718F15C0722B1
:1025C0002240012393400B4205D1DBB20B433B7009
:1025D000FFF7E2FFF8BD2100280001F007FC000032
:1025E000034B1B6802201840431E9841C0B270473D
:1025F00000C00640002307E0054A9A189200BFF386
:102600005F8F0021116001331F2BF5D97047C04641
:1026100040000034054A1078431CDBB21370172BBE
:1026200002D9130010221A707047C046B001002072
:10263000074B9B68103080001950BFF35F8FBFF3CA
:102640005F8F044B0021196082F310887047C046E9
:1026500000ED00E0240100D010B5091A0B1F0A4A52
:1026600094466144094A914208D8DA0706D45B10BF
:102670005B055B0D0648184380B210BD054B064A4A
:102680000648992101F018FBFC070000FE0F00002E
:1026900000E0FFFF946A0010D86C0010C46A0010BC
:1026A00010B5091A04394A08090B08D14905490D22
:1026B000064B0B430380064B1343438010BD054B71
:1026C000054A0648A12101F0F7FAC04600F0FFFFD5
:1026D00000F8FFFF046B0010AC6C0010C46A00101F
:1026E00001238340034A10681840431E9841C0B23A
:1026F0007047C04600E100E0002904D0034B186099
:10270000034B18607047034B1860FBE780E200E062
:1027100000E100E080E100E010B5012383401800F3
:10272000FFF7EAFF10BD0000024B9B6810308000ED
:10273000C058704700ED00E070B504000D00EFF3E5
:10274000108672B60C4B1B68002BFBD0BFF35F8F5B
:102750002000FFF7E9FF094B984201D0A84205D1BC
:10276000320029002000FFF763FF70BD044B054ACB
:1027700005487C2101F0A0FA240100D0CD01001011
:10278000146B0010F46C0010C46A0010F0B5CE4653
:10279000474680B583B006000D00EFF3108872B68F
:1027A000554B1B68002BFBD0BFF35F8F534B9A68D0
:1027B00034001034A300D758514B9F4207D0AF428A
:1027C00000D197E001974F4BFB1A2F2B09D94246B6
:1027D00039003000FFF72CFF03B0C0BCB946B0464B
:1027E000F0BD3000FFF77CFF814600213000FFF78D
:1027F00093FFBFF35F8FFDF736FD002801D08442C1
:1028000011D10123019C9C430021A368AB4212D04B
:102810000622A256002A0DDB53009B189B00394A62
:102820002100D418F1E7384B384A2C213848FF31C1
:1028300001F042FA2100AB4255D106256557002D23
:1028400037DB304B6A00521992009B189A68A260DD
:10285000DA79E2719B795BB2A371002B10DABD20AB
:102860000002A080274B6A00521992009B18294A47
:1028700011789971157049463000FFF74DFFA6E7B2
:10288000201D6B005B199B001E4A9B18191D9B881D
:10289000DA0A1C2A07D15B055B1502335B00C918F5
:1028A000FFF7DAFEDDE71C4B1C4A1948A72101F0AF
:1028B00003FA002812D100290ED0FF238B71184B88
:1028C0008B8014490B78A3710E4A164BA41A6441ED
:1028D00063431B0D0B70CEE7094FF2E71249201D31
:1028E000FFF7DEFEC7E7114B084A60210848FF31B9
:1028F00001F0E2F9024F6AE7240100D000ED00E0A8
:10290000CD010010B4010020286C0010C46C001030
:10291000C46A00109D080020106C0010E46C0010C8
:1029200000BDFFFFAAAA0000EE0100204C6C0010C1
:1029300070B50400012606432D4BF31A2F2B28D81F
:10294000FDF791FC00282BD0EFF3108C72B6294BC9
:102950001B68002BFBD0BFF35F8F254A264D21005B
:10296000891A49414D432D0D6DB2244B9B6880005F
:102970001B58B3421BD00021032932D81C4B4A00FC
:10298000521892009B189B795BB2AB421FD0013169
:10299000F2E71B4B1B4AC2211B48490001F08CF98E
:1029A0001A4B184A88211848FF3101F085F9134B5A
:1029B0009B68174A1A50174B1A78A2711D70BFF303
:1029C0005F8F0C4B00221A608CF3108870BD084B8F
:1029D0004A00501880001818FF2686710E4A82801F
:1029E000E9E70E4B074ACC210748490001F064F99A
:1029F000B4010020240100D0AAAA000000ED00E0EC
:102A0000546C0010906C0010C46A00107C6C0010B4
:102A1000CD0100109D08002000BDFFFF886C001054
:102A20000022044B02E0044902C30132072AFAD90A
:102A30007047C04600E400E080808080024B9C46E6
:102A400061448900016070474000003410B50C00FB
:102A5000CB68834207D10B6908009847002809D04A
:102A60002068616810BD064B064A96210648490059
:102A700001F022F90023E36000200021F2E7C046C4
:102A8000106D0010AC6F0010246D001070B50500C3
:102A90000C00080000F05AFD200000F03FFE08493D
:102AA000200000F07FFDFFF7B5FD064B9C4660441B
:102AB000800068602C75044BA400E55070BDC046D2
:102AC000C12D001040000034540600200A4B1A6843
:102AD000EFF3108172B61368002BFCD0BFF35F8F49
:102AE000054B1B68BFF35F8F00221A6081F31088CB
:102AF00040BF0020002170476808002010B5002961
:102B000020D003681B7B99421CD88368154CA446CF
:102B1000614409015B181C685968002A18D00368D1
:102B20001B7B9A4214D883680E4884466244120183
:102B30009B181A685B6801208B4201D80ED00020D8
:102B4000C0B210BD084B094A09483B2101F0B4F856
:102B5000054B064A06483B2101F0AEF8A242EFD8E9
:102B6000EDE7C046FFFFFF0F5C6D0010FC6F00102B
:102B7000246D001010B500291DD0037B99421AD88E
:102B800004684B005B18033BE418002919D0002AA5
:102B90001DD0914221D0002A25D0037B9A4222D811
:102BA000006853009B18033BC318997021780029D3
:102BB0001FD1227010BD104B104A1148682101F03E
:102BC0007BF8104B104A0E486F3101F075F80F4B2F
:102BD0000D4A0B48702101F06FF80D4B0A4A084866
:102BE000712101F069F8044B044A0548682101F09D
:102BF00063F859702270DDE7906D00106870001066
:102C0000AC6D0010F86D001044700010046E0010E0
:102C1000106E001070B506000D001400002914D0CD
:102C2000002A14D0436880689847002806D0220004
:102C300029003000FFF79EFF280007E02A0021004E
:102C40003000FFF797FF200000E0100070BD080083
:102C5000FCE70000F0B583B00500009201930AABD9
:102C60001C780BAB1F78002C26D003685A7B94424B
:102C700007D10123002B19D1002C3AD1200003B039
:102C8000F0BD002C0CD01A7B944209D81A6863005E
:102C90001B19033BD3189B78002BEBD00123E9E7EA
:102CA0003C4B3D4A3D48682101F006F83C4B3D4A0B
:102CB0003D48652101F000F803689C7B002CDBD0C7
:102CC00011D01A7B94420ED81A6861000919033991
:102CD000521851789973002900D1D9730023937049
:102CE00053701370C8E72B4B2B4A2C48682100F017
:102CF000E3FF002C37D02B681B7B9C4233D8AB689A
:102D00002A4AA21812019B18009A1A60019A5A6066
:102D1000089A9A60099ADA602E68002C29D02ED081
:102D2000337B9C422BD8336862001219033A9B18FC
:102D300000229A705A701A70717B22003000FFF7DF
:102D400069FF7073844299D1287D009A019B00F03D
:102D500071FC061E01D0002F17D00C9B002B00D158
:102D60008CE71E708AE7124B124A0F483B2100F095
:102D7000A3FF114B114A0948A52100F09DFF054B07
:102D8000054A0648682100F097FF2868210000F0F6
:102D900073FEE2E7906D001068700010AC6D0010DB
:102DA000286E001074700010246D0010FFFFFF0FDC
:102DB0005C6D0010FC6F0010206D0010587000104A
:102DC000F0B5DE4657464E464546E0B58BB0099015
:102DD00000230893B24B8200D55833E0B14BB24A7E
:102DE000B2483F2100F068FFB14BB24AB2483B21E4
:102DF00000F062FFB14BB24AAF488C2100F05CFF9B
:102E0000B04BAF4AAC48902100F056FFA84BAE4AF9
:102E1000A948402100F050FF43461A685B680998B2
:102E200000F008FC00239B469A466B68BFF35F8F57
:102E300000221A6089F310885346002B53D10028D2
:102E400000D126E100F08EFB02000B1EC6DB002045
:102E50000021069007916868EFF3108972B6016847
:102E60000029FCD0BFF35F8F2868447B002C35D04D
:102E7000BAD0017B8C42B7D8AE6894496118090179
:102E8000B046884441460E684F68B61A9F41002FED
:102E9000C2DC01D1002EBFD1002100F0E3FDA04231
:102EA000A8D143461A685B680692079343469B681D
:102EB0009A464346DB689B465346002BA0D0002C25
:102EC000A4D02B681B7B9C42A0D8EA68631ED35C0D
:102ED00008931B02184328610020A6E700239B46A5
:102EE0009A460020A1E7089B1B02234398465946B7
:102EF0001800D04706000F006A68EFF3108972B619
:102F0000136859424B41D9B2002BF9D1BFF35F8FFF
:102F1000002F26DB002F52DD2B69002B53D04345B9
:102F200072D100F01FFB02000B1E73DB01001800C2
:102F300092197B41984202D804D1914202D90122D0
:102F40005242D317002B6BDB002104910131039116
:102F5000029459460191514600912800FFF77AFEEC
:102F600049E02B69002BD5D043451CD1069A079B1D
:102F700010001900921BBB41994202D804D1904223
:102F800002D901225242D317002B12DB00210491F7
:102F90000131039102945946019151460091280054
:102FA000FFF758FE27E04A4B454A43489F2100F06F
:102FB00083FE3C4B3C4A3D483F2100F07DFE002F04
:102FC00001D1002EA8D12A68002C44D0537B9C420A
:102FD0002CD1012100293ED1D37B002B41D1D473C8
:102FE000002C50D02B681B7B9C424CD8EA68013CDB
:102FF000135D0133135500232B616A68BFF35F8FA4
:10300000136089F310881DE7314B2D4A2A48A2210D
:1030100000F052FE234B244A24483F2100F04CFE8E
:10302000204B214A21483F2100F046FE002C0CD0C5
:10303000137B9C4209D8106863001B19033BC3181B
:103040009B78002BC6D00121C4E7224B224A23489B
:10305000682100F031FE224B224A2048F62100F080
:103060002BFE002B09D0117B8B4206D8106859002B
:10307000CB18033BC3185C70B1E7164B164A1748D0
:10308000682100F019FE0A4B0F4A0B48402100F05E
:1030900013FE0BB0F0BCBB46B246A946A046F0BD3D
:1030A00054060020506E0010C86F00106C6E0010A7
:1030B0005C6D0010FC6F0010246D0010B46E0010E9
:1030C000E06F0010CC6E001020700010FFFFFF0FAB
:1030D000D86E0010906D001068700010AC6D00107C
:1030E000146F00103470001010B50A4B5B68002B91
:1030F00004D009480A21FFF7A1FC10BD054C074A7E
:1031000020682300102100F0D1FB03212000FFF7ED
:10311000BDFCEEE7FC01002068080020FD2A00103D
:1031200010B5064B5B68002B01D0044810BD044B62
:10313000044A05485C2100F0BFFDC046FC010020A8
:10314000386F001008700010246D0010F0B5DE46D6
:1031500057464E464546E0B58BB0804616001F00E8
:10316000149B9A46159B994616AB1B789B461F23CA
:1031700002AA9446634400221A7036E0002809D05F
:1031800042461268127B904204D84246D168421EE1
:103190008A5C4CE0454B464A4648402100F08CFD95
:1031A0000798002B79D05B46002B76D04946D04754
:1031B00004000D0003000B4300D175E000294ADB39
:1031C00000F0D0F902000B1E59DB010018001219A3
:1031D0006B41984202D804D1914202D90122524255
:1031E000D317002B51DB16001F0043465A68EFF33C
:1031F000108472B6136859424B41D9B20791002B23
:10320000F8D1BFF35F8F1F3302AA9446634404933F
:103210000023039302934B460193534600933200DD
:103220003B004046FFF716FD031EA7D102004146B2
:103230004968BFF35F8F00250D6084F31088002B71
:1032400029D01F2302A98C4663441B78002BA7D1E9
:1032500012021043A5E730003900361BAF41B942D6
:1032600002D804D1B04202D901267642F717002FC6
:10327000BBDA114B114A12483F2100F01DFD0E4BE5
:103280000E4A0F483F2100F017FD0B4B0B4A0C482C
:103290003F2100F011FD012040420BB0F0BCBB46C5
:1032A000B246A946A046F0BD0798F6E75C6D00104F
:1032B00020700010246D0010506E0010C86F0010B8
:1032C0006C6E0010F0B585B007000C9E110019431C
:1032D00001D101220023B7600A9931613260736025
:1032E0000B997161D81701004240140043401D0042
:1032F000241A8D4100F036F902000B1E1ADB010082
:10330000180012196B41984202D804D1914202D997
:1033100001225242D317002B12DB012102910196A8
:103320000A4900913800FFF711FFF060C043C00F59
:1033300005B0F0BD064B074A07483F2100F0BCFC32
:10334000034B044A04483F2100F0B6FC4D2A00100C
:10335000506E0010C86F00106C6E0010F0B587B092
:1033600006000F00FCF77FFF00281FD106246442EF
:10337000E517A4197D41BD4202D803D1B44201D959
:1033800000240025002D14DB0494059500F0EAF8D4
:1033900002000B1E13DBA41A9D41002D17DC14D074
:1033A0003000390000F0EAF807B0F0BD234800F023
:1033B0001DFD234B234A24483F2100F07DFC204B78
:1033C000204A21483F2100F077FC002CE8D0FFF78D
:1033D000A7FE0023029301931C4B0093049A059BC4
:1033E000FFF7B4FE002818DADAE7002300E0002334
:1033F000002BD5D1164B1A68EFF3108172B6136803
:10340000002BFCD0BFF35F8F114B1B68BFF35F8FA6
:1034100000221A6081F3108820BF0499059A0D4B91
:103420005B6A9A42E3D80B48806A884203D29A4288
:10343000DBD00123DCE70123DAE7C0465C6F001034
:10344000506E0010C86F00106C6E0010CD2A001076
:103450006808002000400540F8B504000D0000F0A9
:1034600081F802000B1E10DB200029008018594152
:103470008B4202D804D1824202D901204042C117B6
:10348000002908DBFFF76AFFF8BD064B064A07482C
:103490003F2100F011FC034B034A04483F2100F098
:1034A0000BFCC046506E0010C86F00106C6E001010
:1034B00010B5FA2292000023002102F0D3FDFFF79D
:1034C000CBFF10BD70B5EFF305833F2018401038D7
:1034D000EFF3108C72B6184B1B68002BFBD0BFF3B8
:1034E0005F8F012319008140144A5163144A1278F6
:1034F0001400C440234213D0104B5C6A114B85006A
:10350000EB589C4205D3104BEB580D4C8A4322706C
:1035100007E00A4A031D9B0099589950002300E0D8
:103520000023BFF35F8F044A002111608CF31088E1
:10353000002B00D0984770BD280100D00040054006
:103540009E0800206C080020B805002010B501007E
:10355000024A034B1800FFF729F810BD8C700010C9
:103560009A080020044B5B6A034A906A1900536A68
:103570009942F9D17047C04600400540084B5B6A4C
:1035800001E0074B5B6A8B42FBD301E0044B5B6AB3
:103590008B4203D1024B9B6A8342F7D37047C046EC
:1035A0000040054070B504000E00EFF3108572B6C0
:1035B0001B4B1B68002BFBD0BFF35F8F002E1CD072
:1035C0002000FFF7B1F8174B83420BD01900200001
:1035D000FFF7B2F801212000FFF79EF80123A34076
:1035E000114A1360114BA400E650BFF35F8F0C4BE0
:1035F00000221A6085F3108870BD0C4BA2000021D8
:10360000D1500122A2400A490B7893430B7005491F
:103610002000FFF7BBF800212000FFF77DF8E4E76A
:10362000280100D0C534001038600540B8050020DE
:103630009E080020F0B5DE4600B584B004001500F9
:1036400001921E000293FFF78DFF03958E4202D870
:103650004ED185424CD9EFF3108B72B6274B1B68C5
:10366000002BFBD0BFF35F8F254A17780125A540BB
:10367000EBB23B431370234B5D63221D9200019913
:10368000D150214AA100029888501B6A2B4212D1C6
:103690001C4B1B6C2B4208D00020BFF35F8F174BD5
:1036A00000221A608BF3108823E0184B184A19483F
:1036B000C12100F001FBFFF755FF8E4214D802D163
:1036C000039B834210D80E4B1B78BB420ED00D4B90
:1036D0001D625D631F222240012393400E4A136046
:1036E000074B1F700120D8E70020D6E70120D4E760
:1036F000012004B080BCBB46F0BDC046280100D00C
:103700009E080020004005406C080020B0700010AA
:1037100018710010D470001080E200E0EFF3108CFC
:1037200072B60B4B1B68002BFBD0BFF35F8F0123DE
:103730008340084A136208490A789A430A70BFF323
:103740005F8F034B00221A608CF310887047C046CD
:10375000280100D0004005409E08002010B5002937
:103760001DD0037B99421AD804684B005B18033BB9
:10377000E418002919D0002A1DD0914221D0002A36
:1037800025D0037B9A4222D8006853009B18033B44
:10379000C3189970217800291FD1227010BD104BD9
:1037A000104A1148682100F087FA104B104A0E4861
:1037B0006F3100F081FA0F4B0D4A0B48702100F079
:1037C0007BFA0D4B0A4A0848712100F075FA044B48
:1037D000044A0548682100F06FFA59702270DDE74D
:1037E000906D001020720010AC6D0010F86D00108C
:1037F0000C720010046E0010106E001070B5060000
:103800000D001400002914D0002A14D043688068E9
:103810009847002806D0220029003000FFF79EFFBD
:10382000280007E02A0021003000FFF797FF200062
:1038300000E0100070BD0800FCE7000010B5002398
:10384000437301338373037BC3730123027B9A4267
:1038500013D9002B0BD0027B934208D801685A0081
:10386000D218033A8A180133DBB25370EEE70C4BDF
:103870000C4A0D48682100F01FFA002A09D0924234
:1038800007D8016853009B18033BCB1800225A70DD
:1038900010BD034B034A0448682100F00DFAC046EE
:1038A000906D001020720010AC6D001010B5017307
:1038B00042608360FFF7C2FF10BD000070B50400D6
:1038C000081E00D170BD002931D0237B99422ED82B
:1038D00022684B005B18033BD3185A78002AF1D0BA
:1038E0002BD0237B9A4228D8216853009B18033B96
:1038F000CB185D7800215970002824D0237B984292
:1039000021D8216843001B18033BCB1800215970B4
:1039100001002000FFF772FF060029002000FFF7DA
:10392000CDFF020031002000FFF768FFCAE7094B16
:10393000094A0A48682100F0BFF9064B064A0748C1
:10394000682100F0B9F9034B034A0448682100F0EC
:10395000B3F9C046906D001020720010AC6D0010DD
:1039600070B505000C001600002927D02CD0037B71
:10397000994229D803684900091903395B185A7814
:10398000002A27D19A78002A2AD11978FFF796FFC2
:103990000300002E03D0EA7B002A27D1EC73002B12
:1039A00036D1002C47D02B7B9C4244D82A68630038
:1039B0001B19033BD31800225A7070BD214B224AB9
:1039C0002248382100F078F9214B224A2248682108
:1039D00000F072F9214B1C4A1C483A2100F06CF9A6
:1039E0001F4B194A19483B2100F066F9002A09D0FB
:1039F000297B8A4206D82E6851008A18033AB218E9
:103A00005470CBE7124B134A1348682100F054F965
:103A1000002B0AD02A7B934207D82A6843001B1840
:103A2000033BD31800229A70BBE7094B094A0A48A6
:103A3000682100F041F9064B064A0748682100F06A
:103A40003BF9C04634710010F87100103C71001051
:103A5000906D001020720010AC6D00107471001099
:103A60009C71001070B504000A00457B2900FFF727
:103A700077FF6073280070BD70B50400002966D020
:103A8000437B8B420ED0002911D0037B99420ED884
:103A900005684B005B18033BED18AB78002B0CD18D
:103AA000002055E00121FFF7DDFF012050E0294B08
:103AB000294A2A48682100F0FFF8002B1FD0027B1A
:103AC00093421CD800685A00D318033BC218C35C49
:103AD0008B421AD0002B1BD0227B934218D820682F
:103AE0005A00D318033BC01843788B4216D0002BE2
:103AF000F0D11B4B1B4A1C48672100F0DDF8154B29
:103B0000154A1648682100F0D7F86B78137007E063
:103B1000104B114A1148682100F0CEF86B784370C1
:103B20000023AB706B7001222000FFF719FF020029
:103B3000617B814205D02000FFF760FE60730120A9
:103B400006E00A4B074A08486D2100F0B5F800204E
:103B500070BDC046906D001020720010AC6D00105A
:103B6000886C0010E07100103C710010C0710010F2
:103B700010B50400FEF74EFD01002000FEF75EFFC9
:103B8000FF232371BFF35F8F10BD10B50400FEF754
:103B900041FD01002000FEF751FFFF2323710023A8
:103BA0006371BFF35F8F10BD70B504000D00062078
:103BB00000F036FAC000290001F010FCC60908D058
:103BC0000E4B9E4217D87F230340013335005E0819
:103BD00000E001256562A6622C3480239B0123430B
:103BE00000221A60062000F01BFA8000A901891942
:103BF00001F0F4FB70BD0026014DEBE7FEFF000075
:103C0000FFFF0000002909D00A22064B9C466044B1
:103C100043425841044B4000C25270478022520038
:103C2000F3E7C0460080FCBF7C08002070B50500AB
:103C30000C00062000F0F4F9002829D0164B9D4214
:103C400027D08022D203154B1A60154B1A60154BF2
:103C50009B6811009943FAD100212800FFF7D2FF99
:103C600021002800FFF7A0FF29002C31EB6A602219
:103C700053400E321A4080235B010B431A600A4BFB
:103C80002B6380239B010B4310221A600323AB6438
:103C900070BD80221204D6E70080034000E000409F
:103CA00000F0004000C000400103000000BEFDE73E
:103CB00010B5FFF7FBFF000030B583B00D00190011
:103CC000002A0DD0084B002A0CD0084C019200931A
:103CD0002B000200200002F0C9FB0120FFF7E6FFE5
:103CE000034BF0E7024AF0E7C4720010D4720010F0
:103CF000D072001070B52B4B2B4A1A602B4B2C4AFC
:103D00001A602C4B9A682A4B9343FAD12A4C01E053
:103D100008CC9847294B9C42FAD300F001F9234B79
:103D2000274A1A60234B9B68DB43DB01FAD1254B02
:103D300040229A675A671A67DA66234C09E0234BD8
:103D4000234A24488321FFF7B7FF2000FFF710FF25
:103D50000834214B9C4209D22368002BF5D0012B5B
:103D6000EDD12000FFF711FF0834F2E71B4DA968E1
:103D70001B4CC022200002F035FAAC60FCF773FA4D
:103D8000002800D000BEFEF735FCFEF749FEFFF725
:103D9000ABF9144C01E008CC9847134B9C42FAD382
:103DA00070BDC04600E00040BFCDFBFE00F000400B
:103DB000FE7F3C0000C000406C0200207C0200201E
:103DC000FFFFFF0100F001406402002004730010B7
:103DD0007C730010247300106C02002000ED00E0E2
:103DE000000000207C020020800200200FB400B5FB
:103DF00083B0084802F008FB049B002B07D005A9FC
:103E00000191180002F010FB034802F0FDFA0120B6
:103E1000FFF74CFF6873001078730010F8B5DE46AA
:103E200057464E464546E0B506000F0015000A9A73
:103E300093424ED31A0E92461B0298460A9A0023CA
:103E40004046514601F00CFB81467400A419A400C1
:103E50002E4B9C4664446368834200D26060331FEB
:103E6000DBB29B46012B3AD9C0239B01234380221E
:103E700012011A60264BB200D158002905D05869AA
:103E800001F0ACFA01300138FDD16D0123685D40CD
:103E9000E0222A4080235B0123431A605A46012A0C
:103EA00028D980239B012343802212011A604B46AC
:103EB00063604A4600234046514601F0D1FA144B54
:103EC000B60098510120F0BCBB46B246A946A046B8
:103ED000F8BD104B104A11482D21FFF7EDFE012FC0
:103EE000C2D1C0239B01234303221A60A368DB07CE
:103EF000FCD5CAE72168794003220A401A60A3680A
:103F00000125BD401D42FAD0CBE7C04600800040ED
:103F1000C80500208C730010E4730010A07300101B
:103F200030B583B00C2000F021F9FEF759FB0028D2
:103F30000DD0002304E02E4A99002E48885001330A
:103F4000092BF8D92A4B2C4A5A6203B030BD2B4BAF
:103F500000229A6700F01CF9294B01221A60274BB6
:103F60005B6C012BFBD1274B03221A60234B9B6B0D
:103F7000012BFBD1013300930433234A0121234851
:103F800000F054F805230093214A0121214800F054
:103F90004DF8214B0093002202210420FFF73EFF41
:103FA0001E4D00952B00002201210520FFF736FF52
:103FB000104C00942300002200210720FFF72EFF61
:103FC00000942300002200210820FFF727FF0A4B5E
:103FD00000932300002200210920FFF71FFF009516
:103FE0002B00002200210620FFF718FFADE7C04696
:103FF000C8050020006CDC021BB7000000800040F8
:104000003CB0004030B00040002F685900800240B2
:10401000008C864700C00240001BB7004059730760
:10402000014B8000C0587047C8050020F0B5C64657
:1040300000B504000F0090461D000C2001F0CEF9E1
:1040400006003D4A42443D4B9A4243D843011B1A65
:104050009901C91AC90009188901404601F0BEF941
:104060000200103A98235B009A4239D86B1E062B47
:104070003CD8069B013B062B38D8069B9D423BD380
:1040800043461B09B3423DD32D04069B1E03354313
:104090002368002B3CDB2A4B9C424AD080235B01E7
:1040A000284A1360284A1360284A926819009143ED
:1040B000FAD12760A060221DC0239B011343212257
:1040C0001A602268002AFCDAE56008221A6080BCC7
:1040D000B846F0BD1E4B1F4A1F481121FFF7ECFDEB
:1040E0001E4B1C4A1C481921FFF7E6FD1C4B194AC0
:1040F00019481C21FFF7E0FD1A4B164A16482221E9
:10410000FFF7DAFD184B134A13482521FFF7D4FDBA
:1041100022683F231340BB42BDD1A3681B051B0D82
:104120008342B8D1E368EE22D2021340AB42B2D14F
:10413000CDE780239B01B3E780E84BD380F8A93219
:1041400000C0024000E0004000F0004000C000401D
:10415000F473001030750010547400109474001043
:10416000B0740010FC7400101475001080239B00C4
:104170000343014AD362704700800540024B1A682E
:10418000024B5A607047C046380600200080054048
:10419000064BAA2212011A602F22DA60044B054A4C
:1041A0001A60024B5B68002BFBDA7047004002404C
:1041B0000060024000B0FA00704710B5002802D03D
:1041C0000B684968984710BD0100002007E0830094
:1041D0001B185B00501C08601078C01830380A6843
:1041E0001378303BDBB2092BF1D97047F0B5DE46CE
:1041F00057464E464546E0B583B093461F000C9B9C
:104200009A460D9C0E9B99460F9B9B0703D0B84680
:104210000F00060022E00192A34688464E46B946AA
:104220000700B44207D2551C4B4641462020B847F0
:1042300001342A00F5E73D004F465C46019B9B4652
:10424000B1464646B84637002E0007E0013C551CF3
:104250005346185D43463900B0472A00002CF5D17B
:1042600035003E0047460F9B9B0707D4100003B064
:10427000F0BCBB46B246A946A046F0BDB0464E468D
:10428000B9462F005D46531BB342EFD2541C4B4638
:1042900041462020B8472200F5E7F0B5CE46474614
:1042A00080B585B0944698460C9D0D9C0EAB1B784E
:1042B0009946109A119B129EB7071CD4002B0CD064
:1042C000F7070AD54F46002F02D10C37374204D0EA
:1042D000013B02E030272F550134944201D21F2CBC
:1042E000F8D9F70707D59C4205D21F2C03D83027F1
:1042F0002F550134F5E7F70615D5770505D4002CC1
:1043000003D0944224D09C4222D00F9A102A2BD062
:104310000F9A102A30D00F9A022A35D01F2C02D8BB
:1043200030222A5501341F2C05D84A46002A31D0A4
:104330002D222A5501340396029301940095434699
:104340006246FFF753FF05B0C0BCB946B046F0BDAA
:10435000621E012C06D00F9F102F01D01400D4E74D
:10436000023CD2E71400D0E7B206D1D41F2CCFD83C
:1043700078222A550134D1E7B206CCD51F2CCAD8F1
:1043800058222A550134C9E71F2CC7D860322A5554
:104390000134C3E7720703D52B222A550134CAE73B
:1043A0003207C8D520222A550134C4E7F0B5DE46CD
:1043B00057464E464546E0B593B081468A46089238
:1043C00009931CAB10CB1B789B461E9D219B9846E6
:1043D000002C03D1102342469A4390468023DB00F1
:1043E00046461E4042461A4212D0002C22D00026D9
:1043F0000EE03031CBB2771C0AAA93552900200079
:1044000000F0ECFFAC4216D31F2F14D83E0004007E
:104410002900200000F0E2FFC9B20929E9D943468A
:104420009B0605D541235B18DBB20A3BDBB2E2E712
:104430006123F8E7270043460693209B05931F9BC3
:10444000049303955B46029301970AAB0093099B83
:10445000089A51464846FFF720FF13B0F0BCBB4610
:10446000B246A946A046F0BDF0B5DE4657464E46D8
:104470004546E0B595B0089009910A920B931E9EAF
:104480001F9C20AB1B789B46229B9946239D269B15
:104490009A463300234303D1103352469A4392463F
:1044A0008023DB0057461F4052461A4219D0330082
:1044B00023432DD0002714E03032D3B27A1C90462B
:1044C0000CAAD3554A462B003000210000F0C8FF4B
:1044D000A5421FD819D043461F2B1BD847460600BC
:1044E0000C004A462B003000210000F0B9FFD2B288
:1044F000092AE1D953469B0605D541239B18DBB217
:104500000A3BDBB2DAE76123F8E7B145E3D901E022
:104510000023984653460693259B0593249B0493BA
:104520004B4603935B460293434601930CAB0093C7
:104530000B9B0A9A09990898FFF7AFFE15B0F0BCDB
:10454000BB46B246A946A046F0BD0000F0B5DE4627
:1045500057464E464546E0B591B083468A460C9292
:1045600098461A9C08941B9D099522002B00200058
:10457000290001F004FA002800D0E5E001225242AF
:10458000D74B2000290001F0F5F9002800D0DBE02E
:1045900001225242D34B2000290001F0D5F9002816
:1045A00000D0D1E000220023089E3000099D2900A0
:1045B00001F0CAF9002800D0DDE0089A099B0692B4
:1045C00007938023DB001E9A1A400D921E9A1A420E
:1045D00001D106231C930698079904000D000A00D8
:1045E0000600024300D1D1E0080D4005400DBE4C4D
:1045F000A44660440A03120BBC4B13431F0001F096
:10460000D1F9BB4ABB4B01F05CF9BB4ABB4B01F093
:1046100031F904000D000022B94B3000390001F0DF
:1046200020F9B84AB84B01F04CF902000B00200009
:10463000290001F01FF901F0CDF9814601F0B2F92E
:1046400004000D00B14AB24B01F03BF90022B14B1E
:1046500001F010F901F0BEF90600AF4AAF4B20009F
:10466000290001F02EF904000D00300001F09AF944
:10467000AB4AAC4B01F025F902000B0020002900E9
:1046800001F0EFF804000D0002000B0001F019F931
:104690000A900B91A44BF31800261F0522002B0053
:1046A0002000290001F0E6F80E900F9122002B0067
:1046B00000208021C90501F0D4F804000D0000227B
:1046C0009A4B0A980B9901F0DEF80022984B01F002
:1046D000D1F802000B000A980B9901F0D4F80022DF
:1046E000944B01F0C7F802000B000A980B9901F0F7
:1046F000CAF802000B002000290001F0BBF80200FC
:104700000B000E980F9901F0BEF80022774B01F0D4
:10471000B1F832003B0001F0D4F806000F000400AD
:104720000D00069A079B01F025F9002830D00123DF
:104730005B429C46E14400227D4B3000390001F091
:10474000A2F804000D0023E01E9B04931D9B03931D
:104750001C9B0293089A099B0092019343460C9A72
:104760005146584600F0FCF811B0F0BCBB46B246CA
:10477000A946A046F0BD00230024069307940696A0
:1047800080231B069C46654407951AE7002399463B
:104790004B466333C62B1ED804261E9B1B0526D50D
:1047A0002B0023430FD0644A644B0698079901F00D
:1047B000D9F8002879D00022614B0698079901F0BA
:1047C000C3F8002871D01C9B4B4506DD4A469B1A56
:1047D000013B1C9303E00526DFE700231C938023A5
:1047E000DB001E9A1A431E920026002399461D9B49
:1047F0009E4264D29F1B02231E9A1A400A921E9A5E
:10480000134202D0002E00D000274B46002B07D0C9
:1048100022002B000698079901F035F806900791C1
:10482000002200230898099901F08EF8002848D149
:10483000444B1E9A1340049303971C9B0293069BC0
:10484000079C0093019443460C9A5146584600F049
:1048500087F8002E00D187E71E9B9B063DD5452596
:10486000441C4346020051462800D8474A46D31705
:10487000D2185A4005230593013E04960023039362
:104880000A3302934B46DB0F01930092434622000A
:1048900051465846FFF78AFD0A9B002B00D163E77B
:1048A00002005F460C9E1D9D54E01C9B002B9ED079
:1048B0000D9B002B9BD01C9B013B1C9397E7002773
:1048C00099E7069C079D2200290080200006844667
:1048D00061440B0006920793AAE76525C0E7C0462E
:1048E000FFFFEF7FFFFFEFFF01FCFFFF0000F03F46
:1048F000FB799F501344D33FB3C8608B288AC63FCF
:104900000000F83F61436F63A787D23F71A3790925
:104910004F930A400000E03F1655B5BBB16B024013
:10492000EF39FAFE422EE63FFF03000000002C4064
:1049300000002440000018402D431CEBE2361A3FD3
:1049400080842E41FFF7FFFF541C43465146202030
:10495000B8472200931BAB42F6D3100004E7C046D1
:10496000F0B5DE4657464E464546E0B595B0069052
:10497000079193469946209F1E9A1F9B100019008D
:1049800000F0FDFF002831D101225242BF4B1E989A
:104990001F9900F0D9FF002837D101225242BC4BA9
:1049A0001E981F9900F0E6FF00283DD10022B94B68
:1049B0001E981F9900F0DEFF002850D10022B64B50
:1049C0001E981F9900F0C0FF002848D10022002344
:1049D0001E981F9900F0B8FF002850D10023984678
:1049E000229B5B0500D4B6E0002458E0229B039391
:1049F000219B029303230193A84B00934B465A46F5
:104A000007990698FFF7F2FB0EE1229B0393219B87
:104A1000029304230193A24B00934B465A460799F5
:104A20000698FFF7E3FBFFE00423229A1A4022993D
:104A30000B4210D09B4B002A0FD0042222990391E5
:104A400021990291019200934B465A460799069884
:104A5000FFF7CCFBE8E0944BEDE70322EEE7229B67
:104A60000493219B039302971E9B1F9C0093019428
:104A70004B465A4607990698FFF768FDD4E01E9A00
:104A80001F9B0020002100F0ECFE1E901F910123CF
:104A90009846A5E70CAB30221A55013F01341F2C74
:104AA00001D8092FF6D81E981F9900F093FF050032
:104AB00000F078FF02000B001E981F9900F0D1FE55
:104AC0007A4BFA009B181A685B680A920B9300F005
:104AD000F8FE0890099100F0A1FF060000F05EFFCB
:104AE00002000B000898099900F0BBFE089009919C
:104AF00000226F4B00F03EFF00282ED00136300020
:104B000000F04CFF02000B000A980B9900F022FF06
:104B1000002801D001350026002F2CD1280000F0FC
:104B200041FF02000B001E981F9900F09AFE06003C
:104B30000F0000225E4B00F007FF002846D1002244
:104B40005B4B3000390000F015FF00283ED1EB0729
:104B50003CD501353AE0062746E70022544B089839
:104B6000099900F0F1FE0028D6D1002E01D0F307FC
:104B7000D2D50136D0E7AA461F2C11D8013F0A2111
:104B8000300000F02BFC651C30310CAB19550A21AC
:104B9000300000F023FC092E0ED906002C00EBE7B4
:104BA00055461F2C0CD87B1E002F09D00CAA302193
:104BB00011551F000134F4E72B0055461C00F0E7A7
:104BC0001F2C03D80CAB2E221A5501341F2C10D8E1
:104BD0000A21280000F0DAFB661C30310CAB1955B5
:104BE0000A21280000F0D2FB051E01D03400EDE7B9
:104BF00034000323229A1340012B1CD01F2C06D80B
:104C00004346002B32D00CAB2D221A550134229B87
:104C10000393219B029301940CAB00934B465A469D
:104C200007990698FFF7E2FA15B0F0BCBB46B2460A
:104C3000A946A046F0BD219B002B13D04346002B74
:104C400002D10C3313420FD0219B013B2193190059
:104C500003E00CAB30221A5501348C42CED21F2C0B
:104C6000F7D9CBE72199F8E72199F6E7229B5B0773
:104C700004D50CAB2B221A550134C8E7229B1B0725
:104C8000C5D50CAB20221A550134C0E7FFFFEFFF5A
:104C9000FFFFEF7F65CDCD4165CDCDC148750010DB
:104CA0004C7500103C75001044750010F076001033
:104CB0000000E03FF0B5DE4657464E464546E0B5BB
:104CC00093B082468B4690461193002900D100E3B1
:104CD00000275446119B1878002800D1FCE22528B3
:104CE00009D07D1C43463A005946A047119B013329
:104CF00011932F00EEE7013311930025119A1178DB
:104D00000B00203BD8B2102803D88300C248C358F8
:104D10009F460B00303BDBB2092B2CD92A292FD020
:104D200000230A93119B1A782E2A39D00023994622
:104D3000119A1378683BD9B2122976D88B00B749FB
:104D4000CB589F4601231D4301321192D6E702231F
:104D50001D4301321192D1E704231D430132119208
:104D6000CCE708231D4301321192C7E710231D43EE
:104D700001321192C2E711A8FFF726FA0A90D1E793
:104D80001C9B1A1D1C921B68002B04DB0A93119BB1
:104D900001331193C6E7022215435B420A93F6E7FB
:104DA0008022D20015435A1C11925A781300303BCE
:104DB000DBB2092B04D92A2A07D000239946B7E78A
:104DC00011A8FFF701FA8146B2E71C9B1A1D1C923D
:104DD0001B68002B04DB9946119B01331193A7E755
:104DE0000023F8E780235B002B43511C119152787C
:104DF0006C2A01D01D0018E0C0239B001D43013127
:104E0000119112E080232B43511C11915278682A92
:104E100001D01D0009E0C0231D430131119104E0C0
:104E200080235B001D4301321192119B1878672883
:104E300016D8252826D30300253BDAB2422A21D8EA
:104E40009300774AD3589F4680239B001D4301322D
:104E50001192EAE780235B001D4301321192E4E7DF
:104E600078280FD869280DD30200693AD2B20123FD
:104E700093406C4A13420FD11A0600D503E25B053A
:104E800000D594E17D1C43463A005946A047119B4A
:104E9000013311932F001DE7782809D0622838D0FC
:104EA0006F2838D0582838D010239D430A2600E0B8
:104EB0001026582833D0692803D0642801D00C224A
:104EC00095436A0501D50122954369282AD06428B3
:104ED00028D0AA0500D5A7E0EA0500D5C0E06A06FB
:104EE00000D4D2E01C9A111D1C911168FF220A40C7
:104EF00005950A9B04934B46039302960023019366
:104F0000009243463A0059462000FFF74FFA070047
:104F100027E00226CDE70826CBE71026C9E72022A6
:104F20001543C8E7AA0520D4EA0550D46A0666D519
:104F30001C9A111D1C911168FF220A40D0171118EC
:104F4000414005950A9B04934B4603930296D20F6A
:104F50000192009143463A0059462000FFF726FA95
:104F60000700119B01331193B4E61C9A0732072105
:104F70008A43110008311C91116853689C46DB1765
:104F80000C930D930C9A0D9B100048400E906246B6
:104F900053400F930E980F990C9A0D9B801A9941CC
:104FA0000E900F9108950A9B07934B460693049623
:104FB000002305936346DA0F029200900191434665
:104FC0003A0059462000FFF74FFA0700C9E71C9A3C
:104FD000111D1C911268D0171118414005950A9BAC
:104FE00004934B4603930296D20F019200914346DD
:104FF0003A0059462000FFF7D9F90700B1E72A0621
:1050000005D51C9A111D1C910023D25E96E71C9AAF
:10501000111D1C91126891E75475001098750010CD
:10502000E4750010419000001C9A073207218A4362
:10503000110008311C9108950A9B07934B46069373
:10504000049600230593029353681268009201931B
:1050500043463A0059462000FFF706FA070080E76A
:105060001C9A111D1C9105950A9B04934B460393B2
:105070000296002301931368009343463A00594671
:105080002000FFF793F907006BE72A0606D51C9A64
:10509000111D1C9112681204120C29E71C9A111D93
:1050A0001C91126824E746281AD01C9B073307225C
:1050B00093431A0008321C9204950A9A03924A46B6
:1050C00002921A685B680092019343463A0059467F
:1050D0002000FFF745FC0700119B01331193F9E510
:1050E00020231D43E1E7672801D0472802D1802310
:1050F0001B011D43452801D0472801D120231D4312
:105100001C9B0733072293431A0008321C92049514
:105110000A9A03924A4602921A685B6800920193C7
:1051200043463A0059462000FFF710FA0700119B4A
:1051300001331193CEE502231A002A4092462B42F6
:105140001FD001251C9B1A1D1C927A1C91461878B1
:1051500043463A005946A0475346002B16D1119BAF
:10516000013311934F46B5E5561C4346594620205E
:10517000B8472B0032005D1C9C42F5D83C0017005C
:10518000E0E701233A0027000A9CF4E74A46A146DB
:105190000A9C06E0571C434659462020C847350064
:1051A0003A006E1CAC42F5D84C469146D7E71C9BA2
:1051B0001A1D1C921E684B46002B00D1013B31008A
:1051C00001E0013113000A78002A02D05A1E002B98
:1051D000F7D1891B10918023DB002A001A409246E8
:1051E0001D4203D0494501D94B46109302231A00B2
:1051F0002A400B922B4205D03A00574623004C46DA
:10520000994620E03A00109B5F46B346260006E030
:10521000541C434639002020B0472B0022005D1C5F
:105220000A999942F4D834005E46BB461095574619
:1052300023004C46994606E01C000136551C4346A7
:105240005946C8472A003078002804D0002FF4D0EF
:10525000631E002CF0D117004C460B9B002B03D192
:10526000119B0133119335E50A9F109B06E0561CF4
:10527000434659462020A0472B0032005D1C9F4228
:10528000F5D81700ECE721232B431C9A111D1C9124
:1052900012680593082304934B460393102302934B
:1052A00000230193009243463A0059462000FFF73D
:1052B0007DF80700119B013311930BE57D1C4346DC
:1052C0003A0059462520A047119B013311932F0026
:1052D00000E50B4B9A46FBE4A246474502D3434602
:1052E0005A1E00E03A00434659460020D047380095
:1052F00013B0F0BCBB46B246A946A046F0BDC046BE
:10530000B941001000B585B0029003910121044815
:10531000009313004A4202A9FFF7CCFC05B000BD80
:10532000BB41001001480421014B18473002002006
:105330005553001010B5010018231B881422108843
:10534000984710BD10B5010018231B88162210883D
:10535000984710BDF0B5C64600B507000E00002501
:105360000123984600E00135B5420AD2AC003C1951
:105370002068FFF7DFFF20600028F4D10023984663
:10538000F1E7404680BCB846F0BD0000124A936F7A
:105390009B0815D29066D166002905D0FFE7FFE78C
:1053A000FFE7516F106F704704B580210906C217DF
:1053B0005140002800D0C84301F016FA002104BD76
:1053C000F0B5146E556E576F166FFFF7E3FF146656
:1053D000556657671667F0BD000000D0114A936FFD
:1053E0009B0813D210665166002905D0FFE7FFE73E
:1053F000FFE7516F106F704704B5002801D00020FF
:10540000C04301F0F1F9002104BDC046F0B5146EAF
:10541000556E576F166FFFF7E5FF146655665767B1
:105420001667F0BD000000D094464E4A926F920875
:10543000624601D230E0C046F0B54A4EB56F6D0805
:10544000FCD3346E756E776F366F00F025F8944696
:10545000444A14665566576716676246F0BDC046F3
:105460009446404A926F9208624601D258E0C04684
:10547000F0B53C4EB56F6D08FCD3346E756E776F2A
:10548000366F00F04DF89446364A146655665767F5
:1054900016676246F0BDC046002B24DB11D0002900
:1054A0003EDA00B5C943404200D1013100F038F87E
:1054B000C943404200D10131DB43524200D10133A4
:1054C00000BD002AEBD1002801D1002905D0002021
:1054D000C90FC90701D1C043410800B501F07CF9EB
:1054E0000022002300BD00B500290ADBDB43524245
:1054F00000D1013300F014F8C943404200D101311A
:1055000000BDC943404200D10131DB43524200D1CA
:10551000013300F005F8DB43524200D1013300BDF6
:10552000002923D1002B18D1002A0CD0BC460D4FE6
:1055300038667A6600210023FFE7FFE7FFE77A6F0E
:10554000386F67467047002801D00748010000B552
:1055500001F042F90022002300BD02000B000020F0
:1055600000217047000000D0FFFFFFFF002B00D09C
:10557000BFE0130C28D1002AE7D080B4114F396660
:105580007A66FFE7FFE730B4040C7B6F396F1B04CA
:1055900023433B667A66FFE7FFE7FFE7C04684B236
:1055A0007B6F3D6F1B0423433B667A66FFE7FFE793
:1055B000C04600232C042D0C7A6F386F0019694106
:1055C000B0BC7047000000D0F0B594460025140E22
:1055D00001D112020835140F01D112010435940FC4
:1055E00001D192000235D40F01D152000135D40B04
:1055F0000134254F7C66254C3C660E0C93B2FFE7C8
:10560000FFE7FFE73C6F6643360C7703BE46734304
:10561000DF0B5B04C01AB941130C7343DB18C91AC2
:10562000CE086643360CB64493B273431F0F1B017A
:10563000C01AB941130C73431F0B1B05C01AB941A3
:10564000860D8F023E436643360C092D24DB520A39
:105650007243801A7703460A6643360C16235B1B97
:10566000DE40DF40BF1964466643821B7046043546
:1056700006330100D940A840C01900D30131A2422D
:1056800006D20023F0BD0000000000D0FFFFFFFFA6
:10569000121B0130F3D3F1E709277F1BFE4064465C
:1056A000A2B27243801A00D20139220C7243130C49
:1056B0001204821A99410B00704604351337010019
:1056C000F940A840801900D30131002B02D1A24239
:1056D0000AD2F0BD013000D30131121BFAD2013BD6
:1056E000F8D1A24200D2F0BD013000D30131121B2B
:1056F000F7E7F0B51C0C00D080E00CB400251C0AC4
:1057000004D11B02160E3343120208351C0B04D1C0
:105710001B01160F3343120104359C0B04D19B006F
:10572000960F334392000235DC0B02D192185B4195
:1057300001351C00971864410134464F7C66464C85
:105740003C660E0CFFE7FFE7FFE7C0463C6F664391
:10575000360C7703BE4697B27743C01B00D201399F
:10576000C01B00D201399FB27743C91BC91B170C5C
:1057700077437E04FF0B801BB941CE086643360C8D
:105780000C2D33DBB644120B1F053A431B0B97B2AB
:105790007743C01B00D201399FB27743C91B170C56
:1057A00077433E043F0C801BB941860D8F023E4378
:1057B000664329277F1BFE400C3D7746AF40BF194B
:1057C00030BCA2B2ABB272437343801A9941220C2F
:1057D0007243130C1204801A994102000B00013726
:1057E000001BA941F9D2781E0021F0BD0C277F1BB8
:1057F000FE4077467F0BAF40FF19E0E700245D1CB9
:1058000007D0144F7D663966FFE7FFE7FFE7FFE744
:105810003C6F95B29EB265436643401BB141150C87
:105820001E0C6543664336042F0C3E432D04401B7B
:10583000B141994204D202000B0020000021F0BDCA
:1058400001D19042F7D3801A994101349942F2D3A1
:10585000F6E70000000000D0FFFFFFFF4840414096
:10586000484018B41B4B5B68FC46019308BD04DF3D
:10587000375B001018B4174B1B68FC46019308BD3A
:1058800000DF415B00109446134A926F920809D2E0
:10589000624618B40F4BDB68FC46019308BD0CDF71
:1058A000F95D00100C4AF0B5146E556E576F166F07
:1058B0006246FFF7EEFF084A14665566576716679B
:1058C000F0BD18B4034B9B68FC46019308BD08DF8C
:1058D0009D5C001064060020000000D0FFB5504021
:1058E0004240504059404B40594000E0FFB5154FF1
:1058F0004C00640D03D0BC4204D10C0314D800202A
:10590000090D09055C00640D03D0BC4204D11C03E1
:105910000AD800221B0D1B0501264B4009D44B4021
:1059200003D58B4200D18242FFBD9942FCD1904207
:10593000FFBD0B43DB1803431343F5D0C94349189C
:10594000FFBD0000FF07000000B5FFF7CFFF80415B
:1059500000BDC04600B5FFF7C9FF01D9002000BD5A
:10596000012000BD00B5FFF7B9FF01D9002000BD3F
:10597000012000BD00B5FFF7B1FF804100BD01204F
:1059800040054A00121804D85A00121801D8002005
:105990007047012070470020704700000021002858
:1059A00005D17047C1174840401AFAD0C90713B54E
:1059B000064B1B6898470CBC441CA2401005120BF8
:1059C0000349091B09051943114310BD6407002051
:1059D0001F04000010B54C00620D8023D218DB00BC
:1059E000D21A5B057E2A10DD9E3A13DACC17090322
:1059F000490819435242D140640001341532202A2B
:105A000005DAD0400843604310BD002010BD0846B1
:105A1000604310BDC80FC018013810BD18B4044B46
:105A20005B6AFC46019308BD24DFA95F00100000FB
:105A30006406002070B513231C78012C14D0012CAF
:105A400014DC022C02DC1F4B1F4A93641F48FFF733
:105A500071FC1F4B186070BD1A491B4A9800815099
:105A600001331F2BF8D9EAE70023FAE71948FFF7BB
:105A700069FC05001848FFF765FC023803789B00B5
:105A80007F2B19DD10488022290000F0ABFB022C8F
:105A9000D7D1124B1A88B5231B029A4209D1104B59
:105AA0001A88104B9A4204D10F4B1A880F4B9A4216
:105AB000C7D00020FEF79AF90D4B0E4A0E4832214E
:105AC000FEF7FAF8FD5A0010640600204C3300007F
:105AD000640700205344000053460000543800007F
