:020000041000EA
:1000000000B5324B212058609868022188439860DF
:10001000D860186158612E4B002199600221596106
:100020000121F02299502B49196001219960352056
:1000300000F044F80222904214D00621196600F024
:1000400034F8196E01211966002018661A6600F04E
:100050002CF8196E196E196E052000F02FF8012189
:100060000842F9D1002199601B49196000215960AB
:100070001A491B48016001219960EB211966A021F2
:10008000196600F012F800219960164914480160C1
:100090000121996001BC002800D000471248134993
:1000A000086003C880F30888084703B5996A0420EC
:1000B0000142FBD001200142F8D103BD02B5186610
:1000C0001866FFF7F2FF186E186E02BD00000240BE
:1000D000000000180000070000035F00212200005C
:1000E000F4000018222000A00001001008ED00E03C
:1000F00000000000000000000000000074B24E7A12
:1001000000200420F7010010C3010010C5010010F9
:10011000C1010010C1010010C1010010C101001097
:10012000C1010010C1010010C1010010C701001081
:10013000C1010010C1010010C9010010CB01001065
:10014000CD010010CD010010CD010010CD01001037
:10015000CD010010CD010010CD010010CD01001027
:10016000CD010010CD010010CD010010CD01001017
:10017000CD010010CD010010CD010010CD01001007
:10018000CD010010CD010010CD010010CD010010F7
:10019000CD010010CD010010CD010010CD010010E7
:1001A000CD010010CD010010CD010010CD010010D7
:1001B000CD010010CD010010CD010010CD010010C7
:1001C00000BE00BE00BE00BE00BE00BE00F04BF888
:1001D000103800BEF2EB8871AC7D0010D47D0010A9
:1001E0003402001090A31AE700202149086006C8D5
:1001F00081F3088810471F48006800282FD10DA4FC
:100200000ECC002902D000F012F8F9E71A491B4A77
:10021000002000E001C19142FCD1194988471949E9
:1002200088471949884700BEFDE701C901C29A42C3
:10023000FBD37047D47D0010C0000020C002002016
:10024000D47F00100000042000000420D47F0010A0
:1002500000100420001004200000000070470B482C
:1002600005F068FA0047EFF30580C0B27047000060
:1002700008ED00E0000000D0C0020020740A002059
:10028000F5400010A50D0010B140001057560000B9
:1002900006005250ABB36053247D0010060052504C
:1002A000861C0302347D0010060052505422A29D89
:1002B000387D001005005250DE65F468D47F0010D0
:1002C000F8B5C04606480749091A8B10C90FC91866
:1002D00010B5491003D0044B002B00D0984710BD37
:1002E000C0020020C002002000000000054B10B535
:1002F000002B03D00449054800E000BFFFF7E2FFF0
:1003000010BDC04600000000FC070020706C00100B
:10031000014B01221A7070475E0A0020234B1B78A4
:10032000012B28D0224B1B78012B35D0214B1B7879
:10033000012B36D0204A13780133DBB21370132B14
:1003400008D9D0231B0640229A61194B00221A704B
:10035000194B1A70194A13780133DBB21370132B3F
:100360000FD9D0231B0680229A61124B00221A70EB
:10037000124B1A7005E0D0231B0640225A6140320E
:100380005A610F4B1B889BB2002B04D00C4A138878
:10039000013B9BB213807047D0231B0640225A6159
:1003A000C4E7D0231B0680225A61C3E7680A0020F5
:1003B0006C0A00206F0A0020620A0020630A0020F5
:1003C0004A0A0020D0231B065B689B0105D5D02379
:1003D0001B06802292049A617047D0231B0680225C
:1003E00092045A61F8E7F0B5C64600B584B004003F
:1003F0000E0017001D0003F093F88046E117FA2263
:1004000092000023200006F02DF802000B00029558
:1004100001970096404603F055F904B080BCB846F9
:10042000F0BD000082B0544B9B6910210A001A40B5
:10043000194208D0514B9B6910210A001A401942F9
:100440004DD002B070474E4B0F3919704D4B188884
:1004500080B26B46D91D002A09D1474B9B69DB0648
:10046000FBD4454B1B680B7001320131F3E76B463F
:10047000DA79454B1A54434A138801339BB21380EF
:1004800013889BB28C225200934213D03D4B1A88A2
:1004900092B23E4B1B889BB29A420FD0364B5B68A0
:1004A000012B18D0344B5B68082BCAD1384B08227B
:1004B0001A60C6E7334B00221A80E7E7334A1388F5
:1004C00001339BB213808C2252009342E6D12F4B12
:1004D00000221A80E2E72E4B01221A60E2E72D4B40
:1004E0000F3919702C490B8898B201339BB20B80DD
:1004F0006B46D91D08E0214B9B69DB06FBD41F4BE3
:100500001B680B7001320131002AF4D06B46DA7996
:10051000224B1A54204B1B889BB28C2252009342D0
:1005200014D01D4B1A8892B21D4B1B889BB29A4265
:1005300010D0124B5B68012B19D0104B5B68082B55
:1005400000D07EE7174B08221A607AE7124B002290
:100550001A80E6E7124A138801339BB213808C227B
:1005600052009342E5D10E4B00221A80E1E70D4B79
:1005700001221A60E1E7C0460080034000400340CA
:100580006C0A00204E0A0020C00200204C0A002005
:1005900004B003406F0A0020540A0020E00300204A
:1005A000500A00200470034010B5204B1A88204BDD
:1005B0001A8004E01E4A138801339BB213801C4B3F
:1005C0001A8892B21B4B1B889BB29A4206D2184BD8
:1005D0001B889BB2184AD35C102BEBD1144B1B88A1
:1005E00016491548C018022206F066FA00280AD1FA
:1005F000104B1B889BB20E4A138001300D4B1A889A
:100600000A4B1A8010BD0A4B1B880D490A48C018B6
:10061000022206F051FA002806D1064B1B889BB235
:10062000034A13800230E9E70920E7E7520A002075
:10063000500A0020540A0020E0030020E06C001063
:10064000006D001000B5172800D9FDE18000E84BCF
:100650001B589F46D0231B06802252039A6180229A
:1006600012039A618022D2029A61802292035A6117
:100670008022D2049A61802212059A6100BDD023A3
:100680001B06802252039A61802212039A61802203
:10069000D2025A61802292035A618022D2049A6166
:1006A000802212059A61E9E7D0231B0680225203BB
:1006B0009A61802212035A618022D2029A618022BA
:1006C00092035A618022D2049A61802212059A61B3
:1006D000D4E7D0231B06802252039A6180221203A2
:1006E0005A618022D2025A61802292035A6180228A
:1006F000D2049A61802212059A61BFE7D0231B06BB
:10070000802252035A61802212039A618022D2020F
:100710009A61802292039A618022D2049A61802297
:1007200012055A61AAE7D0231B06802252039A6160
:10073000802212039A618022D2029A61802292035F
:100740009A618022D2049A61802212055A6195E74B
:10075000D0231B06802252035A61802212039A6121
:100760008022D2029A61802292035A618022D204AE
:100770009A61802212059A6180E7D0231B068022AD
:1007800052035A61802212039A618022D2025A6176
:10079000802292035A618022D2049A61802212053B
:1007A0009A616BE7D0231B06802252035A61802294
:1007B00012035A618022D2029A61802292035A6106
:1007C0008022D2049A61802212059A6156E7D023D2
:1007D0001B06802252035A61802212035A61802232
:1007E000D2025A61802292035A618022D2049A6115
:1007F000802212059A6141E7D0231B068022520312
:100800005A61802212039A618022D2025A618022A8
:1008100092039A618022D2049A61802212055A6161
:100820002CE7D0231B06802252039A6180221203F8
:100830009A618022D2025A61802292039A618022B8
:10084000D2049A61802212055A6117E7D0231B0651
:10085000802252039A61802212039A618022D2027E
:100860009A61802292039A618022D2045A61802286
:1008700012059A6102E7D0231B06802252039A6177
:10088000802212039A618022D2025A61802292034E
:100890009A618022D2045A61802212059A61EDE6A3
:1008A000D0231B06802252039A61802212035A61D0
:1008B0008022D2029A61802292039A618022D2041D
:1008C0005A61802212059A61D8E6D0231B06802245
:1008D00052039A61802212035A618022D2025A6125
:1008E000802292039A618022D2045A6180221205EA
:1008F0009A61C3E6D0231B06802252035A618022EC
:1009000012035A618022D2029A61802292039A6174
:100910008022D2049A61802212055A61AEE6D02369
:100920001B06802252039A61802212035A618022A0
:10093000D2029A61802292039A618022D2049A6143
:10094000802212055A6199E6D0231B0680225203A9
:100950005A61802212039A618022D2029A61802217
:1009600092039A618022D2045A61802212059A6110
:1009700084E6D0231B06802252035A618022120390
:100980009A618022D2025A61802292039A61802267
:10099000D2045A61802212059A616FE6D0231B06A9
:1009A000802252035A61802212035A618022D202AD
:1009B0009A61802292039A618022D2045A61802235
:1009C00012059A615AE6D0231B06802252035A610F
:1009D000802212035A618022D2025A61802292033D
:1009E0009A618022D2045A61802212059A6145E6FA
:1009F000706C0010D0231B06802252035A618022A3
:100A000012035A618022D2025A61802292039A61B3
:100A10008022D2049A61802212055A612EE6D023E8
:100A20001B06802252039A61802212035A6180229F
:100A3000D2025A61802292039A618022D2049A6182
:100A4000802212055A6119E6D0231B068022520328
:100A50009A61802212039A618022D2029A618022D6
:100A600092039A618022D2049A61802212059A61CF
:100A700004E6C04670B5002803D001281DD0002030
:100A800070BD1D491A230B70D0252D068026B60196
:100A9000AE611A4C163B2200194806F0D9F86E6177
:100AA000A3785B086278D101C9B25B1852080F20A5
:100AB00010400002DBB2C018E2E7093002F0F8FE95
:100AC0000D4910230B70D0252D068026B601AE618E
:100AD0000A4C0C3B22000A4806F0BAF86E61A37873
:100AE0005B086278D101C9B25B1852080F20104030
:100AF0000002DBB2C018C3E76C07002060070020CB
:100B00000000044010B50020FFF7B4FF0200104BB6
:100B10001B8883420DD2C31A9BB2092B06D80D4BFA
:100B20001B88934208D90C4B01221A70084B18807D
:100B300010BD1B1A9BB2F0E7074B1B78012BF5D1B8
:100B4000064B1B889342F1D2034B00221A70EDE74B
:100B50005A0A0020580A0020680A00205C0A002077
:100B600010B504000100044803F060FA21000348B6
:100B700003F05CFA10BDC046008003400040034013
:100B800010B503F0FBFC10BD70B5784B00221A8045
:100B9000774B1A80774B1A7024E0774B9B699B0642
:100BA000FBD40878744B186001320131082AF4D95B
:100BB0006E4B1A8801326E4B1B889BB29A4204DB43
:100BC0006E4B1B889BB2002BF2D1FFF7EDFC6C4BF8
:100BD0001870012868D00A2002F06AFE654A13786E
:100BE00001331370634B1B78172B00D9BDE0FFF75F
:100BF000C7FF624BFA2252001A80614B00221A7022
:100C00005C4C2078FFF71EFD0A2002F051FE25788B
:100C10000120FFF72FFF5B4A6D00505323785900E6
:100C2000895A18335B00995200225749BEE7524B4C
:100C30009B699B06FBD408784F4B18600132013149
:100C4000072AF4D9494B1A880132494B1B889BB2B9
:100C50009A4204DB494B1B889BB2002BF2D1FFF771
:100C6000A3FC474B18700128B5D1093002F020FED3
:100C7000404E34780120FFF7FDFE424D30346400D1
:100C800028533478230030335B00585B05F08AF832
:100C90003E4A3F4B05F015F805F0C0F848346400B3
:100CA00028530021384A0BE000223A49C8E7324B6A
:100CB0009B699B06FBD410782F4B186001310132E1
:100CC0000829F4D9294B1A880132294B1B889BB279
:100CD0009A4204DB294B1B889BB2002BF2D1FFF711
:100CE00063FC274B1870012800D074E700212A4AC2
:100CF00008E0214B9B699B06FBD410781E4B1860C3
:100D0000013101320729F4D9184B1A880132184BE6
:100D10001B889BB29A4204DB184B1B889BB2002BAA
:100D2000F2D1FFF741FC164B1870012800D052E7B2
:100D3000093002F0BDFD0F4E34780120FFF79AFE16
:100D4000104D6034640028533478230060335B0016
:100D5000585B05F027F8114A114B04F0B2FF05F07B
:100D60005DF878346400285335E770BD500A0020E0
:100D7000540A0020600A0020004003404A0A002074
:100D80005F0A002040060020E46C00105C8FC2F572
:100D9000285CF33FF86C0010F06C0010B4C876BE0D
:100DA0009F1AF33FF8B5DE4657464E464546E0B536
:100DB00005F068FD122001F0D7FD132001F0D4FDED
:100DC000142001F0D1FD152001F0CEFD1A2001F014
:100DD000CBFD1B2001F0C8FD192001F0C5FD072047
:100DE00001F0C2FD062001F0BFFD162001F0BCFDA0
:100DF0000D2001F0B9FDD02424068023DB029A46A1
:100E0000636280231B039946636280235B039846D9
:100E1000636280239B039C4663628026F6046662BD
:100E200080252D05656280208004606280216162DA
:100E3000402262628023DB039B46636280239B0126
:100E400063625746A7614F46A7614746A761674659
:100E5000A761A661A561A061A161A2615A46A261D4
:100E60006361824B824900228248FFF7BCFA824BC1
:100E7000824900220A20FFF7B6FA814B8149FA2203
:100E80005200904600224046FFF7ADFA7E497F4867
:100E900005F0DEFD01210C2001F04EFD01210B20AB
:100EA00001F04AFD01210A2001F046FD96231B02B4
:100EB0009946774E1900300003F0B8F80221092056
:100EC00001F03AFD0221082001F036FD714D49463E
:100ED000280003F0ABF80221102001F02DFD0221C3
:100EE000112001F029FD336BC022120294461340F9
:100EF000694A1360F36A602043406E2213406749D9
:100F000089460B60F16A102319404F463960296BFE
:100F100067463940624F3960E96A41400A40614999
:100F20000A60EA6A13400B605F4B9A4619004B381F
:100F300001F002FE0121152001F0EEFD502399463B
:100F4000B363736B38263340584A136051461420FC
:100F500001F0F2FD0121142001F0DEFD4B46AB63F0
:100F60006B6B1E40524B1E60524A00231370524A54
:100F70001370524A1370524A1370524A13705B46F0
:100F80006361514B42461A804F4B1B889BB2002B2A
:100F9000FAD14E4A13804E4A13804E4A13804E4A6D
:100FA00013804E4B4E4A1A804E4B4D321A801C20F5
:100FB00001F0DAFCD0231B06802252059A622AE057
:100FC000FFF7E2FD2EE0FFF79DFD474B00221A7070
:100FD0002CE0394B1B78012B09D03A4B1B78012BA5
:100FE0000FD1384B00221A70404B1A8013E0324B5D
:100FF00000221A703D4B1A8001F0B8FB3C4B188060
:1010000009E000F0A7FF3A4B188004E0D0231B064C
:101010008022D2039A61FFF7B3FDD0231B065B68E1
:10102000DB00CDD4304B1B78012BCCD0214B1B786F
:10103000002BEBD1D0231B068022D2035A612D4B0B
:1010400000221A7000F020FA294B18800028E2D004
:10105000264B1B889BB2022BBBD01A4B1B78012B53
:10106000D9D000F0CBF8224B1880D4E7100600202E
:101070001103001088130000F80500201D03001064
:1010800028060020C503001040420F000000044065
:101090000080034000400340309003402C90034008
:1010A000305003402C50034025040010349003407E
:1010B00034500340680A00206B0A00206C0A0020AC
:1010C0006F0A0020710A00204A0A00204C0A002002
:1010D0004E0A0020500A0020540A0020580A00201E
:1010E0008F0200005C0A00205E0A0020460A0020F1
:1010F000480A0020670A00200F4B1A8892B20F4B53
:101100001B889BB29A4215D00B4A138899B20133BF
:101110009BB213800A4B5B5C037013889BB28C22DA
:101120005200934201D001207047034B00221A80E5
:101130000120F9E70020F7E74C0A00204E0A0020C2
:10114000C00200200F4B1A8892B20F4B1B889BB233
:101150009A4215D00B4A138899B201339BB213807F
:101160000A4B5B5C037013889BB28C225200934243
:1011700001D001207047034B00221A800120F9E7BB
:101180000020F7E7500A0020540A0020E003002066
:1011900030B583B00400174B9B6908210A001A4040
:1011A0001942F8D1144B02215B5EA3420ED06B466C
:1011B000D91D0C70002A1AD10E4B9B699B06FBD4DB
:1011C00008780C4B186001320131F3E76B46D91DEA
:1011D0000D230B7010000028E9D1064B9B699B067C
:1011E000FBD40D78034B1D6001300131F3E703B0F0
:1011F00030BDC046008003403C0A002030B583B0BB
:101200006B460022DA7107E06B4607331B781A2B16
:101210001FD0192B00D1BFE0764B1B889BB2002B4F
:1012200000D19BE06B46D81DFFF78CFF0128F3D15E
:101230006B4607331B78102BEED16B46D81DFFF79A
:1012400081FF0128E0D06B4B1B889BB2002BF4D1AF
:10125000DAE76B46D81DFFF775FF012804D0654B10
:101260001B889BB2002BF4D16B46DC79E51D06E0B0
:101270006B4607331B78102B14D0013CA4B2002C12
:1012800020D05C4B1B889BB2002B1BD06B46D81D1B
:10129000FFF758FF0128EBD0564B1B889BB2002B61
:1012A000F4D1E5E76B46D81DFFF74CFF012804D0C9
:1012B000504B1B889BB2002BF4D1013CA4B20135EA
:1012C000ADB2DCE76B46D81DFFF73CFF012804D028
:1012D000484B1B889BB2002BF4D16B46D81DFFF7FF
:1012E00031FF012804D0434B1B889BB2002BF4D163
:1012F0006B46D81DFFF726FF012804D03D4B1B8805
:101300009BB2002BF4D16B46D81DFFF71BFF0128C1
:1013100004D0384B1B889BB2002BF4D1364B1B7882
:10132000012B04D0354B1C88641BA4B210E01020A4
:10133000FFF72EFF2120FFF72BFF314B1878FFF727
:1013400027FFEFE72F4B185DFFF722FF0134A4B210
:10135000A542F7D82C4A137801331370254B1B880C
:101360009BB2002B2ED029488C256D002A0000212D
:1013700005F032F9264B00241C80264B1C802148A6
:101380002A00002105F028F91C4B1C801C80194BF9
:10139000188880B203B030BD6B46D81DFFF7D2FE6F
:1013A000012804D0134B1B889BB2002BF4D11020D2
:1013B000FFF7EEFE1920FFF7EBFE6B46D879FFF73B
:1013C000E7FECBE7144A1378013313701020FFF7C0
:1013D000DFFE2120FFF7DCFE094B1878FFF7D8FE6F
:1013E0001020FFF7D5FE1920FFF7D2FE8220FFF76D
:1013F000CFFEB8E74A0A0020690A0020540A0020FC
:10140000700A0020E00300206E0A0020C0020020C5
:101410004C0A00204E0A0020660A002030B583B036
:101420000400174B9B6908210A001A401942F8D1A1
:10143000144B00215B5EA3420ED06B46D91D0C708D
:10144000002A1AD10E4B9B699B06FBD408780C4BE3
:10145000186001320131F3E76B46D91D0D230B7083
:1014600010000028E9D1064B9B699B06FBD40D7840
:10147000034B1D6001300131F3E703B030BDC046BE
:10148000004003403C0A0020F0B5CE46474680B5F8
:1014900083B000236A46D371B54A1370B54A1380EE
:1014A000B54BFA2252001A80002600270125012D93
:1014B00001D000F025FDB04B1B889BB2002B01D161
:1014C00000F01EFD6B46D81DFFF716FE0400012834
:1014D000EDD1A94B64221A806B4607331B78102B81
:1014E00002D000260027E2E7FF18BFB23102360A19
:1014F0007340A24A5B009E5A4E40B6B26B46D81D5E
:10150000FFF7FAFD012804D09B4B1B889BB2002BF0
:10151000F4D16B4607331B78132B1FD0152B00D14A
:10152000FEE2212BC3D1944B1B889BB2002BBED073
:101530006B46D81DFFF7E0FD012804D08E4B1B88B9
:101540009BB2002BF4D18A4B01221A708C4B6A4655
:10155000073212781A7000260027A8E7864A1288F8
:1015600092B2002ADAD0834A01211180FF18BFB25B
:101570003102360A7340814A5B009E5A4E40B6B231
:101580006B46D81DFFF7B8FD012804D07A4B1B88A5
:101590009BB2002BF4D16B4607331B78FF2B00D096
:1015A00040E2754A128892B2002A00D13AE2FF184E
:1015B000BFB23102360A7340704A5B009E5A4E40F9
:1015C000B6B26B46D81DFFF797FD012804D06A4BD1
:1015D0001B889BB2002BF4D1674B1B889BB2002B5E
:1015E00001D1002563E76B4607331B7898B2DF19FA
:1015F000BFB23502320A5A4060495200565A6E4014
:10160000B6B2002819D15F4B01221A706B4607331E
:101610001B78102B19D06B46D81DFFF76DFD0128E4
:1016200004D0554B1B889BB2002BF4D1524B1B8826
:101630009BB2002B22D1002539E7524A00211170BC
:10164000013BD8B2FEF7FEFFE0E76B46D81DFFF77F
:1016500053FD012804D0484B1B889BB2002BF4D1CA
:101660006B4607331B78FF18BFB23102360A73404E
:10167000424A5B009E5A4E40B6B2CCE76B46DA79DE
:10168000414B1A70BF18BFB23002330A53403B4976
:101690005B005E5A4640B6B2102A11D06B46D81D88
:1016A000FFF72AFD012804D0334B1B889BB2002B87
:1016B000F4D1314B1B889BB2002B1AD10025F6E6E2
:1016C0006B46D81DFFF718FD012804D02A4B1B8854
:1016D0009BB2002BF4D16B4607331B78FF18BFB2C7
:1016E0003102360A7340254A5B009E5A4E40B6B21C
:1016F000D4E76B4607331B78FF18BFB23102360AB6
:1017000073401E4A5B009E5A4E40B6B26B46D81DCF
:10171000FFF7F2FC012804D0174B1B889BB2002B6B
:10172000F4D1154B1B889BB2002B01D10025BEE6DE
:101730006B4607331B78FF18BFB23102360A73407D
:101740000E4A5B009E5A4E40B6B26B46D81DFFF75C
:10175000D3FC012804D0084B1B889BB2002BF4D18A
:10176000054B1B889BB2002B10D100259FE6C0467D
:10177000690A0020460A00204A0A0020106D001065
:10178000700A0020670A00206A0A00206B46DD7993
:101790002D026B46D81DFFF7AFFC012804D0974BF4
:1017A0001B889BB2002BF4D1944B1B889BB2002B5F
:1017B00000D196E36B4607331B78EB189BB29F4230
:1017C00002D09E4215D102240A2002F071F88C4BFF
:1017D0001B78012B18D08B4B00221A808A4B1B7868
:1017E000DDB2934250D0894B1B78FD2B58D0002599
:1017F0005DE61020FFF7CCFC1920FFF7C9FC06209E
:10180000FFF7C6FC0024DFE7162281498148FF323A
:1018100005F076F9804A1388033B9BB21380DAE720
:101820007C4B4A46985CFFF7F9FD012C24D07549A2
:101830000B8818021B0A9C46764A4B46D25C6346CC
:101840005340764A5B009B5A43400B80434601332A
:101850009BB29846C146704B1B88023B984516DAEE
:101860004346022BF2D0032BF0D0042BD8D1694B86
:10187000DB78102BD4D1E9E7664B4A469B5C614A82
:1018800011885B181380E1E700239846E2E75D4C7E
:101890002088000AFFF7C2FD2078FFF7BFFD06E6AB
:1018A0001020FFF775FC012C00D17FE055490A8814
:1018B0001002120A10235340584A5B009B5A4340BF
:1018C0000B801A20FFF764FC012C00D173E04D4916
:1018D0000A881002120A1A235340504A5B009B5A8E
:1018E00043400B800220FFF753FC012C68D0454990
:1018F0000A881002120A02235340484A5B009B5A8E
:1019000043400B80464B1878FFF742FC012C5CD01B
:101910003C490A881002424B1B881B0A120A53409A
:101920003E4A5B009B5A43400B803D4B1888000A9F
:10193000FFF72EFC012C50D032490B8818021B0AED
:10194000374A12785340354A5B009B5A43400B801C
:101950001020FFF71DFC012C46D02A490A881002EE
:10196000120A102353402D4A5B009B5A43400B80C0
:101970001F20FFF70DFC012C3BD022490A881002E2
:10198000120A1F235340254A5B009B5A43400B8099
:101990001C4C2088000AFFF7FBFB2078FFF7F8FBC0
:1019A000194B00251D70194B1D7080E5154A1388D1
:1019B0001033138085E7134A13881A33138091E795
:1019C000104A1388023313809CE70E4A144B1B887D
:1019D0001B0A11885B181380A7E7114B1B78094A73
:1019E00011885B181380B3E7064A138810331380FD
:1019F000BEE7044A13881F331380C9E74A0A002050
:101A0000690A0020440A0020670A00206A0A0020B0
:101A1000C3020020C00200204C0A0020106D0010FC
:101A2000560A0020002B04D1B54B1B889BB2002B1B
:101A30006AD16B46D81DFFF75FFB012804D0B04B7D
:101A40001B889BB2002BF4D16B46D81DFFF754FBCB
:101A5000012804D0AA4B1B889BB2002BF4D16B4603
:101A6000D81DFFF749FB012804D0A54B1B889BB26A
:101A7000002BF4D16B46D81DFFF73EFB012804D0A4
:101A80009F4B1B889BB2002BF4D16B46D81DFFF7F0
:101A900033FB012804D09A4B1B889BB2002BF4D156
:101AA00098488C225200002104F096FD964B0122AA
:101AB0001A70964B00221A80954B1A801020FFF75F
:101AC00067FB2120FFF764FB924B1878FFF760FB60
:101AD0001020FFF75DFB1A20FFF75AFB0220FFF7EB
:101AE00057FB0120FFF754FB1820FFF751FB102094
:101AF000FFF74EFB1F20FFF74BFB0020FFF748FBD3
:101B00007420FFF745FBD2E46B46D81DFFF7F4FACB
:101B100001288ED07A4B1B889BB2002BF4D188E72A
:101B2000774A128892B2002A00D1FAE4744A6421FA
:101B30001180FF18BFB23102360A7340764A5B004B
:101B40009E5A4E40B6B26B46D81DFFF7D5FA012813
:101B500004D06B4B1B889BB2002BF4D16B46073330
:101B60001B78E52B26D06B46D81DFFF7C5FA012858
:101B700004D0634B1B889BB2002BF4D16B46073318
:101B80001B78A22B26D06B46D81DFFF7B5FA01288B
:101B900004D05B4B1B889BB2002BF4D16B46DA79E7
:101BA000FD2A00D8A0E1564B1B889BB2002B21D107
:101BB00000257CE4524A128892B2002AD3D0FF1842
:101BC000BFB23102360A7340534A5B009E5A4E4000
:101BD000B6B2C8E74A4A128892B2002AD3D0FF1898
:101BE000BFB23102360A73404B4A5B009E5A4E40E8
:101BF000B6B2C8E7BF18BFB23002330A53404649F5
:101C00005B005E5A4640B6B2FE2A39D0434B0022F2
:101C10001A706B46D81DFFF76FFA012804D0384BB5
:101C20001B889BB2002BF4D1354B1B889BB2002B39
:101C300000D15CE16B4607331B7898B2DF19BFB265
:101C40003402320A5A4034495200565A6640B6B2FB
:101C5000334A1370002817D1324B01221A706B4699
:101C600007331B78102B17D02C4B1B78002B2CD054
:101C7000234B1B889BB2002B58D10025FFF717FC84
:101C8000264BFD3A1A70C4E7264A00211170013B29
:101C9000D8B2FEF7D7FCE2E76B46D81DFFF72CFA67
:101CA000012804D0164B1B889BB2002BF4D16B4645
:101CB00007331B78FF18BFB23102360A7340164A49
:101CC0005B009E5A4E40B6B2CEE76B46D81DFFF77A
:101CD00013FA012804D00A4B1B889BB2002BF4D1C5
:101CE0006B4607331B78104A1370FF18BFB23102DE
:101CF000360A7340084A5B009E5A4E40B6B2B7E7B8
:101D00004A0A0020C0020020690A00204C0A002074
:101D10004E0A0020700A0020106D00106B0A00208F
:101D20006D0A0020670A00206A0A00206B4607330C
:101D30001B78102B29D06B46D81DFFF7DDF9012841
:101D400004D07D4B1B889BB2002BF4D17A4B1B88AF
:101D50009BB2002B00D1CDE06B4607331B78FF18F8
:101D6000BFB23102360A7340744A5B009E5A4E403D
:101D7000B6B2734B1B78012B20D16F4B1B889BB2E3
:101D8000002B34D10025FFF792FB6B46D81DFFF7DF
:101D9000B3F9012804D0684B1B889BB2002BF4D107
:101DA0006B4607331B78FF18BFB23102360A734007
:101DB000624A5B009E5A4E40B6B2BCE76B46D81DE5
:101DC000FFF79AF9012804D05B4B1B889BB2002BCC
:101DD000F4D16B4607331B78FF18BFB23102360AC5
:101DE0007340564A5B009E5A4E40B6B2C5E7544B0C
:101DF0001B78012B12D06B46D81DFFF77DF9012807
:101E000004D04D4B1B889BB2002BF4D14A4B1B884E
:101E10009BB2002B1FD10025FFF749FB494B1B78D4
:101E2000102BE8D06B46D81DFFF766F9012804D0C7
:101E3000414B1B889BB2002BF4D16B4607331B78B8
:101E4000FF18BFB23102360A73403C4A5B009E5A0B
:101E50004E40B6B2CFE76B46DC7924026B46D81D04
:101E6000FFF74AF9012804D0334B1B889BB2002BA3
:101E7000F4D1334B1B78304B1B889BB2002B3CD0EA
:101E80006B4607331B78E3189BB2BB4201D0B342C9
:101E900012D10A2001F00CFD2B4B1B78012B15D021
:101EA0001020FFF775F91620FFF772F9274B022271
:101EB0001A800025FFF7FBFA1020FFF769F91920B7
:101EC000FFF766F90620FFF763F9E2E71020FFF756
:101ED0005FF92120FFF75CF91D4B1878FFF758F9DF
:101EE000DEE70025FFF7E3FA0025FFF7E0FA00251B
:101EF000FFF7DDFA0025FFF7DAFA0025FFF7D7FA3A
:101F00000D4B1B889BB2002B03D10F4B1B78012B71
:101F100007D0094B188880B203B0C0BCB946B046A0
:101F2000F0BD1020FFF734F91920FFF731F9012037
:101F3000FFF72EF9EDE7C0464A0A0020106D0010A9
:101F40006B0A00206D0A0020690A0020460A002062
:101F5000700A0020F0B5DE4657464E464546E0B5CD
:101F600085B002AB0022DA7100260025012400238F
:101F70000093012C00D0C5E3BF4B1B889BB2002B04
:101F800000D1BFE302ABD81DFFF7B6F80700012868
:101F9000EFD1B94BFA2252001A8002AB07331B78FB
:101FA000102BE6D1B54A1288ED18ADB23102360ACF
:101FB0007340B34A5B009E5A4E40B6B202ABD81D86
:101FC000FFF79AF8012804D0AB4B1B889BB2002B7B
:101FD000F4D102AB07331B781A2BCAD1A64A128858
:101FE00092B2002AC5D0ED18ADB23102360A734064
:101FF000A34A5B009E5A4E40B6B202ABD81DFFF713
:102000007BF8012804D09C4B1B889BB2002BF4D199
:1020100002AB07331B7898464544ADB23102330A10
:1020200042465340964A5B009E5A4E40B6B24346E3
:102030000733DBB29A462300444698460FE002ABD2
:10204000DA79AD18ADB23002330A53408C495B00E7
:102050005E5A4640B6B2102A14D0013CE4B2002CBD
:1020600031D0854B1B889BB2002B2AD002ABD81DE8
:10207000FFF742F80128E2D07F4B1B889BB2002B70
:10208000F4D1DCE702ABD81DFFF736F8012804D005
:10209000794B1B889BB2002BF4D102AB07331B7822
:1020A000ED18ADB23102360A7340754A5B009E5A94
:1020B0004E40B6B2013CE4B253460133DBB29A461D
:1020C000CDE7444600E0444602ABD81DFFF714F8C4
:1020D000012804D0684B1B889BB2002BF4D102ABC3
:1020E00007331B78ED18ADB23102360A7340644AEB
:1020F0005B009E5A4E40B6B202ABD81DFEF7FCFF05
:10210000012804D05C4B1B889BB2002BF4D102AB9E
:1021100007331B78ED18ADB23102360A7340584AC6
:102120005B009E5A4E40B6B202ABD81DFEF7E4FFEC
:10213000012804D0504B1B889BB2002BF4D14E4B8E
:102140001B889BB2002B00D113E702AB07331B782F
:102150001B02984602ABD81DFEF7CEFF012804D023
:10216000454B1B889BB2002BF4D1434B1B889BB281
:10217000002B23D002AB07331B7843449BB29D4214
:102180004BD09E424BD03F4B1B78012B0BD01020E5
:10219000FEF7FEFF1920FEF7FBFF0620FEF7F8FF13
:1021A00000240094E5E61020FEF7F2FF2120FEF760
:1021B000EFFF354B1878FEF7EBFFE8E7009B002BAD
:1021C00000D19DE22F4B1B78012B2BD00023994689
:1021D000093398462D4B1B78FF2B28D02C4B00221F
:1021E0001A802C4B1B78DAB20192002B00D188E0C8
:1021F0001020FEF7CDFF1620FEF7CAFF264B1B78F6
:10220000FB2B00D143E2244B1A78FC2A00D154E284
:10221000FD2A00D169E20024ABE60097D2E7022351
:102220000093CFE70233994609339846D2E74346F5
:1022300001339BB298464B4601339BB29946CDE79A
:10224000124BD85DFFF7EAF8009B012B0CD0104928
:102250000B8818021B0A0D4AD25D5340084A5B00E6
:102260009B5A43400B802CE0084BDB5D084A1188E9
:102270005B18138025E0C0464A0A00204E0A002061
:10228000106D0010690A0020700A0020C0020020B2
:10229000440A0020670A00206A0A0020C74BD85D64
:1022A000FFF7BCF8009B012B24D0C5490B8818020E
:1022B0001B0AC24AD25D5340C24A5B009B5A43404C
:1022C0000B800137BFB2B84522D94B464A4604328B
:1022D000BA42F6D04A4605329742F2D006339F42C0
:1022E000DCD1B64B9B5C102BAAD1434601339BB289
:1022F0009846E6E7B14BDB5DB14A11885B18138065
:10230000DFE74F462B005546B34626009A46DAE7EC
:1023100034005346AA465E461D00A94B98461888CD
:10232000000AFFF77BF843461878FFF777F8D046A6
:1023300002ABD81DFEF706FF012804D0A24B1B8874
:102340009BB2002BF4D1A04B1B889BB2002B18D161
:102350009E4B1B78012B09D01020FEF719FF192086
:10236000FEF716FF0C20FEF713FF02E61020FEF723
:102370000FFF2120FEF70CFF954B1878FEF708FFA2
:10238000EAE702AB07331B78102B0FD08F4B1B787B
:10239000012B00D170E11020FEF7FAFE1920FEF7A4
:1023A000F7FE8220FEF7F4FE019CE2E5444602AB14
:1023B000D81DFEF7C7FE012804D0834B1B889BB2B3
:1023C000002BF4D1A246804B1B889BB2002B19D165
:1023D0007E4B1B78012B0AD01020FEF7D9FE192066
:1023E000FEF7D6FE0C20FEF7D3FE019CC1E51020BF
:1023F000FEF7CEFE2120FEF7CBFE754B1878FEF7D8
:10240000C7FEE9E702AB07331B78162B12D0192B56
:1024100000D100E16D4B1B78012B00D121E1102090
:10242000FEF7B6FE1920FEF7B3FE0920FEF7B0FE58
:10243000019C9EE50237BFB23C00D04605E05F4BF1
:10244000185DFEF7EBFF0134A4B24346FB189C4233
:10245000F5DB5D4BFA2292001A8002ABD81DFEF725
:1024600071FE012804D0584B1B889BB2002BF4D17D
:10247000554B1B889BB2002B19D1544B1B78012B59
:102480000AD01020FEF784FE1920FEF781FE0C20F2
:10249000FEF77EFE019C6CE51020FEF779FE212000
:1024A000FEF776FE4A4B1878FEF772FEE9E702ABBC
:1024B00007331B78102B0FD0444B1B78012B00D116
:1024C0009EE01020FEF764FE1920FEF761FE092051
:1024D000FEF75EFE019C4CE502ABD81DFEF732FE16
:1024E000012804D0384B1B889BB2002BF4D1364B0B
:1024F0001B889BB2002B19D1344B1B78012B0AD0BF
:102500001020FEF745FE1920FEF742FE0C20FEF7D4
:102510003FFE019C2DE51020FEF73AFE2120FEF73C
:1025200037FE2B4B1878FEF733FEE9E702AB073393
:102530001B78162B10D0192B25D0244B1B78012B80
:1025400053D01020FEF724FE1920FEF721FE0920AB
:10255000FEF71EFE019C0CE51C4B1B78012B07D0DF
:102560001020FEF715FE1620FEF712FE019C00E576
:102570001020FEF70DFE2120FEF70AFE144B1878FE
:10258000FEF706FEECE702ABD81DFEF7DBFD0128E7
:1025900004D00D4B1B889BB2002BF4D10B4B1B7846
:1025A000012B17D01020FEF7F3FD1920FEF7F0FDE8
:1025B00002ABD879FEF7ECFD019CDAE4C002002002
:1025C000440A0020106D00104A0A0020690A002009
:1025D000700A00201020FEF7DBFD2120FEF7D8FD59
:1025E000584B1878FEF7D4FDDCE71020FEF7D0FD3D
:1025F0002120FEF7CDFD534B1878FEF7C9FDA0E76B
:102600001020FEF7C5FD2120FEF7C2FD4D4B1878C6
:10261000FEF7BEFD55E702ABD81DFEF793FD01287E
:1026200004D0494B1B889BB2002BF4D1474B1B783D
:10263000012B0BD01020FEF7ABFD1920FEF7A8FDF3
:1026400002ABD879FEF7A4FD019C92E41020FEF7BE
:102650009FFD2120FEF79CFD3A4B1878FEF798FD70
:10266000E8E71020FEF794FD2120FEF791FD354BA1
:102670001878FEF78DFDD2E61020FEF789FD2120A7
:10268000FEF786FD2F4B1878FEF782FD83E6304B70
:102690009B7B012B0BD0022B0CD0002B04D096205F
:1026A0000002FEF75DFAAEE596204001F9E79620BC
:1026B0008001F6E79620C001F3E7254B9B7B502B6A
:1026C0000DD0D0231B068021C90359611E4BC821A0
:1026D00019801D4B1B889BB2002BFAD198E5D023A3
:1026E0001B068021C9039961F0E71949CB7B194A80
:1026F00013801B021380897B0B431380002438E472
:10270000009C36E412488C256D002A00002103F05D
:1027100063FF114B00241C80104B1C8010482A00C2
:10272000002103F059FF0F4B1C800F4B1C80064B00
:10273000188880B205B0F0BCBB46B246A946A04698
:10274000F0BDC046700A00204A0A0020690A002035
:10275000C0020020560A00204C0A00204E0A002029
:10276000E0030020500A0020540A002010B582B077
:102770006B460022DA71684B1B7A102B60D0142450
:10278000664B1B889BB2002B00D19DE01020FEF70A
:10279000FFFC2120FEF7FCFC614B1878FEF7F8FCEB
:1027A0001020FEF7F5FC1620FEF7F2FC5D4B1B88AF
:1027B0009BB2A34204D0594B1B889BB2002BF5D18E
:1027C000594B00221A80574B1A80544BF532FF3276
:1027D0001A806B46D81DFEF78FFC012804D04F4BA2
:1027E0001B889BB2002BF4D16B4607331B78502B10
:1027F00000D07CE048488C225200002103F0ECFE1F
:10280000494A00231380474A1380484A1380484AA4
:1028100013805020FEF702FE454B1B889BB2002B15
:1028200004D13E4B1B889BB2002BF5D13B4B1B8840
:102830009BB2002B06D13F4B1B78422B57D10BE0AC
:1028400015249DE73B4B1878FEF7A2FCF3E7334BCA
:102850001B889BB2002B13D1304B1B889BB2002BE3
:1028600045D0334B00221A806B46D81DFEF744FC3E
:102870000128ECD0294B1B889BB2002BF4D1E6E752
:102880006B46D879FF2832D0FEF7C8FD6B46073378
:102890001B780A2BE0D1264B1B889BB2002B04D15E
:1028A0001E4B1B889BB2002BF5D11C4B1B889BB287
:1028B000002B1CD01F4B1878FEF76AFC174BC82260
:1028C0001A80FEF75DF9C7E71020FEF761FC2120B2
:1028D000FEF75EFC124B1878FEF75AFC1020FEF74C
:1028E00057FC1920FEF754FC8220FEF751FC0A48E1
:1028F0008C225200002103F06FFE0B4A002313804C
:10290000084A1380094A1380094A1380034B188828
:1029100080B202B010BDC046C00200204A0A0020AA
:10292000700A00204E0A00204C0A0020500A0020A5
:10293000540A0020E003002010B58300084A9446A2
:1029400063441A684024624080341440802252015B
:1029500013431C60C000034B9C466044416010BDA3
:1029600004C001400040014010B501238340D02243
:102970001206936293610521FFF7DEFF10BD000090
:10298000EFF3108072B6034B1B68002BFBD0BFF334
:102990005F8F70472C0100D0BFF35F8F024B002286
:1029A0001A6080F3108870472C0100D0F8B506003B
:1029B0000C001500FFF7E4FFE308F718F15C0722AD
:1029C0002240012393400B4205D1DBB20B433B7005
:1029D000FFF7E2FFF8BD2100280001F007FC00002E
:1029E000034B1B6802201840431E9841C0B2704739
:1029F00000C00640002307E0054A9A189200BFF382
:102A00005F8F0021116001331F2BF5D97047C0463D
:102A100040000034054A1078431CDBB21370172BBA
:102A200002D9130010221A707047C046F801002026
:102A3000074B9B68103080001950BFF35F8FBFF3C6
:102A40005F8F044B0021196082F310887047C046E5
:102A500000ED00E0240100D010B5091A0B1F0A4A4E
:102A600094466144094A914208D8DA0706D45B10BB
:102A70005B055B0D0648184380B210BD054B064A46
:102A80000648992101F018FBFC070000FE0F00002A
:102A900000E0FFFF106F001054710010406F001035
:102AA00010B5091A04394A08090B08D14905490D1E
:102AB000064B0B430380064B1343438010BD054B6D
:102AC000054A0648A12101F0F7FAC04600F0FFFFD1
:102AD00000F8FFFF806F001028710010406F001099
:102AE00001238340034A10681840431E9841C0B236
:102AF0007047C04600E100E0002904D0034B186095
:102B0000034B18607047034B1860FBE780E200E05E
:102B100000E100E080E100E010B5012383401800EF
:102B2000FFF7EAFF10BD0000024B9B6810308000E9
:102B3000C058704700ED00E070B504000D00EFF3E1
:102B4000108672B60C4B1B68002BFBD0BFF35F8F57
:102B50002000FFF7E9FF094B984201D0A84205D1B8
:102B6000320029002000FFF763FF70BD044B054AC7
:102B700005487C2101F0A0FA240100D0CD0100100D
:102B8000906F001070710010406F0010F0B5CE46CD
:102B9000474680B583B006000D00EFF3108872B68B
:102BA000554B1B68002BFBD0BFF35F8F534B9A68CC
:102BB00034001034A300D758514B9F4207D0AF4286
:102BC00000D197E001974F4BFB1A2F2B09D94246B2
:102BD00039003000FFF72CFF03B0C0BCB946B04647
:102BE000F0BD3000FFF77CFF814600213000FFF789
:102BF00093FFBFF35F8FFDF736FB002801D08442BF
:102C000011D10123019C9C430021A368AB4212D047
:102C10000622A256002A0DDB53009B189B00394A5E
:102C20002100D418F1E7384B384A2C213848FF31BD
:102C300001F042FA2100AB4255D106256557002D1F
:102C400037DB304B6A00521992009B189A68A260D9
:102C5000DA79E2719B795BB2A371002B10DABD20A7
:102C60000002A080274B6A00521992009B18294A43
:102C700011789971157049463000FFF74DFFA6E7AE
:102C8000201D6B005B199B001E4A9B18191D9B8819
:102C9000DA0A1C2A07D15B055B1502335B00C918F1
:102CA000FFF7DAFEDDE71C4B1C4A1948A72101F0AB
:102CB00003FA002812D100290ED0FF238B71184B84
:102CC0008B8014490B78A3710E4A164BA41A6441E9
:102CD00063431B0D0B70CEE7094FF2E71249201D2D
:102CE000FFF7DEFEC7E7114B084A60210848FF31B5
:102CF00001F0E2F9024F6AE7240100D000ED00E0A4
:102D0000CD010010FC010020A470001040710010E3
:102D1000406F0010640A00208C7000106071001079
:102D200000BDFFFFAAAA000036020020C8700010F4
:102D300070B50400012606432D4BF31A2F2B28D81B
:102D4000FDF791FA00282BD0EFF3108C72B6294BC7
:102D50001B68002BFBD0BFF35F8F254A264D210057
:102D6000891A49414D432D0D6DB2244B9B6880005B
:102D70001B58B3421BD00021032932D81C4B4A00F8
:102D8000521892009B189B795BB2AB421FD0013165
:102D9000F2E71B4B1B4AC2211B48490001F08CF98A
:102DA0001A4B184A88211848FF3101F085F9134B56
:102DB0009B68174A1A50174B1A78A2711D70BFF3FF
:102DC0005F8F0C4B00221A608CF3108870BD084B8B
:102DD0004A00501880001818FF2686710E4A82801B
:102DE000E9E70E4B074ACC210748490001F064F996
:102DF000FC010020240100D0AAAA000000ED00E0A0
:102E0000D07000100C710010406F0010F8700010AE
:102E1000CD010010640A002000BDFFFF0471001006
:102E20000022044B02E0044902C30132072AFAD906
:102E30007047C04600E400E080808080024B9C46E2
:102E400061448900016070474000003410B50C00F7
:102E5000CB68834207D10B6908009847002809D046
:102E60002068616810BD064B064A96210648490055
:102E700001F022F90023E36000200021F2E7C046C0
:102E80008C71001028740010A071001070B505003E
:102E90000C00080000F05AFD200000F03FFE084939
:102EA000200000F07FFDFFF7B5FD064B9C46604417
:102EB000800068602C75044BA400E55070BDC046CE
:102EC000C131001040000034140800200A4B1A6879
:102ED000EFF3108172B61368002BFCD0BFF35F8F45
:102EE000054B1B68BFF35F8F00221A6081F31088C7
:102EF00040BF002000217047280A002010B500299B
:102F000020D003681B7B99421CD88368154CA446CB
:102F1000614409015B181C685968002A18D00368CD
:102F20001B7B9A4214D883680E488446624412017F
:102F30009B181A685B6801208B4201D80ED00020D4
:102F4000C0B210BD084B094A09483B2101F0B4F852
:102F5000054B064A06483B2101F0AEF8A242EFD8E5
:102F6000EDE7C046FFFFFF0FD87100107874001026
:102F7000A071001010B500291DD0037B99421AD80A
:102F800004684B005B18033BE418002919D0002AA1
:102F90001DD0914221D0002A25D0037B9A4222D80D
:102FA000006853009B18033BC318997021780029CF
:102FB0001FD1227010BD104B104A1148682101F03A
:102FC0007BF8104B104A0E486F3101F075F80F4B2B
:102FD0000D4A0B48702101F06FF80D4B0A4A084862
:102FE000712101F069F8044B044A0548682101F099
:102FF00063F859702270DDE70C720010E474001061
:103000002872001074720010C074001080720010DA
:103010008C72001070B506000D001400002914D049
:10302000002A14D0436880689847002806D0220000
:1030300029003000FFF79EFF280007E02A0021004A
:103040003000FFF797FF200000E0100070BD08007F
:10305000FCE70000F0B583B00500009201930AABD5
:103060001C780BAB1F78002C26D003685A7B944247
:1030700007D10123002B19D1002C3AD1200003B035
:10308000F0BD002C0CD01A7B944209D81A6863005A
:103090001B19033BD3189B78002BEBD00123E9E7E6
:1030A0003C4B3D4A3D48682101F006F83C4B3D4A07
:1030B0003D48652101F000F803689C7B002CDBD0C3
:1030C00011D01A7B94420ED81A686100091903398D
:1030D000521851789973002900D1D9730023937045
:1030E00053701370C8E72B4B2B4A2C48682100F013
:1030F000E3FF002C37D02B681B7B9C4233D8AB6896
:103100002A4AA21812019B18009A1A60019A5A6062
:10311000089A9A60099ADA602E68002C29D02ED07D
:10312000337B9C422BD8336862001219033A9B18F8
:1031300000229A705A701A70717B22003000FFF7DB
:1031400069FF7073844299D1287D009A019B00F039
:1031500071FC061E01D0002F17D00C9B002B00D154
:103160008CE71E708AE7124B124A0F483B2100F091
:10317000A3FF114B114A0948A52100F09DFF054B03
:10318000054A0648682100F097FF2868210000F0F2
:1031900073FEE2E70C720010E47400102872001055
:1031A000A4720010F0740010A0710010FFFFFF0F58
:1031B000D8710010787400109C710010D474001045
:1031C000F0B5DE4657464E464546E0B58BB0099011
:1031D00000230893B24B8200D55833E0B14BB24A7A
:1031E000B2483F2100F068FFB14BB24AB2483B21E0
:1031F00000F062FFB14BB24AAF488C2100F05CFF97
:10320000B04BAF4AAC48902100F056FFA84BAE4AF5
:10321000A948402100F050FF43461A685B680998AE
:1032200000F008FC00239B469A466B68BFF35F8F53
:1032300000221A6089F310885346002B53D10028CE
:1032400000D126E100F08EFB02000B1EC6DB002041
:103250000021069007916868EFF3108972B6016843
:103260000029FCD0BFF35F8F2868447B002C35D049
:10327000BAD0017B8C42B7D8AE6894496118090175
:10328000B046884441460E684F68B61A9F41002FE9
:10329000C2DC01D1002EBFD1002100F0E3FDA0422D
:1032A000A8D143461A685B680692079343469B6819
:1032B0009A464346DB689B465346002BA0D0002C21
:1032C000A4D02B681B7B9C42A0D8EA68631ED35C09
:1032D00008931B02184328610020A6E700239B46A1
:1032E0009A460020A1E7089B1B02234398465946B3
:1032F0001800D04706000F006A68EFF3108972B615
:10330000136859424B41D9B2002BF9D1BFF35F8FFB
:10331000002F26DB002F52DD2B69002B53D04345B5
:1033200072D100F01FFB02000B1E73DB01001800BE
:1033300092197B41984202D804D1914202D90122CC
:103340005242D317002B6BDB002104910131039112
:10335000029459460191514600912800FFF77AFEE8
:1033600049E02B69002BD5D043451CD1069A079B19
:1033700010001900921BBB41994202D804D190421F
:1033800002D901225242D317002B12DB00210491F3
:103390000131039102945946019151460091280050
:1033A000FFF758FE27E04A4B454A43489F2100F06B
:1033B00083FE3C4B3C4A3D483F2100F07DFE002F00
:1033C00001D1002EA8D12A68002C44D0537B9C4206
:1033D0002CD1012100293ED1D37B002B41D1D473C4
:1033E000002C50D02B681B7B9C424CD8EA68013CD7
:1033F000135D0133135500232B616A68BFF35F8FA0
:10340000136089F310881DE7314B2D4A2A48A22109
:1034100000F052FE234B244A24483F2100F04CFE8A
:10342000204B214A21483F2100F046FE002C0CD0C1
:10343000137B9C4209D8106863001B19033BC31817
:103440009B78002BC6D00121C4E7224B224A234897
:10345000682100F031FE224B224A2048F62100F07C
:103460002BFE002B09D0117B8B4206D81068590027
:10347000CB18033BC3185C70B1E7164B164A1748CC
:10348000682100F019FE0A4B0F4A0B48402100F05A
:1034900013FE0BB0F0BCBB46B246A946A046F0BD39
:1034A00014080020CC72001044740010E872001060
:1034B000D871001078740010A071001030730010E3
:1034C0005C740010487300109C740010FFFFFF0F25
:1034D000547300100C720010E47400102872001075
:1034E00090730010B074001010B50A4B5B68002B8D
:1034F00004D009480A21FFF7A1FC10BD054C074A7A
:1035000020682300102100F0D1FB03212000FFF7E9
:10351000BDFCEEE744020020280A0020FD2E00102A
:1035200010B5064B5B68002B01D0044810BD044B5E
:10353000044A05485C2100F0BFFDC046440200205B
:10354000B473001084740010A0710010F0B5DE4652
:1035500057464E464546E0B58BB0804616001F00E4
:10356000149B9A46159B994616AB1B789B461F23C6
:1035700002AA9446634400221A7036E0002809D05B
:1035800042461268127B904204D84246D168421EDD
:103590008A5C4CE0454B464A4648402100F08CFD91
:1035A0000798002B79D05B46002B76D04946D04750
:1035B00004000D0003000B4300D175E000294ADB35
:1035C00000F0D0F902000B1E59DB0100180012199F
:1035D0006B41984202D804D1914202D90122524251
:1035E000D317002B51DB16001F0043465A68EFF338
:1035F000108472B6136859424B41D9B20791002B1F
:10360000F8D1BFF35F8F1F3302AA9446634404933B
:103610000023039302934B460193534600933200D9
:103620003B004046FFF716FD031EA7D102004146AE
:103630004968BFF35F8F00250D6084F31088002B6D
:1036400029D01F2302A98C4663441B78002BA7D1E5
:1036500012021043A5E730003900361BAF41B942D2
:1036600002D804D1B04202D901267642F717002FC2
:10367000BBDA114B114A12483F2100F01DFD0E4BE1
:103680000E4A0F483F2100F017FD0B4B0B4A0C4828
:103690003F2100F011FD012040420BB0F0BCBB46C1
:1036A000B246A946A046F0BD0798F6E7D8710010CB
:1036B0009C740010A0710010CC72001044740010B3
:1036C000E8720010F0B585B007000C9E1100194398
:1036D00001D101220023B7600A9931613260736021
:1036E0000B997161D81701004240140043401D003E
:1036F000241A8D4100F036F902000B1E1ADB01007E
:10370000180012196B41984202D804D1914202D993
:1037100001225242D317002B12DB012102910196A4
:103720000A4900913800FFF711FFF060C043C00F55
:1037300005B0F0BD064B074A07483F2100F0BCFC2E
:10374000034B044A04483F2100F0B6FC4D2E001004
:10375000CC72001044740010E8720010F0B587B00D
:1037600006000F00FCF77FFD00281FD106246442ED
:10377000E517A4197D41BD4202D803D1B44201D955
:1037800000240025002D14DB0494059500F0EAF8D0
:1037900002000B1E13DBA41A9D41002D17DC14D070
:1037A0003000390000F0EAF807B0F0BD234800F01F
:1037B0001DFD234B234A24483F2100F07DFC204B74
:1037C000204A21483F2100F077FC002CE8D0FFF789
:1037D000A7FE0023029301931C4B0093049A059BC0
:1037E000FFF7B4FE002818DADAE7002300E0002330
:1037F000002BD5D1164B1A68EFF3108172B61368FF
:10380000002BFCD0BFF35F8F114B1B68BFF35F8FA2
:1038100000221A6081F3108820BF0499059A0D4B8D
:103820005B6A9A42E3D80B48806A884203D29A4284
:10383000DBD00123DCE70123DAE7C046D8730010B0
:10384000CC72001044740010E8720010CD2E0010ED
:10385000280A002000400540F8B504000D0000F0E3
:1038600081F802000B1E10DB20002900801859414E
:103870008B4202D804D1824202D901204042C117B2
:10388000002908DBFFF76AFFF8BD064B064A074828
:103890003F2100F011FC034B034A04483F2100F094
:1038A0000BFCC046CC72001044740010E87200108B
:1038B00010B5FA2292000023002102F0D3FDFFF799
:1038C000CBFF10BD70B5EFF305833F2018401038D3
:1038D000EFF3108C72B6184B1B68002BFBD0BFF3B4
:1038E0005F8F012319008140144A5163144A1278F2
:1038F0001400C440234213D0104B5C6A114B850066
:10390000EB589C4205D3104BEB580D4C8A43227068
:1039100007E00A4A031D9B0099589950002300E0D4
:103920000023BFF35F8F044A002111608CF31088DD
:10393000002B00D0984770BD280100D00040054002
:10394000650A00202C0A00207807002010B501002D
:10395000024A034B1800FFF729F810BD0875001044
:10396000610A0020044B5B6A034A906A1900536A9B
:103970009942F9D17047C04600400540084B5B6A48
:1039800001E0074B5B6A8B42FBD301E0044B5B6AAF
:103990008B4203D1024B9B6A8342F7D37047C046E8
:1039A0000040054070B504000E00EFF3108572B6BC
:1039B0001B4B1B68002BFBD0BFF35F8F002E1CD06E
:1039C0002000FFF7B1F8174B83420BD019002000FD
:1039D000FFF7B2F801212000FFF79EF80123A34072
:1039E000114A1360114BA400E650BFF35F8F0C4BDC
:1039F00000221A6085F3108870BD0C4BA2000021D4
:103A0000D1500122A2400A490B7893430B7005491B
:103A10002000FFF7BBF800212000FFF77DF8E4E766
:103A2000280100D0C5380010386005407807002014
:103A3000650A0020F0B5DE4600B584B0040015002C
:103A400001921E000293FFF78DFF03958E4202D86C
:103A50004ED185424CD9EFF3108B72B6274B1B68C1
:103A6000002BFBD0BFF35F8F254A17780125A540B7
:103A7000EBB23B431370234B5D63221D920001990F
:103A8000D150214AA100029888501B6A2B4212D1C2
:103A90001C4B1B6C2B4208D00020BFF35F8F174BD1
:103AA00000221A608BF3108823E0184B184A19483B
:103AB000C12100F001FBFFF755FF8E4214D802D15F
:103AC000039B834210D80E4B1B78BB420ED00D4B8C
:103AD0001D625D631F222240012393400E4A136042
:103AE000074B1F700120D8E70020D6E70120D4E75C
:103AF000012004B080BCBB46F0BDC046280100D008
:103B0000650A0020004005402C0A00202C7500109A
:103B1000947500105075001080E200E0EFF3108CF7
:103B200072B60B4B1B68002BFBD0BFF35F8F0123DA
:103B30008340084A136208490A789A430A70BFF31F
:103B40005F8F034B00221A608CF310887047C046C9
:103B5000280100D000400540650A002010B500296A
:103B60001DD0037B99421AD804684B005B18033BB5
:103B7000E418002919D0002A1DD0914221D0002A32
:103B800025D0037B9A4222D8006853009B18033B40
:103B9000C3189970217800291FD1227010BD104BD5
:103BA000104A1148682100F087FA104B104A0E485D
:103BB0006F3100F081FA0F4B0D4A0B48702100F075
:103BC0007BFA0D4B0A4A0848712100F075FA044B44
:103BD000044A0548682100F06FFA59702270DDE749
:103BE0000C7200109C760010287200107472001085
:103BF00088760010807200108C72001070B506007C
:103C00000D001400002914D0002A14D043688068E5
:103C10009847002806D0220029003000FFF79EFFB9
:103C2000280007E02A0021003000FFF797FF20005E
:103C300000E0100070BD0800FCE7000010B5002394
:103C4000437301338373037BC3730123027B9A4263
:103C500013D9002B0BD0027B934208D801685A007D
:103C6000D218033A8A180133DBB25370EEE70C4BDB
:103C70000C4A0D48682100F01FFA002A09D0924230
:103C800007D8016853009B18033BCB1800225A70D9
:103C900010BD034B034A0448682100F00DFAC046EA
:103CA0000C7200109C7600102872001010B5017381
:103CB00042608360FFF7C2FF10BD000070B50400D2
:103CC000081E00D170BD002931D0237B99422ED827
:103CD00022684B005B18033BD3185A78002AF1D0B6
:103CE0002BD0237B9A4228D8216853009B18033B92
:103CF000CB185D7800215970002824D0237B98428E
:103D000021D8216843001B18033BCB1800215970B0
:103D100001002000FFF772FF060029002000FFF7D6
:103D2000CDFF020031002000FFF768FFCAE7094B12
:103D3000094A0A48682100F0BFF9064B064A0748BD
:103D4000682100F0B9F9034B034A0448682100F0E8
:103D5000B3F9C0460C7200109C7600102872001057
:103D600070B505000C001600002927D02CD0037B6D
:103D7000994229D803684900091903395B185A7810
:103D8000002A27D19A78002A2AD11978FFF796FFBE
:103D90000300002E03D0EA7B002A27D1EC73002B0E
:103DA00036D1002C47D02B7B9C4244D82A68630034
:103DB0001B19033BD31800225A7070BD214B224AB5
:103DC0002248382100F078F9214B224A2248682104
:103DD00000F072F9214B1C4A1C483A2100F06CF9A2
:103DE0001F4B194A19483B2100F066F9002A09D0F7
:103DF000297B8A4206D82E6851008A18033AB218E5
:103E00005470CBE7124B134A1348682100F054F961
:103E1000002B0AD02A7B934207D82A6843001B183C
:103E2000033BD31800229A70BBE7094B094A0A48A2
:103E3000682100F041F9064B064A0748682100F066
:103E40003BF9C046B075001074760010B8750010CC
:103E50000C7200109C76001028720010F075001093
:103E60001876001070B504000A00457B2900FFF7A2
:103E700077FF6073280070BD70B50400002966D01C
:103E8000437B8B420ED0002911D0037B99420ED880
:103E900005684B005B18033BED18AB78002B0CD189
:103EA000002055E00121FFF7DDFF012050E0294B04
:103EB000294A2A48682100F0FFF8002B1FD0027B16
:103EC00093421CD800685A00D318033BC218C35C45
:103ED0008B421AD0002B1BD0227B934218D820682B
:103EE0005A00D318033BC01843788B4216D0002BDE
:103EF000F0D11B4B1B4A1C48672100F0DDF8154B25
:103F0000154A1648682100F0D7F86B78137007E05F
:103F1000104B114A1148682100F0CEF86B784370BD
:103F20000023AB706B7001222000FFF719FF020025
:103F3000617B814205D02000FFF760FE60730120A5
:103F400006E00A4B074A08486D2100F0B5F800204A
:103F500070BDC0460C7200109C76001028720010D4
:103F6000047100105C760010B87500103C760010EB
:103F700010B50400FEF74EFD01002000FEF75EFFC5
:103F8000FF232371BFF35F8F10BD10B50400FEF750
:103F900041FD01002000FEF751FFFF2323710023A4
:103FA0006371BFF35F8F10BD70B504000D00062074
:103FB00000F036FAC000290001F010FCC60908D054
:103FC0000E4B9E4217D87F230340013335005E0815
:103FD00000E001256562A6622C3480239B01234307
:103FE00000221A60062000F01BFA8000A90189193E
:103FF00001F0F4FB70BD0026014DEBE7FEFF000071
:10400000FFFF0000002909D00A22064B9C466044AD
:1040100043425841044B4000C25270478022520034
:10402000F3E7C0460080FCBF3C0A002070B50500E5
:104030000C00062000F0F4F9002829D0164B9D4210
:1040400027D08022D203154B1A60154B1A60154BEE
:104050009B6811009943FAD100212800FFF7D2FF95
:1040600021002800FFF7A0FF29002C31EB6A602215
:1040700053400E321A4080235B010B431A600A4BF7
:104080002B6380239B010B4310221A600323AB6434
:1040900070BD80221204D6E70080034000E000409B
:1040A00000F0004000C000400103000000BEFDE73A
:1040B00010B5FFF7FBFF000030B583B00D0019000D
:1040C000002A0DD0084B002A0CD0084C0192009316
:1040D0002B000200200002F0C9FB0120FFF7E6FFE1
:1040E000034BF0E7024AF0E74077001050770010EA
:1040F0004C77001070B52B4B2B4A1A602B4B2C4A77
:104100001A602C4B9A682A4B9343FAD12A4C01E04F
:1041100008CC9847294B9C42FAD300F001F9234B75
:10412000274A1A60234B9B68DB43DB01FAD1254BFE
:1041300040229A675A671A67DA66234C09E0234BD4
:10414000234A24488321FFF7B7FF2000FFF710FF21
:104150000834214B9C4209D22368002BF5D0012B57
:10416000EDD12000FFF711FF0834F2E71B4DA968DD
:104170001B4CC022200002F035FAAC60FCF773F84B
:10418000002800D000BEFEF735FCFEF749FEFFF721
:10419000ABF9144C01E008CC9847134B9C42FAD37E
:1041A00070BDC04600E00040BFCDFBFE00F0004007
:1041B000FE7F3C0000C00040AC020020BC0200209A
:1041C000FFFFFF0100F00140A402002080770010F3
:1041D000F8770010A0770010AC02002000ED00E09E
:1041E00000000020BC020020C00200200FB400B577
:1041F00083B0084802F008FB049B002B07D005A9F8
:104200000191180002F010FB034802F0FDFA0120B2
:10421000FFF74CFFE4770010F4770010F8B5DE46A6
:1042200057464E464546E0B506000F0015000A9A6F
:1042300093424ED31A0E92461B0298460A9A0023C6
:104240004046514601F00CFB81467400A419A400BD
:104250002E4B9C4664446368834200D26060331FE7
:10426000DBB29B46012B3AD9C0239B01234380221A
:1042700012011A60264BB200D158002905D05869A6
:1042800001F0ACFA01300138FDD16D0123685D40C9
:10429000E0222A4080235B0123431A605A46012A08
:1042A00028D980239B012343802212011A604B46A8
:1042B00063604A4600234046514601F0D1FA144B50
:1042C000B60098510120F0BCBB46B246A946A046B4
:1042D000F8BD104B104A11482D21FFF7EDFE012FBC
:1042E000C2D1C0239B01234303221A60A368DB07CA
:1042F000FCD5CAE72168794003220A401A60A36806
:104300000125BD401D42FAD0CBE7C04600800040E9
:104310008807002008780010607800101C780010D2
:1043200030B583B00C2000F021F9FEF759FB0028CE
:104330000DD0002304E02E4A99002E488850013306
:10434000092BF8D92A4B2C4A5A6203B030BD2B4BAB
:1043500000229A6700F01CF9294B01221A60274BB2
:104360005B6C012BFBD1274B03221A60234B9B6B09
:10437000012BFBD1013300930433234A012123484D
:1043800000F054F805230093214A0121214800F050
:104390004DF8214B0093002202210420FFF73EFF3D
:1043A0001E4D00952B00002201210520FFF736FF4E
:1043B000104C00942300002200210720FFF72EFF5D
:1043C00000942300002200210820FFF727FF0A4B5A
:1043D00000932300002200210920FFF71FFF009512
:1043E0002B00002200210620FFF718FFADE7C04692
:1043F00088070020006CDC021BB700000080004032
:104400003CB0004030B00040002F685900800240AE
:10441000008C864700C00240001BB700405973075C
:10442000014B8000C058704788070020F0B5C64691
:1044300000B504000F0090461D000C2001F0CEF9DD
:1044400006003D4A42443D4B9A4243D843011B1A61
:104450009901C91AC90009188901404601F0BEF93D
:104460000200103A98235B009A4239D86B1E062B43
:104470003CD8069B013B062B38D8069B9D423BD37C
:1044800043461B09B3423DD32D04069B1E0335430F
:104490002368002B3CDB2A4B9C424AD080235B01E3
:1044A000284A1360284A1360284A926819009143E9
:1044B000FAD12760A060221DC0239B011343212253
:1044C0001A602268002AFCDAE56008221A6080BCC3
:1044D000B846F0BD1E4B1F4A1F481121FFF7ECFDE7
:1044E0001E4B1C4A1C481921FFF7E6FD1C4B194ABC
:1044F00019481C21FFF7E0FD1A4B164A16482221E5
:10450000FFF7DAFD184B134A13482521FFF7D4FDB6
:1045100022683F231340BB42BDD1A3681B051B0D7E
:104520008342B8D1E368EE22D2021340AB42B2D14B
:10453000CDE780239B01B3E780E84BD380F8A93215
:1045400000C0024000E0004000F0004000C0004019
:1045500070780010AC790010D0780010107900103D
:104560002C790010787900109079001080239B003E
:104570000343014AD362704700800540024B1A682A
:10458000024B5A607047C046F80700200080054083
:10459000064BAA2212011A602F22DA60044B054A48
:1045A0001A60024B5B68002BFBDA70470040024048
:1045B0000060024000B0FA00704710B5002802D039
:1045C0000B684968984710BD0100002007E0830090
:1045D0001B185B00501C08601078C01830380A683F
:1045E0001378303BDBB2092BF1D97047F0B5DE46CA
:1045F00057464E464546E0B583B093461F000C9B98
:104600009A460D9C0E9B99460F9B9B0703D0B8467C
:104610000F00060022E00192A34688464E46B946A6
:104620000700B44207D2551C4B4641462020B847EC
:1046300001342A00F5E73D004F465C46019B9B464E
:10464000B1464646B84637002E0007E0013C551CEF
:104650005346185D43463900B0472A00002CF5D177
:1046600035003E0047460F9B9B0707D4100003B060
:10467000F0BCBB46B246A946A046F0BDB0464E4689
:10468000B9462F005D46531BB342EFD2541C4B4634
:1046900041462020B8472200F5E7F0B5CE46474610
:1046A00080B585B0944698460C9D0D9C0EAB1B784A
:1046B0009946109A119B129EB7071CD4002B0CD060
:1046C000F7070AD54F46002F02D10C37374204D0E6
:1046D000013B02E030272F550134944201D21F2CB8
:1046E000F8D9F70707D59C4205D21F2C03D83027ED
:1046F0002F550134F5E7F70615D5770505D4002CBD
:1047000003D0944224D09C4222D00F9A102A2BD05E
:104710000F9A102A30D00F9A022A35D01F2C02D8B7
:1047200030222A5501341F2C05D84A46002A31D0A0
:104730002D222A5501340396029301940095434695
:104740006246FFF753FF05B0C0BCB946B046F0BDA6
:10475000621E012C06D00F9F102F01D01400D4E749
:10476000023CD2E71400D0E7B206D1D41F2CCFD838
:1047700078222A550134D1E7B206CCD51F2CCAD8ED
:1047800058222A550134C9E71F2CC7D860322A5550
:104790000134C3E7720703D52B222A550134CAE737
:1047A0003207C8D520222A550134C4E7F0B5DE46C9
:1047B00057464E464546E0B593B081468A46089234
:1047C00009931CAB10CB1B789B461E9D219B9846E2
:1047D000002C03D1102342469A4390468023DB00ED
:1047E00046461E4042461A4212D0002C22D00026D5
:1047F0000EE03031CBB2771C0AAA93552900200075
:1048000000F0ECFFAC4216D31F2F14D83E0004007A
:104810002900200000F0E2FFC9B20929E9D9434686
:104820009B0605D541235B18DBB20A3BDBB2E2E70E
:104830006123F8E7270043460693209B05931F9BBF
:10484000049303955B46029301970AAB0093099B7F
:10485000089A51464846FFF720FF13B0F0BCBB460C
:10486000B246A946A046F0BDF0B5DE4657464E46D4
:104870004546E0B595B0089009910A920B931E9EAB
:104880001F9C20AB1B789B46229B9946239D269B11
:104890009A463300234303D1103352469A4392463B
:1048A0008023DB0057461F4052461A4219D033007E
:1048B00023432DD0002714E03032D3B27A1C904627
:1048C0000CAAD3554A462B003000210000F0C8FF47
:1048D000A5421FD819D043461F2B1BD847460600B8
:1048E0000C004A462B003000210000F0B9FFD2B284
:1048F000092AE1D953469B0605D541239B18DBB213
:104900000A3BDBB2DAE76123F8E7B145E3D901E01E
:104910000023984653460693259B0593249B0493B6
:104920004B4603935B460293434601930CAB0093C3
:104930000B9B0A9A09990898FFF7AFFE15B0F0BCD7
:10494000BB46B246A946A046F0BD0000F0B5DE4623
:1049500057464E464546E0B591B083468A460C928E
:1049600098461A9C08941B9D099522002B00200054
:10497000290001F004FA002800D0E5E001225242AB
:10498000D74B2000290001F0F5F9002800D0DBE02A
:1049900001225242D34B2000290001F0D5F9002812
:1049A00000D0D1E000220023089E3000099D29009C
:1049B00001F0CAF9002800D0DDE0089A099B0692B0
:1049C00007938023DB001E9A1A400D921E9A1A420A
:1049D00001D106231C930698079904000D000A00D4
:1049E0000600024300D1D1E0080D4005400DBE4C49
:1049F000A44660440A03120BBC4B13431F0001F092
:104A0000D1F9BB4ABB4B01F05CF9BB4ABB4B01F08F
:104A100031F904000D000022B94B3000390001F0DB
:104A200020F9B84AB84B01F04CF902000B00200005
:104A3000290001F01FF901F0CDF9814601F0B2F92A
:104A400004000D00B14AB24B01F03BF90022B14B1A
:104A500001F010F901F0BEF90600AF4AAF4B20009B
:104A6000290001F02EF904000D00300001F09AF940
:104A7000AB4AAC4B01F025F902000B0020002900E5
:104A800001F0EFF804000D0002000B0001F019F92D
:104A90000A900B91A44BF31800261F0522002B004F
:104AA0002000290001F0E6F80E900F9122002B0063
:104AB00000208021C90501F0D4F804000D00002277
:104AC0009A4B0A980B9901F0DEF80022984B01F0FE
:104AD000D1F802000B000A980B9901F0D4F80022DB
:104AE000944B01F0C7F802000B000A980B9901F0F3
:104AF000CAF802000B002000290001F0BBF80200F8
:104B00000B000E980F9901F0BEF80022774B01F0D0
:104B1000B1F832003B0001F0D4F806000F000400A9
:104B20000D00069A079B01F025F9002830D00123DB
:104B30005B429C46E14400227D4B3000390001F08D
:104B4000A2F804000D0023E01E9B04931D9B039319
:104B50001C9B0293089A099B0092019343460C9A6E
:104B60005146584600F0FCF811B0F0BCBB46B246C6
:104B7000A946A046F0BD002300240693079406969C
:104B800080231B069C46654407951AE70023994637
:104B90004B466333C62B1ED804261E9B1B0526D509
:104BA0002B0023430FD0644A644B0698079901F009
:104BB000D9F8002879D00022614B0698079901F0B6
:104BC000C3F8002871D01C9B4B4506DD4A469B1A52
:104BD000013B1C9303E00526DFE700231C938023A1
:104BE000DB001E9A1A431E920026002399461D9B45
:104BF0009E4264D29F1B02231E9A1A400A921E9A5A
:104C0000134202D0002E00D000274B46002B07D0C5
:104C100022002B000698079901F035F806900791BD
:104C2000002200230898099901F08EF8002848D145
:104C3000444B1E9A1340049303971C9B0293069BBC
:104C4000079C0093019443460C9A5146584600F045
:104C500087F8002E00D187E71E9B9B063DD5452592
:104C6000441C4346020051462800D8474A46D31701
:104C7000D2185A4005230593013E0496002303935E
:104C80000A3302934B46DB0F019300924346220006
:104C900051465846FFF78AFD0A9B002B00D163E777
:104CA00002005F460C9E1D9D54E01C9B002B9ED075
:104CB0000D9B002B9BD01C9B013B1C9397E700276F
:104CC00099E7069C079D2200290080200006844663
:104CD00061440B0006920793AAE76525C0E7C0462A
:104CE000FFFFEF7FFFFFEFFF01FCFFFF0000F03F42
:104CF000FB799F501344D33FB3C8608B288AC63FCB
:104D00000000F83F61436F63A787D23F71A3790921
:104D10004F930A400000E03F1655B5BBB16B02400F
:104D2000EF39FAFE422EE63FFF03000000002C4060
:104D300000002440000018402D431CEBE2361A3FCF
:104D400080842E41FFF7FFFF541C4346514620202C
:104D5000B8472200931BAB42F6D3100004E7C046CD
:104D6000F0B5DE4657464E464546E0B595B006904E
:104D7000079193469946209F1E9A1F9B1000190089
:104D800000F0FDFF002831D101225242BF4B1E9896
:104D90001F9900F0D9FF002837D101225242BC4BA5
:104DA0001E981F9900F0E6FF00283DD10022B94B64
:104DB0001E981F9900F0DEFF002850D10022B64B4C
:104DC0001E981F9900F0C0FF002848D10022002340
:104DD0001E981F9900F0B8FF002850D10023984674
:104DE000229B5B0500D4B6E0002458E0229B03938D
:104DF000219B029303230193A84B00934B465A46F1
:104E000007990698FFF7F2FB0EE1229B0393219B83
:104E1000029304230193A24B00934B465A460799F1
:104E20000698FFF7E3FBFFE00423229A1A40229939
:104E30000B4210D09B4B002A0FD0042222990391E1
:104E400021990291019200934B465A460799069880
:104E5000FFF7CCFBE8E0944BEDE70322EEE7229B63
:104E60000493219B039302971E9B1F9C0093019424
:104E70004B465A4607990698FFF768FDD4E01E9AFC
:104E80001F9B0020002100F0ECFE1E901F910123CB
:104E90009846A5E70CAB30221A55013F01341F2C70
:104EA00001D8092FF6D81E981F9900F093FF05002E
:104EB00000F078FF02000B001E981F9900F0D1FE51
:104EC0007A4BFA009B181A685B680A920B9300F001
:104ED000F8FE0890099100F0A1FF060000F05EFFC7
:104EE00002000B000898099900F0BBFE0890099198
:104EF00000226F4B00F03EFF00282ED0013630001C
:104F000000F04CFF02000B000A980B9900F022FF02
:104F1000002801D001350026002F2CD1280000F0F8
:104F200041FF02000B001E981F9900F09AFE060038
:104F30000F0000225E4B00F007FF002846D1002240
:104F40005B4B3000390000F015FF00283ED1EB0725
:104F50003CD501353AE0062746E70022544B089835
:104F6000099900F0F1FE0028D6D1002E01D0F307F8
:104F7000D2D50136D0E7AA461F2C11D8013F0A210D
:104F8000300000F02BFC651C30310CAB19550A21A8
:104F9000300000F023FC092E0ED906002C00EBE7B0
:104FA00055461F2C0CD87B1E002F09D00CAA30218F
:104FB00011551F000134F4E72B0055461C00F0E7A3
:104FC0001F2C03D80CAB2E221A5501341F2C10D8DD
:104FD0000A21280000F0DAFB661C30310CAB1955B1
:104FE0000A21280000F0D2FB051E01D03400EDE7B5
:104FF00034000323229A1340012B1CD01F2C06D807
:105000004346002B32D00CAB2D221A550134229B83
:105010000393219B029301940CAB00934B465A4699
:1050200007990698FFF7E2FA15B0F0BCBB46B24606
:10503000A946A046F0BD219B002B13D04346002B70
:1050400002D10C3313420FD0219B013B2193190055
:1050500003E00CAB30221A5501348C42CED21F2C07
:10506000F7D9CBE72199F8E72199F6E7229B5B076F
:1050700004D50CAB2B221A550134C8E7229B1B0721
:10508000C5D50CAB20221A550134C0E7FFFFEFFF56
:10509000FFFFEF7F65CDCD4165CDCDC1C479001057
:1050A000C8790010B8790010C0790010707B00102A
:1050B0000000E03FF0B5DE4657464E464546E0B5B7
:1050C00093B082468B4690461193002900D100E3AD
:1050D00000275446119B1878002800D1FCE22528AF
:1050E00009D07D1C43463A005946A047119B013325
:1050F00011932F00EEE7013311930025119A1178D7
:105100000B00203BD8B2102803D88300C248C358F4
:105110009F460B00303BDBB2092B2CD92A292FD01C
:1051200000230A93119B1A782E2A39D0002399461E
:10513000119A1378683BD9B2122976D88B00B749F7
:10514000CB589F4601231D4301321192D6E702231B
:105150001D4301321192D1E704231D430132119204
:10516000CCE708231D4301321192C7E710231D43EA
:1051700001321192C2E711A8FFF726FA0A90D1E78F
:105180001C9B1A1D1C921B68002B04DB0A93119BAD
:1051900001331193C6E7022215435B420A93F6E7F7
:1051A0008022D20015435A1C11925A781300303BCA
:1051B000DBB2092B04D92A2A07D000239946B7E786
:1051C00011A8FFF701FA8146B2E71C9B1A1D1C9239
:1051D0001B68002B04DB9946119B01331193A7E751
:1051E0000023F8E780235B002B43511C1191527878
:1051F0006C2A01D01D0018E0C0239B001D43013123
:10520000119112E080232B43511C11915278682A8E
:1052100001D01D0009E0C0231D430131119104E0BC
:1052200080235B001D4301321192119B187867287F
:1052300016D8252826D30300253BDAB2422A21D8E6
:105240009300774AD3589F4680239B001D43013229
:105250001192EAE780235B001D4301321192E4E7DB
:1052600078280FD869280DD30200693AD2B20123F9
:1052700093406C4A13420FD11A0600D503E25B0536
:1052800000D594E17D1C43463A005946A047119B46
:10529000013311932F001DE7782809D0622838D0F8
:1052A0006F2838D0582838D010239D430A2600E0B4
:1052B0001026582833D0692803D0642801D00C2246
:1052C00095436A0501D50122954369282AD06428AF
:1052D00028D0AA0500D5A7E0EA0500D5C0E06A06F7
:1052E00000D4D2E01C9A111D1C911168FF220A40C3
:1052F00005950A9B04934B46039302960023019362
:10530000009243463A0059462000FFF74FFA070043
:1053100027E00226CDE70826CBE71026C9E72022A2
:105320001543C8E7AA0520D4EA0550D46A0666D515
:105330001C9A111D1C911168FF220A40D0171118E8
:10534000414005950A9B04934B4603930296D20F66
:105350000192009143463A0059462000FFF726FA91
:105360000700119B01331193B4E61C9A0732072101
:105370008A43110008311C91116853689C46DB1761
:105380000C930D930C9A0D9B100048400E906246B2
:1053900053400F930E980F990C9A0D9B801A9941C8
:1053A0000E900F9108950A9B07934B46069304961F
:1053B000002305936346DA0F029200900191434661
:1053C0003A0059462000FFF74FFA0700C9E71C9A38
:1053D000111D1C911268D0171118414005950A9BA8
:1053E00004934B4603930296D20F019200914346D9
:1053F0003A0059462000FFF7D9F90700B1E72A061D
:1054000005D51C9A111D1C910023D25E96E71C9AAB
:10541000111D1C91126891E7D0790010147A0010C8
:10542000607A0010419000001C9A073207218A43DD
:10543000110008311C9108950A9B07934B4606936F
:105440000496002305930293536812680092019317
:1054500043463A0059462000FFF706FA070080E766
:105460001C9A111D1C9105950A9B04934B460393AE
:105470000296002301931368009343463A0059466D
:105480002000FFF793F907006BE72A0606D51C9A60
:10549000111D1C9112681204120C29E71C9A111D8F
:1054A0001C91126824E746281AD01C9B0733072258
:1054B00093431A0008321C9204950A9A03924A46B2
:1054C00002921A685B680092019343463A0059467B
:1054D0002000FFF745FC0700119B01331193F9E50C
:1054E00020231D43E1E7672801D0472802D180230C
:1054F0001B011D43452801D0472801D120231D430E
:105500001C9B0733072293431A0008321C92049510
:105510000A9A03924A4602921A685B6800920193C3
:1055200043463A0059462000FFF710FA0700119B46
:1055300001331193CEE502231A002A4092462B42F2
:105540001FD001251C9B1A1D1C927A1C91461878AD
:1055500043463A005946A0475346002B16D1119BAB
:10556000013311934F46B5E5561C4346594620205A
:10557000B8472B0032005D1C9C42F5D83C00170058
:10558000E0E701233A0027000A9CF4E74A46A146D7
:105590000A9C06E0571C434659462020C847350060
:1055A0003A006E1CAC42F5D84C469146D7E71C9B9E
:1055B0001A1D1C921E684B46002B00D1013B310086
:1055C00001E0013113000A78002A02D05A1E002B94
:1055D000F7D1891B10918023DB002A001A409246E4
:1055E0001D4203D0494501D94B46109302231A00AE
:1055F0002A400B922B4205D03A00574623004C46D6
:10560000994620E03A00109B5F46B346260006E02C
:10561000541C434639002020B0472B0022005D1C5B
:105620000A999942F4D834005E46BB461095574615
:1056300023004C46994606E01C000136551C4346A3
:105640005946C8472A003078002804D0002FF4D0EB
:10565000631E002CF0D117004C460B9B002B03D18E
:10566000119B0133119335E50A9F109B06E0561CF0
:10567000434659462020A0472B0032005D1C9F4224
:10568000F5D81700ECE721232B431C9A111D1C9120
:1056900012680593082304934B4603931023029347
:1056A00000230193009243463A0059462000FFF739
:1056B0007DF80700119B013311930BE57D1C4346D8
:1056C0003A0059462520A047119B013311932F0022
:1056D00000E50B4B9A46FBE4A246474502D34346FE
:1056E0005A1E00E03A00434659460020D047380091
:1056F00013B0F0BCBB46B246A946A046F0BDC046BA
:10570000B945001000B585B002900391012104480D
:10571000009313004A4202A9FFF7CCFC05B000BD7C
:10572000BB45001001480421014B184770020020BE
:105730005557001010B5010018231B88142210883B
:10574000984710BD10B5010018231B881622108839
:10575000984710BDF0B5C64600B507000E000025FD
:105760000123984600E00135B5420AD2AC003C194D
:105770002068FFF7DFFF20600028F4D1002398465F
:10578000F1E7404680BCB846F0BD0000124A936F76
:105790009B0815D29066D166002905D0FFE7FFE788
:1057A000FFE7516F106F704704B580210906C217DB
:1057B0005140002800D0C84301F03AFA002104BD4E
:1057C000F0B5146E556E576F166FFFF7E3FF146652
:1057D000556657671667F0BD000000D0114A936FF9
:1057E0009B0813D210665166002905D0FFE7FFE73A
:1057F000FFE7516F106F704704B5002801D00020FB
:10580000C04301F015FA002104BDC046F0B5146E86
:10581000556E576F166FFFF7E5FF146655665767AD
:105820001667F0BD000000D094464E4A926F920871
:10583000624601D230E0C046F0B54A4EB56F6D0801
:10584000FCD3346E756E776F366F00F025F8944692
:10585000444A14665566576716676246F0BDC046EF
:105860009446404A926F9208624601D258E0C04680
:10587000F0B53C4EB56F6D08FCD3346E756E776F26
:10588000366F00F04DF89446364A146655665767F1
:1058900016676246F0BDC046002B24DB11D00029FC
:1058A0003EDA00B5C943404200D1013100F038F87A
:1058B000C943404200D10131DB43524200D10133A0
:1058C00000BD002AEBD1002801D1002905D000201D
:1058D000C90FC90701D1C043410800B501F0A0F9C3
:1058E0000022002300BD00B500290ADBDB43524241
:1058F00000D1013300F014F8C943404200D1013116
:1059000000BDC943404200D10131DB43524200D1C6
:10591000013300F005F8DB43524200D1013300BDF2
:10592000002923D1002B18D1002A0CD0BC460D4FE2
:1059300038667A6600210023FFE7FFE7FFE77A6F0A
:10594000386F67467047002801D00748010000B54E
:1059500001F066F90022002300BD02000B000020C8
:1059600000217047000000D0FFFFFFFF002B00D098
:10597000BFE0130C28D1002AE7D080B4114F39665C
:105980007A66FFE7FFE730B4040C7B6F396F1B04C6
:1059900023433B667A66FFE7FFE7FFE7C04684B232
:1059A0007B6F3D6F1B0423433B667A66FFE7FFE78F
:1059B000C04600232C042D0C7A6F386F0019694102
:1059C000B0BC7047000000D0F0B594460025140E1E
:1059D00001D112020835140F01D112010435940FC0
:1059E00001D192000235D40F01D152000135D40B00
:1059F0000134254F7C66254C3C660E0C93B2FFE7C4
:105A0000FFE7FFE73C6F6643360C7703BE46734300
:105A1000DF0B5B04C01AB941130C7343DB18C91ABE
:105A2000CE086643360CB64493B273431F0F1B0176
:105A3000C01AB941130C73431F0B1B05C01AB9419F
:105A4000860D8F023E436643360C092D24DB520A35
:105A50007243801A7703460A6643360C16235B1B93
:105A6000DE40DF40BF1964466643821B7046043542
:105A700006330100D940A840C01900D30131A24229
:105A800006D20023F0BD0000000000D0FFFFFFFFA2
:105A9000121B0130F3D3F1E709277F1BFE40644658
:105AA000A2B27243801A00D20139220C7243130C45
:105AB0001204821A99410B00704604351337010015
:105AC000F940A840801900D30131002B02D1A24235
:105AD0000AD2F0BD013000D30131121BFAD2013BD2
