:020000041000EA
:1000000000B5324B212058609868022188439860DF
:10001000D860186158612E4B002199600221596106
:100020000121F02299502B49196001219960352056
:1000300000F044F80222904214D00621196600F024
:1000400034F8196E01211966002018661A6600F04E
:100050002CF8196E196E196E052000F02FF8012189
:100060000842F9D1002199601B49196000215960AB
:100070001A491B48016001219960EB211966A021F2
:10008000196600F012F800219960164914480160C1
:100090000121996001BC002800D000471248134993
:1000A000086003C880F30888084703B5996A0420EC
:1000B0000142FBD001200142F8D103BD02B5186610
:1000C0001866FFF7F2FF186E186E02BD00000240BE
:1000D000000000180000070000035F00212200005C
:1000E000F4000018222000A00001001008ED00E03C
:1000F00000000000000000000000000074B24E7A12
:1001000000200420F7010010C3010010C5010010F9
:10011000C1010010C1010010C1010010C101001097
:10012000C1010010C1010010C1010010C701001081
:10013000C1010010C1010010C9010010CB01001065
:10014000CD010010CD010010CD010010CD01001037
:10015000CD010010CD010010CD010010CD01001027
:10016000CD010010CD010010CD010010CD01001017
:10017000CD010010CD010010CD010010CD01001007
:10018000CD010010CD010010CD010010CD010010F7
:10019000CD010010CD010010CD010010CD010010E7
:1001A000CD010010CD010010CD010010CD010010D7
:1001B000CD010010CD010010CD010010CD010010C7
:1001C00000BE00BE00BE00BE00BE00BE00F04BF888
:1001D000103800BEF2EB8871BC6C0010E46C0010AB
:1001E0003402001090A31AE700202149086006C8D5
:1001F00081F3088810471F48006800282FD10DA4FC
:100200000ECC002902D000F012F8F9E71A491B4A77
:10021000002000E001C19142FCD1194988471949E9
:1002200088471949884700BEFDE701C901C29A42C3
:10023000FBD37047E46C0010C00000208002002057
:10024000A46E00100000042000000420A46E001022
:1002500000100420001004200000000070470B482C
:1002600004F084FA0047EFF30580C0B27047000045
:1002700008ED00E0000000D08002002040080020CF
:100280002D31001075040010E930001057560000A1
:1002900006005250ABB36053346C0010060052504D
:1002A000861C0302446C0010060052505422A29D8A
:1002B000486C001005005250DE65F468A46E001012
:1002C000F8B5C04606480749091A8B10C90FC91866
:1002D00010B5491003D0044B002B00D0984710BD37
:1002E000800200208002002000000000054B10B5B5
:1002F000002B03D00449054800E000BFFFF7E2FFF0
:1003000010BDC04600000000E4050020A05B001006
:10031000054B1B889BB2002B04D0034A1388013B7A
:100320009BB21380012070473208002082B0474BF7
:100330009B6910210A001A40194208D0444B9B695E
:1003400010210A001A40194240D002B07047414BB8
:1003500018886B46D91D002A09D13C4B9B69DB06E6
:10036000FBD43A4B1B680B7001320131F3E76B464B
:10037000DA79394B1A54374A138801339BB2138008
:10038000F02B11D0334B1A88344B1B889A420FD074
:100390002E4B5B68012B15D02C4B5B68082BD4D1FE
:1003A0002F4B08221A60D0E7130000221A80E9E7D9
:1003B00001339BB2294A1380F02BE9D113000022AC
:1003C0001A80E5E7264B01221A60E5E7254B1888DD
:1003D000411C19806B46D91D08E01D4B9B69DB064B
:1003E000FBD41B4B1B680B7001320131002AF4D087
:1003F0006B46DA791C4B1A541A4B1B88F02B12D01F
:10040000184B1A88194B1B889A4210D0104B5B6806
:10041000012B16D00E4B5B68082B00D095E7144BD0
:1004200008221A6091E70F4B00221A80E8E7013397
:100430009BB20E4A1380F02BE8D1130000221A80E1
:10044000E4E70B4B01221A60E4E7C046008003405A
:1004500000400340360800208002002034080020BD
:1004600004B003403A080020700300203808002040
:1004700004700340F0B5DE4657464E464546E0B5AB
:100480008FB00CAA814B19680C91998891809B7947
:1004900093710BAB7E4A1A8005F010FA122001F01E
:1004A0007FFA132001F07CFA142001F079FA15206C
:1004B00001F076FA1A2001F073FA1B2001F070FAAD
:1004C000192001F06DFA072001F06AFA062001F008
:1004D00067FA162001F064FAD02424068023DB0298
:1004E0009C46636280263603666280256D036562E2
:1004F0008020800360628021C9046162802212052D
:10050000626280239B0463628027B9466762403F32
:1005100067628027FF03B84667626746A761A661E6
:10052000A561A061A161A261A3614B46A361403BAB
:10053000A3614346A36102F00FF804AB02930023CA
:100540000193544B0093544A002302F0D7F85349C7
:10055000534805F099FA01210D2001F009FA012113
:100560000C2001F005FA01210B2001F001FA012114
:100570000A2001F0FDF996231B029A46494E190004
:10058000300002F06FFD0221092001F0F1F9022193
:10059000082001F0EDF9444D5146280002F062FDBB
:1005A0000221102001F0E4F90221112001F0E0F90C
:1005B000336BC02109020B403C4A1360F36A602090
:1005C00043406E2213403A4FBA463B60F36A10270D
:1005D000BB461F005B461F40BC46574663463B6018
:1005E0002B6B1940334B1960E96A41400A4032498C
:1005F0000A60EA6A584610400860304B9B46190072
:10060000152001F0B5FA0121152001F0A1FA5023BF
:100610009A46B363736B38263340294A13605946B0
:10062000142001F0A5FA0121142001F091FA53469B
:10063000AB636B6B1E40234B1E604B4663614346AE
:100640006361FA20400002F04FF94023636100F03B
:1006500057FA07E000F0B8FF1B4B18801A4B1B88B5
:10066000002B10D002F0A6FF00F000FB164B188004
:100670000028F7D0154B1B88022BEBD000F0F0FEC2
:10068000114B1880EAE700F0E5FAEBE7105C001088
:100690000D0A0000110300101027000040420F0057
:1006A00000000440008003400040034030900340BD
:1006B0002C900340305003402C5003402D03001079
:1006C0003490034034500340300800202E080020AE
:1006D00000B5172800D9FDE18000E84B1B589F4664
:1006E000D0231B06802252039A61802212039A6152
:1006F0008022D2029A61802292035A618022D2041F
:100700009A61802212059A6100BDD0231B068022C7
:1007100052039A61802212039A618022D2025A61A6
:10072000802292035A618022D2049A6180221205AB
:100730009A61E9E7D0231B06802252039A61802246
:1007400012035A618022D2029A61802292035A6176
:100750008022D2049A61802212059A61D4E7D023C4
:100760001B06802252039A61802212035A61802262
:10077000D2025A61802292035A618022D2049A6185
:10078000802212059A61BFE7D0231B068022520304
:100790005A61802212039A618022D2029A618022D9
:1007A00092039A618022D2049A61802212055A61D2
:1007B000AAE7D0231B06802252039A6180221203EB
:1007C0009A618022D2029A61802292039A618022E9
:1007D000D2049A61802212055A6195E7D0231B0644
:1007E000802252035A61802212039A618022D2022F
:1007F0009A61802292035A618022D2049A618022F7
:1008000012059A6180E7D0231B06802252035A61A9
:10081000802212039A618022D2025A6180229203BE
:100820005A618022D2049A61802212059A616BE794
:10083000D0231B06802252035A61802212035A6180
:100840008022D2029A61802292035A618022D204CD
:100850009A61802212059A6156E7D0231B068022F6
:1008600052035A61802212035A618022D2025A61D5
:10087000802292035A618022D2049A61802212055A
:100880009A6141E7D0231B06802252035A618022DD
:1008900012039A618022D2025A61802292039A61E5
:1008A0008022D2049A61802212055A612CE7D0235B
:1008B0001B06802252039A61802212039A618022D1
:1008C000D2025A61802292039A618022D2049A61F4
:1008D000802212055A6117E7D0231B06802252039B
:1008E0009A61802212039A618022D2029A61802248
:1008F00092039A618022D2045A61802212059A6181
:1009000002E7D0231B06802252039A618022120341
:100910009A618022D2025A61802292039A618022D7
:10092000D2045A61802212059A61EDE6D0231B069B
:10093000802252039A61802212035A618022D202DD
:100940009A61802292039A618022D2045A618022A5
:1009500012059A61D8E6D0231B06802252039A61C1
:10096000802212035A618022D2025A6180229203AD
:100970009A618022D2045A61802212059A61C3E6EC
:10098000D0231B06802252035A61802212035A612F
:100990008022D2029A61802292039A618022D2043C
:1009A0009A61802212055A61AEE6D0231B0680228E
:1009B00052039A61802212035A618022D2029A6104
:1009C000802292039A618022D2049A6180221205C9
:1009D0005A6199E6D0231B06802252035A61802275
:1009E00012039A618022D2029A61802292039A6154
:1009F0008022D2045A61802212059A6184E6D023B3
:100A00001B06802252035A61802212039A618022BF
:100A1000D2025A61802292039A618022D2045A61E2
:100A2000802212059A616FE6D0231B0680225203B2
:100A30005A61802212035A618022D2029A61802276
:100A400092039A618022D2045A61802212059A612F
:100A50005AE6D0231B06802252035A6180221203D9
:100A60005A618022D2025A61802292039A618022C6
:100A7000D2045A61802212059A6145E6A05B0010FB
:100A8000D0231B06802252035A61802212035A612E
:100A90008022D2025A61802292039A618022D2047B
:100AA0009A61802212055A612EE6D0231B0680220D
:100AB00052039A61802212035A618022D2025A6143
:100AC000802292039A618022D2049A6180221205C8
:100AD0005A6119E6D0231B06802252039A618022B4
:100AE00012039A618022D2029A61802292039A6153
:100AF0008022D2049A61802212059A6104E6C046DF
:100B0000704700000B4B1B880B4A128893420FD092
:100B1000084A591C11800949CB5C03701388F02BDB
:100B200001D001207047130000221A800120F9E74C
:100B30000020F7E73408002036080020800200205B
:100B40000B4B1B880B4A128893420FD0084A591C42
:100B500011800949CB5C03701388F02B01D0012070
:100B60007047130000221A800120F9E70020F7E700
:100B7000380800203A0800207003002030B583B008
:100B80000400174B9B6908210A001A401942F8D14A
:100B9000144B00215B5EA3420ED06B46D91D0C7036
:100BA000002A1AD10E4B9B699B06FBD408780C4B8C
:100BB000186001320131F3E76B46D91D0D230B702C
:100BC00010000028E9D1064B9B699B06FBD40D78E9
:100BD000034B1D6001300131F3E703B030BDC04667
:100BE000004003402408002030B583B00400174BB8
:100BF0009B6908210A001A401942F8D1144B0221BE
:100C00005B5EA3420ED06B46D91D0C70002A1AD130
:100C10000E4B9B699B06FBD408780C4B1860013285
:100C20000131F3E76B46D91D0D230B70100000282E
:100C3000E9D1064B9B699B06FBD40D78034B1D60E5
:100C400001300131F3E703B030BDC04600800340FE
:100C50002408002010B51020FFF7C6FF1920FFF769
:100C6000C3FF0C20FFF7C0FF10BD0000F0B5CE465B
:100C7000474680B583B0BB4B00221A800026002770
:100C80000125012D01D000F0CFFB02F093FC6B4653
:100C9000D81DFFF737FF04000128F2D1B24BC8225C
:100CA0001A806B4607331B78102B02D000260027D2
:100CB000E7E7FF18BFB23102360A7340AB4A5B0068
:100CC0009E5A4E40B6B26B46D81DFFF71BFF012857
:100CD00004D0A54B1B889BB2002BF4D16B46073385
:100CE0001B78132B17D0152B00D191E1212BC8D1E4
:100CF0009D4B1B889BB2002BC3D06B46D81DFFF7C2
:100D000001FF012800D18BE3974B1F88BFB2002F52
:100D1000F3D13E00B5E7944A128892B2002AE2D09D
:100D2000904A01211180FF18BFB23102360A734088
:100D30008E4A5B009E5A4E40B6B26B46D81DFFF7F6
:100D4000E1FE012804D0884B1B889BB2002BF4D114
:100D50006B4607331B78FF2B01D0002591E7824AB1
:100D6000128892B2002A01D100258AE7804A1288AF
:100D7000033A92B29046FF18BFB23102360A73406E
:100D80007A4A5B009E5A4E40B6B26B46D81DFFF7BA
:100D9000B9FE012804D0744B1B889BB2002BF4D100
:100DA000714B1B889BB2002B01D1002569E76B4674
:100DB000DD1DDB79FF18BFB23002320A5A406B49A1
:100DC0005200565A4640B6B2013BD8B2FFF780FCFB
:100DD0002B78102B11D06B46D81DFFF793FE0128FE
:100DE00004D0614B1B889BB2002BF4D15E4B1B8857
:100DF0009BB2002B1AD1002543E76B46D81DFFF7A5
:100E000081FE012804D0584B1B889BB2002BF4D1E3
:100E10006B4607331B78FF18BFB23102360A7340A6
:100E2000524A5B009E5A4E40B6B2D4E76B46DA791E
:100E3000BF18BFB23002330A53404C495B005E5AC0
:100E40004640B6B2102A11D06B46D81DFFF75AFEA5
:100E5000012804D0444B1B889BB2002BF4D1424B99
:100E60001B889BB2002B1AD100250AE76B46D81DC0
:100E7000FFF748FE012804D03B4B1B889BB2002B98
:100E8000F4D16B4607331B78FF18BFB23102360A24
:100E90007340364A5B009E5A4E40B6B2D4E76B466A
:100EA00007331B78FF18BFB23102360A73402F4A4E
:100EB0005B009E5A4E40B6B26B46D81DFFF722FE2D
:100EC000012804D0284B1B889BB2002BF4D1264B61
:100ED0001B889BB2002B01D10025D2E66B4607335D
:100EE0001B78FF18BFB23102360A73401F4A5B00FD
:100EF0009E5A4E40B6B26B46D81DFFF703FE01283E
:100F000004D0194B1B889BB2002BF4D1164B1B88C5
:100F10009BB2002B01D10025B3E66B46DD792D0293
:100F20006B46D81DFFF7EEFD012804D00E4B1B8841
:100F30009BB2002BF4D10C4B1B889BB2002B01D130
:100F400000259EE66B4607331B78EB189BB29F4249
:100F500002D09E4210D10224064B00221A80454640
:100F60002DE0C0462E08002032080020245C00102E
:100F7000360800202C0800201020FFF735FE19202D
:100F8000FFF732FE0620FFF72FFE0024E4E7B24B06
:100F90004A46985CFFF7F2FD012C27D0AF490B8839
:100FA00018021B0A9C46AC4A4B46D25C634653402F
:100FB000AB4A5B009B5A43400B800135ADB2A9465A
:100FC000A84B1B88023B9D4218DA434602334B452F
:100FD000F3D0434603334B45EFD0424604324A45F3
:100FE000D5D19D4AD35C102BD1D1E6E79A4B4A4626
:100FF0009B5C9A4A11885B181380DEE7974C208827
:10100000000AFFF7BBFD2078FFF7B8FD002538E6A2
:10101000954A128892B2002A00D167E6924AC82106
:101020001180FF18BFB23102360A73408C4A5B0050
:101030009E5A4E40B6B26B46D81DFFF763FD01289D
:1010400004D0894B1B889BB2002BF4D16B4607332D
:101050001B78E52B21D06B46D81DFFF753FD0128E7
:1010600004D0814B1B889BB2002BF4D16B46073315
:101070001B78A22B21D06B46D81DFFF743FD01281A
:1010800004D0794B1B889BB2002BF4D16B460733FD
:101090001B78FF2B21D00025F3E5734A128892B20A
:1010A000002AD8D0FF18BFB23102360A73406C4A0A
:1010B0005B009E5A4E40B6B2CDE76B4A128892B2A0
:1010C000002AD8D0FF18BFB23102360A7340644AF2
:1010D0005B009E5A4E40B6B2CDE7634A128892B288
:1010E000002A01D10025CCE5604A1288053A92B267
:1010F0009046FF18BFB23102360A7340584A5B006F
:101100009E5A4E40B6B26B46D81DFFF7FBFC012835
:1011100004D0554B1B889BB2002BF4D1524B1B883B
:101120009BB2002B01D10025ABE56B46DD1DDB79C1
:10113000FF18BFB23002320A5A4049495200565A8B
:101140004640B6B2013BD8B2FFF7C2FA2B78102B5B
:1011500011D06B46D81DFFF7D5FC012804D0424BB7
:101160001B889BB2002BF4D13F4B1B889BB2002BFA
:101170001AD1002585E56B46D81DFFF7C3FC012871
:1011800004D0394B1B889BB2002BF4D16B4607333C
:101190001B78FF18BFB23102360A7340304A5B0039
:1011A0009E5A4E40B6B2D4E76B46DA79BF18BFB24A
:1011B0003002330A53402A495B005E5A4640B6B2B9
:1011C000102A11D06B46D81DFFF79CFC012804D0D3
:1011D000254B1B889BB2002BF4D1234B1B889BB261
:1011E000002B1AD100254CE56B46D81DFFF78AFC71
:1011F000012804D01C4B1B889BB2002BF4D16B46FA
:1012000007331B78FF18BFB23102360A7340144A05
:101210005B009E5A4E40B6B2D4E76B4607331B784C
:10122000FF18BFB23102360A73400D4A5B009E5A66
:101230004E40B6B26B46D81DFFF764FC012804D0BF
:10124000094B1B889BB2002BF4D1074B1B889BB228
:10125000002B0DD1002514E5800200202C08002071
:10126000245C0010340800203208002036080020DA
:101270006B4607331B78FF18BFB23102360A734042
:10128000714A5B009E5A4E40B6B26B46D81DFFF7BE
:1012900039FC012804D06D4B1B889BB2002BF4D184
:1012A0006A4B1B889BB2002B01D10025E9E46B46F9
:1012B000DD792D026B46D81DFFF724FC012804D0F0
:1012C000624B1B889BB2002BF4D1604B1B889BB2F6
:1012D000002B01D10025D4E46B4607331B78EB18B3
:1012E0009BB29F420BD09E420ED01020FFF77CFC99
:1012F0001920FFF779FC0620FFF776FC0024544BF9
:1013000000221A8045460AE00224F8E7514B4A467B
:101310009B5C4F4A11885B1813800135ADB2A9461A
:101320004D4B1B88023B9D421EDA434604334B451E
:10133000F3D0434605334B45EFD0464B4A46985CC5
:10134000FFF71CFC012CE1D041490B8818021B0A55
:101350009C46404A4B46D25C634653403A4A5B0047
:101360009B5A43400B80D8E7394C2088000AFFF78E
:1013700005FC2078FFF702FC6B46D81DFFF7E0FB69
:10138000012804D0314B1B889BB2002BF4D12F4B8A
:101390001B889BB2002B37D06B4607331B78102B72
:1013A0000AD01020FFF720FC1920FFF71DFC0920B0
:1013B000FFF71AFC002564E46B46D81DFFF7C0FB5D
:1013C000012804D0214B1B889BB2002BF4D16B4623
:1013D00007331B78162B0BD01020FFF705FC1920C4
:1013E000FFF702FC0920FFF7FFFB0025FFF749FC90
:1013F0001020FFF7F9FB1620FFF7F6FB174B022230
:101400001A800025FFF73DFC1020FFF7EDFB1920A7
:10141000FFF7EAFB0C20FFF7E7FB0025FFF731FCA5
:1014200000260027FFF72DFC084B1B889BB2002BE2
:1014300002D1064B00221A80044B188880B203B0F8
:10144000C0BCB946B046F0BD245C00103208002094
:101450002C08002080020020340800202E080020E4
:10146000F0B583B00124504B1B889BB2002B79D080
:10147000012C77D102F09EF86B46D81DFFF760FB78
:101480000128F0D16B4607331B78102BEBD16B464C
:10149000D81DFFF755FB0128F9D16B4607331B78A0
:1014A0001A2B13D0192BDED16B46D81DFFF748FB42
:1014B0000128F9D10F30FFF797FB1920FFF794FBB4
:1014C0006B46D879FFF790FB0024CCE76B46D81D1C
:1014D000FFF736FB0128F9D16B46DC79E61DF6B241
:1014E00009E06B46D81DFFF72BFB0128F9D1013C21
:1014F000E4B20136F6B2002C0DD06B46D81DFFF7D2
:101500001FFB0128F9D16B4607331B78102BE8D05D
:10151000013CE4B2EFE76B46D81DFFF711FB012851
:10152000F9D16B46D81DFFF70BFB0128F9D16B46AB
:10153000D81DFFF705FB0128F9D16B46D81DFFF731
:10154000FFFA0128F9D1194B1D88B7B2AD1BADB216
:1015500005E0174B585DFFF747FB0135ADB2AF42D1
:10156000F7D880E7104B1B889BB2002B03D1114AA0
:101570001378013313701048F022002104F048F86A
:101580000E4B00241C800E4B1C800948F0220021C9
:1015900004F03EF8054B1C800A4B1C80024B188857
:1015A00080B203B0F0BDC046320800203A080020E7
:1015B000700300203F080020800200203608002031
:1015C0003408002038080020F0B5DE4657464E4665
:1015D0004546E0B583B00027002601250023984644
:1015E000BE4B1B889BB2002B00D196E1012D00D091
:1015F00093E101F0DFFF6B46D81DFFF783FA04008B
:101600000128EDD1B54BFA2252001A806B46073300
:101610001B78102BE4D1B24A1288013A92B292465A
:10162000F618B6B239023F0A7B40AE4A5B009F5AB9
:101630004F40BFB26B46D81DFFF764FA012804D0B3
:10164000A64B1B889BB2002BF4D16B4607331B784B
:101650001A2BC5D1A14A128892B2002AC0D0F6181E
:10166000B6B239023F0A7B409E4A5B009F5A4F4008
:10167000BFB26B46D81DFFF745FA012804D0974B3F
:101680001B889BB2002BF4D16B4607331B7899461D
:101690004E44B6B239023B0A4A465340914A5B0077
:1016A0009F5A4F40BFB24B460733DBB29B461AE00E
:1016B0006B46D81DFFF726FA0128F9D16B46073390
:1016C0001B78F618B6B23A023F0A7B4085495B00A8
:1016D0005F5A5740BFB24B46013BDBB299465B466F
:1016E0000133DBB29B464B46002B18D06B46D81D0E
:1016F000FFF708FA0128F9D16B46DA79B618B6B2C5
:1017000038023B0A534077495B005F5A4740BFB2FB
:10171000102ACDD04B46013BDBB29946E3E76B463E
:10172000D81DFFF7EFF9012804D06C4B1B889BB242
:10173000002BF4D16B4607331B78F618B6B23A0289
:101740003F0A7B4067495B005F5A5740BFB26B4618
:10175000D81DFFF7D7F9012804D0604B1B889BB236
:10176000002BF4D16B4607331B78F618B6B23A0259
:101770003F0A7B405B495B005F5A5740BFB26B46F4
:10178000D81DFFF7BFF9012804D0544B1B889BB22A
:10179000002BF4D1514B1B889BB2002B00D11FE7CB
:1017A0006B46DD792D026B46D81DFFF7ABF901289A
:1017B00004D04A4B1B889BB2002BF4D1474B1B88AB
:1017C0009BB2002B14D06B4607331B78EB189BB2EF
:1017D0009E423CD09F423CD01020FFF705FA1920D2
:1017E000FFF702FA0620FFF7FFF94D46C846F7E675
:1017F0004346002B2FD14546F2E63B4B185DFFF7E1
:10180000BDF90134A4B253465B449C42F5DB6B4600
:10181000D81DFFF795F9012804D0304B1B889BB2E7
:10182000002BF4D12D4B1B889BB2002B15D06B469F
:1018300007331B78102B1BD01020FFF7D5F9192088
:10184000FFF7D2F90920FFF7CFF94D46C8E6A046C9
:1018500001E0022398465446D5E71020FFF7C4F96B
:101860001920FFF7C1F90C20FFF7BEF94D46B7E686
:101870006B46D81DFFF764F9012804D0174B1B886D
:101880009BB2002BF4D1154B1B889BB2002B11D0BF
:101890006B4607331B78162B17D0192B26D0102038
:1018A000FFF7A2F91920FFF79FF90920FFF79CF92C
:1018B0004D4695E61020FFF797F91920FFF794F9A8
:1018C0000C20FFF791F94D468AE61020FFF78CF9BE
:1018D0001620FFF789F94D4682E6C04632080020FF
:1018E00036080020245C0010800200206B46D81DC2
:1018F000FFF726F9012804D0164B1B889BB2002B5A
:10190000F4D11020FFF770F91920FFF76DF96B463D
:10191000D879FFF769F94D4662E60F48F0220021B9
:1019200003F076FE0D4B00241C800D4B1C800D48EF
:10193000F022002103F06CFE0B4B1C800B4B1C8033
:10194000044B188880B203B0F0BCBB46B246A9462F
:10195000A046F0BD3208002080020020360800209A
:1019600034080020700300203A08002038080020C6
:1019700010B58300084A944663441A6840246240C4
:10198000803414408022520113431C60C000034B7A
:101990009C466044416010BD04C0014000400140CD
:1019A00010B501238340D022120693629361052172
:1019B000FFF7DEFF10BD0000EFF3108072B6034B9F
:1019C0001B68002BFBD0BFF35F8F70472C0100D04A
:1019D000BFF35F8F024B00221A6080F310887047BC
:1019E0002C0100D0F8B506000C001500FFF7E4FF4D
:1019F000E308F718F15C07222240012393400B42D1
:101A000005D1DBB20B433B70FFF7E2FFF8BD2100CD
:101A1000280001F007FC0000034B1B68022018405F
:101A2000431E9841C0B2704700C00640002307E043
:101A3000054A9A189200BFF35F8F002111600133AD
:101A40001F2BF5D97047C04640000034054A107876
:101A5000431CDBB21370172B02D9130010221A702B
:101A60007047C046B0010020074B9B6810308000D3
:101A70001950BFF35F8FBFF35F8F044B00211960D4
:101A800082F310887047C04600ED00E0240100D0CA
:101A900010B5091A0B1F0A4A94466144094A91423B
:101AA00008D8DA0706D45B105B055B0D06481843BF
:101AB00080B210BD054B064A0648992101F018FB7B
:101AC000FC070000FE0F000000E0FFFF245E001096
:101AD00068600010545E001010B5091A04394A08F5
:101AE000090B08D14905490D064B0B430380064BF2
:101AF0001343438010BD054B054A0648A12101F060
:101B0000F7FAC04600F0FFFF00F8FFFF945E0010F8
:101B10003C600010545E001001238340034A1068AB
:101B20001840431E9841C0B27047C04600E100E033
:101B3000002904D0034B1860034B18607047034B17
:101B40001860FBE780E200E000E100E080E100E0F7
:101B500010B5012383401800FFF7EAFF10BD000015
:101B6000024B9B6810308000C058704700ED00E0C9
:101B700070B504000D00EFF3108672B60C4B1B68B5
:101B8000002BFBD0BFF35F8F2000FFF7E9FF094B6D
:101B9000984201D0A84205D1320029002000FFF769
:101BA00063FF70BD044B054A05487C2101F0A0FA93
:101BB000240100D0CD010010A45E0010846000104C
:101BC000545E0010F0B5CE46474680B583B006009F
:101BD0000D00EFF3108872B6554B1B68002BFBD03D
:101BE000BFF35F8F534B9A6834001034A300D7586B
:101BF000514B9F4207D0AF4200D197E001974F4B26
:101C0000FB1A2F2B09D9424639003000FFF72CFF71
:101C100003B0C0BCB946B046F0BD3000FFF77CFF52
:101C2000814600213000FFF793FFBFF35F8FFEF77F
:101C30001AFB002801D0844211D10123019C9C434E
:101C40000021A368AB4212D00622A256002A0DDB67
:101C500053009B189B00394A2100D418F1E7384BF8
:101C6000384A2C213848FF3101F042FA2100AB42BA
:101C700055D106256557002D37DB304B6A005219C8
:101C800092009B189A68A260DA79E2719B795BB244
:101C9000A371002B10DABD200002A080274B6A0040
:101CA000521992009B18294A11789971157049466A
:101CB0003000FFF74DFFA6E7201D6B005B199B006E
:101CC0001E4A9B18191D9B88DA0A1C2A07D15B053E
:101CD0005B1502335B00C918FFF7DAFEDDE71C4B2A
:101CE0001C4A1948A72101F003FA002812D1002943
:101CF0000ED0FF238B71184B8B8014490B78A37186
:101D00000E4A164BA41A644163431B0D0B70CEE7B9
:101D1000094FF2E71249201DFFF7DEFEC7E7114B1E
:101D2000084A60210848FF3101F0E2F9024F6AE7F2
:101D3000240100D000ED00E0CD010010B40100202E
:101D4000B85F001054600010545E00103D08002081
:101D5000A05F00107460001000BDFFFFAAAA000081
:101D6000EE010020DC5F001070B504000126064380
:101D70002D4BF31A2F2B28D8FEF775FA00282BD0FD
:101D8000EFF3108C72B6294B1B68002BFBD0BFF30E
:101D90005F8F254A264D2100891A49414D432D0D5B
:101DA0006DB2244B9B6880001B58B3421BD00021AE
:101DB000032932D81C4B4A00521892009B189B7979
:101DC0005BB2AB421FD00131F2E71B4B1B4AC22171
:101DD0001B48490001F08CF91A4B184A8821184811
:101DE000FF3101F085F9134B9B68174A1A50174BC6
:101DF0001A78A2711D70BFF35F8F0C4B00221A601E
:101E00008CF3108870BD084B4A00501880001818D9
:101E1000FF2686710E4A8280E9E70E4B074ACC21E5
:101E20000748490001F064F9B4010020240100D002
:101E3000AAAA000000ED00E0E45F0010206000109E
:101E4000545E00100C600010CD0100103D08002011
:101E500000BDFFFF186000100022044B02E004499F
:101E600002C30132072AFAD97047C04600E400E0F5
:101E700080808080024B9C466144890001607047ED
:101E80004000003410B50C00CB68834207D10B69C9
:101E900008009847002809D02068616810BD064BEB
:101EA000064A96210648490001F022F90023E36022
:101EB00000200021F2E7C046A06000103C63001043
:101EC000B460001070B505000C00080000F05AFD69
:101ED000200000F03FFE0849200000F07FFDFFF7E2
:101EE000B5FD064B9C466044800068602C75044B31
:101EF000A400E55070BDC046F92100104000003438
:101F0000FC0500200A4B1A68EFF3108172B61368C3
:101F1000002BFCD0BFF35F8F054B1B68BFF35F8FB7
:101F200000221A6081F3108840BF00200021704712
:101F30001008002010B5002920D003681B7B9942AF
:101F40001CD88368154CA446614409015B181C68C1
:101F50005968002A18D003681B7B9A4214D88368FA
:101F60000E488446624412019B181A685B6801207F
:101F70008B4201D80ED00020C0B210BD084B094AD8
:101F800009483B2101F0B4F8054B064A06483B21BD
:101F900001F0AEF8A242EFD8EDE7C046FFFFFF0F19
:101FA000EC6000108C630010B460001010B50029C4
:101FB0001DD0037B99421AD804684B005B18033B81
:101FC000E418002919D0002A1DD0914221D0002AFE
:101FD00025D0037B9A4222D8006853009B18033B0C
:101FE000C3189970217800291FD1227010BD104BA1
:101FF000104A1148682101F07BF8104B104A0E4836
:102000006F3101F075F80F4B0D4A0B48702101F04C
:102010006FF80D4B0A4A0848712101F069F8044B2A
:10202000044A0548682101F063F859702270DDE721
:1020300020610010F86300103C61001088610010FE
:10204000D463001094610010A061001070B5060008
:102050000D001400002914D0002A14D043688068B1
:102060009847002806D0220029003000FFF79EFF85
:10207000280007E02A0021003000FFF797FF20002A
:1020800000E0100070BD0800FCE70000F0B583B070
:102090000500009201930AAB1C780BAB1F78002C53
:1020A00026D003685A7B944207D10123002B19D113
:1020B000002C3AD1200003B0F0BD002C0CD01A7BCC
:1020C000944209D81A6863001B19033BD3189B7804
:1020D000002BEBD00123E9E73C4B3D4A3D4868210A
:1020E00001F006F83C4B3D4A3D48652101F000F8FF
:1020F00003689C7B002CDBD011D01A7B94420ED855
:102100001A68610009190339521851789973002926
:1021100000D1D9730023937053701370C8E72B4B11
:102120002B4A2C48682100F0E3FF002C37D02B68A5
:102130001B7B9C4233D8AB682A4AA21812019B1819
:10214000009A1A60019A5A60089A9A60099ADA60AD
:102150002E68002C29D02ED0337B9C422BD833689C
:1021600062001219033A9B1800229A705A701A7072
:10217000717B22003000FFF769FF7073844299D1B0
:10218000287D009A019B00F071FC061E01D0002FF3
:1021900017D00C9B002B00D18CE71E708AE7124BE6
:1021A000124A0F483B2100F0A3FF114B114A094886
:1021B000A52100F09DFF054B054A0648682100F067
:1021C00097FF2868210000F073FEE2E7206100100D
:1021D000F86300103C610010B86100100464001046
:1021E000B4600010FFFFFF0FEC6000108C63001064
:1021F000B0600010E8630010F0B5DE4657464E466A
:102200004546E0B58BB0099000230893B24B82009D
:10221000D55833E0B14BB24AB2483F2100F068FFD5
:10222000B14BB24AB2483B2100F062FFB14BB24A17
:10223000AF488C2100F05CFFB04BAF4AAC48902116
:1022400000F056FFA84BAE4AA948402100F050FFCD
:1022500043461A685B68099800F008FC00239B4617
:102260009A466B68BFF35F8F00221A6089F310886B
:102270005346002B53D1002800D126E100F08EFBFD
:1022800002000B1EC6DB0020002106900791686843
:10229000EFF3108972B601680029FCD0BFF35F8F9D
:1022A0002868447B002C35D0BAD0017B8C42B7D84B
:1022B000AE68944961180901B046884441460E68E9
:1022C0004F68B61A9F41002FC2DC01D1002EBFD14A
:1022D000002100F0E3FDA042A8D143461A685B68E4
:1022E0000692079343469B689A464346DB689B46A3
:1022F0005346002BA0D0002CA4D02B681B7B9C4203
:10230000A0D8EA68631ED35C08931B0218432861B7
:102310000020A6E700239B469A460020A1E7089BE1
:102320001B022343984659461800D04706000F0069
:102330006A68EFF3108972B6136859424B41D9B2FB
:10234000002BF9D1BFF35F8F002F26DB002F52DD6A
:102350002B69002B53D0434572D100F01FFB0200C4
:102360000B1E73DB0100180092197B41984202D8C2
:1023700004D1914202D901225242D317002B6BDBC8
:102380000021049101310391029459460191514673
:1023900000912800FFF77AFE49E02B69002BD5D089
:1023A00043451CD1069A079B10001900921BBB41A4
:1023B000994202D804D1904202D901225242D31745
:1023C000002B12DB00210491013103910294594644
:1023D0000191514600912800FFF758FE27E04A4B33
:1023E000454A43489F2100F083FE3C4B3C4A3D4810
:1023F0003F2100F07DFE002F01D1002EA8D12A68D8
:10240000002C44D0537B9C422CD1012100293ED189
:10241000D37B002B41D1D473002C50D02B681B7B75
:102420009C424CD8EA68013C135D013313550023EC
:102430002B616A68BFF35F8F136089F310881DE713
:10244000314B2D4A2A48A22100F052FE234B244A48
:1024500024483F2100F04CFE204B214A21483F21D7
:1024600000F046FE002C0CD0137B9C4209D810686B
:1024700063001B19033BC3189B78002BC6D00121B6
:10248000C4E7224B224A2348682100F031FE224B48
:10249000224A2048F62100F02BFE002B09D0117BA8
:1024A0008B4206D810685900CB18033BC3185C70E8
:1024B000B1E7164B164A1748682100F019FE0A4B7F
:1024C0000F4A0B48402100F013FE0BB0F0BCBB4696
:1024D000B246A946A046F0BDFC050020E061001010
:1024E00058630010FC610010EC6000108C63001059
:1024F000B460001044620010706300105C62001051
:10250000B0630010FFFFFF0F686200102061001031
:10251000F86300103C610010A4620010C463001056
:1025200010B50A4B5B68002B04D009480A21FFF75D
:10253000A1FC10BD054C074A20682300102100F0C3
:10254000D1FB03212000FFF7BDFCEEE7FC010020DA
:1025500010080020351F001010B5064B5B68002BDB
:1025600001D0044810BD044B044A05485C2100F02A
:10257000BFFDC046FC010020C86200109863001037
:10258000B4600010F0B5DE4657464E464546E0B50D
:102590008BB0804616001F00149B9A46159B9946E7
:1025A00016AB1B789B461F2302AA94466344002265
:1025B0001A7036E0002809D042461268127B904219
:1025C00004D84246D168421E8A5C4CE0454B464ADC
:1025D0004648402100F08CFD0798002B79D05B46DF
:1025E000002B76D04946D04704000D0003000B4372
:1025F00000D175E000294ADB00F0D0F902000B1E83
:1026000059DB0100180012196B41984202D804D11D
:10261000914202D901225242D317002B51DB1600FE
:102620001F0043465A68EFF3108472B6136859428C
:102630004B41D9B20791002BF8D1BFF35F8F1F3305
:1026400002AA9446634404930023039302934B46E7
:1026500001935346009332003B004046FFF716FDBE
:10266000031EA7D1020041464968BFF35F8F0025D2
:102670000D6084F31088002B29D01F2302A98C46FB
:1026800063441B78002BA7D112021043A5E730004A
:102690003900361BAF41B94202D804D1B04202D949
:1026A00001267642F717002FBBDA114B114A124868
:1026B0003F2100F01DFD0E4B0E4A0F483F2100F058
:1026C00017FD0B4B0B4A0C483F2100F011FD012078
:1026D00040420BB0F0BCBB46B246A946A046F0BD96
:1026E0000798F6E7EC600010B0630010B4600010CB
:1026F000E061001058630010FC610010F0B585B077
:1027000007000C9E1100194301D101220023B7607C
:102710000A993161326073600B997161D8170100B9
:102720004240140043401D00241A8D4100F036F948
:1027300002000B1E1ADB0100180012196B419842AF
:1027400002D804D1914202D901225242D317002B60
:1027500012DB0121029101960A4900913800FFF72E
:1027600011FFF060C043C00F05B0F0BD064B074A33
:1027700007483F2100F0BCFC034B044A04483F21BA
:1027800000F0B6FC851E0010E061001058630010D8
:10279000FC610010F0B587B006000F00FDF763FD87
:1027A00000281FD106246442E517A4197D41BD42CB
:1027B00002D803D1B44201D900240025002D14DB36
:1027C0000494059500F0EAF802000B1E13DBA41A2E
:1027D0009D41002D17DC14D03000390000F0EAF8DC
:1027E00007B0F0BD234800F01DFD234B234A2448C9
:1027F0003F2100F07DFC204B204A21483F2100F082
:1028000077FC002CE8D0FFF7A7FE0023029301938A
:102810001C4B0093049A059BFFF7B4FE002818DABE
:10282000DAE7002300E00023002BD5D1164B1A680D
:10283000EFF3108172B61368002BFCD0BFF35F8FEB
:10284000114B1B68BFF35F8F00221A6081F3108861
:1028500020BF0499059A0D4B5B6A9A42E3D80B4856
:10286000806A884203D29A42DBD00123DCE701234D
:10287000DAE7C046EC620010E06100105863001017
:10288000FC610010051F00101008002000400540EA
:10289000F8B504000D0000F081F802000B1E10DBFB
:1028A00020002900801859418B4202D804D182426D
:1028B00002D901204042C117002908DBFFF76AFF57
:1028C000F8BD064B064A07483F2100F011FC034BB8
:1028D000034A04483F2100F00BFCC046E0610010B1
:1028E00058630010FC61001010B5FA22920000231A
:1028F000002102F0D3FDFFF7CBFF10BD70B5EFF361
:1029000005833F2018401038EFF3108C72B6184B37
:102910001B68002BFBD0BFF35F8F012319008140A0
:10292000144A5163144A12781400C440234213D04D
:10293000104B5C6A114B8500EB589C4205D3104B41
:10294000EB580D4C8A43227007E00A4A031D9B0096
:1029500099589950002300E00023BFF35F8F044A89
:10296000002111608CF31088002B00D0984770BDB7
:10297000280100D0004005403E0800201408002037
:102980006005002010B50100024A034B1800FFF754
:1029900029F810BD1C6400103C080020044B5B6A41
:1029A000034A906A1900536A9942F9D17047C046A8
:1029B00000400540084B5B6A01E0074B5B6A8B42B5
:1029C000FBD301E0044B5B6A8B4203D1024B9B6A51
:1029D0008342F7D37047C0460040054070B50400FD
:1029E0000E00EFF3108572B61B4B1B68002BFBD05B
:1029F000BFF35F8F002E1CD02000FFF7B1F8174BFC
:102A000083420BD019002000FFF7B2F8012120000B
:102A1000FFF79EF80123A340114A1360114BA40055
:102A2000E650BFF35F8F0C4B00221A6085F31088CD
:102A300070BD0C4BA2000021D1500122A2400A49D6
:102A40000B7893430B7005492000FFF7BBF800217A
:102A50002000FFF77DF8E4E7280100D0FD280010F2
:102A600038600540600500203E080020F0B5DE46D5
:102A700000B584B00400150001921E000293FFF718
:102A80008DFF03958E4202D84ED185424CD9EFF38B
:102A9000108B72B6274B1B68002BFBD0BFF35F8FE8
:102AA000254A17780125A540EBB23B431370234B11
:102AB0005D63221D92000199D150214AA100029824
:102AC00088501B6A2B4212D11C4B1B6C2B4208D026
:102AD0000020BFF35F8F174B00221A608BF3108822
:102AE00023E0184B184A1948C12100F001FBFFF7F9
:102AF00055FF8E4214D802D1039B834210D80E4B4F
:102B00001B78BB420ED00D4B1D625D631F2222401D
:102B1000012393400E4A1360074B1F700120D8E732
:102B20000020D6E70120D4E7012004B080BCBB46DA
:102B3000F0BDC046280100D03E08002000400540FE
:102B40001408002040640010A864001064640010A1
:102B500080E200E0EFF3108C72B60B4B1B68002B89
:102B6000FBD0BFF35F8F01238340084A13620849FB
:102B70000A789A430A70BFF35F8F034B00221A60F2
:102B80008CF310887047C046280100D000400540F3
:102B90003E08002010B500291DD0037B99421AD8A9
:102BA00004684B005B18033BE418002919D0002A85
:102BB0001DD0914221D0002A25D0037B9A4222D8F1
:102BC000006853009B18033BC318997021780029B3
:102BD0001FD1227010BD104B104A1148682100F01F
:102BE00087FA104B104A0E486F3100F081FA0F4BF4
:102BF0000D4A0B48702100F07BFA0D4B0A4A084839
:102C0000712100F075FA044B044A0548682100F070
:102C10006FFA59702270DDE720610010B065001076
:102C20003C610010886100109C65001094610010E8
:102C3000A061001070B506000D001400002914D02A
:102C4000002A14D0436880689847002806D02200E4
:102C500029003000FFF79EFF280007E02A0021002E
:102C60003000FFF797FF200000E0100070BD080063
:102C7000FCE7000010B50023437301338373037B2B
:102C8000C3730123027B9A4213D9002B0BD0027B22
:102C9000934208D801685A00D218033A8A180133BF
:102CA000DBB25370EEE70C4B0C4A0D48682100F084
:102CB0001FFA002A09D0924207D8016853009B18D6
:102CC000033BCB1800225A7010BD034B034A044843
:102CD000682100F00DFAC04620610010B0650010B8
:102CE0003C61001010B5017342608360FFF7C2FFC2
:102CF00010BD000070B50400081E00D170BD002991
:102D000031D0237B99422ED822684B005B18033BBD
:102D1000D3185A78002AF1D02BD0237B9A4228D896
:102D2000216853009B18033BCB185D780021597034
:102D3000002824D0237B984221D8216843001B1807
:102D4000033BCB180021597001002000FFF772FFF0
:102D5000060029002000FFF7CDFF0200310020000F
:102D6000FFF768FFCAE7094B094A0A48682100F0E3
:102D7000BFF9064B064A0748682100F0B9F9034B32
:102D8000034A0448682100F0B3F9C04620610010EE
:102D9000B06500103C61001070B505000C00160015
:102DA000002927D02CD0037B994229D803684900F9
:102DB000091903395B185A78002A27D19A78002A12
:102DC0002AD11978FFF796FF0300002E03D0EA7B83
:102DD000002A27D1EC73002B36D1002C47D02B7B57
:102DE0009C4244D82A6863001B19033BD318002275
:102DF0005A7070BD214B224A2248382100F078F9E0
:102E0000214B224A2248682100F072F9214B1C4ACA
:102E10001C483A2100F06CF91F4B194A19483B2114
:102E200000F066F9002A09D0297B8A4206D82E686C
:102E300051008A18033AB2185470CBE7124B134A68
:102E40001348682100F054F9002B0AD02A7B9342E2
:102E500007D82A6843001B18033BD31800229A7036
:102E6000BBE7094B094A0A48682100F041F9064BC3
:102E7000064A0748682100F03BF9C046C4640010C8
:102E800088650010CC64001020610010B06500104F
:102E90003C610010046500102C65001070B5040042
:102EA0000A00457B2900FFF777FF6073280070BD9B
:102EB00070B50400002966D0437B8B420ED00029F8
:102EC00011D0037B99420ED805684B005B18033B79
:102ED000ED18AB78002B0CD1002055E00121FFF755
:102EE000DDFF012050E0294B294A2A48682100F0E3
:102EF000FFF8002B1FD0027B93421CD800685A00B9
:102F0000D318033BC218C35C8B421AD0002B1BD0D2
:102F1000227B934218D820685A00D318033BC0186C
:102F200043788B4216D0002BF0D11B4B1B4A1C4818
:102F3000672100F0DDF8154B154A1648682100F0AE
:102F4000D7F86B78137007E0104B114A11486821CD
:102F500000F0CEF86B7843700023AB706B700122E9
:102F60002000FFF719FF0200617B814205D020009D
:102F7000FFF760FE6073012006E00A4B074A08482D
:102F80006D2100F0B5F8002070BDC0462061001032
:102F9000B06500103C6100101860001070650010F2
:102FA000CC6400105065001010B50400FEF74EFD13
:102FB00001002000FEF75EFFFF232371BFF35F8F48
:102FC00010BD10B50400FEF741FD01002000FEF722
:102FD00051FFFF23237100236371BFF35F8F10BD87
:102FE00070B504000D00062000F036FAC00029007C
:102FF00001F010FCC60908D00E4B9E4217D87F2363
:103000000340013335005E0800E001256562A662D9
:103010002C3480239B01234300221A60062000F0F9
:103020001BFA8000A901891901F0F4FB70BD00268C
:10303000014DEBE7FEFF0000FFFF0000002909D073
:103040000A22064B9C46604443425841044B4000D0
:10305000C252704780225200F3E7C0460080FCBF96
:103060002408002070B505000C00062000F0F4F9DB
:10307000002829D0164B9D4227D08022D203154B21
:103080001A60154B1A60154B9B6811009943FAD1D1
:1030900000212800FFF7D2FF21002800FFF7A0FF42
:1030A00029002C31EB6A602253400E321A408023F3
:1030B0005B010B431A600A4B2B6380239B010B437C
:1030C00010221A600323AB6470BD80221204D6E77D
:1030D0000080034000E0004000F0004000C00040DD
:1030E0000103000000BEFDE710B5FFF7FBFF000085
:1030F00030B583B00D001900002A0DD0084B002A0E
:103100000CD0084C019200932B000200200002F02A
:10311000C9FB0120FFF7E6FF034BF0E7024AF0E7A7
:1031200054660010646600106066001070B52B4B8A
:103130002B4A1A602B4B2C4A1A602C4B9A682A4B4C
:103140009343FAD12A4C01E008CC9847294B9C4282
:10315000FAD300F001F9234B274A1A60234B9B68EE
:10316000DB43DB01FAD1254B40229A675A671A6785
:10317000DA66234C09E0234B234A24488321FFF7D6
:10318000B7FF2000FFF710FF0834214B9C4209D203
:103190002368002BF5D0012BEDD12000FFF711FFA4
:1031A0000834F2E71B4DA9681B4CC022200002F036
:1031B00035FAAC60FDF757F8002800D000BEFEF7E6
:1031C00035FCFEF749FEFFF7ABF9144C01E008CCE3
:1031D0009847134B9C42FAD370BDC04600E00040B4
:1031E000BFCDFBFE00F00040FE7F3C0000C0004071
:1031F0006C0200207C020020FFFFFF0100F0014074
:1032000064020020946600100C670010B466001081
:103210006C02002000ED00E0000000207C02002095
:10322000800200200FB400B583B0084802F008FB0C
:10323000049B002B07D005A90191180002F010FB98
:10324000034802F0FDFA0120FFF74CFFF86600107A
:1032500008670010F8B5DE4657464E464546E0B5CD
:1032600006000F0015000A9A93424ED31A0E92469A
:103270001B0298460A9A00234046514601F00CFB77
:1032800081467400A419A4002E4B9C4664446368D4
:10329000834200D26060331FDBB29B46012B3AD9D8
:1032A000C0239B012343802212011A60264BB200E7
:1032B000D158002905D0586901F0ACFA0130013825
:1032C000FDD16D0123685D40E0222A4080235B012F
:1032D00023431A605A46012A28D980239B0123439D
:1032E000802212011A604B4663604A460023404622
:1032F000514601F0D1FA144BB60098510120F0BCB0
:10330000BB46B246A946A046F8BD104B104A11482C
:103310002D21FFF7EDFE012FC2D1C0239B012343D6
:1033200003221A60A368DB07FCD5CAE7216879404D
:1033300003220A401A60A3680125BD401D42FAD04D
:10334000CBE7C04600800040700500201C670010DD
:10335000746700103067001030B583B00C2000F0A7
:1033600021F9FEF759FB00280DD0002304E02E4A76
:1033700099002E4888500133092BF8D92A4B2C4A42
:103380005A6203B030BD2B4B00229A6700F01CF943
:10339000294B01221A60274B5B6C012BFBD1274B79
:1033A00003221A60234B9B6B012BFBD1013300934B
:1033B0000433234A0121234800F054F805230093E5
:1033C000214A0121214800F04DF8214B00930022B1
:1033D00002210420FFF73EFF1E4D00952B00002226
:1033E00001210520FFF736FF104C00942300002236
:1033F00000210720FFF72EFF009423000022002168
:103400000820FFF727FF0A4B00932300002200212A
:103410000920FFF71FFF00952B0000220021062046
:10342000FFF718FFADE7C04670050020006CDC0216
:103430001BB70000008000403CB0004030B00040AE
:10344000002F685900800240008C864700C002406F
:10345000001BB70040597307014B8000C0587047EC
:1034600070050020F0B5C64600B504000F00904678
:103470001D000C2001F0CEF906003D4A42443D4BB0
:103480009A4243D843011B1A9901C91AC900091865
:103490008901404601F0BEF90200103A98235B0012
:1034A0009A4239D86B1E062B3CD8069B013B062B53
:1034B00038D8069B9D423BD343461B09B3423DD3BC
:1034C0002D04069B1E0335432368002B3CDB2A4B4F
:1034D0009C424AD080235B01284A1360284A13602B
:1034E000284A926819009143FAD12760A060221DF2
:1034F000C0239B01134321221A602268002AFCDAB0
:10350000E56008221A6080BCB846F0BD1E4B1F4A19
:103510001F481121FFF7ECFD1E4B1C4A1C481921C6
:10352000FFF7E6FD1C4B194A19481C21FFF7E0FD87
:103530001A4B164A16482221FFF7DAFD184B134A98
:1035400013482521FFF7D4FD22683F231340BB42D7
:10355000BDD1A3681B051B0D8342B8D1E368EE22E1
:10356000D2021340AB42B2D1CDE780239B01B3E737
:1035700080E84BD380F8A93200C0024000E0004050
:1035800000F0004000C0004084670010C0680010D8
:10359000E467001024680010406800108C68001078
:1035A000A468001080239B000343014AD362704744
:1035B00000800540024B1A68024B5A607047C046B3
:1035C000E005002000800540064BAA2212011A6087
:1035D0002F22DA60044B054A1A60024B5B68002B0D
:1035E000FBDA7047004002400060024000B0FA0081
:1035F000704710B5002802D00B684968984710BD85
:103600000100002007E083001B185B00501C0860CD
:103610001078C01830380A681378303BDBB2092BB9
:10362000F1D97047F0B5DE4657464E464546E0B5FF
:1036300083B093461F000C9B9A460D9C0E9B9946A7
:103640000F9B9B0703D0B8460F00060022E00192B3
:10365000A34688464E46B9460700B44207D2551CD9
:103660004B4641462020B84701342A00F5E73D008B
:103670004F465C46019B9B46B1464646B8463700DE
:103680002E0007E0013C551C5346185D43463900A7
:10369000B0472A00002CF5D135003E0047460F9B6D
:1036A0009B0707D4100003B0F0BCBB46B246A94646
:1036B000A046F0BDB0464E46B9462F005D46531BAE
:1036C000B342EFD2541C4B4641462020B84722005B
:1036D000F5E7F0B5CE46474680B585B094469846A6
:1036E0000C9D0D9C0EAB1B789946109A119B129E57
:1036F000B7071CD4002B0CD0F7070AD54F46002F74
:1037000002D10C37374204D0013B02E030272F555D
:103710000134944201D21F2CF8D9F70707D59C42F7
:1037200005D21F2C03D830272F550134F5E7F706B3
:1037300015D5770505D4002C03D0944224D09C42A3
:1037400022D00F9A102A2BD00F9A102A30D00F9A1D
:10375000022A35D01F2C02D830222A5501341F2CC2
:1037600005D84A46002A31D02D222A550134039625
:1037700002930194009543466246FFF753FF05B05C
:10378000C0BCB946B046F0BD621E012C06D00F9FEA
:10379000102F01D01400D4E7023CD2E71400D0E788
:1037A000B206D1D41F2CCFD878222A550134D1E7C4
:1037B000B206CCD51F2CCAD858222A550134C9E7E5
:1037C0001F2CC7D860322A550134C3E7720703D5CE
:1037D0002B222A550134CAE73207C8D520222A55A0
:1037E0000134C4E7F0B5DE4657464E464546E0B5DF
:1037F00093B081468A46089209931CAB10CB1B7884
:103800009B461E9D219B9846002C03D110234246C7
:103810009A4390468023DB0046461E4042461A42A9
:1038200012D0002C22D000260EE03031CBB2771C13
:103830000AAA93552900200000F0ECFFAC4216D3F1
:103840001F2F14D83E0004002900200000F0E2FFE2
:10385000C9B20929E9D943469B0605D541235B181E
:10386000DBB20A3BDBB2E2E76123F8E7270043461D
:103870000693209B05931F9B049303955B4602933D
:1038800001970AAB0093099B089A51464846FFF7F7
:1038900020FF13B0F0BCBB46B246A946A046F0BD1F
:1038A000F0B5DE4657464E464546E0B595B0089021
:1038B00009910A920B931E9E1F9C20AB1B789B467E
:1038C000229B9946239D269B9A463300234303D18E
:1038D000103352469A4392468023DB0057461F40DE
:1038E00052461A4219D0330023432DD0002714E04A
:1038F0003032D3B27A1C90460CAAD3554A462B00DC
:103900003000210000F0C8FFA5421FD819D043465F
:103910001F2B1BD8474606000C004A462B003000E0
:10392000210000F0B9FFD2B2092AE1D953469B0623
:1039300005D541239B18DBB20A3BDBB2DAE76123F2
:10394000F8E7B145E3D901E00023984653460693D2
:10395000259B0593249B04934B4603935B4602935C
:10396000434601930CAB00930B9B0A9A0999089864
:10397000FFF7AFFE15B0F0BCBB46B246A946A04665
:10398000F0BD0000F0B5DE4657464E464546E0B570
:1039900091B083468A460C9298461A9C08941B9DC7
:1039A000099522002B002000290001F004FA0028CC
:1039B00000D0E5E001225242D74B2000290001F05F
:1039C000F5F9002800D0DBE001225242D34B200061
:1039D000290001F0D5F9002800D0D1E00022002311
:1039E000089E3000099D290001F0CAF9002800D086
:1039F000DDE0089A099B069207938023DB001E9A5C
:103A00001A400D921E9A1A4201D106231C93069861
:103A1000079904000D000A000600024300D1D1E01E
:103A2000080D4005400DBE4CA44660440A03120B2D
:103A3000BC4B13431F0001F0D1F9BB4ABB4B01F053
:103A40005CF9BB4ABB4B01F031F904000D000022C8
:103A5000B94B3000390001F020F9B84AB84B01F0F9
:103A60004CF902000B002000290001F01FF901F0C1
:103A7000CDF9814601F0B2F904000D00B14AB24B14
:103A800001F03BF90022B14B01F010F901F0BEF951
:103A90000600AF4AAF4B2000290001F02EF90400C8
:103AA0000D00300001F09AF9AB4AAC4B01F025F95A
:103AB00002000B002000290001F0EFF804000D00C7
:103AC00002000B0001F019F90A900B91A44BF318B6
:103AD00000261F0522002B002000290001F0E6F837
:103AE0000E900F9122002B0000208021C90501F0CB
:103AF000D4F804000D0000229A4B0A980B9901F0AB
:103B0000DEF80022984B01F0D1F802000B000A9871
:103B10000B9901F0D4F80022944B01F0C7F8020091
:103B20000B000A980B9901F0CAF802000B00200064
:103B3000290001F0BBF802000B000E980F9901F06C
:103B4000BEF80022774B01F0B1F832003B0001F0E3
:103B5000D4F806000F0004000D00069A079B01F040
:103B600025F9002830D001235B429C46E144002225
:103B70007D4B3000390001F0A2F804000D0023E075
:103B80001E9B04931D9B03931C9B0293089A099B05
:103B90000092019343460C9A5146584600F0FCF8B7
:103BA00011B0F0BCBB46B246A946A046F0BD00230A
:103BB000002406930794069680231B069C466544C2
:103BC00007951AE7002399464B466333C62B1ED848
:103BD00004261E9B1B0526D52B0023430FD0644AC9
:103BE000644B0698079901F0D9F8002879D0002293
:103BF000614B0698079901F0C3F8002871D01C9B0F
:103C00004B4506DD4A469B1A013B1C9303E0052603
:103C1000DFE700231C938023DB001E9A1A431E92C9
:103C20000026002399461D9B9E4264D29F1B0223BF
:103C30001E9A1A400A921E9A134202D0002E00D0F9
:103C400000274B46002B07D022002B00069807992F
:103C500001F035F806900791002200230898099991
:103C600001F08EF8002848D1444B1E9A134004936B
:103C700003971C9B0293069B079C00930194434669
:103C80000C9A5146584600F087F8002E00D187E77D
:103C90001E9B9B063DD54525441C434602005146CC
:103CA0002800D8474A46D317D2185A40052305930F
:103CB000013E0496002303930A3302934B46DB0F25
:103CC000019300924346220051465846FFF78AFD71
:103CD0000A9B002B00D163E702005F460C9E1D9DEE
:103CE00054E01C9B002B9ED00D9B002B9BD01C9B5B
:103CF000013B1C9397E7002799E7069C079D22004C
:103D0000290080200006844661440B000692079338
:103D1000AAE76525C0E7C046FFFFEF7FFFFFEFFF83
:103D200001FCFFFF0000F03FFB799F501344D33F9D
:103D3000B3C8608B288AC63F0000F83F61436F63B9
:103D4000A787D23F71A379094F930A400000E03F53
:103D50001655B5BBB16B0240EF39FAFE422EE63F75
:103D6000FF03000000002C40000024400000184029
:103D70002D431CEBE2361A3F80842E41FFF7FFFFF4
:103D8000541C434651462020B8472200931BAB42A7
:103D9000F6D3100004E7C046F0B5DE4657464E465F
:103DA0004546E0B595B00690079193469946209F09
:103DB0001E9A1F9B1000190000F0FDFF002831D152
:103DC00001225242BF4B1E981F9900F0D9FF0028D4
:103DD00037D101225242BC4B1E981F9900F0E6FFDA
:103DE00000283DD10022B94B1E981F9900F0DEFF3C
:103DF000002850D10022B64B1E981F9900F0C0FF3A
:103E0000002848D1002200231E981F9900F0B8FF17
:103E1000002850D100239846229B5B0500D4B6E0D1
:103E2000002458E0229B0393219B029303230193D8
:103E3000A84B00934B465A4607990698FFF7F2FBAA
:103E40000EE1229B0393219B029304230193A24B37
:103E500000934B465A4607990698FFF7E3FBFFE0AD
:103E60000423229A1A4022990B4210D09B4B002A1D
:103E70000FD004222299039121990291019200937B
:103E80004B465A4607990698FFF7CCFBE8E0944B5F
:103E9000EDE70322EEE7229B0493219B0393029715
:103EA0001E9B1F9C009301944B465A460799069807
:103EB000FFF768FDD4E01E9A1F9B0020002100F050
:103EC000ECFE1E901F9101239846A5E70CAB302213
:103ED0001A55013F01341F2C01D8092FF6D81E981E
:103EE0001F9900F093FF050000F078FF02000B001F
:103EF0001E981F9900F0D1FE7A4BFA009B181A68A1
:103F00005B680A920B9300F0F8FE0890099100F0AC
:103F1000A1FF060000F05EFF02000B00089809995F
:103F200000F0BBFE0890099100226F4B00F03EFFAD
:103F300000282ED00136300000F04CFF02000B00AC
:103F40000A980B9900F022FF002801D001350026C5
:103F5000002F2CD1280000F041FF02000B001E981A
:103F60001F9900F09AFE06000F0000225E4B00F041
:103F700007FF002846D100225B4B3000390000F0DB
:103F800015FF00283ED1EB073CD501353AE0062766
:103F900046E70022544B0898099900F0F1FE0028EA
:103FA000D6D1002E01D0F307D2D50136D0E7AA46EC
:103FB0001F2C11D8013F0A21300000F02BFC651C9A
:103FC00030310CAB19550A21300000F023FC092ECA
:103FD0000ED906002C00EBE755461F2C0CD87B1E93
:103FE000002F09D00CAA302111551F000134F4E72D
:103FF0002B0055461C00F0E71F2C03D80CAB2E22DB
:104000001A5501341F2C10D80A21280000F0DAFBC1
:10401000661C30310CAB19550A21280000F0D2FB88
:10402000051E01D03400EDE734000323229A13402B
:10403000012B1CD01F2C06D84346002B32D00CABD2
:104040002D221A550134229B0393219B0293019444
:104050000CAB00934B465A4607990698FFF7E2FAD5
:1040600015B0F0BCBB46B246A946A046F0BD219BA8
:10407000002B13D04346002B02D10C3313420FD038
:10408000219B013B2193190003E00CAB30221A5510
:1040900001348C42CED21F2CF7D9CBE72199F8E717
:1040A0002199F6E7229B5B0704D50CAB2B221A550E
:1040B0000134C8E7229B1B07C5D50CAB20221A553B
:1040C0000134C0E7FFFFEFFFFFFFEF7F65CDCD417C
:1040D00065CDCDC1D8680010DC680010CC68001038
:1040E000D4680010806A00100000E03FF0B5DE46A2
:1040F00057464E464546E0B593B082468B469046BD
:104100001193002900D100E300275446119B187831
:10411000002800D1FCE2252809D07D1C43463A0046
:104120005946A047119B013311932F00EEE701334D
:1041300011930025119A11780B00203BD8B210285A
:1041400003D88300C248C3589F460B00303BDBB204
:10415000092B2CD92A292FD000230A93119B1A78D6
:104160002E2A39D000239946119A1378683BD9B288
:10417000122976D88B00B749CB589F4601231D439F
:1041800001321192D6E702231D4301321192D1E789
:1041900004231D4301321192CCE708231D43013251
:1041A0001192C7E710231D4301321192C2E711A8F3
:1041B000FFF726FA0A90D1E71C9B1A1D1C921B6878
:1041C000002B04DB0A93119B01331193C6E70222F3
:1041D00015435B420A93F6E78022D20015435A1C2E
:1041E00011925A781300303BDBB2092B04D92A2AEA
:1041F00007D000239946B7E711A8FFF701FA8146D7
:10420000B2E71C9B1A1D1C921B68002B04DB99460D
:10421000119B01331193A7E70023F8E780235B008C
:104220002B43511C119152786C2A01D01D0018E0CB
:10423000C0239B001D430131119112E080232B43C9
:10424000511C11915278682A01D01D0009E0C02349
:104250001D430131119104E080235B001D430132B5
:104260001192119B1878672816D8252826D30300A9
:10427000253BDAB2422A21D89300774AD3589F4689
:1042800080239B001D4301321192EAE780235B00EB
:104290001D4301321192E4E778280FD869280DD325
:1042A0000200693AD2B2012393406C4A13420FD103
:1042B0001A0600D503E25B0500D594E17D1C434658
:1042C0003A005946A047119B013311932F001DE777
:1042D000782809D0622838D06F2838D0582838D0AC
:1042E00010239D430A2600E01026582833D0692861
:1042F00003D0642801D00C2295436A0501D5012220
:10430000954369282AD0642828D0AA0500D5A7E0BB
:10431000EA0500D5C0E06A0600D4D2E01C9A111D5F
:104320001C911168FF220A4005950A9B04934B4695
:104330000393029600230193009243463A005946A4
:104340002000FFF74FFA070027E00226CDE70826F6
:10435000CBE71026C9E720221543C8E7AA0520D4D9
:10436000EA0550D46A0666D51C9A111D1C91116885
:10437000FF220A40D0171118414005950A9B04936B
:104380004B4603930296D20F0192009143463A00A6
:1043900059462000FFF726FA0700119B01331193BD
:1043A000B4E61C9A073207218A43110008311C9198
:1043B000116853689C46DB170C930D930C9A0D9B68
:1043C000100048400E90624653400F930E980F998C
:1043D0000C9A0D9B801A99410E900F9108950A9B9B
:1043E00007934B4606930496002305936346DA0F22
:1043F00002920090019143463A0059462000FFF78F
:104400004FFA0700C9E71C9A111D1C911268D017BA
:104410001118414005950A9B04934B46039302965D
:10442000D20F0192009143463A0059462000FFF70F
:10443000D9F90700B1E72A0605D51C9A111D1C9170
:104440000023D25E96E71C9A111D1C91126891E719
:10445000E4680010286900107469001041900000A1
:104460001C9A073207218A43110008311C910895D4
:104470000A9B07934B4606930496002305930293E9
:10448000536812680092019343463A00594620004F
:10449000FFF706FA070080E71C9A111D1C9105958D
:1044A0000A9B04934B4603930296002301931368DF
:1044B000009343463A0059462000FFF793F907005E
:1044C0006BE72A0606D51C9A111D1C91126812046E
:1044D000120C29E71C9A111D1C91126824E746282A
:1044E0001AD01C9B0733072293431A0008321C92F0
:1044F00004950A9A03924A4602921A685B680092EF
:10450000019343463A0059462000FFF745FC070057
:10451000119B01331193F9E520231D43E1E767283F
:1045200001D0472802D180231B011D43452801D01B
:10453000472801D120231D431C9B073307229343A7
:104540001A0008321C9204950A9A03924A46029273
:104550001A685B680092019343463A00594620006E
:10456000FFF710FA0700119B01331193CEE50223E8
:104570001A002A4092462B421FD001251C9B1A1D6F
:104580001C927A1C9146187843463A005946A04737
:104590005346002B16D1119B013311934F46B5E5BD
:1045A000561C434659462020B8472B0032005D1C5C
:1045B0009C42F5D83C001700E0E701233A002700B1
:1045C0000A9CF4E74A46A1460A9C06E0571C43466B
:1045D00059462020C84735003A006E1CAC42F5D839
:1045E0004C469146D7E71C9B1A1D1C921E684B46F1
:1045F000002B00D1013B310001E0013113000A78AA
:10460000002A02D05A1E002BF7D1891B109180235B
:10461000DB002A001A4092461D4203D0494501D9C9
:104620004B46109302231A002A400B922B4205D0CE
:104630003A00574623004C46994620E03A00109B2A
:104640005F46B346260006E0541C4346390020204E
:10465000B0472B0022005D1C0A999942F4D834001F
:104660005E46BB461095574623004C46994606E0E9
:104670001C000136551C43465946C8472A0030786D
:10468000002804D0002FF4D0631E002CF0D11700B6
:104690004C460B9B002B03D1119B0133119335E545
:1046A0000A9F109B06E0561C434659462020A0470F
:1046B0002B0032005D1C9F42F5D81700ECE7212348
:1046C0002B431C9A111D1C91126805930823049317
:1046D0004B46039310230293002301930092434619
:1046E0003A0059462000FFF77DF80700119B01337F
:1046F00011930BE57D1C43463A0059462520A047FF
:10470000119B013311932F0000E50B4B9A46FBE4FC
:10471000A246474502D343465A1E00E03A004346AC
:1047200059460020D047380013B0F0BCBB46B24613
:10473000A946A046F0BDC046F135001000B585B0D1
:104740000290039101210448009313004A4202A9F8
:10475000FFF7CCFC05B000BDF33500100148042183
:10476000014B1847300200208D47001010B50100A2
:1047700018231B8814221088984710BD10B501001B
:1047800018231B8816221088984710BDF0B5C6461E
:1047900000B507000E0000250123984600E0013512
:1047A000B5420AD2AC003C192068FFF7DFFF206059
:1047B0000028F4D100239846F1E7404680BCB84673
:1047C000F0BD0000124A936F9B0815D29066D16627
:1047D000002905D0FFE7FFE7FFE7516F106F704733
:1047E00004B580210906C2175140002800D0C843F3
:1047F00001F0BEF9002104BDF0B5146E556E576F7F
:10480000166FFFF7E3FF1466556657671667F0BD2E
:10481000000000D0114A936F9B0813D210665166B6
:10482000002905D0FFE7FFE7FFE7516F106F7047E2
:1048300004B5002801D00020C04301F099F90021FF
:1048400004BDC046F0B5146E556E576F166FFFF776
:10485000E5FF1466556657671667F0BD000000D087
:1048600094464E4A926F9208624601D230E0C046AA
:10487000F0B54A4EB56F6D08FCD3346E756E776F28
:10488000366F00F025F89446444A1466556657671B
:1048900016676246F0BDC0469446404A926F920841
:1048A000624601D258E0C046F0B53C4EB56F6D0887
:1048B000FCD3346E756E776F366F00F04DF894460A
:1048C000364A14665566576716676246F0BDC0469D
:1048D000002B24DB11D000293EDA00B5C943404249
:1048E00000D1013100F038F8C943404200D1013114
:1048F000DB43524200D1013300BD002AEBD1002836
:1049000001D1002905D00020C90FC90701D1C0433A
:10491000410800B501F024F90022002300BD00B5D4
:1049200000290ADBDB43524200D1013300F014F8C6
:10493000C943404200D1013100BDC943404200D1CA
:104940000131DB43524200D1013300F005F8DB4373
:10495000524200D1013300BD002923D1002B18D1D0
:10496000002A0CD0BC460D4F38667A660021002321
:10497000FFE7FFE7FFE77A6F386F67467047002869
:1049800001D00748010000B501F0EAF80022002339
:1049900000BD02000B00002000217047000000D085
:1049A000FFFFFFFF002B00D0BFE0130C28D1002A2F
:1049B000E7D080B4114F39667A66FFE7FFE730B47D
:1049C000040C7B6F396F1B0423433B667A66FFE759
:1049D000FFE7FFE7C04684B27B6F3D6F1B042343B4
:1049E0003B667A66FFE7FFE7C04600232C042D0CE8
:1049F0007A6F386F00196941B0BC7047000000D071
:104A0000F0B594460025140E01D112020835140F9A
:104A100001D112010435940F01D192000235D40F57
:104A200001D152000135D40B0134254F7C66254C51
:104A30003C660E0C93B2FFE7FFE7FFE73C6F66436F
:104A4000360C7703BE467343DF0B5B04C01AB941D3
:104A5000130C7343DB18C91ACE086643360CB644F0
:104A600093B273431F0F1B01C01AB941130C734358
:104A70001F0B1B05C01AB941860D8F023E436643CA
:104A8000360C092D24DB520A7243801A7703460A3A
:104A90006643360C16235B1BDE40DF40BF196446BD
:104AA0006643821B7046043506330100D940A84096
:104AB000C01900D30131A24206D20023F0BD00008C
:104AC000000000D0FFFFFFFF121B0130F3D3F1E71E
:104AD00009277F1BFE406446A2B27243801A00D2AF
:104AE0000139220C7243130C1204821A99410B00F3
:104AF0007046043513370100F940A840801900D3EF
:104B00000131002B02D1A2420AD2F0BD013000D304
:104B10000131121BFAD2013BF8D1A24200D2F0BD02
:104B2000013000D30131121BF7E7F0B51C0C00D0A7
:104B300080E00CB400251C0A04D11B02160E33437E
:104B4000120208351C0B04D11B01160F334312014E
:104B500004359C0B04D19B00960F33439200023521
:104B6000DC0B02D192185B4101351C00971864419F
:104B70000134464F7C66464C3C660E0CFFE7FFE76F
:104B8000FFE7C0463C6F6643360C7703BE4697B2DC
:104B90007743C01B00D20139C01B00D201399FB23C
:104BA0007743C91BC91B170C77437E04FF0B801B7F
:104BB000B941CE086643360C0C2D33DBB644120BDC
:104BC0001F053A431B0B97B27743C01B00D2013934
:104BD0009FB27743C91B170C77433E043F0C801BE1
:104BE000B941860D8F023E43664329277F1BFE4055
:104BF0000C3D7746AF40BF1930BCA2B2ABB2724396
:104C00007343801A9941220C7243130C1204801AC8
:104C1000994102000B000137001BA941F9D2781E0F
:104C20000021F0BD0C277F1BFE4077467F0BAF4075
:104C3000FF19E0E700245D1C07D0144F7D6639663C
:104C4000FFE7FFE7FFE7FFE73C6F95B29EB26543E2
:104C50006643401BB141150C1E0C65436643360488
:104C60002F0C3E432D04401BB141994204D2020057
:104C70000B0020000021F0BD01D19042F7D3801A33
:104C8000994101349942F2D3F6E70000000000D0C8
:104C9000FFFFFFFF48404140484018B41B4B5B6892
:104CA000FC46019308BD04DF6F4F001018B4174B8A
:104CB0001B68FC46019308BD00DF794F0010944645
:104CC000134A926F920809D2624618B40F4BDB6800
:104CD000FC46019308BD0CDF315200100C4AF0B5C0
:104CE000146E556E576F166F6246FFF7EEFF084A57
:104CF0001466556657671667F0BD18B4034B9B687A
:104D0000FC46019308BD08DFD55000100C060020BA
:104D1000000000D0FFB550404240504059404B4049
:104D2000594000E0FFB5154F4C00640D03D0BC4264
:104D300004D10C0314D80020090D09055C00640D92
:104D400003D0BC4204D11C030AD800221B0D1B0552
:104D500001264B4009D44B4003D58B4200D18242FF
:104D6000FFBD9942FCD19042FFBD0B43DB180343CA
:104D70001343F5D0C9434918FFBD0000FF070000E9
:104D800000B5FFF7CFFF804100BDC04600B5FFF77B
:104D9000C9FF01D9002000BD012000BD00B5FFF70B
:104DA000B9FF01D9002000BD012000BD00B5FFF70B
:104DB000B1FF804100BD012040054A00121804D80F
:104DC0005A00121801D800207047012070470020B7
:104DD000704700000021002805D17047C1174840E6
:104DE000401AFAD0C90713B5064B1B6898470CBC8C
:104DF000441CA2401005120B0349091B0905194365
:104E0000114310BD0C0700201F04000010B54C001A
:104E1000620D8023D218DB00D21A5B057E2A10DDDA
:104E20009E3A13DACC170903490819435242D1407C
:104E3000640001341532202A05DAD040084360436B
:104E400010BD002010BD0846604310BDC80FC0183B
:104E5000013810BD18B4044B5B6AFC46019308BDD1
:104E600024DFE153001000000C06002070B513236E
:104E70001C78012C14D0012C14DC022C02DC1F4BFA
:104E80001F4A93641F48FFF771FC1F4B186070BDE9
:104E90001A491B4A9800815001331F2BF8D9EAE7C1
:104EA0000023FAE71948FFF769FC05001848FFF7E7
:104EB00065FC023803789B007F2B19DD10488022A7
:104EC000290000F0ABFB022CD7D1124B1A88B52376
:104ED0001B029A4209D1104B1A88104B9A4204D1F6
:104EE0000F4B1A880F4B9A42C7D00020FEF79AF951
:104EF0000D4B0E4A0E483221FEF7FAF8354F0010DE
:104F00000C0600204C3300000C0700205344000026
:104F10005346000054380000D838000049460000CD
:104F20009C38000059460000D06A0010786B0010D1
:104F3000306B001007B56046002800D100BE018824
:104F40000A0A0230DF2AFAD1C9B2820804D30288E1
:104F500040880004104300E00068024A505003906B
:104F600007BD00000C0600200FB403BC0CBCF0B55C
:104F70000124E407634000E0F0B50C0DCF0F661E7E
:104F80003605891B640503D3C943404200D3013170
:104F9000640D03D0661CF60A07D0E41B00207F00D6
:104FA000791C89078912803C24031D0DDF0F6E1EBA
:104FB00036059B1B6D0503D3DB43524200D30133FF
:104FC0006D0D03D06E1CF60A07D0ED1B00227F008A
:104FD0007B1C9B079B12803D2D032F1B661B58D407
:104FE000A446202E46DA20371400BC401D00BD40E8
:104FF000F24033412A4380185941CB0F05D0C943B1
:10500000C043002264425041514162464D0D28D1B7
:105010000D0D07D100281FD0241940414941013A04
:105020000D0DF9D0640006D3013000D30131002CFE
:1050300001D140084000013A0BD4941CE40A04D189
:1050400012051144DB071944F0BDD907204B194361
:1050500000E0D9070020F0BD0029DDD1002CDBD114
:10506000F0BD0132C6074008CD0728434908002E8D
:10507000E1D0D9E73C2E29DA203E40371400BC406D
:1050800000D00124F24014431A00BB401C43D31744
:10509000ACE7AC46202F08DA20360400B4400D00FF
:1050A000B540F84039412843A5E73C2F0CDA203FB2
:1050B00040360400B44000D00124F8400443080006
:1050C000B1400C43C117EAE710001900002494E72F
:1050D0000000F07FF0B50C0D661E3605891BE60A50
:1050E0006405640D02D0651CED0A04D00020012186
:1050F0000905803C2403A4461C0D671E3F05DB1BED
:10510000E70A6405640D02D0651CED0A04D0002294
:1051100001231B05803C24037740644497B484B288
:1051200096B27443070C7E43150C6F4380B26843FC
:10513000361802D3012000043F183004350C001942
:105140007D41844688B29AB250430C0C62431F0CD6
:105150007C438EB27E43921902D301263604A419F1
:105160001604170C3618674101BC81B29AB251433C
:10517000040C62431B0C5C4380B25843121802D3E8
:105180000120000424181004130C401863412D184A
:105190005E410020474106BC88B293B258430C0CD4
:1051A0006343120C544389B251435B1802D301216B
:1051B0000904641819041A0C091862416D18564143
:1051C0000020474118BCF902720D1143F0026A0D2C
:1051D0001043ED020A0D03D16D1940414941013BD5
:1051E000124E9B1B7600B3420ED26D0007D30130E6
:1051F000002671416646354301D1400840001B0539
:10520000C918E4072144F0BD0BDA013306D101309F
:1052100004D101314F0D01D04908F2E7E107002028
:10522000F0BD013631050020EBE70000FF03000070
:10523000F0B51C0D671E3F05DB1BE70A6405640D16
:1052400002D0661CF60A04D0002201231B05803C14
:105250002403D0252D060026F6432E661E096E6611
:10526000CE0FF619B44649004F0D02D07E1CF60A47
:1052700003D000200021403F3F033E1BB600B44452
:10528000013F7F05C91B49082E6F013676089C0235
:10529000950D25437543ED137543AD1301356D1021
:1052A000F603761B0CB4CC02450D2C43A2B2B3B26C
:1052B0005A43270C7B43350C6F43A4B26C431B1934
:1052C00002D3012424043F191C041D0CA4187D41A1
:1052D00024196D41009A91B2ACB26143170C7C4322
:1052E0002B0C5F4392B25A43A41802D3012212043A
:1052F000BF182204230C52187B41019C6C431B19DC
:10530000520ED9010A434401A01A81B2B2B25143EC
:1053100003145A43360C734387B27743D617D21916
:1053200000277E4136049B191704160C7F185E4136
:105330007316ED18F301002680337541A90F06D1CD
:105340006400690AE8055B0A184309D22FE00422C9
:10535000944480337541A90AA8059B0A184326D3B3
:10536000404149412404009A019B0D005543641BB0
:105370004343E41A95B286B27543170C7E43030C7F
:105380005F4392B25A43B61802D301221204BF18E7
:105390003204330C52197B4152429C41002C02D4FE
:1053A0000022013051414008CA071043490802B0A9
:1053B0006246D7079210084BD218084B9A4203D284
:1053C00012058918C919F0BD0020002A01DC390036
:1053D000F0BD01331905F5E7FD030000FE070000ED
:1053E000002200B5203200F004F8080000BD0000E3
:1053F00000220B150AD410B5944600F031F81414AD
:10540000013400DA0021CB17144C20470020002182
:1054100070476244343A0CD40C2A07DA04009140F5
:10542000904052422032D440214310BDD843D9434A
:1054300010BD203207D40C46944052422032114114
:10544000D040204310BD0800C917203203D4524277
:105450002032104110BD1800190010BD1354001067
:105460000A0DCC0F531E1B05C91A520503D3C9439D
:10547000404200D30131520D03D0531CDB0A07D048
:10548000121B00206400611C89078912803A1203F4
:10549000014BD21A70470000FF0300005143434301
:1054A000C9188C46110C83B24B4310B4040C6143F1
:1054B00092B280B2504362431C041B0C001910BC12
:1054C00059411304120CC018514161447047000047
:1054D00070B513231E782A48FFF750F90500012EF6
:1054E00011D0012E09DDAB1E1B789B007F2B40DD08
:1054F00024488022290000F091F82348FFF736F96C
:10550000224B186070BD1F485422290000F086F815
:105510001F4B1A881F4B9A421CD1A7239B011A8844
:105520001D4B9A4216D11D4B1A881D4B9A4211D120
:105530001C4B1A8894239B019A420BD11A4B1A8850
:105540001A4B9A4206D11A4B1A681A4B9A4201D149
:10555000152307E01848FDF765FE184C094A990025
:105560008C5001331F2BF8D9144B064A1362D361B8
:10557000B7E7134B134A14484221FDF7B9FDC04663
:1055800053460000100700204C3300000C07002099
:10559000EE290000C40F0000C20D0000962B000091
:1055A000C0B50000182B0000CC2A000010B5000088
:1055B000FC2C000051ED876460660010CD55001092
:1055C0008C6B0010086C0010C06B001007B56046B3
:1055D000002800D100BE01880A0A0230DF2AFAD171
:1055E000C9B2820804D3028840880004104300E056
:1055F0000068024A5050039007BD000010070020C9
:1056000001480421014B1847400200208D4700103B
:10561000014B1B681847000040020020014B5B68EB
:10562000184700004002002010B5030008001100D8
:105630001B68984710BD0000F8B507000D00160064
:10564000437C002B02D0002400200CE003681100F2
:10565000280098472DE03B7C10E03B68154802216C
:105660009847601C0134B44214DA002CF3DD2B1986
:10567000013B1B780D3B5A425341DBB22A5D0A2A9B
:10568000F0D1002BEED1A042E7DA3B68211A2818AE
:105690009847E2E7B04203DA3B68311A2818984786
:1056A000002E06DDAD19013D2B780D3B5A425341CA
:1056B0003B74F8BD786C001070B505000368002BD2
:1056C00016D00C4B1C6805E0290004C92000FFF728
:1056D000B3FFE468002C09D02368002BF9D0064BF7
:1056E0001B68002BF0D0A342F3D1EDE700232B6021
:1056F00070BDC046D8050020DC05002070B505004F
:105700000C000B68802B05D023685A1C2260E4181B
:10571000257170BD0800FFF7CFFFF5E710B582B027
:10572000D0231B0600241C57074801A900F028FAC3
:10573000002806D1019B9C4203D0034800F028FAC0
:10574000012002B010BDC0466402002010B502481E
:1057500000F0FEF910BDC04664020020F0B5CE4650
:10576000474680B583B006000D0090461C00FFF749
:10577000D5FF81466B1C05D0002C08D0194F1A4B61
:105780001C6807E0300000F0B3F90500F4E7174F9C
:10579000F5E7E468002C17D02368002BF9D0144BF0
:1057A0001B68002B01D0A342F3D12A003100200056
:1057B000B8474346002BECD06B46D91D0A230B702B
:1057C00001222000B847E4E74B46002B07D16B1EAF
:1057D0009D41E8B203B0C0BCB946B046F0BDFFF78A
:1057E000B5FFF4E729560010D805002039560010FF
:1057F000DC050020094A01E00C331A001368002B75
:1058000008D08342F8D1002907D1C3681360002370
:10581000C36002E0002900D010607047D805002066
:1058200010B5064B1C6801E09847E468002C03D0D3
:105830006368002BF8D1F8E710BDC046D8050020FA
:1058400070B5050000F054F90400002301220100A6
:105850002800FFF783FFFFF7E3FF200070BD000083
:1058600070B5A2B004000E00FFF758FF05008422B7
:10587000002101A8FFF7CCFE09483300220001A94E
:10588000FEF75CFF040001A8FFF716FFFFF7C8FF53
:10589000002D02D1200022B070BDFFF757FFF9E7BD
:1058A000FD5600100FB400B583B004A901C90191E1
:1058B000FFF7D6FF03B008BC04B0184710B500F0DE
:1058C00085F810BDF0B583B005000E0000240FE090
:1058D0006B46D91D0D230B700020002816D193694B
:1058E0009B06FCD40B78136001300131F5E70134DD
:1058F000B44219DA0D4B1A682F5D0D4BD31859427B
:105900004B410C495B005B5EBB42E1D06B46D91D4D
:105910000F7000200028EAD193699B06FCD40B7815
:10592000136001300131F5E703B0F0BD2808002015
:105930000080FCBF24080020F0B583B005000E00F5
:10594000002004E06B4607331B7823703800B04218
:1059500015DA0E4B1A6893691024210019401C4275
:105960000DD1471C2C186B46D81D0029EAD193692C
:10597000DB06FCD41368037001310130F5E7002821
:1059800001D003B0F0BD0338FBE7C0462808002073
:1059900070B515001C000B4B1860FDF763FB002D64
:1059A00006DA002C09DA08480121FFF723FF70BD51
:1059B00002212800FBF7DCFFF3E702212000FBF7C0
:1059C000D7FFF0E7280800205002002010B5064B52
:1059D0001B78064B1B78E121012300224902044871
:1059E000FFF7D6FF10BDC046DC6C0010E06C001065
:1059F00000400340F0B5D646474680B583B08246A6
:105A000088460620FDF728FD0700022400E02C0050
:105A1000FE2C1CD801970026A51C28024246002314
:105A20000021FFF73BFD002903D1B142EFD1B8427D
:105A3000EDD980256D00012D0CD96E1E210071431A
:105A40003800FEF7E7FE404504D83500F3E780252F
:105A50006D00F0E753461C616B1E1B025246126834
:105A60005340FF22120213408022520151460A4342
:105A70001360290061433800FEF7CCFE03B0C0BCC0
:105A8000BA46B046F0BD000010B50400144B984271
:105A900022D080229202134B1A60134B1A60134BD0
:105AA0009B6810009843FAD12000FFF7A3FF2368FA
:105AB00007225340C8321A4080235B0123431A60F7
:105AC0002200243280239B011A43032111600434F5
:105AD000234302221A6010BD80225202DBE7C04637
