:020000041000EA
:1000000000B5324B212058609868022188439860DF
:10001000D860186158612E4B002199600221596106
:100020000121F02299502B49196001219960352056
:1000300000F044F80222904214D00621196600F024
:1000400034F8196E01211966002018661A6600F04E
:100050002CF8196E196E196E052000F02FF8012189
:100060000842F9D1002199601B49196000215960AB
:100070001A491B48016001219960EB211966A021F2
:10008000196600F012F800219960164914480160C1
:100090000121996001BC002800D000471248134993
:1000A000086003C880F30888084703B5996A0420EC
:1000B0000142FBD001200142F8D103BD02B5186610
:1000C0001866FFF7F2FF186E186E02BD00000240BE
:1000D000000000180000070000035F00212200005C
:1000E000F4000018222000A00001001008ED00E03C
:1000F00000000000000000000000000074B24E7A12
:1001000000200420F7010010C3010010C5010010F9
:10011000C1010010C1010010C1010010C101001097
:10012000C1010010C1010010C1010010C701001081
:10013000C1010010C1010010C9010010CB01001065
:10014000CD010010CD010010CD010010CD01001037
:10015000CD010010CD010010CD010010CD01001027
:10016000CD010010CD010010CD010010CD01001017
:10017000CD010010CD010010CD010010CD01001007
:10018000CD010010CD010010CD010010CD010010F7
:10019000CD010010CD010010CD010010CD010010E7
:1001A000CD010010CD010010CD010010CD010010D7
:1001B000CD010010CD010010CD010010CD010010C7
:1001C00000BE00BE00BE00BE00BE00BEEFF3058054
:1001D000103800BEF2EB88711CC4001040C400103F
:1001E0003402001090A31AE700201F49086006C8D7
:1001F00081F3088810471D48006800282FD10DA4FE
:100200000ECC002902D000F012F8F9E71849194A7B
:10021000002000E001C19142FCD1174988471749ED
:1002200088471749884700BEFDE701C901C29A42C5
:10023000FBD3704740C40010C0000020980C002081
:1002400018D00010000004200000042018D0001076
:10025000001004200010042000000000704709482E
:1002600006F0F2FC0047000008ED00E0000000D0BE
:10027000A00C0020741F0020A559001009080010D0
:10028000615900105756000006005250ABB360533E
:1002900044BD001006005250861C030254BD0010DD
:1002A000060052505422A29D58BD00100500525025
:1002B000DE65F46818D00010F8B5C0460648074956
:1002C000091A8B10C90FC91810B5491003D0044B77
:1002D000002B00D0984710BD980C0020980C0020EF
:1002E00000000000054B10B5002B03D00449054861
:1002F00000E000BFFFF7E2FF10BDC04600000000B5
:10030000D01C002090AB0010014B01221A707047E6
:10031000601F0020274B1B78002B1AD0D0231B0610
:1003200040225A6140325A61234B1B889BB2002BFA
:1003300004D0214A1388013B9BB213801F4B1B88BA
:100340009BB2002B04D01D4A1388013B9BB2138043
:1003500070471B4B1B78002B03D0D0231B06402279
:100360005A61184B1B78002B03D0D0231B06802228
:100370005A61154A13780133DBB21370132B08D975
:10038000D0231B0640229A610D4B00221A700E4B9F
:100390001A700E4A13780133DBB21370132BC3D9D2
:1003A000D0231B0680229A61064B00221A70074B4D
:1003B0001A70B9E7621F0020441F00203E1F002072
:1003C000651F0020661F00205D1F00205E1F0020AB
:1003D000D0231B065B689B0105D5D0231B0680221A
:1003E00092049A617047D0231B06802292045A61BE
:1003F000F8E7000010B5474B9B68474A1278DBB21C
:1004000046498B54552B30D0511E4448415C5529E8
:1004100035D0552941D0931E4048C05C552843D063
:10042000D31E3E49C95C552950D0131F3B48C05CC0
:10043000552854D0531F3949CB5C552B58D0063A18
:1004400036498A5C552A12D1354A127893420ED128
:10045000344BDA782F4B9A6008006422002107F0B1
:1004600099FB2D4B00221A7001E02A4A93602A4A18
:1004700013780133DBB21370642B42D010BD092B0B
:10048000C7D8294A13706422002107F083FB274B49
:1004900000221A70204B1A70E9E721480078834245
:1004A000B9D11C4A9360E2E71D4B1B789942B7D142
:1004B0001E4B1B78002B04D01D4B1A78154B9A60ED
:1004C000D5E71C4B1A78134B9A60D0E7144B1B7876
:1004D0009842AAD1134B1A780E4B9A60C7E7104B7B
:1004E0001B789942A6D10F4B5A780A4B9A60BEE707
:1004F0000B4909788842A2D10A4B9A78054B9A6039
:10050000B5E706486422002107F044FB024B0022B5
:100510001A70B3E700C00340581F00206412002087
:100520002CAE0010C81200205F1F0020980B002086
:100530002DAE00102EAE0010F0B5C64600B584B04A
:1005400004000E0017001D0004F058F98046E11762
:10055000FA2292000023200007F006FA02000B00A6
:10056000029501970096404604F08CFA04B080BCD6
:10057000B846F0BD82B03E4B9B6910210A001A407C
:10058000194208D03B4B9B6910210A001A401942BE
:1005900038D002B07047384B0F391970374B188874
:1005A00080B26B46D91D002A09D1314B9B69DB060D
:1005B000FBD42F4B1B680B7001320131F3E76B4604
:1005C000DA792F4B1A542D4A138801339BB21380CA
:1005D00013889BB28C22920093420BD0244B5B6811
:1005E000012B0BD0224B5B68082BD2D1254B082264
:1005F0001A60CEE7214B00221A80EFE7214B01223F
:100600001A60EFE7204B0F39197020490B8898B218
:1006100001339BB20B806B46D91D08E0154B9B69DB
:10062000DB06FBD4134B1B680B7001320131002A2F
:10063000F4D06B46DA79164B1A54144B1B889BB2D4
:100640008C22920093420BD00A4B5B68012B0BD09B
:10065000084B5B68082B9CD10E4B08221A6098E768
:100660000A4B00221A80EFE70A4B01221A60EFE7DB
:100670000080034000400340651F0020481F002009
:10068000A00C002004B00340661F00204C1F002077
:10069000D00E00200470034030B587B003AA344B5D
:1006A00030CB30C21B881380002804D0012830D002
:1006B000002007B030BD03AAA82313702D480023E3
:1006C0000093013368210AF0B1F86420002104F09E
:1006D000A1FA294B64221A80264800230093033391
:1006E00003AA68210AF0AEF80A20002104F092FA69
:1006F000214B1B889BB2002B04D003AB9B785BB2D1
:10070000002BE9DB03AB187800025B78C01880B2DD
:10071000CFE703AA88231370164800230093013300
:1007200068210AF083F86420002104F073FA124B68
:1007300064221A800F4800230093033303AA682120
:100740000AF080F80A20002104F064FA0A4B1B88A2
:100750009BB2002B04D003AB9B785BB2002BE9DB90
:1007600003AB187800025B78C01880B2A1E7C046DE
:10077000A0AB0010700C00203E1F002010B5002020
:10078000FFF78AFF0200114B1B8883420ED2C31A67
:100790009BB20F498B4206D80E4B1B88934208D957
:1007A0000D4B01221A70094B188010BD1B1A9BB209
:1007B000EFE7094B1B78002BF5D0084B1B889342C1
:1007C000F1D2054B00221A70EDE7C046561F0020FB
:1007D00087130000501F0020621F0020521F0020BE
:1007E00010B504000100044804F048FE210003484D
:1007F00004F044FE10BDC0460080034000400340AA
:1008000010B505F021F810BDF8B5DE4657464E4646
:100810004546E0B507F028FBFA200121400105F02C
:1008200059F8122003F04CF8132003F049F8142073
:1008300003F046F8152003F043F81A2003F040F8BF
:100840001B2003F03DF8192003F03AF8072003F0CD
:1008500037F8062003F034F8162003F031F8D024DE
:1008600024068023DB029946636280231B0398469B
:10087000636280235B039C4663628026B6036662E4
:100880008025ED0465628020000560628021890476
:10089000616280226262402363628027FF03BB465D
:1008A00067624F46A7614746A7616746A761A66191
:1008B000A561A061A161A261A3615B46A3618B4BAD
:1008C0008B4900228B48FFF737FE8B4B8B49002268
:1008D0000A20FFF731FE8A4B8A49FA2252009046DD
:1008E00000224046FFF728FE874E884D3100280041
:1008F00009F04CFF00220021280009F073FF0321BA
:100900000D2002F0ABFF03210C2002F0A7FF002214
:1009100001210D2002F0BAFF002201210C2002F07B
:10092000B5FF7B4D3100280009F0E2FF0426794B2A
:100930001E600121052002F091FF0121032002F039
:100940008DFF0121042002F089FF0121022002F025
:1009500085FF01220021032002F098FF6E616E499D
:10096000122003F0E9F80121122003F0BBF89623CE
:100970001B029946694E1900300004F07FFD0221E8
:10098000092002F06BFF0221082002F067FF644D8E
:100990004946280004F072FD0221102002F05EFF9B
:1009A0000221112002F05AFF336BC022120294463A
:1009B00013405C4A1360F36A602043406E22134088
:1009C000594989460B60F16A102319404F46396036
:1009D000296B67463940554F3960E96A41400A4002
:1009E00053490A60EA6A13400B60524B9A46190059
:1009F0004B3803F0A1F80121152003F073F85023C0
:100A00009946B363736B382633404B4A13605146A3
:100A1000142003F091F80121142003F063F84B46F1
:100A2000AB636B6B1E40454B1E60454A0023137041
:100A3000444A1370444A1370444A13705B4663611E
:100A4000434B42461A80424B1B889BB2002BFAD183
:100A5000404A1380404A1380404A1380404A138022
:100A6000404B414A1A80414B414A1A8013E001F041
:100A700029FF16E0FFF782FE3E4B00221A7014E0B9
:100A800000F0A0FF07E000F093FE04E0D0231B0677
:100A90008022D2039A61FFF7B3FE374B1B78002BFD
:100AA000E5D1344B1B78002BE4D1254B1B78002B70
:100AB000ECD1D0231B068022D2035A612F4B002297
:100AC0001A7000F017F90028E5D02D4B1B889BB257
:100AD000022BD8D11B4B1B78002BD1D0194B0022F5
:100AE0001A70274B1A8001F0A1FBD4E720120020D6
:100AF00009030010881300000812002015030010DD
:100B000038120020D1030010A0860100700C0020D4
:100B100000C0034004E00340F503001000800340E0
:100B200000400340309003402C900340305003407D
:100B30002C5003407505001034900340345003409E
:100B4000621F0020641F0020651F0020661F002018
:100B5000441F0020461F0020481F00204A1F00207D
:100B60004C1F0020501F002049320000521F00205F
:100B70002B380000601F00205F1F0020611F002035
:100B8000421F002030B583B00400174B9B69082139
:100B90000A001A401942F8D1144B02215B5EA342AD
:100BA0000ED06B46D91D0C70002A1AD10E4B9B69D2
:100BB0009B06FBD408780C4B186001320131F3E737
:100BC0006B46D91D0D230B7010000028E9D1064B90
:100BD0009B699B06FBD40D78034B1D6001300131EE
:100BE000F3E703B030BDC04600800340281F00205B
:100BF00030B583B00400174B9B6908210A001A40E6
:100C00001942F8D1144B00215B5EA3420ED06B4613
:100C1000D91D0C70002A1AD10E4B9B699B06FBD480
:100C200008780C4B186001320131F3E76B46D91D8F
:100C30000D230B7010000028E9D1064B9B699B0621
:100C4000FBD40D78034B1D6001300131F3E703B095
:100C500030BDC04600400340281F00200F4B1A88BB
:100C600092B20F4B1B889BB29A4215D00B4A138845
:100C700099B201339BB213800A4B5B5C03701388FB
:100C80009BB28C229200934201D001207047034B0B
:100C900000221A800120F9E70020F7E7461F002014
:100CA000481F0020A00C00200F4B1A8892B20F4B57
:100CB0001B889BB29A4215D00B4A138899B2013314
:100CC0009BB213800A4B5B5C037013889BB28C222F
:100CD0009200934201D001207047034B00221A80FA
:100CE0000120F9E70020F7E74A1F00204C1F0020F1
:100CF000D00E0020F0B5CE46474680B583B0002325
:100D00006A46D371B54A1370B54A1380B54BFA22BF
:100D100052001A80002600270125002D01D100F085
:100D20001FFDB04B1B889BB2002B01D100F018FDBA
:100D30006B46D81DFFF792FF04000128EDD1A94BA7
:100D4000FA2252001A806B4607331B78102B02D010
:100D500000260027E1E7FF18BFB23102360A7340D0
:100D6000A14A5B009E5A4E40B6B26B46D81DFFF7B3
:100D700075FF012804D09B4B1B889BB2002BF4D13C
:100D80006B4607331B78132B1FD0152B00D1FDE2C8
:100D9000212BC2D1934B1B889BB2002BBDD06B463D
:100DA000D81DFFF75BFF012804D08E4B1B889BB238
:100DB000002BF4D1894B01221A708C4B6A46073202
:100DC00012781A7000260027A7E7864A128892B286
:100DD000002ADAD0824A01211180FF18BFB2310205
:100DE000360A7340804A5B009E5A4E40B6B26B464C
:100DF000D81DFFF733FF012804D07A4B1B889BB224
:100E0000002BF4D16B4607331B78FF2B00D03FE259
:100E1000744A128892B2002A00D139E2FF18BFB298
:100E20003102360A7340704A5B009E5A4E40B6B299
:100E30006B46D81DFFF712FF012804D0694B1B88B1
:100E40009BB2002BF4D1674B1B889BB2002B01D1C6
:100E5000002562E76B4607331B7898B2DF19BFB2F3
:100E60003502320A5A4060495200565A6E40B6B2B4
:100E7000002819D15E4B01221A706B4607331B788C
:100E8000102B19D06B46D81DFFF7E8FE012804D0BF
:100E9000544B1B889BB2002BF4D1524B1B889BB246
:100EA000002B22D1002538E7514A00211170013B67
:100EB000D8B201F0EFFAE0E76B46D81DFFF7CEFE9F
:100EC000012804D0474B1B889BB2002BF4D16B4602
:100ED00007331B78FF18BFB23102360A7340424A0B
:100EE0005B009E5A4E40B6B2CCE76B46DA79414B76
:100EF0001A70BF18BFB23002330A53403A495B0040
:100F00005E5A4640B6B2102A11D06B46D81DFFF784
:100F1000A5FE012804D0334B1B889BB2002BF4D1D3
:100F2000304B1B889BB2002B1AD10025F5E66B468F
:100F3000D81DFFF793FE012804D02A4B1B889BB2D3
:100F4000002BF4D16B4607331B78FF18BFB2310278
:100F5000360A7340244A5B009E5A4E40B6B2D4E72C
:100F60006B4607331B78FF18BFB23102360A734055
:100F70001D4A5B009E5A4E40B6B26B46D81DFFF725
:100F80006DFE012804D0174B1B889BB2002BF4D1B7
:100F9000144B1B889BB2002B01D10025BDE66B468C
:100FA00007331B78FF18BFB23102360A73400E4A6E
:100FB0005B009E5A4E40B6B26B46D81DFFF74EFE00
:100FC000012804D0074B1B889BB2002BF4D1054BA2
:100FD0001B889BB2002B0FD100259EE6631F0020CB
:100FE000421F0020441F0020B8AB0010681F0020E3
:100FF000611F0020671F00206B46DD792D026B46C4
:10100000D81DFFF72BFE012804D0964B1B889BB2FE
:10101000002BF4D1934B1B889BB2002B00D190E3A3
:101020006B4607331B78EB189BB29F4202D09E425F
:1010300015D102240A2003F019FE8B4B1B78002BDC
:1010400018D18A4B00221A80894B1B78DDB293425B
:101050001BD0884B1B78FD2B56D000255DE6102059
:10106000FFF790FD1920FFF78DFD0620FFF78AFDA1
:101070000024DFE780498148814A09F091FC814AD8
:101080001388033B9BB21380DBE7904619E07B4B50
:101090004A46985CFFF7ACFD012C24D073490B88BD
:1010A00018021B0A9C46754A4B46D25C6346534065
:1010B000754A5B009B5A43400B80434601339BB209
:1010C0009846C1466F4B1B88023B984513DA43464E
:1010D000022BF2D0032BF0D0042BD8D1674BDB7856
:1010E000102BD4D1E9E7654B4A469B5C5F4A1188D7
:1010F0005B181380E1E75D4C2088000AFFF778FD5C
:101100002078FFF775FD08E61020FFF73BFD012C66
:1011100000D17FE055490A881002120A102353407B
:10112000594A5B009B5A43400B801A20FFF72AFD67
:10113000012C00D173E04D490A881002120A1A23CB
:101140005340514A5B009B5A43400B800220FFF7FB
:1011500019FD012C68D045490A881002120A0223A1
:101160005340494A5B009B5A43400B80474B1878D9
:10117000FFF708FD012C5CD03C490A881002434B64
:101180001B881B0A120A53403F4A5B009B5A43408C
:101190000B803E4B1888000AFFF7F4FC012C50D05E
:1011A00032490B8818021B0A384A12785340364AD3
:1011B0005B009B5A43400B801020FFF7E3FC012C9F
:1011C00046D02A490A881002120A102353402E4A98
:1011D0005B009B5A43400B801F20FFF7D3FC012C80
:1011E0003BD022490A881002120A1F235340264A84
:1011F0005B009B5A43400B801C4C2088000AFFF781
:10120000C1FC2078FFF7BEFC194B00251D70194B5F
:101210001D7082E5154A13881033138085E7134A41
:1012200013881A33138091E7104A1388023313800E
:101230009CE70E4A154B1B881B0A11885B1813800C
:10124000A7E7124B1B78094A11885B181380B3E794
:10125000064A138810331380BEE7044A13881F33ED
:101260001380C9E7441F0020631F0020401F002097
:10127000611F0020671F0020A30C0020A00C00208D
:101280002D020000461F0020B8AB00104E1F0020AA
:10129000002B04D1B44B1B889BB2002B6AD16B4648
:1012A000D81DFFF7DBFC012804D0AF4B1B889BB295
:1012B000002BF4D16B46D81DFFF7D0FC012804D0D9
:1012C000A94B1B889BB2002BF4D16B46D81DFFF7AE
:1012D000C5FC012804D0A44B1B889BB2002BF4D181
:1012E0006B46D81DFFF7BAFC012804D09E4B1B8823
:1012F0009BB2002BF4D16B46D81DFFF7AFFC012841
:1013000004D0994B1B889BB2002BF4D197488C22B8
:101310009200002106F03EFC954B01221A70954B7D
:1013200000221A80944B1A801020FFF72BFC2120FA
:10133000FFF728FC914B1878FFF724FC1020FFF7EB
:1013400021FC1A20FFF71EFC0220FFF71BFC0120E6
:10135000FFF718FC1820FFF715FC1020FFF712FC10
:101360001F20FFF70FFC0020FFF70CFC7420FFF795
:1013700009FCD2E46B46D81DFFF770FC01288ED023
:10138000794B1B889BB2002BF4D188E7764A1288F0
:1013900092B2002A00D1FBE4734A64211180FF1845
:1013A000BFB23102360A7340754A5B009E5A4E4006
:1013B000B6B26B46D81DFFF751FC012804D06A4B2A
:1013C0001B889BB2002BF4D16B4607331B78E52BAF
:1013D00026D06B46D81DFFF741FC012804D0624B94
:1013E0001B889BB2002BF4D16B4607331B78A22BD2
:1013F00026D06B46D81DFFF731FC012804D05A4B8C
:101400001B889BB2002BF4D16B46DA79FD2A00D8F9
:101410009AE1554B1B889BB2002B21D100257CE41F
:10142000514A128892B2002AD3D0FF18BFB23102BB
:10143000360A7340524A5B009E5A4E40B6B2C8E725
:10144000494A128892B2002AD3D0FF18BFB23102A3
:10145000360A73404A4A5B009E5A4E40B6B2C8E70D
:10146000BF18BFB23002330A534045495B005E5A91
:101470004640B6B2FE2A36D0424B00221A706B4666
:10148000D81DFFF7EBFB012804D0374B1B889BB21C
:10149000002BF4D1344B1B889BB2002B00D156E1BA
:1014A0006B46DC79A1B2E719BFB23002330A634060
:1014B000334A5B009E5A4640B6B2002917D1324BE0
:1014C00001221A706B4607331B78102B17D02D4B57
:1014D0001B78002B2CD0244B1B889BB2002B57D1A0
:1014E0000025FFF71AFC274BFD3A1A70C7E7264B79
:1014F00000221A70601EC0B200F0CCFFE2E76B461B
:10150000D81DFFF7ABFB012804D0174B1B889BB2FB
:10151000002BF4D16B4607331B78FF18BFB23102A2
:10152000360A7340164A5B009E5A4E40B6B2CEE76A
:101530006B46D81DFFF792FB012804D00A4B1B888D
:101540009BB2002BF4D16B4607331B780F4A137004
:10155000FF18BFB23102360A7340094A5B009E5A37
:101560004E40B6B2B7E7C046441F0020A00C002092
:10157000631F0020461F0020481F0020681F002016
:10158000B8AB0010641F0020611F0020671F0020FF
:101590006B4607331B78102B29D06B46D81DFFF7FD
:1015A0005DFB012804D07C4B1B889BB2002BF4D13F
:1015B000794B1B889BB2002B00D1CBE06B460733E5
:1015C0001B78FF18BFB23102360A7340734A5B00C2
:1015D0009E5A4E40B6B2724B1B78002B20D06E4BF9
:1015E0001B889BB2002B34D10025FFF796FB6B467E
:1015F000D81DFFF733FB012804D0674B1B889BB233
:10160000002BF4D16B4607331B78FF18BFB23102B1
:10161000360A7340614A5B009E5A4E40B6B2BCE740
:101620006B46D81DFFF71AFB012804D05A4B1B88C4
:101630009BB2002BF4D16B4607331B78FF18BFB267
:101640003102360A7340554A5B009E5A4E40B6B28C
:10165000C5E7534B1B78002B01D0102C12D16B46E1
:10166000D81DFFF7FBFA012804D04B4B1B889BB217
:10167000002BF4D1484B1B889BB2002B1BD10025BB
:10168000FFF74BFB6B46D81DFFF7E8FA012804D0A3
:10169000414B1B889BB2002BF4D16B4607331B7860
:1016A000FF18BFB23102360A73403C4A5B009E5AB3
:1016B0004E40B6B2D3E76B46DC7924026B46D81DA8
:1016C000FFF7CCFA012804D0334B1B889BB2002BC8
:1016D000F4D1334B1B78304B1B889BB2002B3CD092
:1016E0006B4607331B78E3189BB2BB4201D0B34271
:1016F00012D10A2003F0BAFA2A4B1B78002B15D11D
:101700001020FFF73FFA1620FFF73CFA264B022283
:101710001A800025FFF701FB1020FFF733FA19208C
:10172000FFF730FA0620FFF72DFAE2E71020FFF767
:1017300029FA2120FFF726FA1C4B1878FFF722FA26
:10174000DEE70025FFF7E9FA0025FFF7E6FA0025B6
:10175000FFF7E3FA0025FFF7E0FA0025FFF7DDFACF
:101760000D4B1B889BB2002B03D10E4B1B78002B1B
:1017700007D1094B188880B203B0C0BCB946B04647
:10178000F0BD1020FFF7FEF91920FFF7FBF901204B
:10179000FFF7F8F9EDE7C046441F0020B8AB001092
:1017A000641F0020631F0020421F0020681F0020CC
:1017B00030B583B06B460022DA7107E06B46073321
:1017C0001B781A2B1FD0192B00D1BBE0744B1B8840
:1017D0009BB2002B00D197E06B46D81DFFF764FA4F
:1017E0000128F3D16B4607331B78102BEED16B46E3
:1017F000D81DFFF759FA0128E0D0694B1B889BB22E
:10180000002BF4D1DAE76B46D81DFFF74DFA01281B
:1018100004D0634B1B889BB2002BF4D16B46DC7960
:10182000E51D06E06B4607331B78102B14D0013CF6
:10183000A4B2002C20D05A4B1B889BB2002B1BD08B
:101840006B46D81DFFF730FA0128EBD0544B1B88AC
:101850009BB2002BF4D1E5E76B46D81DFFF724FAC5
:10186000012804D04E4B1B889BB2002BF4D1013CC5
:10187000A4B20135ADB2DCE76B46D81DFFF714FA10
:10188000012804D0464B1B889BB2002BF4D16B4639
:10189000D81DFFF709FA012804D0414B1B889BB2E1
:1018A000002BF4D16B46D81DFFF7FEF9012804D0B8
:1018B0003B4B1B889BB2002BF4D16B46D81DFFF726
:1018C000F3F9012804D0364B1B889BB2002BF4D1CE
:1018D000344B1B78002B04D1334B1C88641BA4B2FF
:1018E00010E01020FFF74EF92120FFF74BF92F4BA6
:1018F0001878FFF747F9EFE72D4B185DFFF742F92E
:101900000134A4B2A542F7D8254B1B889BB2002B0B
:101910002ED028488C25AD002A00002106F03AF987
:10192000254B00241C80254B1C8021482A000021C7
:1019300006F030F91C4B1C801C80194B188880B2B3
:1019400003B030BD6B46D81DFFF7AEF9012804D0B7
:10195000134B1B889BB2002BF4D11020FFF712F918
:101960001920FFF70FF96B46D879FFF70BF9CBE792
:10197000134A1378013313701020FFF703F9212065
:10198000FFF700F9094B1878FFF7FCF81020FFF774
:10199000F9F81920FFF7F6F88220FFF7F3F8B8E717
:1019A000441F0020631F00204C1F0020681F0020E0
:1019B000D00E0020A00C0020461F0020481F002051
:1019C0006F1F0020F0B5DE4657464E464546E0B54F
:1019D00087B004AB0022DA71002600250023984668
:1019E0000124002C01D100F0E4FBC14B1B889BB209
:1019F000002B01D100F0DDFB04ABD81DFFF72EF961
:101A000007000128EDD1BA4BFA2252001A8004AB2C
:101A100007331B78102BE4D1B64A1288ED18ADB20B
:101A20003102360A7340B44A5B009E5A4E40B6B249
:101A300004ABD81DFFF712F9012804D0AC4B1B886A
:101A40009BB2002BF4D104AB07331B781A2BC8D1FF
:101A5000A74A128892B2002AC3D0ED18ADB2310263
:101A6000360A7340A44A5B009E5A4E40B6B204AB9D
:101A7000D81DFFF7F3F8012804D09D4B1B889BB2BB
:101A8000002BF4D104AB07331B7899464D44ADB21B
:101A90003102330A4A465340974A5B009E5A4E40F1
:101AA000B6B24B460733DBB29A4623004C46994602
:101AB0000FE004ABDA79AD18ADB23002330A53400F
:101AC0008D495B005E5A4640B6B2102A14D0013CE4
:101AD000E4B2002C31D0864B1B889BB2002B2AD05D
:101AE00004ABD81DFFF7BAF80128E2D0804B1B8861
:101AF0009BB2002BF4D1DCE704ABD81DFFF7AEF8A6
:101B0000012804D07A4B1B889BB2002BF4D104AB84
:101B100007331B78ED18ADB23102360A7340764AAE
:101B20005B009E5A4E40B6B2013CE4B253460133CC
:101B3000DBB29A46CDE74C4600E04C4604ABD81DDC
:101B4000FFF78CF8012804D0694B1B889BB2002B4F
:101B5000F4D104AB07331B78ED18ADB23102360A6D
:101B60007340654A5B009E5A4E40B6B204ABD81D26
:101B7000FFF774F8012804D05D4B1B889BB2002B43
:101B8000F4D104AB07331B78ED18ADB23102360A3D
:101B90007340594A5B009E5A4E40B6B204ABD81D02
:101BA000FFF75CF8012804D0514B1B889BB2002B37
:101BB000F4D14F4B1B889BB2002B00D111E704AB33
:101BC00007331B781B02994604ABD81DFFF746F874
:101BD000012804D0464B1B889BB2002BF4D1444B08
:101BE0001B889BB2002B24D004AB07331B784B44DB
:101BF0009BB29D424AD09E424AD0404B1B78002B5C
:101C00000CD11020FEF7BEFF1920FEF7BBFF062007
:101C1000FEF7B8FF002398461C00E2E61020FEF70E
:101C2000B1FF2120FEF7AEFF354B1878FEF7AAFF73
:101C3000E7E74346002B00D1B8E2304B1B78002B7E
:101C400029D0032302930C272E4B1B78FF2B26D081
:101C50002D4B00221A802D4B1B78DAB20192002BFB
:101C600024D01020FEF78EFF1620FEF78BFF284BA6
:101C70001B78FB2B00D15FE2254B1A78FC2A00D1A0
:101C800070E2FD2A00D185E20024AAE6B846D4E736
:101C900002239846D1E7002302930927D4E70137AE
:101CA000BFB2029B01339BB20293D1E7029BB346C2
:101CB0000394D146AA461D0041E0D91D114E715C26
:101CC00010294ED10237BFB237E007330D49CB5C44
:101CD000102B48D00137BFB22FE00137BFB248E028
:101CE000084B1B5D084A11885B18138025E0C0462D
:101CF000441F0020481F0020B8AB0010631F0020C5
:101D0000681F0020A00C0020401F0020611F002041
:101D1000671F0020C44B585DFEF76AFF4346012B46
:101D20003BD0C2490B8818021B0ABF4A525D534080
:101D3000BF4A5B009B5A43400B800135ADB2AF42B6
:101D400032D902990B000A1D2C00AA42F5D04A1D77
:101D50009542F2D0881D8542DCD1B3498A5C102AB5
:101D6000ABD0102AB1D0102A03D0AF4B1B5C102B84
:101D7000B3D0AD4B185DFEF73BFF4346012BAFD010
:101D8000AA490B8818021B0AA74A125D5340A84AA9
:101D90005B009B5A43400B80CFE7A34B5B5DA34A9C
:101DA00011885B181380C8E7039C5E462B005546DC
:101DB000CA4699469F4B00221A809F4B1A809B4F20
:101DC0003888000AFEF714FF3878FEF711FF5746EF
:101DD00004ABD81DFEF768FF012804D0974B1B8881
:101DE0009BB2002BF4D1954B1B889BB2002B18D1D2
:101DF000934B1B78002B09D11020FEF7C3FE19204E
:101E0000FEF7C0FE0C20FEF7BDFEEAE51020FEF74F
:101E1000B9FE2120FEF7B6FE8A4B1878FEF7B2FE17
:101E2000EAE704AB07331B78102B0FD0844B1B78E9
:101E3000002B00D075E11020FEF7A4FE1920FEF75C
:101E4000A1FE8220FEF79EFE019CCAE53C0004AB89
:101E5000D81DFEF729FF012804D0784B1B889BB2C0
:101E6000002BF4D1A246754B1B889BB2002B19D1D5
:101E7000734B1B78002B0AD11020FEF783FE19202C
:101E8000FEF780FE0C20FEF77DFE019CA9E51020E8
:101E9000FEF778FE2120FEF775FE6A4B1878FEF7F4
:101EA00071FEE9E704AB07331B78162B12D0192B10
:101EB00000D105E1624B1B78002B00D026E11020F9
:101EC000FEF760FE1920FEF75DFE0920FEF75AFEC0
:101ED000019C86E54C460234A4B22700D14605E0B9
:101EE000514BD85DFEF784FE0137BFB24B46E31875
:101EF0009F42F5DB514BFA2292001A8004ABD81DA9
:101F0000FEF7D2FE012804D04C4B1B889BB2002B5D
:101F1000F4D14A4B1B889BB2002B19D1484B1B783C
:101F2000002B0AD11020FEF72DFE1920FEF72AFE05
:101F30000C20FEF727FE019C53E51020FEF722FE41
:101F40002120FEF71FFE3F4B1878FEF71BFEE9E746
:101F500004AB07331B78102B0FD0394B1B78002BA9
:101F600000D0A2E01020FEF70DFE1920FEF70AFEB9
:101F70000920FEF707FE019C33E504ABD81DFEF7F0
:101F800093FE012804D02D4B1B889BB2002BF4D16B
:101F90002A4B1B889BB2002B19D1294B1B78002B95
:101FA0000AD11020FEF7EEFD1920FEF7EBFD0C2004
:101FB000FEF7E8FD019C14E51020FEF7E3FD21206B
:101FC000FEF7E0FD1F4B1878FEF7DCFDE9E704ABF8
:101FD00007331B78162B10D0192B35D0184B1B78D4
:101FE000002B57D11020FEF7CDFD1920FEF7CAFDBA
:101FF0000920FEF7C7FD019CF3E4114B1B78002B71
:1020000007D11020FEF7BEFD1620FEF7BBFD019C98
:10201000E7E41020FEF7B6FD2120FEF7B3FD094BE3
:102020001878FEF7AFFDECE7A00C0020401F002061
:10203000B8AB00104A1F00204C1F0020441F002096
:10204000631F0020681F002004ABD81DFEF72CFE84
:10205000012804D06B4B1B889BB2002BF4D16A4B38
:102060001B78002B0BD11020FEF78CFD1920FEF7FA
:1020700089FD04ABD879FEF785FD019CB1E4102001
:10208000FEF780FD2120FEF77DFD604B1878FEF7FE
:1020900079FDE8E71020FEF775FD2120FEF772FDBF
:1020A0005A4B1878FEF76EFD9CE71020FEF76AFD8C
:1020B0002120FEF767FD554B1878FEF763FD51E7C9
:1020C00004ABD81DFEF7F0FD012804D04D4B1B8852
:1020D0009BB2002BF4D14C4B1B78002B0BD1102062
:1020E000FEF750FD1920FEF74DFD04ABD879FEF741
:1020F00049FD019C75E41020FEF744FD2120FEF708
:1021000041FD424B1878FEF73DFDE8E71020FEF751
:1021100039FD2120FEF736FD3C4B1878FEF732FDE5
:10212000CDE61020FEF72EFD2120FEF72BFD374BCC
:102130001878FEF727FD7EE6354B9B7B012B0BD0F5
:10214000022B0CD0002B04D096200002FEF748FB97
:1021500092E596204001F9E796208001F6E7962067
:10216000C001F3E72A4B9B7B502B0DD0D0231B06DD
:102170008021C9035961234BC8211980214B1B8839
:102180009BB2002BFAD17CE5D0231B068021C9032A
:102190009961F0E71E49CB7B1E4A13801B02138016
:1021A000897B0B4313800024FFF71BFC0024FFF7FF
:1021B00018FC17488C25AD002A00002105F0EAFC28
:1021C000154B00241C80154B1C8015482A0000214B
:1021D00005F0E0FC134B1C80134B1C80094B1B8843
:1021E0009BB2002B09D0074B188880B207B0F0BC17
:1021F000BB46B246A946A046F0BD024B188880B245
:10220000F4E7C046441F0020631F0020681F002021
:10221000A00C00204E1F0020461F0020481F002059
:10222000D00E00204A1F00204C1F002010B582B0A5
:102230006B460022DA71684B1B7A102B60D0142495
:10224000664B1B889BB2002B00D19DE01020FEF74F
:1022500099FC2120FEF796FC614B1878FEF792FC62
:102260001020FEF78FFC1620FEF78CFC5D4B1B88C0
:102270009BB2A34204D0594B1B889BB2002BF5D1D3
:10228000594B00221A80574B1A80544BF532FF32BB
:102290001A806B46D81DFEF7E1FC012804D04F4B95
:1022A0001B889BB2002BF4D16B4607331B78502B55
:1022B00000D07CE048488C229200002105F06AFCA6
:1022C000494A00231380474A1380484A1380484AEA
:1022D00013805020FEF78CFC454B1B889BB2002BD3
:1022E00004D13E4B1B889BB2002BF5D13B4B1B8886
:1022F0009BB2002B06D13F4B1B78422B57D10BE0F2
:1023000015249DE73B4B1878FEF73CFCF3E7334B75
:102310001B889BB2002B13D1304B1B889BB2002B28
:1023200045D0334B00221A806B46D81DFEF796FC31
:102330000128ECD0294B1B889BB2002BF4D1E6E797
:102340006B46D879FF2832D0FEF752FC6B46073334
:102350001B780A2BE0D1264B1B889BB2002B04D1A3
:102360001E4B1B889BB2002BF5D11C4B1B889BB2CC
:10237000002B1CD01F4B1878FEF704FC174BC8220B
:102380001A80FEF73DFAC7E71020FEF7FBFB21207D
:10239000FEF7F8FB124B1878FEF7F4FB1020FEF75F
:1023A000F1FB1920FEF7EEFB8220FEF7EBFB0A485B
:1023B0008C229200002105F0EDFB0B4A00231380D4
:1023C000084A1380094A1380094A1380034B18886E
:1023D00080B202B010BDC046A00C0020441F0020F7
:1023E000681F0020481F0020461F00204A1F0020B1
:1023F0004C1F0020D00E002010B5204B00221A8068
:1024000004E01E4A138801339BB213801B4B1A88C9
:1024100092B21B4B1B889BB29A4206D2174B1B8869
:102420009BB2184AD35C102BEBD1144B1B88164976
:102430001448C018022208F08FFA00280AD1104B65
:102440001B889BB20D4A138001300D4B1A880F4B2D
:102450001A8010BD094B1B880D490A48C01802227A
:1024600008F07AFA002806D1054B1B889BB2034A74
:1024700013800230E9E70920E7E7C0464A1F002041
:102480004C1F0020D00E002018AE0010541F00205A
:1024900070AE001000B5172800D9FDE18000E84BB0
:1024A0001B589F46D0231B06802252039A6180222C
:1024B00012039A618022D2029A61802292035A61A9
:1024C0008022D2049A61802212059A6100BDD02335
:1024D0001B06802252039A61802212039A61802295
:1024E000D2025A61802292035A618022D2049A61F8
:1024F000802212059A61E9E7D0231B06802252034D
:102500009A61802212035A618022D2029A6180224B
:1025100092035A618022D2049A61802212059A6144
:10252000D4E7D0231B06802252039A618022120333
:102530005A618022D2025A61802292035A6180221B
:10254000D2049A61802212059A61BFE7D0231B064C
:10255000802252035A61802212039A618022D202A1
:102560009A61802292039A618022D2049A61802229
:1025700012055A61AAE7D0231B06802252039A61F2
:10258000802212039A618022D2029A6180229203F1
:102590009A618022D2049A61802212055A6195E7DD
:1025A000D0231B06802252035A61802212039A61B3
:1025B0008022D2029A61802292035A618022D20440
:1025C0009A61802212059A6180E7D0231B0680223F
:1025D00052035A61802212039A618022D2025A6108
:1025E000802292035A618022D2049A6180221205CD
:1025F0009A616BE7D0231B06802252035A61802226
:1026000012035A618022D2029A61802292035A6197
:102610008022D2049A61802212059A6156E7D02363
:102620001B06802252035A61802212035A618022C3
:10263000D2025A61802292035A618022D2049A61A6
:10264000802212059A6141E7D0231B0680225203A3
:102650005A61802212039A618022D2025A6180223A
:1026600092039A618022D2049A61802212055A61F3
:102670002CE7D0231B06802252039A61802212038A
:102680009A618022D2025A61802292039A6180224A
:10269000D2049A61802212055A6117E7D0231B06E3
:1026A000802252039A61802212039A618022D20210
:1026B0009A61802292039A618022D2045A61802218
:1026C00012059A6102E7D0231B06802252039A6109
:1026D000802212039A618022D2025A6180229203E0
:1026E0009A618022D2045A61802212059A61EDE635
:1026F000D0231B06802252039A61802212035A6162
:102700008022D2029A61802292039A618022D204AE
:102710005A61802212059A61D8E6D0231B068022D6
:1027200052039A61802212035A618022D2025A61B6
:10273000802292039A618022D2045A61802212057B
:102740009A61C3E6D0231B06802252035A6180227D
:1027500012035A618022D2029A61802292039A6106
:102760008022D2049A61802212055A61AEE6D023FB
:102770001B06802252039A61802212035A61802232
:10278000D2029A61802292039A618022D2049A61D5
:10279000802212055A6199E6D0231B06802252033B
:1027A0005A61802212039A618022D2029A618022A9
:1027B00092039A618022D2045A61802212059A61A2
:1027C00084E6D0231B06802252035A618022120322
:1027D0009A618022D2025A61802292039A618022F9
:1027E000D2045A61802212059A616FE6D0231B063B
:1027F000802252035A61802212035A618022D2023F
:102800009A61802292039A618022D2045A618022C6
:1028100012059A615AE6D0231B06802252035A61A0
:10282000802212035A618022D2025A6180229203CE
:102830009A618022D2045A61802212059A6145E68B
:10284000B8AD0010D0231B06802252035A618022AB
:1028500012035A618022D2025A61802292039A6145
:102860008022D2049A61802212055A612EE6D0237A
:102870001B06802252039A61802212035A61802231
:10288000D2025A61802292039A618022D2049A6114
:10289000802212055A6119E6D0231B0680225203BA
:1028A0009A61802212039A618022D2029A61802268
:1028B00092039A618022D2049A61802212059A6161
:1028C00004E6C046F0B5DE4657464E464546E0B5FE
:1028D000B64CA5440023FFAA90321360FFAA8C32A5
:1028E0001360FFAA88321360FFAA84321360142297
:1028F000002103A805F04EF9AD4B1B78012B18D031
:10290000022B59D0042B00D126E2082B01D100F074
:102910008CFFA84B01221A70A54B00221A70FDF7FC
:102920006FFFA54B9D44F0BCBB46B246A946A046EE
:10293000F0BDA04A00231370A04A1380A04A136080
:102940000026002527E0642002F090F90134E4B26B
:102950009A4B1B88002B0CD1042C0AD80120FDF7C0
:102960009BFE964B188000B20028ECDA00221A80F9
:10297000E9E7052C19D0914B1B88642B18D901234A
:10298000AB401E43320C8E4B1A70320A5A709E7046
:102990000135EDB2DD70172DBBD82800FFF77AFDA9
:1029A0000A2002F063F90024D8E7FDF729FFE2E7E7
:1029B0000123AB409E43E5E77E4B00241C70FFAB38
:1029C00088331C60FFAB84331C607D4B1C608C2201
:1029D0009200002194A805F0DDF8784BDC805C8043
:1029E0001C819C8000254CE1764B9B699B06FBD4A7
:1029F0000878744B186001320131062AF4D9724B01
:102A000064221A80704B1B889BB2002BFAD16F4A4C
:102A1000128892B294461A00002706E078186C4E8D
:102A2000365C94A84654013292B2624512D211002B
:102A30006748805C1028F1D1501C654E305C10282E
:102A4000ECD1B818365C94A886540137FFB2013235
:102A500092B2E8E7032B14D81A00A73202A99220F9
:102A600080000918895CFFAA8432D1541A00AB3265
:102A700002A90918895CFFAA8832D15401339BB29C
:102A8000E8E7FFAB84331868FFAB88331F68514910
:102A900004F0A7FF04F0D6FF86B24E49381C04F0BC
:102AA000A0FF04F0CFFF83B29946474B64221A80FF
:102AB000494B00221A80454B1A80484908E0414B97
:102AC0009B699B06FBD408783E4B186001320131AC
:102AD000082AF4D9404B1A8801323C4B1B889BB220
:102AE0009A4204DB384B1B889BB2002BF2D1FFF7D4
:102AF00083FC012806D0384B00221A80334B1A8001
:102B0000364978E0304B1B889BB2002BF3D0324B18
:102B100000221A802D4B1A800021314A08E0294BEF
:102B20009B699B06FBD41078264B1860013101325B
:102B30000729F4D9284B1A880132244B1B889BB2F1
:102B40009A4204DB204B1B889BB2002BF2D1FFF78B
:102B500053FC01280BD003AB9888DA8880181B89B6
:102B6000C018032104F09CF8144B5880C3E7164B9F
:102B70001B889BB2002BEED01422002103A805F085
:102B800009F8002706E00A2002F070F80137FFB2CA
:102B9000042FE0D80120FDF77FFD7B0003AA9852A7
:102BA00000B20028EFDA00219952ECE76CFBFFFF3E
:102BB0005F1F0020980B002094040000501200209A
:102BC000C812002000400340441F00204C1F00207A
:102BD000D00E002000007A444A1F002030AE0010C2
:102BE00068AE0010B74B9B699B06FBD40878B54BC9
:102BF000186001320131082AF4D9B34B1A88013226
:102C0000B24B1B889BB29A4204DBB14B1B889BB230
:102C1000002BF2D1FFF7F0FB012845D0AD4F7888AB
:102C200004F042FBAC4AAD4B04F0AFFA04F078FB81
:102C300083B29846BB80F88804F036FBA84AA94BBB
:102C400004F0A3FA04F06CFB80B2388143463200F2
:102C50000A3A424509DC0A36B34206DC4B460A3BD7
:102C6000834202DC1433984272DD0123A3409D436A
:102C70002A0C9D4B1A702A0A5A709D700134E4B2D6
:102C8000DC70172C00D944E68F4B00221A808F4B42
:102C90001A80FDF7B5FD2000FFF7FCFB0A2001F0CC
:102CA000E5FF00229149A8E6894B1B889BB2002BC7
:102CB000B4D0854B00221A80844B1A8000218C4AA4
:102CC00008E0804B9B699B06FBD410787D4B186015
:102CD000013101320729F4D97B4B1A8801327B4B31
:102CE0001B889BB29A4204DB794B1B889BB2002B5A
:102CF000F2D1FFF781FB01280BD003AB9888DA886B
:102D000080181B89C018032103F0CAFF714BD880BB
:102D100084E76F4B1B889BB2002BEED0142200215E
:102D200003A804F037FF002706E00A2001F09EFF09
:102D30000137FFB2042FE0D80120FDF7ADFC7B0086
:102D400003AA985200B20028EFDA00219952ECE76A
:102D50000123A3401D438BE7664A00231370FFAA9B
:102D600088321360FFAA843213605F4A13608C2498
:102D7000A4002200002194A804F00CFF22000021EE
:102D800008A804F007FF002301939A4600F03FFDD6
:102D90004C4B9B699B06FBD408784A4B1860013268
:102DA0000131062AF4D94A4B64221A80484B1B8809
:102DB0009BB2002BFAD1454A1788BFB21A000026F1
:102DC00006E070184C4C245C94A84454013292B232
:102DD000BA4226D211004848805C1028F1D1501C1C
:102DE000454C205C1028ECD1B018245C94A8845485
:102DF0000136F6B2013292B2E8E71A00A73202A910
:102E0000922080000918895CFFAA8432D1541A00EC
:102E1000AB3202A90918895CFFAA8832D154013368
:102E20009BB2032BE9D9FFAB84331868FFAB88331F
:102E30001C68324904F0D5FD04F004FE83B29946C3
:102E40002E49201C04F0CDFD04F0FCFD83B200935C
:102E50001F4B64221A801C4B00221A801B4B1A80C5
:102E6000274908E0174B9B699B06FBD40878154B54
:102E7000186001320131082AF4D9134B1A88013243
:102E8000124B1B889BB29A4204DB114B1B889BB2EE
:102E9000002BF2D1FFF7B0FA012806D00A4B00222E
:102EA0001A800A4B1A8016497EE0094B1B889BB298
:102EB000002BF3D0044B00221A80044B1A801149D6
:102EC0002BE0C046004003404A1F00204C1F00205A
:102ED000441F00205012002060E5D022DB792340FF
:102EE000D9CEF753E3A52240C812002050AE0010FF
:102EF00048AE0010980B0020D00E002000007A444D
:102F000030AE001068AE0010BD4B9B699B06FBD431
:102F10000878BB4B186001320131072AF4D9B94B4C
:102F20001A880132B84B1B889BB29A4204DBB74B1C
:102F30001B889BB2002BF2D1FFF75EFA01280BD061
:102F400003AB9888DA8880181B89C018032103F026
:102F5000A7FEAF4B5880A1E7AC4B1B889BB2002B60
:102F6000EED01422002103A804F014FE002406E091
:102F70000A2001F07BFE0134E4B2042CE0D80120E9
:102F8000FDF78AFB630003AA985200B20028EFDA2B
:102F900000219952ECE79A4B9B699B06FBD4087879
:102FA000974B186001320131082AF4D9954B1A88E1
:102FB0000132954B1B889BB29A4204DB934B1B88D2
:102FC0009BB2002BF2D1FFF717FA01283DD0904EAB
:102FD000708804F069F98F4A8F4B04F0D6F804F03A
:102FE0009FF984B2B480F08804F05EF98B4A8C4B70
:102FF00004F0CBF804F094F980B230810A235B42EC
:103000004B449B46A3420DDC4B460A339C4209DCF1
:10301000009A13000A3B834204DC1433984201DC1B
:1030200000F0D1FB8C24A4002200002194A804F01D
:10303000B1FD2200002108A804F0ACFD714B002274
:103040001A80714B1A8077495BE0704B1B889BB2EA
:10305000002BBCD06B4B00221A806B4B1A8072493C
:1030600008E0674B9B699B06FBD40878644B1860AB
:1030700001320131072AF4D9624B1A880132624BBE
:103080001B889BB29A4204DB604B1B889BB2002BCF
:10309000F2D1FFF7B1F901280BD003AB9888DA8899
:1030A00080181B89C018032103F0FAFD584BD88003
:1030B0008DE7564B1B889BB2002BEED014220021CB
:1030C00003A804F067FD002406E00A2001F0CEFD0D
:1030D0000134E4B2042CE0D80120FDF7DDFA6300EE
:1030E00003AA985200B20028EFDA00219952ECE7C7
:1030F000434B9B699B06FBD40878414B1860013217
:103100000131062AF4D9414B64221A803F4B1C88B6
:10311000A4B2002CFAD13C4B1E88B6B2230000208A
:1031200006E08118414F7F5C94A98F5401339BB214
:10313000B34212D21A003D49C95C1029F1D1591C81
:103140003A4F795C1029ECD1C1187F5C94A9CF5417
:103150000130C0B201339BB2E8E72300032B12D841
:10316000DA1C02A9922080000918895CFFAA90321B
:10317000D154DA1D02A90918895CFFAA8C32D154F6
:1031800001339BB2EAE7214B64221A801D4B0022D7
:103190001A801D4B1A802649082A09D8184B9B69AA
:1031A0009B06FBD40878164B186001320131F3E717
:1031B000144B1A880132144B1B889BB29A4204DBD1
:1031C000124B1B889BB2002BF2D1FFF715F9012897
:1031D00009D00E4B64221A800A4B00221A800A4B37
:1031E0001A80134978E0094B1B889BB2002BF0D062
:1031F000044B00221A80044B1A800E4925E0C04679
:10320000004003404A1F00204C1F0020441F0020A4
:103210005012002060E5D022DB792340D9CEF7534D
:10322000E3A5224058AE001048AE0010D00E00209A
:1032300030AE00101CAE0010C64B9B699B06FBD441
:103240000878C44B186001320131072AF4D9C24B07
:103250001A880132C14B1B889BB29A4204DBC04BD7
:103260001B889BB2002BF2D1FFF7C6F801280BD0C8
:1032700003AB9888DA8880181B89C018032103F0F3
:103280000FFDB84B5881A4E7B54B1B889BB2002BB0
:10329000EED01422002103A804F07CFC002606E0F6
:1032A0000A2001F0E3FC0136F6B2042EE0D801203A
:1032B000FDF7F2F9730003AA985200B20028EFDA82
:1032C00000219952ECE7A34B9B699B06FBD408783D
:1032D000A04B186001320131082AF4D99E4B1A889C
:1032E00001329E4B1B889BB29A4204DB9C4B1B888D
:1032F0009BB2002BF2D1FFF77FF8012843D0994B06
:103300009846588903F0D0FF974A984B03F03DFF49
:1033100004F006F887B243469F81D88903F0C4FFC2
:10332000934A944B03F031FF03F0FAFF86B2434611
:103330001E82380004F05EFB8F4904F03CFB071C42
:10334000300004F057FB8C4904F035FB0200010EFD
:1033500094AB9972010C5972000A1872DA713A0032
:10336000390E9971390C59713F0A1F71DA709A78C8
:10337000904616000322190008A804F011FC23004F
:103380000021A44661E0764B1B889BB2002BB6D08F
:10339000714B00221A80714B1A80784908E06D4BFE
:1033A0009B699B06FBD408786A4B18600132013197
:1033B000072AF4D9684B1A880132684B1B889BB2E4
:1033C0009A4204DB664B1B889BB2002BF2D1FFF7BD
:1033D00013F801280BD003AB9888DA8880181B8972
:1033E000C018032103F05CFC5E4BD88187E75C4B7F
:1033F0001B889BB2002BEED01422002103A804F0FE
:10340000C9FB002606E00A2001F030FC0136F6B2C6
:10341000042EE0D80120FDF73FF9730003AA98526B
:1034200000B20028EFDA00219952ECE7102702AC35
:103430000832A41827540131C9B2CA18033202ACA9
:1034400018202018875401339BB2B3420BD2C818FE
:10345000033094AA125C102AE8D0DA1C94AFBF5C47
:1034600008AA1754EFE7644647460337CF191023DD
:1034700002A818228018C35501370F3302A88218FA
:10348000D35576180536B6B2634605E008AAD25C75
:103490001419A4B201339BB2B342F7D3230A02A991
:1034A000182289188B55731C02A98A18D4542C4BE6
:1034B00064221A80284B00221A80284B1A80304937
:1034C00008E0244B9B699B06FBD40878214B1860CD
:1034D00001320131082AF4D91F4B1A8801321F4BDF
:1034E0001B889BB29A4204DB1D4B1B889BB2002BAE
:1034F000F2D1FEF781FF01281ED00135EDB2042D77
:1035000000D960E1144A00231380144A1380154A3D
:103510005381D381D380538093811382138193800D
:10352000FDF76EF95046FEF7B5FF0A2001F09EFB4D
:1035300000221449FFF735FC094B1B889BB2002B76
:10354000DBD0054B00221A80044B1A80023608A9F2
:1035500023E0C046004003404A1F00204C1F0020CB
:10356000441F0020501200205EBA490C022B244058
:10357000E7FBA9F1D28D224000007A4424AE00106E
:103580003CAE001050AE0010AA4B9B699B06FBD4CA
:103590000878A84B1860013201319642F4D8A64B46
:1035A0001A880132A54B1B889BB29A4204DBA44BBC
:1035B0001B889BB2002BF2D1FEF71EFF01289CD185
:1035C0009F4B1B889BB2002B97D09D4B64221A8087
:1035D000994B00221A80994B1A800021994A08E0E1
:1035E000944B9B699B06FBD41078924B1860013179
:1035F00001320829F4D9904B1A8801328F4B1B886D
:103600009BB29A4204DB8E4B1B889BB2002BF2D1FB
:10361000FEF7F2FE012800D06FE7894B1B889BB2B2
:10362000002B00D169E7844B00221A80834B1A805B
:10363000854B08E07F4989698906FBD418787D4964
:10364000086001320133072AF4D97B4B1A88013212
:103650007A4B1B889BB29A4204DB794B1B889BB246
:10366000002BF2D1FEF7C8FE012800D045E7744BCD
:103670001B889BB2002B00D13FE7714B64221A805C
:103680006D4B00221A806D4B1A806E4B08E0694921
:1036900089698906FBD418786649086001320133CC
:1036A000082AF4D9644B1A880132644B1B889BB2F8
:1036B0009A4204DB624B1B889BB2002BF2D1FEF7CF
:1036C0009BFE012800D018E75D4B1B889BB2002BA6
:1036D00000D112E7584A00231380584A13805B4AEE
:1036E00008E0544989698906FBD41078514908607B
:1036F00001330132072BF4D94F4B1A8801324F4B5B
:103700001B889BB29A4204DB4D4B1B889BB2002B5B
:10371000F2D1FEF771FE012800D0EEE6484B1B887F
:103720009BB2002B00D1E8E6454B64221A80424A46
:1037300000231380414A1380424A08E03D498969C9
:103740008906FBD410783B49086001330132082B0D
:10375000F4D9394B1A880132384B1B889BB29A42F4
:1037600004DB374B1B889BB2002BF2D1FEF744FEE3
:10377000012800D0C1E6324B1B889BB2002B00D140
:10378000BBE62D4A002313802C4A1380304A08E000
:10379000284989698906FBD41078264908600133D5
:1037A0000132072BF4D9244B1A880132234B1B8892
:1037B0009BB29A4204DB224B1B889BB2002BF2D1B6
:1037C000FEF71AFE99E6234B9A8893450DDC4B468B
:1037D0000A339A4209DC1F4B1A8900990B000A3BF5
:1037E000934202DC14339A4218DD0123524693407F
:1037F000019A9A43019201990A0C174B1A700A0A0E
:103800005A70997052460132D2B29246DA705346DB
:10381000172B01D9FFF77DF8002573E601235246E7
:103820009340019A1A430192E5E70B4B00221A607C
:10383000FFF76FF8004003404A1F00204C1F002094
:10384000441F002030AE001060AE00101CAE00100F
:1038500024AE001050120020C812002010B58300C2
:10386000084A944663441A684024624080341440F5
:103870008022520113431C60C000034B9C466044ED
:10388000416010BD04C001400040014080000B4B6E
:103890009C46604400290DD00823002A0CD0042245
:1038A0001343026853400C221A4080235B010343F8
:1038B0001A6070470023F0E70022F1E704C00140DE
:1038C00010B501238340D022120693629361052133
:1038D000FFF7C4FF10BD0000034B1B680220184017
:1038E000431E9841C0B2704700C00640EFF31080FD
:1038F00072B6034B1B68002BFBD0BFF35F8F704782
:103900002C0100D0BFF35F8F024B00221A6080F3BE
:10391000108870472C0100D0F8B506000C00150087
:10392000FFF7E4FFE308F718F15C072222400123C8
:1039300093400B4205D1DBB20B433B70FFF7E2FF34
:10394000F8BD2100280002F0A9F8F0B583B0060008
:10395000019114001F00FFF7C9FF00E00134BC42D1
:103960000CD8E308F518F35C0721214001228A40B6
:103970001A42F3D1D2B21A432A7001E00124644200
:10398000FFF7C0FF002C02DB200003B0F0BD019B5D
:10399000002BF9D0089802F081F80000002307E01E
:1039A000054A9A189200BFF35F8F0021116001331E
:1039B0001F2BF5D97047C04640000034054A1078E7
:1039C000431CDBB21370172B02D9130010221A709C
:1039D0007047C046990B002010B582B00100054C1D
:1039E000054B00931F2318222000FFF7AEFF02B003
:1039F00010BDC0462818002074AE0010074B9B680D
:103A0000103080001950BFF35F8FBFF35F8F044BFE
:103A10000021196082F310887047C04600ED00E075
:103A2000240100D010B5091A0B1F0A4A94466144BC
:103A3000094A914208D8DA0706D45B105B055B0D92
:103A40000648184380B210BD054B064A0648A3211C
:103A500001F08AFFFC070000FE0F000000E0FFFFFE
:103A600090AE001000B10010C0AE001010B5091AE1
:103A700004394A08090B08D14905490D064B0B4387
:103A80000380064B1343438010BD054B054A06488F
:103A9000AB2101F069FFC04600F0FFFF00F8FFFF17
:103AA00000AF0010D4B00010C0AE0010012383405E
:103AB000034A10681840431E9841C0B27047C04680
:103AC00000E100E0002904D0034B1860034B1860AC
:103AD0007047034B1860FBE780E200E000E100E084
:103AE00080E100E010B5012383401800FFF7EAFFF2
:103AF00010BD000001238340014A13607047C04697
:103B000000E200E0024B9B6810308000C058704714
:103B100000ED00E010B5FFF7F5FF002805D0054BDC
:103B2000C01A2F2803D8012010BD0020FCE7002078
:103B3000FAE7C0469C0B002070B504000D00EFF3BF
:103B4000108672B60C4B1B68002BFBD0BFF35F8F47
:103B50002000FFF7D7FF094B984201D0A84205D1BA
:103B6000320029002000FFF749FF70BD044B054AD1
:103B70000548862101F0F8FE240100D0CD01001097
:103B800010AF001034B10010C0AE0010F0B5DE462A
:103B900057464E464546E0B589B08146019115002D
:103BA000EFF3108A72B6734B1B68002BFBD0BFF388
:103BB0005F8F714B0027DF57002F40DB7C00E4193B
:103BC000A4006E4824180622A2566B4B1A706C4B48
:103BD0009A684B4610339B00D35898461E00181A1B
:103BE0002F2838D9674B98452FD105AE664B3380C7
:103BF00066497B009B46D8198000604B984640443C
:103C00000230FFF70FFF7080614BB380FF23B37169
:103C1000F571019B07935F44BB00434407CE07C384
:103C200001231C43A046524641464846FFF7E6FEA4
:103C300009B0F0BCBB46B246A946A046F0BD554B04
:103C4000554A5648D72101F08FFE554B524A5348EA
:103C5000DE2101F089FE01380C2103F049F800292A
:103C600012D101239E43B34633000026DA79AA42DB
:103C700011D90621595600290CDB4A00521892002E
:103C80003E491E008B18F1E7464B434A4348EA2160
:103C900001F06AFE1E00002E3AD005AB424A1A809F
:103CA000813A5A800623F3560293002B17DA3F48D5
:103CB00005AB9B469880029A9A71DD71019A079232
:103CC000301D2100FFF7AEFEB080B7712B4B7A009C
:103CD000D21992009B185A4613CA13C3A3E778005F
:103CE000C0198000254BC0180430311DB388DA0A92
:103CF0001C2A07D15B055B1502335B00C918FFF76F
:103D000091FED5E72A4B2B4A2448B12101F02CFE25
:103D100005AE1D4B33801D497B000293DB199B00D0
:103D2000164A90461A0042440392901CFFF77AFE0E
:103D30007080039A101D5946FFF774FEB0801E4B29
:103D40005A464146521A524153431B0DB371F57105
:103D5000019A0792029B9C466744BB00434407CEEE
:103D600007C3114B5A461380813B538001231C43E8
:103D7000A04658E7240100D0691F00209C0B0020BA
:103D800000ED00E0CD01001000A1FFFFCC0B0020F2
:103D900001BDFFFF48AF00101CB10010C0AE001005
:103DA00070AF001098AF00100148000001BD000086
:103DB0000CB000100CB10010AAAA0000F0B5CE465D
:103DC000474680B583B006000D00EFF3108872B649
:103DD000554B1B68002BFBD0BFF35F8F534B9A688A
:103DE00034001034A300D758514B9F4207D0AF4244
:103DF00000D196E001974F4BFB1A2F2B09D9424671
:103E000039003000FFF7FAFD03B0C0BCB946B04638
:103E1000F0BD3000FFF74AFE814600213000FFF779
:103E200061FEBFF35F8FEFF30581002901D08C4263
:103E300011D10123019C9C430020A368AB4212D006
:103E40000622A256002A0DDB53009B189B00394A1C
:103E50002000D418F1E7384B384A36213848FF3172
:103E600001F082FD2000AB4254D106256557002D9C
:103E700036DB304B6A00521992009B189A68A26098
:103E8000DA79E2719B795BB2A371002B0FDA2D48CE
:103E9000A080284B6A00521992009B182A4A117878
:103EA0009971157049463000FFF71CFEA7E7201DE9
:103EB0006B005B199B001F4A9B18191D9B88DA0A2F
:103EC0001C2A07D15B055B1502335B00C918FFF79D
:103ED000A9FDDDE71D4B1E4A1948B12101F044FD43
:103EE000002912D100280ED0FF238371194B838043
:103EF00015490B78A3710F4A174BA41A6441634309
:103F00001B0D0B70CEE70A4FF2E71449201DFFF797
:103F1000ADFDC7E7124B094A6A210948FF3101F09C
:103F200023FD034F6BE7C046240100D000ED00E005
:103F3000CD0100109C0B002024B00010ECB000104C
:103F4000C0AE001001BD0000691F00200CB00010C1
:103F50000CB1001001BDFFFFAAAA0000D60B002083
:103F600058B0001070B5012202432E4BD31A2F2BEC
:103F700028D8EFF30583002B2BD0EFF3108C72B60B
:103F8000294909680029FBD0BFF35F8F254C2749D9
:103F900005002D1B6D416943090D4CB22449896808
:103FA0009B00C95891421BD00021032932D81D4BD8
:103FB0004A00521892009B189B795BB2A3421FD013
:103FC0000131F2E71B4B1C4AC7211C48490001F094
:103FD000CBFC1B4B184A92211848FF3101F0C4FC5E
:103FE000134A92681749D150174B1A7882711C7086
:103FF000BFF35F8F0C4B00221A608CF3108870BDEA
:10400000084B4A005518AD005D19FF26AE710F4AE6
:10401000AA80E9E70E4B084AD1210848490001F07F
:10402000A3FCC0469C0B0020240100D0AAAA0000DB
:1040300000ED00E060B00010B8B00010C0AE00109D
:1040400088B00010CD010010691F002001BDFFFFE6
:1040500094B000100022044B02E0044902C3013274
:10406000072AFAD97047C04600E400E080808080CB
:1040700010B582B00100074C074B009305230022C6
:104080002000FFF762FC002801DB1F23181A02B092
:1040900010BDC046701F00209CB00010024B9C4613
:1040A00061448900016070474000003410B504008D
:1040B000FFF784FC01002000FFF7F0FFFF232371CE
:1040C000BFF35F8F10BD10B50400FFF777FC010050
:1040D0002000FFF7E3FFFF23237100236371BFF389
:1040E0005F8F10BD034B9C46614489000160BFF3A4
:1040F0005F8F70474000003410B504000120FFF7C7
:104100006BFC01002000FFF7EDFF10BD10B50C00A7
:10411000CB68834207D10B6908009847002809D073
:104120002068616810BD064B064AA8210648490070
:1041300001F01AFC0023E36000200021F2E7C046F2
:104140007CB20010E0B4001090B2001070B5050011
:104150000C00080000F018FF0949200000F058FE8C
:10416000FFF72CFC074B9C466044800068602C7570
:10417000D0231B061B786B75034BA400E55070BD64
:104180008144001040000034F01C00200A4B1A68E3
:10419000EFF3108172B61368002BFCD0BFF35F8F72
:1041A000054B1B68BFF35F8F00221A6081F31088F4
:1041B00040BF0020002170470C1F002010B50029CF
:1041C00020D003681B7B99421CD88368154CA446F9
:1041D000614409015B181C685968002A18D00368FB
:1041E0001B7B9A4214D883680E48844662441201AD
:1041F0009B181A685B6801208B4201D80ED0002002
:10420000C0B210BD084B094A09483C2101F0ACFB83
:10421000054B064A06483C2101F0A6FBA242EFD816
:10422000EDE7C046FFFFFF0FC8B2001048B5001011
:1042300090B2001010B500291DD0037B99421AD806
:1042400004684B005B18033BE418002919D0002ACE
:104250001DD0914221D0002A25D0037B9A4222D83A
:10426000006853009B18033BC318997021780029FC
:104270001FD1227010BD104B104A1148682101F067
:1042800073FB104B104A0E486F3101F06DFB0F4B62
:104290000D4A0B48702101F067FB0D4B0A4A084894
:1042A000712101F061FB044B044A0548682101F0CB
:1042B0005BFB59702270DDE7ECB20010B4B5001062
:1042C00008B3001054B3001090B5001060B3001094
:1042D0006CB3001070B506000D001400002914D056
:1042E000002A14D0436880689847002806D022002E
:1042F00029003000FFF79EFF280007E02A00210078
:104300003000FFF797FF200000E0100070BD0800AC
:10431000FCE70000F0B583B00500009201930AAB02
:104320001C780BAB1F78002C26D003685A7B944274
:1043300007D10123002B19D1002C3AD1200003B062
:10434000F0BD002C0CD01A7B944209D81A68630087
:104350001B19033BD3189B78002BEBD00123E9E713
:104360003C4B3D4A3D48682101F0FEFA3C4B3D4A3A
:104370003D48672101F0F8FA03689C7B002CDBD0F4
:1043800011D01A7B94420ED81A68610009190339BA
:10439000521851789973002900D1D9730023937072
:1043A00053701370C8E72B4B2B4A2C48682101F03F
:1043B000DBFA002C37D02B681B7B9C4233D8AB68D0
:1043C0002A4AA21812019B18009A1A60019A5A6090
:1043D000089A9A60099ADA602E68002C29D02ED0AB
:1043E000337B9C422BD8336862001219033A9B1826
:1043F00000229A705A701A70717B22003000FFF709
:1044000069FF7073844299D1287D009A019B00F066
:1044100047FD061E01D0002F17D00C9B002B00D1AA
:104420008CE71E708AE7124B124A0F483C2101F0BC
:104430009BFA114B114A0948A52101F095FA054B49
:10444000054A0648682101F08FFA2868210000F02B
:1044500057FFE2E7ECB20010B4B5001008B300104B
:1044600084B30010C0B5001090B20010FFFFFF0F22
:10447000C8B2001048B500108CB20010A4B50010EE
:10448000F0B5DE4657464E464546E0B58BB009903E
:1044900000230893B54B8200D55854E0B44BB54A7D
:1044A000B5483F2101F060FAB44BB54AB5483C210C
:1044B00001F05AFA002F01D1002E6BD1002100F03B
:1044C00015FFA0421CD143461A685B680692079309
:1044D00043469B689A464346DB689B465346002BFF
:1044E00014D0002C18D02B681B7B9C4214D8EA688F
:1044F000631ED35C08931B0218432861002015E05B
:10450000A14BA24A9F488E2101F02EFAA04B9F4A50
:104510009C48922101F028FA984B9E4A99484121E3
:1045200001F022FA00239B469A4600206B68BFF3F5
:104530005F8F00221A6089F310885346002B33D115
:10454000002800D10BE100F043FC02000B1EA5DBAC
:1045500000200021069007916868EFF3108972B679
:1045600001680029FCD0BFF35F8F2868447B002CD2
:10457000D8D099D0017B8C4296D8AE688649611814
:104580000901B046884441460E684F68B61A9F41FB
:10459000002F8FDD43461A685B68099800F080FCA5
:1045A00000239B469A46C1E7089B1B02234398467B
:1045B00059461800D04706000F006A68EFF31089CB
:1045C00072B6136859424B41D9B2002BF9D1BFF3EF
:1045D0005F8F002F1EDB002F46DD2B69002B47D09D
:1045E00043456DD100F0F4FB02000B1E6EDB921907
:1045F0007B41002B70DB002B72DB00210491013129
:104600000391029459460191514600912800FFF709
:1046100081FE4CE02B69002BDDD0434514D1069A76
:10462000079B921BBB41002B14DB002B16DB0021E8
:104630000491013103910294594601915146009130
:104640002800FFF767FE32E0544B504A4D48A12145
:1046500001F08AF901225242514BE6E7444B454AA8
:1046600045483F2101F080F9002F01D1002EB4D13F
:104670002B68002C4FD05A7B944237D1012100295E
:1046800049D1DA7B002A4CD19A7B002A03D1DA7B0C
:10469000002A58D19C73DC73002C5AD02B681B7BEA
:1046A0009C4256D8EA68013C135D01331355002340
:1046B0002B616A68BFF35F8F136089F3108842E74C
:1046C000364B324A2F48A42101F04EF9284B294A93
:1046D00029483F2101F048F901225242304B8AE734
:1046E000234B244A24483F2101F03EF9002C0CD0F2
:1046F0001A7B944209D8186862001219033A82188A
:104700009278002ABBD00121B9E7264B264A2748D8
:10471000682101F029F9264B264A2448F62101F0A8
:1047200023F9002A09D0197B8A4206D8186851005B
:104730008A18033A82185470A6E71A4B1A4A1B4883
:10474000682101F011F91C4B1A4A1848FB2101F0AD
:104750000BF90A4B0F4A0B48412101F005F90BB048
:10476000F0BCBB46B246A946A046F0BDF01C0020F6
:10477000A4B1001014B50010C0B10010C8B20010F0
:1047800048B5001090B20010ACB300102CB500106A
:10479000C4B300106CB50010FFFFFF0FD0B30010C2
:1047A000FFFFFF7FECB20010B4B5001008B300109B
:1047B0000CB4001080B5001030B4001010B50C4BD4
:1047C0005B68002B04D00B480A21FFF767FC10BD83
:1047D000074C094A20682300102100F09DFC0320AB
:1047E00000F0EAFA03212000FFF7B0FCEBE7C04637
:1047F000E40B00200C1F0020BD41001010B5064B3B
:104800005B68002B01D0044810BD044B044A0548E6
:104810005E2101F0A9F8C046E40B002044B400106A
:1048200054B5001090B20010F0B5DE4657464E4623
:104830004546E0B58BB0804616001F00149B9A4693
:10484000159B994616AB1B789B461F2302AA9446DC
:10485000634400221A702DE0002809D042461268F5
:10486000127B904204D84246D168421E8A5C43E0E3
:10487000414B424A4248412101F076F807984EE008
:10488000361BAF41002F07DB002F13DA3D4B3E4AAA
:104890003E483F2101F068F8012676423C4FF3E79D
:1048A000384B394A39483F2101F05EF8002D51DB81
:1048B00026002F0043465A68EFF3108472B613683F
:1048C00059424B41D9B20791002BF8D1BFF35F8F0A
:1048D0001F3302AA94466344049300230393029374
:1048E0004B4601935346009332003B004046FFF78E
:1048F00011FD031EB0D1020041464968BFF35F8F2E
:1049000000250D6084F31088002B29D01F2302A9F5
:104910008C4663441B78002BB0D112021043002B4D
:1049200020D05B46002B1DD04946D04704000D0027
:1049300003000B431DD00029A2DB00F049FA02005E
:104940000B1EADDBA4185D41002DAFDA01246442DB
:104950000F4DABE70B4B0C4A0C483F2101F004F81C
:10496000012040420BB0F0BCBB46B246A946A0466F
:10497000F0BD0798F6E7C046C8B200106CB500104D
:1049800090B20010A4B1001014B50010C0B1001016
:10499000FFFFFF7FF8B504004268EFF3108572B6A1
:1049A000136858424341D8B2002BF9D1BFF35F8F4F
:1049B000CBB22268567BB3421BD10120002847D0DE
:1049C000206988422AD0090AC9B2002B2DD020685C
:1049D000007B834229D8E668581E305C88422AD082
:1049E00000206368BFF35F8F00221A6085F3108890
:1049F000F8BD002B0CD0167BB34209D817685E00B7
:104A0000F618033EBE19B678002ED7D00120D5E7A0
:104A1000124B134A1348682100F0A6FF124B134AA9
:104A200095211348490000F09FFF124B124A10488D
:104A3000412100F099FF1900100000F061FC0028EE
:104A4000CFD10E4B094A32210948FF3100F08CFFCB
:104A500023698B42C5D100232361C2E7ECB2001069
:104A6000B4B5001008B3001068B40010FCB4001016
:104A700090B20010C8B200106CB500108CB40010D9
:104A8000407D7047F0B585B007000C9E11001943BA
:104A900001D101220023B7600A993161326073604D
:104AA0000B997161D81701004240140043401D006A
:104AB000241A8D4100F08CF902000B1E12DB121932
:104AC0006B41002B14DB002B16DB012102910196B8
:104AD0000C4900913800FFF7A7FEF060C043C00FFB
:104AE00005B0F0BD084B094A09483F2100F03CFFE2
:104AF00001225242074BE6E7034B044A04483F2198
:104B000000F032FF0D410010A4B1001014B50010E8
:104B1000C0B10010FFFFFF7FF0B587B006000F00A7
:104B2000EFF30583002B1FD106246442E517A41977
:104B30007D418D4202D803D1844201D90024002551
:104B4000002D14DB0494059500F042F902000B1EC1
:104B500013DBA41A9D41002D17DC14D0300039005E
:104B600000F042F907B0F0BD234800F097FF234B57
:104B7000234A24483F2100F0F7FE204B204A2148D9
:104B80003F2100F0F1FE002CE8D0FFF737FE0023B4
:104B9000029301931C4B0093049A059BFFF744FE7C
:104BA000002818DADAE7002300E00023002BD5D133
:104BB000164B1A68EFF3108172B61368002BFCD005
:104BC000BFF35F8F114B1B68BFF35F8F00221A602A
:104BD00081F3108820BF0499059A0D4B5B6A9A42B5
:104BE000E3D80B48806A884203D29A42DBD0012383
:104BF000DCE70123DAE7C04690B40010A4B100104E
:104C000014B50010C0B100108D4100100C1F002021
:104C10000040054070B504000D0000F0D9F8020016
:104C20000B1E0ADB200029008018594100290ADBED
:104C300000290CDBFFF770FF70BD084B084A0948DC
:104C40003F2100F091FE012040420749F0E7034B6D
:104C5000034A04483F2100F087FEC046A4B100107B
:104C600014B50010C0B10010FFFFFF7F10B5FA228D
:104C700092000023002102F077FEFFF7CBFF10BD6A
:104C800070B584B005000C00EFF30583002B1ED136
:104C9000FFF7B4FD002302930193224B00932A00F7
:104CA0002300FFF7C1FD061E23DD20BFFFF7A6FD91
:104CB0003100FFF76FFE1C4B5B6A9C422DD81A4AED
:104CC000926AAA422CD29C4225D0012026E0164BA3
:104CD0005B6A994209D8144A926A824207D2994281
:104CE00001D001201AE0002018E0002016E0012089
:104CF00014E00D4B5B6A9C4209D80B4A926AAA42A7
:104D000007D29C4201D0012008E0002006E00020EC
:104D100004E0012002E0002000E0002004B070BDAB
:104D20000120FBE78D4100100040054070B5EFF316
:104D300005801038EFF3108C72B6194B1B68002BEE
:104D4000FBD0BFF35F8F01221300834015494B63F3
:104D500015490B60154909780C00C440224213D054
:104D6000104A546A124A8500AA58944205D3114A3F
:104D7000AA580E4C9943217007E00A4A031D9B0074
:104D800099589950002200E00022BFF35F8F044B36
:104D9000002119608CF31088002A00D0904770BD64
:104DA000280100D0004005403C7005406E1F0020E7
:104DB000181F00201017002010B50100024A034BF5
:104DC0001800FEF7A9FD10BDD8B500105C1F00202B
:104DD000044B5B6A034A906A1900536A9942F9D1FD
:104DE0007047C04600400540084B5B6A01E0074B36
:104DF0005B6A8B42FBD301E0044B5B6A8B4203D1BD
:104E0000024B9B6A8342F7D37047C046004005407F
:104E100070B504000E00EFF3108572B61B4B1B68D3
:104E2000002BFBD0BFF35F8F002E1CD02000FEF7BD
:104E300069FE174B83420BD019002000FEF77CFE61
:104E400001212000FEF74EFE0123A340114A13600A
:104E5000114BA400E650BFF35F8F0C4B00221A6089
:104E600085F3108870BD0C4BA2000021D1500122A7
:104E7000A2400A490B7893430B7005492000FEF7C6
:104E80009DFF00212000FEF72DFEE4E7280100D061
:104E90002D4D001038600540101700206E1F0020B7
:104EA000F0B5DE4600B584B00400150001921E0086
:104EB0000293FFF78DFF03958E4202D84ED18542B3
:104EC0004CD9EFF3108B72B6274B1B68002BFBD02D
:104ED000BFF35F8F254A17780125A540EBB23B430E
:104EE0001370234B5D63221D92000199D150214A1A
:104EF000A100029888501B6A2B4212D11C4B1B6CDC
:104F00002B4208D00020BFF35F8F174B00221A609E
:104F10008BF3108823E0184B184A1948C52100F07C
:104F200023FDFFF755FF8E4214D802D1039B834225
:104F300010D80E4B1B78BB420ED00D4B1D625D632B
:104F40001F222240012393400E4A1360074B1F701B
:104F50000120D8E70020D6E70120D4E7012004B0E3
:104F600080BCBB46F0BDC046280100D06E1F0020AB
:104F700000400540181F0020FCB5001064B600106A
:104F800020B6001080E200E0EFF3108C72B60B4BFD
:104F90001B68002BFBD0BFF35F8F01238340084ABF
:104FA000136208490A789A430A70BFF35F8F034B74
:104FB00000221A608CF310887047C046280100D088
:104FC000004005406E1F002010B500291DD0037B56
:104FD00099421AD804684B005B18033BE418002977
:104FE00019D0002A1DD0914221D0002A25D0037B60
:104FF0009A4222D8006853009B18033BC31899704B
:10500000217800291FD1227010BD104B104A114881
:10501000682100F0A9FC104B104A0E486F3100F0D7
:10502000A3FC0F4B0D4A0B48702100F09DFC0D4B6B
:105030000A4A0848712100F097FC044B044A0548CD
:10504000682100F091FC59702270DDE7ECB200108D
:105050006CB7001008B3001054B3001058B700101C
:1050600060B300106CB3001070B506000D001400A2
:10507000002914D0002A14D043688068984700287B
:1050800006D0220029003000FFF79EFF280007E02D
:105090002A0021003000FFF797FF200000E01000F9
:1050A00070BD0800FCE7000010B500234373013316
:1050B0008373037BC3730123027B9A4213D9002BB2
:1050C0000BD0027B934208D801685A00D218033AE9
:1050D0008A180133DBB25370EEE70C4B0C4A0D48D3
:1050E000682100F041FC002A09D0924207D80168EB
:1050F00053009B18033BCB1800225A7010BD034B82
:10510000034A0448682100F02FFCC046ECB20010AE
:105110006CB7001008B3001010B5017342608360D3
:10512000FFF7C2FF10BD000070B50400081E00D1DB
:1051300070BD002931D0237B99422ED822684B00C4
:105140005B18033BD3185A78002AF1D02BD0237B6D
:105150009A4228D8216853009B18033BCB185D78EE
:1051600000215970002824D0237B984221D821683F
:1051700043001B18033BCB1800215970010020008D
:10518000FFF772FF060029002000FFF7CDFF0200A5
:1051900031002000FFF768FFCAE7094B094A0A48B7
:1051A000682100F0E1FB064B064A0748682100F041
:1051B000DBFB034B034A0448682100F0D5FBC046E3
:1051C000ECB200106CB7001008B3001070B5050009
:1051D0000C00160000292ED033D0037B994230D822
:1051E00003684900091903395B185A78002A2ED13F
:1051F0009A78002A31D11978FFF796FF0300002E24
:105200000AD0EA7B002A2ED1AA7B002A03D1EA7BAE
:10521000002A3AD1AC73EC73002B3CD1002C4DD05A
:105220002B7B9C424AD82A6863001B19033BD31886
:1052300000225A7070BD244B244A2548382100F0C2
:1052400093FB244B244A2548682100F08DFB244B16
:105250001E4A1F483A2100F087FB224B1B4A1C487C
:105260003B2100F081FB002A09D0297B8A4206D825
:105270002E6851008A18033AB2185470C4E7154BCF
:10528000154A1648682100F06FFB174B0F4A10486B
:10529000422100F069FB002B0AD02A7B934207D8F9
:1052A0002A6843001B18033BD31800229A70B5E705
:1052B000084B094A0948682100F056FB054B064A8D
:1052C0000648682100F050FB80B6001044B700107B
:1052D00088B60010ECB200106CB7001008B30010D4
:1052E000C0B60010E8B6001030B4001070B504006D
:1052F0000A00457B2900FFF769FF6073280070BD35
:1053000070B50400002966D0437B8B420ED0002983
:1053100011D0037B99420ED805684B005B18033B04
:10532000ED18AB78002B0CD1002055E00121FFF7E0
:10533000DDFF012050E0294B294A2A48682100F06E
:1053400013FB002B1FD0027B93421CD800685A002D
:10535000D318033BC218C35C8B421AD0002B1BD05E
:10536000227B934218D820685A00D318033BC018F8
:1053700043788B4216D0002BF0D11B4B1B4A1C48A4
:105380006B2100F0F1FA154B154A1648682100F020
:10539000EBFA6B78137007E0104B114A1148682143
:1053A00000F0E2FA6B7843700023AB706B7001225F
:1053B0002000FFF70BFF0200617B814205D0200037
:1053C000FFF752FE6073012006E00A4B074A0848C7
:1053D000712100F0C9FA002070BDC046ECB2001087
:1053E0006CB7001008B3001094B000102CB7001078
:1053F00088B600100CB7001070B504000D00062030
:1054000000F07EF9C000290001F072FCC60908D046
:105410000E4B9E4217D87F230340013335005E08B0
:1054200000E001256562A6622C3480239B012343A2
:1054300000221A60062000F063F98000A901891992
:1054400001F056FC70BD0026014DEBE7FEFF0000A9
:10545000FFFF0000002909D00A22064B9C46604449
:1054600043425841044B4000C252704780225200D0
:10547000F3E7C0460080FCBF281F002070B5050080
:105480000C00062000F03CF9002829D0164B9D4264
:1054900027D08022D203154B1A60154B1A60154B8A
:1054A0009B6811009943FAD100212800FFF7D2FF31
:1054B00021002800FFF7A0FF29002C31EB6A6022B1
:1054C00053400E321A4080235B010B431A600A4B93
:1054D0002B6380239B010B4310221A600323AB64D0
:1054E00070BD80221204D6E70080034000E0004037
:1054F00000F0004000C0004001030000F8B5DE46A7
:1055000057464E464546E0B506000F0015000A9A7C
:1055100093424ED31A0E92461B0298460A9A0023D3
:105520004046514601F022FC81467400A419A400B3
:105530002E4B9C4664446368834200D26060331FF4
:10554000DBB29B46012B3AD9C0239B012343802227
:1055500012011A60264BB200D158002905D05869B3
:1055600001F0C6FB01300138FDD16D0123685D40BB
:10557000E0222A4080235B0123431A605A46012A15
:1055800028D980239B012343802212011A604B46B5
:1055900063604A4600234046514601F0E7FB144B46
:1055A000B60098510120F0BCBB46B246A946A046C1
:1055B000F8BD104B104A11482D2100F0D5F9012FEC
:1055C000C2D1C0239B01234303221A60A368DB07D7
:1055D000FCD5CAE72168794003220A401A60A36813
:1055E0000125BD401D42FAD0CBE7C04600800040F7
:1055F0002C18002078B70010D0B700108CB700101E
:1056000030B583B00C2000F017F9FEF765F90028DB
:105610000DD0002304E02E4A99002E488850013313
:10562000092BF8D92A4B2C4A5A6203B030BD2B4BB8
:1056300000229A6700F07EF9294B01221A60274B5D
:105640005B6C012BFBD1274B03221A60234B9B6B16
:10565000012BFBD1013300930433234A012123485A
:1056600000F054F805230093214A0121214800F05D
:105670004DF8214B0093002202210420FFF73EFF4A
:105680001E4D00952B00002201210520FFF736FF5B
:10569000104C00942300002200210720FFF72EFF6A
:1056A00000942300002200210820FFF727FF0A4B67
:1056B00000932300002200210920FFF71FFF00951F
:1056C0002B00002200210620FFF718FFADE7C0469F
:1056D0002C180020006CDC021BB70000008000408A
:1056E0003CB0004030B00040002F685900800240BC
:1056F000008C864700C00240001BB700405973076A
:10570000014B8000C05870472C180020F0B5C646E9
:1057100000B504000D00170098460C2001F0E8FACF
:105720000600394BFA18394B9A4241D843011B1AEB
:105730009901C91AC90009188901380001F0D8FA7D
:105740000200103A98235B009A4237D84346013B47
:10575000062B39D8069B013B062B35D83F09B742AB
:1057600038D343461E04069B1B031E432368002BAD
:1057700036DB274B9C4244D080235B01254A1360D3
:10578000254A1360254A926819009143FAD1256091
:10579000A060221DC0239B01134321221A602268AE
:1057A000002AFCDAE66008221A6080BCB846F0BD28
:1057B0001B4B1C4A1C48112100F0D6F81B4B194A00
:1057C0001948192100F0D0F8194B164A16481C2127
:1057D00000F0CAF8174B134A1348232100F0C4F80D
:1057E00022683F231340AB42C3D1A3681B051B0DA6
:1057F0008342BED1E368EE22D2021340B342B8D155
:10580000D3E780239B01B9E780E84BD380F8A93226
:1058100000C0024000E0004000F0004000C0004036
:10582000E0B7001004B9001040B8001080B80010B4
:105830009CB80010E8B8001080239B000343014A85
:10584000D362704700800540024B1A68024B5A60D1
:105850007047C046C81C00200080054010B50200FB
:10586000164B8020C0051860154B1648186000299B
:105870000AD0154BE021C9041960002A09D1124B46
:10588000802212061A6010BD0C4BE021C904196079
:10589000F3E753019B1A9800801800010B4B186026
:1058A00080235B04984202D3084B094A1A60FFF731
:1058B000CBFF054B8022D2051A60E4E700B005401B
:1058C00008200140FCFF010000A00540C81C00208A
:1058D000FFFFFF0010B5034B034ADA61FFF7BEFF7D
:1058E00010BDC046008005402131B76A10B50300E5
:1058F00010000C4A8024E4051460002B0DD0012216
:105900001343094A094CD461094C5C40146251624A
:1059100093620021FFF7A2FF10BD034B0022DA6162
:10592000F7E7C04600B0054000800540D3C007B08F
:105930002D3FF84F064BAA2212011A602F22DA607F
:10594000044B054A1A60024B5B68002BFBDA704778
:10595000004002400060024000B0FA0000BEFDE7D7
:1059600010B5FFF7FBFF000030B583B00D00190044
:10597000002A0DD0084B002A0CD0084C019200934D
:105980002B000200200002F063FA0120FFF7E6FF7F
:10599000034BF0E7024AF0E710B9001020B90010FD
:1059A0001CB9001070B52B4B2B4A1A602B4B2C4A9C
:1059B0001A602C4B9A682A4B9343FAD12A4C01E087
:1059C00008CC9847294B9C42FAD3FFF719FE234B8A
:1059D000274A1A60234B9B68DB43DB01FAD1254B36
:1059E00040229A675A671A67DA66234C09E0234B0C
:1059F000234A24488621FFF7B7FF2000FEF756FB15
:105A00000834214B9C4209D22368002BF5D0012B8E
:105A1000EDD12000FEF757FB0834F2E71B4DA968D3
:105A20001B4CC022200002F0BBF8AC60EFF30583F2
:105A3000002B00D000BEFDF7B1FFFEF70BFBFEF719
:105A4000BDFE144C01E008CC9847134B9C42FAD39E
:105A500070BDC04600E00040BFCDFBFE00F000403E
:105A6000FE7F3C0000C00040800C0020900C002015
:105A7000FFFFFF0100F00140780C002050B900103A
:105A8000C8B9001070B90010800C002000ED00E0D3
:105A900000000020900C0020980C00200FB400B5EE
:105AA00083B0084802F0A4F9049B002B07D005A995
:105AB0000191180002F0ACF9034802F099F90120B5
:105AC000FFF74CFFB4B90010C4B90010704710B50F
:105AD000002802D00B684968984710BD01000020DB
