:020000041000EA
:1000000000B5324B212058609868022188439860DF
:10001000D860186158612E4B002199600221596106
:100020000121F02299502B49196001219960352056
:1000300000F044F80222904214D00621196600F024
:1000400034F8196E01211966002018661A6600F04E
:100050002CF8196E196E196E052000F02FF8012189
:100060000842F9D1002199601B49196000215960AB
:100070001A491B48016001219960EB211966A021F2
:10008000196600F012F800219960164914480160C1
:100090000121996001BC002800D000471248134993
:1000A000086003C880F30888084703B5996A0420EC
:1000B0000142FBD001200142F8D103BD02B5186610
:1000C0001866FFF7F2FF186E186E02BD00000240BE
:1000D000000000180000070000035F00212200005C
:1000E000F4000018222000A00001001008ED00E03C
:1000F00000000000000000000000000074B24E7A12
:1001000000200420F7010010C3010010C5010010F9
:10011000C1010010C1010010C1010010C101001097
:10012000C1010010C1010010C1010010C701001081
:10013000C1010010C1010010C9010010CB01001065
:10014000CD010010CD010010CD010010CD01001037
:10015000CD010010CD010010CD010010CD01001027
:10016000CD010010CD010010CD010010CD01001017
:10017000CD010010CD010010CD010010CD01001007
:10018000CD010010CD010010CD010010CD010010F7
:10019000CD010010CD010010CD010010CD010010E7
:1001A000CD010010CD010010CD010010CD010010D7
:1001B000CD010010CD010010CD010010CD010010C7
:1001C00000BE00BE00BE00BE00BE00BE00F04BF888
:1001D000103800BEF2EB887114BF001038BF001059
:1001E0003402001090A31AE700202149086006C8D5
:1001F00081F3088810471F48006800282FD10DA4FC
:100200000ECC002902D000F012F8F9E71A491B4A77
:10021000002000E001C19142FCD1194988471949E9
:1002200088471949884700BEFDE701C901C29A42C3
:10023000FBD3704738BF0010C00000202805002005
:10024000A0C300100000042000000420A0C3001080
:1002500000100420001004200000000070470B482C
:1002600005F02AFF0047EFF30580C0B27047000099
:1002700008ED00E0000000D030050020B41600209A
:10028000B949001099110010754900105756000027
:1002900006005250ABB36053CCB60010060052506B
:1002A000861C0302DCB60010060052505422A29DA8
:1002B000E0B6001005005250DE65F468A0C30010DF
:1002C000F8B5C04606480749091A8B10C90FC91866
:1002D00010B5491003D0044B002B00D0984710BD37
:1002E000280500202805002000000000054B10B55F
:1002F000002B03D00449054800E000BFFFF7E2FFF0
:1003000010BDC046000000001814002040A50010D9
:10031000014B01221A707047A4160020274B1B784E
:10032000002B1AD0D0231B0640225A6140325A615A
:10033000234B1B889BB2002B04D0214A1388013B1E
:100340009BB213801F4B1B889BB2002B04D01D4A0D
:100350001388013B9BB2138070471B4B1B78002B0B
:1003600003D0D0231B0640225A61184B1B78002B68
:1003700003D0D0231B0680225A61154A137801331B
:10038000DBB21370132B08D9D0231B0640229A61CD
:100390000D4B00221A700E4B1A700E4A137801335F
:1003A000DBB21370132BC3D9D0231B0680229A61B2
:1003B000064B00221A70074B1A70B9E7A6160020E8
:1003C0008816002082160020A9160020AA160020F8
:1003D000A1160020A2160020D0231B065B689B01FB
:1003E00005D5D0231B06802292049A617047D02342
:1003F0001B06802292045A61F8E7000010B5404BBA
:100400009B68404A1278DBB23F498B54552B2ED063
:10041000511E3D48415C552933D055293FD0931E8C
:100420003948C05C55283FD0D31E3749C95C55298F
:1004300048D0131F3448C05C55284AD0531F324956
:10044000CB5C552B4CD0063A2F498A5C552A10D1EB
:10045000102B0ED12D4BDA78294B9A6008006422BC
:10046000002106F0AFFD274B00221A7001E0244A5C
:100470009360244A13780133DBB21370642B36D0B7
:1004800010BD092BC9D8224A13706422002106F03E
:1004900099FD204B00221A701A4B1A70E9E7102BB5
:1004A000BDD1174A9360E4E71029BDD1194B1B78E1
:1004B000002B03D0124B0F229A60DAE7104B0B226D
:1004C0009A60D6E71028B4D1104B1A780C4B9A607A
:1004D000CFE71029B2D10D4B5A78094B9A60C8E783
:1004E0001028B0D1094B9A78054B9A60C1E70648AD
:1004F0006422002106F066FD024B00221A70BFE75D
:1005000000C003409C160020A80900200C0A00200F
:10051000A316002020040020F0B5C64600B584B024
:1005200004000E0017001D0003F092FB8046E11747
:10053000FA2292000023200006F056FC02000B0075
:10054000029501970096404603F0CAFC04B080BCB7
:10055000B846F0BD82B03E4B9B6910210A001A409C
:10056000194208D03B4B9B6910210A001A401942DE
:1005700038D002B07047384B0F391970374B188894
:1005800080B26B46D91D002A09D1314B9B69DB062D
:10059000FBD42F4B1B680B7001320131F3E76B4624
:1005A000DA792F4B1A542D4A138801339BB21380EA
:1005B00013889BB28C22520093420BD0244B5B6871
:1005C000012B0BD0224B5B68082BD2D1254B082284
:1005D0001A60CEE7214B00221A80EFE7214B01225F
:1005E0001A60EFE7204B0F39197020490B8898B239
:1005F00001339BB20B806B46D91D08E0154B9B69FC
:10060000DB06FBD4134B1B680B7001320131002A4F
:10061000F4D06B46DA79164B1A54144B1B889BB2F4
:100620008C22520093420BD00A4B5B68012B0BD0FB
:10063000084B5B68082B9CD10E4B08221A6098E788
:100640000A4B00221A80EFE70A4B01221A60EFE7FB
:100650000080034000400340A91600208C160020B3
:100660003005002004B00340AA1600209016002098
:10067000500600200470034010B5204B00221A8061
:1006800004E01E4A138801339BB213801B4B1A8867
:1006900092B21B4B1B889BB29A4206D2174B1B8807
:1006A0009BB2184AD35C102BEBD1144B1B88164914
:1006B0001448C018022209F05FFE00280AD1104B2E
:1006C0001B889BB20D4A138001300D4B1A880F4BCB
:1006D0001A8010BD094B1B880D490A48C018022218
:1006E00009F04AFE002806D1054B1B889BB2034A3D
:1006F00013800230E9E70920E7E7C0468E160020A4
:100700009016002050060020BCA50010981600206E
:10071000ECA5001000B5172800D9FDE18000E84BDA
:100720001B589F46D0231B06802252039A618022C9
:1007300012039A618022D2029A61802292035A6146
:100740008022D2049A61802212059A6100BDD023D2
:100750001B06802252039A61802212039A61802232
:10076000D2025A61802292035A618022D2049A6195
:10077000802212059A61E9E7D0231B0680225203EA
:100780009A61802212035A618022D2029A618022E9
:1007900092035A618022D2049A61802212059A61E2
:1007A000D4E7D0231B06802252039A6180221203D1
:1007B0005A618022D2025A61802292035A618022B9
:1007C000D2049A61802212059A61BFE7D0231B06EA
:1007D000802252035A61802212039A618022D2023F
:1007E0009A61802292039A618022D2049A618022C7
:1007F00012055A61AAE7D0231B06802252039A6190
:10080000802212039A618022D2029A61802292038E
:100810009A618022D2049A61802212055A6195E77A
:10082000D0231B06802252035A61802212039A6150
:100830008022D2029A61802292035A618022D204DD
:100840009A61802212059A6180E7D0231B068022DC
:1008500052035A61802212039A618022D2025A61A5
:10086000802292035A618022D2049A61802212056A
:100870009A616BE7D0231B06802252035A618022C3
:1008800012035A618022D2029A61802292035A6135
:100890008022D2049A61802212059A6156E7D02301
:1008A0001B06802252035A61802212035A61802261
:1008B000D2025A61802292035A618022D2049A6144
:1008C000802212059A6141E7D0231B068022520341
:1008D0005A61802212039A618022D2025A618022D8
:1008E00092039A618022D2049A61802212055A6191
:1008F0002CE7D0231B06802252039A618022120328
:100900009A618022D2025A61802292039A618022E7
:10091000D2049A61802212055A6117E7D0231B0680
:10092000802252039A61802212039A618022D202AD
:100930009A61802292039A618022D2045A618022B5
:1009400012059A6102E7D0231B06802252039A61A6
:10095000802212039A618022D2025A61802292037D
:100960009A618022D2045A61802212059A61EDE6D2
:10097000D0231B06802252039A61802212035A61FF
:100980008022D2029A61802292039A618022D2044C
:100990005A61802212059A61D8E6D0231B06802274
:1009A00052039A61802212035A618022D2025A6154
:1009B000802292039A618022D2045A618022120519
:1009C0009A61C3E6D0231B06802252035A6180221B
:1009D00012035A618022D2029A61802292039A61A4
:1009E0008022D2049A61802212055A61AEE6D02399
:1009F0001B06802252039A61802212035A618022D0
:100A0000D2029A61802292039A618022D2049A6172
:100A1000802212055A6199E6D0231B0680225203D8
:100A20005A61802212039A618022D2029A61802246
:100A300092039A618022D2045A61802212059A613F
:100A400084E6D0231B06802252035A6180221203BF
:100A50009A618022D2025A61802292039A61802296
:100A6000D2045A61802212059A616FE6D0231B06D8
:100A7000802252035A61802212035A618022D202DC
:100A80009A61802292039A618022D2045A61802264
:100A900012059A615AE6D0231B06802252035A613E
:100AA000802212035A618022D2025A61802292036C
:100AB0009A618022D2045A61802212059A6145E629
:100AC00040A50010D0231B06802252035A618022C9
:100AD00012035A618022D2025A61802292039A61E3
:100AE0008022D2049A61802212055A612EE6D02318
:100AF0001B06802252039A61802212035A618022CF
:100B0000D2025A61802292039A618022D2049A61B1
:100B1000802212055A6119E6D0231B068022520357
:100B20009A61802212039A618022D2029A61802205
:100B300092039A618022D2049A61802212059A61FE
:100B400004E6C04630B587B003AA344B30CB30C280
:100B50001B881380002804D0012830D0002007B063
:100B600030BD03AAA82313702D480023009301333E
:100B7000682109F06BFB6420002103F07BFA294B0C
:100B800064221A80264800230093033303AA6821B5
:100B900009F068FB0A20002103F06CFA214B1B8846
:100BA0009BB2002B04D003AB9B785BB2002BE9DB3C
:100BB00003AB187800025B78C01880B2CFE703AAB5
:100BC000882313701648002300930133682109F02D
:100BD0003DFB6420002103F04DFA124B64221A8081
:100BE0000F4800230093033303AA682109F03AFB5E
:100BF0000A20002103F03EFA0A4B1B889BB2002B0F
:100C000004D003AB9B785BB2002BE9DB03AB187815
:100C100000025B78C01880B2A1E7C046B0A5001002
:100C2000000500208216002010B50020FFF78AFF83
:100C30000200114B1B8883420ED2C31A9BB20F498C
:100C40008B4206D80E4B1B88934208D90D4B0122CC
:100C50001A70094B188010BD1B1A9BB2EFE7094BA5
:100C60001B78002BF5D0084B1B889342F1D2054B23
:100C700000221A70EDE7C0469A1600208713000084
:100C800094160020A61600209616002010B5040029
:100C90000100044803F02CFE2100034803F028FE65
:100CA00010BDC046008003400040034010B504F072
:100CB000C7F810BDF0B5D6464F464646C0B5CEB0D3
:100CC00000234D934C931422002101A806F07AF9D9
:100CD000AE4B1B78012B0FD0022B57D0AC4B01220F
:100CE0001A70AA4B00221A70FFF7E0FF4EB0E0BC6A
:100CF000BA46B146A846F0BDA54B00241C70A548D5
:100D00003022002106F05EF9A34B1C60002700256D
:100D10002BE0642003F0DAF90134E4B29D4B720059
:100D2000D35A002B0ED1042C0CD82E000120FFF733
:100D300009FF984B6A00D05200B20028E9DA00217E
:100D4000D152E6E7052C1AD0924B7200D35A642B8D
:100D500018D90123B3401F433A0C8F4B1A703A0A3B
:100D60005A709F70DD700135EDB2172DB6D828008E
:100D7000FFF7D0FC0A2003F0A9F90024D5E7FFF71C
:100D800095FFE1E70123B3409F43E5E7804B002552
:100D90001D70824C30220021200006F013F9200043
:100DA00060383022002106F00DF92000303030226A
:100DB000002106F007F9200030383022002106F02B
:100DC00001F94D954C95744B1D608C225200002109
:100DD00006A806F0F7F800239946002455E1704B69
:100DE0009B699B06FBD408786D4B1860013201317A
:100DF0000D2AF4D96B4B64221A806A4B1B889BB274
:100E0000002BFAD1684A1588ADB21A00002706E017
:100E10007818664E365C06A84654013292B2AA4251
:100E20001FD211006148805C1028F1D1501C5F4E28
:100E3000305C1028ECD1B818365C06A8865401370F
:100E4000FFB2013292B2E8E71900A73106AA505C5E
:100E50004CA9C8541900AB31515C4DAAD15401338F
:100E60009BB2032BF0D94C984D9F514905F0F9FFE7
:100E700006F000F886B24E49381C05F0F2FF05F086
:100E8000F9FF85B2474B64221A804A4B00221A8030
:100E9000454B1A80484908E0414B9B699B06FBD4AF
:100EA00008783F4B186001320131082AF4D9414BD0
:100EB0001A8801323C4B1B889BB29A4204DB394BA7
:100EC0001B889BB2002BF2D1FFF7D6FB012806D07E
:100ED000384B00221A80344B1A80374979E0314B65
:100EE0001B889BB2002BF3D0324B00221A802E4B72
:100EF0001A80324908E02A4B9B699B06FBD408788C
:100F0000274B186001320131072AF4D9294B1A887E
:100F10000132254B1B889BB29A4204DB214B1B8874
:100F20009BB2002BF2D1FFF7A7FB01280ED001AB3B
:100F300018885A8880189B88C018032105F0E8F8A3
:100F4000144A230018335B00D052C1E7154B1B88AD
:100F50009BB2002BEBD01422002101A806F032F83E
:100F6000002706E00A2003F0B1F80137FFB2022F94
:100F7000DDD80120FFF7E6FD7B0001AA985200B200
:100F80000028EFDA00219952ECE7C046A3160020B2
:100F900020040020B80800200C0A00204809002086
:100FA00000400340881600209016002050060020C4
:100FB00000007A448E160020C0A50010E4A50010A1
:100FC000694B9B699B06FBD40878674B186001321C
:100FD0000131082AF4D9654B1A880132644B1B8809
:100FE0009BB29A4204DB634B1B889BB2002BF2D16D
:100FF000FFF742FB01285BD0A2465F4A230018336B
:101000005B001700985A05F08FFB5C4A5C4B05F0BB
:10101000FCFA05F0C5FB83B29846230030335B0031
:101020004246DA53230048335B00D85B05F07CFB73
:10103000544A554B05F0E9FA05F0B2FB80B22300A3
:1010400060335B00D853434632000A3A42450ADC1B
:101050000A36B34207DC2B000A3B834203DC0A3525
:10106000A84200DC7AE00123524693404A469A4364
:1010700091464B461A0C454B1A704A46120A5A7052
:101080004A469A70DC700134E4B2172C00D925E688
:10109000364B00221A80364B1A80FFF707FE2000DD
:1010A000FFF738FB0A2003F011F8002238499FE6C9
:1010B000304B1B889BB2002B9ED02C4B00221A80F9
:1010C0002B4B1A80334908E0274B9B699B06FBD4C6
:1010D0000878254B186001320131072AF4D9234BD7
:1010E0001A880132224B1B889BB29A4204DB214BA7
:1010F0001B889BB2002BF2D1FFF7BEFA01280ED05D
:1011000001AB18885A8880189B88C018032104F006
:10111000FFFF194A230048335B00D0526CE7154BA0
:101120001B889BB2002BEBD01422002101A805F0F4
:1011300049FF002706E00A2002F0C8FF0137FFB28E
:10114000022FDDD80120FFF7FDFC7B0001AA985299
:1011500000B20028EFDA00219952ECE70123A34006
:101160004A461A43914684E7004003408E16002009
:101170009016002088160020B8080020AE47E17ABB
:10118000146E22404C37894160A522400C0A002091
:10119000D4A50010CCA50010F8B5DE4657464E4643
:1011A0004546E0B506F064F8122001F0F1FD132089
:1011B00001F0EEFD142001F0EBFD152001F0E8FD3B
:1011C0001A2001F0E5FD1B2001F0E2FD192001F0DD
:1011D000DFFD072001F0DCFD062001F0D9FD16201F
:1011E00001F0D6FDD02424068023DB0299466362F9
:1011F00080231B039846636280235B039C466362E3
:101200008026B60366628025ED04656280200005B5
:10121000606280218904616280226262402363628D
:101220008027FF03BB4667624F46A7614746A76119
:101230006746A761A661A561A061A161A261A361E2
:101240005B46A3618B4B8C4900228C48FFF764F905
:101250008B4B8C4900220A20FFF75EF98A4B8B49A1
:10126000FA225200904600224046FFF755F9884E78
:10127000884D3100280008F099FF00220021280045
:1012800008F0C0FF03210D2001F050FD03210C20C8
:1012900001F04CFD002201210D2001F05FFD002234
:1012A00001210C2001F05AFD7B4D3100280009F08E
:1012B0002FF80426794B1E600121052001F036FD30
:1012C0000121032001F032FD0121042001F02EFD57
:1012D0000121022001F02AFD01220021032001F05A
:1012E0003DFD6E616E49122001F08EFE012112203B
:1012F00001F060FE96231B0299466A4E19003000E9
:1013000003F0F6FA0221092001F010FD0221082065
:1013100001F00CFD644D4946280003F0E9FA022172
:10132000102001F003FD0221112001F0FFFC336BBE
:10133000C0221202944613405C4A1360F36A602094
:1013400043406E2213405A4989460B60F16A1023CC
:1013500019404F463960296B67463940554F39600F
:10136000E96A41400A4054490A60EA6A13400B6046
:10137000524B9A4619004B3801F046FE01211520C8
:1013800001F018FE50239946B363736B382633403F
:101390004B4A13605146142001F036FE01211420FF
:1013A00001F008FE4B46AB636B6B1E40454B1E6065
:1013B000454A00231370454A1370454A1370454A45
:1013C00013705B466361444B42461A80424B1B8854
:1013D0009BB2002BFAD1414A1380414A1380414A03
:1013E0001380414A1380414B414A1A80414B424A83
:1013F0001A8013E0FFF75EFC16E0FFF715FC3F4B89
:1014000000221A7014E000F0A1FF07E000F000F9DC
:1014100004E0D0231B068022D2039A61FFF746FC2A
:10142000374B1B78002BE5D1344B1B78002BE4D1D4
:10143000254B1B78002BECD1D0231B068022D20336
:101440005A61304B00221A7000F022FA0028E5D0D1
:101450002D4B1B889BB2022BD8D11C4B1B78002B29
:10146000D1D01A4B00221A70274B1A8001F078FB5A
:10147000D4E7C0468808002011030010881300003C
:10148000700800201D030010A0080020D9030010E0
:10149000A08601000005002000C0034004E00340D6
:1014A000FD030010008003400040034030900340E3
:1014B0002C900340305003402C5003405505001041
:1014C0003490034034500340A6160020A816002094
:1014D000A9160020AA160020881600208A160020CF
:1014E0008C1600208E1600209016002094160020E6
:1014F00049320000961600202B380000A416002068
:10150000A3160020A5160020861600200F4B1A886F
:1015100092B20F4B1B889BB29A4215D00B4A13888C
:1015200099B201339BB213800A4B5B5C0370138842
:101530009BB28C225200934201D001207047034B92
:1015400000221A800120F9E70020F7E78A16002020
:101550008C160020300500200F4B1A8892B20F4BDA
:101560001B889BB29A4215D00B4A138899B201335B
:101570009BB213800A4B5B5C037013889BB28C2276
:101580005200934201D001207047034B00221A8081
:101590000120F9E70020F7E78E16002090160020C2
:1015A0005006002030B583B00400174B9B6908211A
:1015B0000A001A401942F8D1144B02215B5EA34283
:1015C0000ED06B46D91D0C70002A1AD10E4B9B69A8
:1015D0009B06FBD408780C4B186001320131F3E70D
:1015E0006B46D91D0D230B7010000028E9D1064B66
:1015F0009B699B06FBD40D78034B1D6001300131C4
:10160000F3E703B030BDC0460080034068160020F9
:1016100030B583B06B460022DA7107E06B460733C2
:101620001B781A2B1FD0192B00D1BBE0744B1B88E1
:101630009BB2002B00D197E06B46D81DFFF78CFFC3
:101640000128F3D16B4607331B78102BEED16B4684
:10165000D81DFFF781FF0128E0D0694B1B889BB2A2
:10166000002BF4D1DAE76B46D81DFFF775FF012890
:1016700004D0634B1B889BB2002BF4D16B46DC7902
:10168000E51D06E06B4607331B78102B14D0013C98
:10169000A4B2002C20D05A4B1B889BB2002B1BD02D
:1016A0006B46D81DFFF758FF0128EBD0544B1B8821
:1016B0009BB2002BF4D1E5E76B46D81DFFF74CFF3A
:1016C000012804D04E4B1B889BB2002BF4D1013C67
:1016D000A4B20135ADB2DCE76B46D81DFFF73CFF85
:1016E000012804D0464B1B889BB2002BF4D16B46DB
:1016F000D81DFFF731FF012804D0414B1B889BB256
:10170000002BF4D16B46D81DFFF726FF012804D02B
:101710003B4B1B889BB2002BF4D16B46D81DFFF7C7
:101720001BFF012804D0364B1B889BB2002BF4D141
:10173000344B1B78002B04D1334B1C88641BA4B2A0
:1017400010E01020FFF72EFF2120FFF72BFF2F4B7B
:101750001878FFF727FFEFE72D4B185DFFF722FF03
:101760000134A4B2A542F7D8254B1B889BB2002BAD
:101770002ED028488C256D002A00002105F022FC7F
:10178000254B00241C80254B1C8021482A00002169
:1017900005F018FC1C4B1C801C80194B188880B26B
:1017A00003B030BD6B46D81DFFF7D6FE012804D02C
:1017B000134B1B889BB2002BF4D11020FFF7F2FED5
:1017C0001920FFF7EFFE6B46D879FFF7EBFECBE76A
:1017D000134A1378013313701020FFF7E3FE212022
:1017E000FFF7E0FE094B1878FFF7DCFE1020FFF74B
:1017F000D9FE1920FFF7D6FE8220FFF7D3FEB8E707
:1018000088160020A716002090160020AC16002095
:1018100050060020300500208A1600208C1600207B
:10182000B216002030B583B00400174B9B69082125
:101830000A001A401942F8D1144B00215B5EA34202
:101840000ED06B46D91D0C70002A1AD10E4B9B6925
:101850009B06FBD408780C4B186001320131F3E78A
:101860006B46D91D0D230B7010000028E9D1064BE3
:101870009B699B06FBD40D78034B1D600130013141
:10188000F3E703B030BDC0460040034068160020B7
:10189000F0B5CE46474680B583B000236A46D37183
:1018A000B54A1370B54A1380B54BFA2252001A801C
:1018B000002600270125002D01D100F01FFDB04BAF
:1018C0001B889BB2002B01D100F018FD6B46D81D80
:1018D000FFF71CFE04000128EDD1A94B64221A80F9
:1018E0006B4607331B78102B02D000260027E2E757
:1018F000FF18BFB23102360A7340A24A5B009E5AFB
:101900004E40B6B26B46D81DFFF700FE012804D04A
:101910009B4B1B889BB2002BF4D16B4607331B7883
:10192000132B1FD0152B00D1FEE2212BC3D1944BDA
:101930001B889BB2002BBED06B46D81DFFF7E6FD7F
:10194000012804D08E4B1B889BB2002BF4D18A4B0C
:1019500001221A708C4B6A46073212781A700026E0
:101960000027A8E7864A128892B2002ADAD0834A72
:1019700001211180FF18BFB23102360A7340814A3B
:101980005B009E5A4E40B6B26B46D81DFFF7BEFDB7
:10199000012804D07A4B1B889BB2002BF4D16B46F4
:1019A00007331B78FF2B00D040E2754A128892B2B1
:1019B000002A00D13AE2FF18BFB23102360A734062
:1019C000704A5B009E5A4E40B6B26B46D81DFFF778
:1019D0009DFD012804D06A4B1B889BB2002BF4D1DB
:1019E000674B1B889BB2002B01D1002563E76B4638
:1019F00007331B7898B2DF19BFB23502320A5A405A
:101A000060495200565A6E40B6B2002819D15F4B59
:101A100001221A706B4607331B78102B19D06B46C6
:101A2000D81DFFF773FD012804D0554B1B889BB2CE
:101A3000002BF4D1524B1B889BB2002B22D10025E6
:101A400039E7524A00211170013BD8B2FEF762FE1D
:101A5000E0E76B46D81DFFF759FD012804D0484B3D
:101A60001B889BB2002BF4D16B4607331B78FF1801
:101A7000BFB23102360A7340424A5B009E5A4E4062
:101A8000B6B2CCE76B46DA79414B1A70BF18BFB2D9
:101A90003002330A53403B495B005E5A4640B6B2BF
:101AA000102A11D06B46D81DFFF730FD012804D055
:101AB000334B1B889BB2002BF4D1314B1B889BB25C
:101AC000002B1AD10025F6E66B46D81DFFF71EFD48
:101AD000012804D02A4B1B889BB2002BF4D16B4603
:101AE00007331B78FF18BFB23102360A7340254A0C
:101AF0005B009E5A4E40B6B2D4E76B4607331B7864
:101B0000FF18BFB23102360A73401E4A5B009E5A6C
:101B10004E40B6B26B46D81DFFF7F8FC012804D042
:101B2000174B1B889BB2002BF4D1154B1B889BB223
:101B3000002B01D10025BEE66B4607331B78FF184A
:101B4000BFB23102360A73400E4A5B009E5A4E40C5
:101B5000B6B26B46D81DFFF7D9FC012804D0084B5C
:101B60001B889BB2002BF4D1054B1B889BB2002B2A
:101B700010D100259FE6C046A7160020861600203B
:101B800088160020FCA50010AC160020A516002029
:101B9000AB1600206B46DD792D026B46D81DFFF792
:101BA000B5FC012804D0974B1B889BB2002BF4D1C5
:101BB000944B1B889BB2002B00D190E36B460733FC
:101BC0001B78EB189BB29F4202D09E4215D1022493
:101BD0000A2002F07BFA8C4B1B78002B18D18B4B20
:101BE00000221A808A4B1B78DDB293421CD0894BAD
:101BF0001B78FD2B57D000255DE61020FFF7D2FCA7
:101C00001920FFF7CFFC0620FFF7CCFC0024DFE70C
:101C1000162281498148FF3208F0D2FB804A13889E
:101C2000033B9BB21380DAE7904619E07B4B4A46B0
:101C3000985CFFF7F7FD012C24D074490B8818023B
:101C40001B0A9C46754A4B46D25C63465340754A14
:101C50005B009B5A43400B80434601339BB298463E
:101C6000C1466F4B1B88023B984513DA4346022B53
:101C7000F2D0032BF0D0042BD8D1684BDB78102B9B
:101C8000D4D1E9E7654B4A469B5C604A11885B18F2
:101C90001380E1E75D4C2088000AFFF7C3FD207840
:101CA000FFF7C0FD07E61020FFF77CFC012C00D1F8
:101CB0007FE056490A881002120A10235340594AFD
:101CC0005B009B5A43400B801A20FFF76BFC012CF2
:101CD00000D173E04D490A881002120A1A235340BA
:101CE000504A5B009B5A43400B800220FFF75AFC8E
:101CF000012C68D045490A881002120A0223534079
:101D0000484A5B009B5A43400B80474B1878FFF7CB
:101D100049FC012C5CD03D490A881002424B1B88CB
:101D20001B0A120A53403F4A5B009B5A43400B80F8
:101D30003D4B1888000AFFF735FC012C50D0334981
:101D40000B8818021B0A384A12785340354A5B0048
:101D50009B5A43400B801020FFF724FC012C46D0F7
:101D60002A490A881002120A102353402D4A5B00A8
:101D70009B5A43400B801F20FFF714FC012C3BD0E3
:101D800022490A881002120A1F235340254A5B0089
:101D90009B5A43400B801D4C2088000AFFF702FC31
:101DA0002078FFF7FFFB1A4B00251D70194B1D70A3
:101DB00081E5164A13881033138085E7134A138888
:101DC0001A33138091E7114A1388023313809CE77A
:101DD0000E4A154B1B881B0A11885B181380A7E756
:101DE000114B1B78094A11885B181380B3E7074A27
:101DF000138810331380BEE7044A13881F331380FF
:101E0000C9E7C04688160020A716002084160020C7
:101E1000A5160020AB160020330500203005002059
:101E20008A160020FCA5001092160020002B04D179
:101E3000B44B1B889BB2002B6AD16B46D81DFFF7B1
:101E400065FB012804D0AF4B1B889BB2002BF4D15B
:101E50006B46D81DFFF75AFB012804D0A94B1B88FD
:101E60009BB2002BF4D16B46D81DFFF74FFB012826
:101E700004D0A44B1B889BB2002BF4D16B46D81D19
:101E8000FFF744FB012804D09E4B1B889BB2002B1C
:101E9000F4D16B46D81DFFF739FB012804D0994BCC
:101EA0001B889BB2002BF4D197488C225200002152
:101EB00005F088F8954B01221A70954B00221A8084
:101EC000944B1A801020FFF76DFB2120FFF76AFB6F
:101ED000914B1878FFF766FB1020FFF763FB1A2081
:101EE000FFF760FB0220FFF75DFB0120FFF75AFBC5
:101EF0001820FFF757FB1020FFF754FB1F20FFF7B8
:101F000051FB0020FFF74EFB7420FFF74BFBD2E4A0
:101F10006B46D81DFFF7FAFA01288ED0794B1B8843
:101F20009BB2002BF4D188E7764A128892B2002A3D
:101F300000D1FAE4734A64211180FF18BFB2310264
:101F4000360A7340754A5B009E5A4E40B6B26B46E5
:101F5000D81DFFF7DBFA012804D06A4B1B889BB21F
:101F6000002BF4D16B4607331B78E52B26D06B464C
:101F7000D81DFFF7CBFA012804D0624B1B889BB217
:101F8000002BF4D16B4607331B78A22B26D06B466F
:101F9000D81DFFF7BBFA012804D05A4B1B889BB20F
:101FA000002BF4D16B46DA79FD2A00D89AE1554B23
:101FB0001B889BB2002B21D100257CE4514A12885A
:101FC00092B2002AD3D0FF18BFB23102360A734052
:101FD000524A5B009E5A4E40B6B2C8E7494A128840
:101FE00092B2002AD3D0FF18BFB23102360A734032
:101FF0004A4A5B009E5A4E40B6B2C8E7BF18BFB20D
:102000003002330A534045495B005E5A4640B6B23F
:10201000FE2A36D0424B00221A706B46D81DFFF7BD
:1020200075FA012804D0374B1B889BB2002BF4D1E2
:10203000344B1B889BB2002B00D156E16B46DC79F8
:10204000A1B2E719BFB23002330A6340334A5B00E2
:102050009E5A4640B6B2002917D1324B01221A705F
:102060006B4607331B78102B17D02D4B1B78002B9A
:102070002CD0244B1B889BB2002B57D10025FFF797
:102080001AFC274BFD3A1A70C7E7264B00221A703C
:10209000601EC0B2FEF73EFBE2E76B46D81DFFF7BD
:1020A00035FA012804D0174B1B889BB2002BF4D1C2
:1020B0006B4607331B78FF18BFB23102360A7340F4
:1020C000164A5B009E5A4E40B6B2CEE76B46D81D0C
:1020D000FFF71CFA012804D00A4B1B889BB2002B87
:1020E000F4D16B4607331B780F4A1370FF18BFB249
:1020F0003102360A7340094A5B009E5A4E40B6B21E
:10210000B7E7C0468816002030050020A71600203B
:102110008A1600208C160020AC160020FCA50010AA
:10212000A8160020A5160020AB1600206B4607332A
:102130001B78102B29D06B46D81DFFF7E7F9012833
:1021400004D07C4B1B889BB2002BF4D1794B1B88AD
:102150009BB2002B00D1CBE06B4607331B78FF18F6
:10216000BFB23102360A7340734A5B009E5A4E403A
:10217000B6B2724B1B78002B20D06E4B1B889BB2E3
:10218000002B34D10025FFF796FB6B46D81DFFF7D7
:10219000BDF9012804D0674B1B889BB2002BF4D1FA
:1021A0006B4607331B78FF18BFB23102360A734003
:1021B000614A5B009E5A4E40B6B2BCE76B46D81DE2
:1021C000FFF7A4F9012804D05A4B1B889BB2002BBF
:1021D000F4D16B4607331B78FF18BFB23102360AC1
:1021E0007340554A5B009E5A4E40B6B2C5E7534B0A
:1021F0001B78002B01D0102C12D16B46D81DFFF795
:1022000085F9012804D04B4B1B889BB2002BF4D1DD
:10221000484B1B889BB2002B1BD10025FFF74BFBC3
:102220006B46D81DFFF772F9012804D0414B1B887B
:102230009BB2002BF4D16B4607331B78FF18BFB25B
:102240003102360A73403C4A5B009E5A4E40B6B299
:10225000D3E76B46DC7924026B46D81DFFF756F9AD
:10226000012804D0334B1B889BB2002BF4D1334B95
:102270001B78304B1B889BB2002B3CD06B4607333E
:102280001B78E3189BB2BB4201D0B34212D10A20A3
:1022900001F01CFF2A4B1B78002B15D11020FFF7F3
:1022A00081F91620FFF77EF9264B02221A800025BD
:1022B000FFF701FB1020FFF775F91920FFF772F9FE
:1022C0000620FFF76FF9E2E71020FFF76BF92120F6
:1022D000FFF768F91C4B1878FFF764F9DEE7002573
:1022E000FFF7E9FA0025FFF7E6FA0025FFF7E3FA22
:1022F0000025FFF7E0FA0025FFF7DDFA0D4B1B88FC
:102300009BB2002B03D10E4B1B78002B07D1094B3E
:10231000188880B203B0C0BCB946B046F0BD1020EA
:10232000FFF740F91920FFF73DF90120FFF73AF9CF
:10233000EDE7C04688160020FCA50010A816002076
:10234000A716002086160020AC160020F0B5DE4649
:1023500057464E464546E0B585B002AB0022DA71DD
:1023600000260025002300930124002C00D1C4E3A3
:10237000C24B1B889BB2002B00D1BEE302ABD81D21
:10238000FFF7C4F807000128EFD1BC4BFA22520036
:102390001A8002AB07331B78102BE6D1B84A12889B
:1023A000ED18ADB23102360A7340B64A5B009E5A50
:1023B0004E40B6B202ABD81DFFF7A8F8012804D0F2
:1023C000AE4B1B889BB2002BF4D102AB07331B78BA
:1023D0001A2BCAD1A94A128892B2002AC5D0ED1888
:1023E000ADB23102360A7340A64A5B009E5A4E4097
:1023F000B6B202ABD81DFFF789F8012804D09F4B75
:102400001B889BB2002BF4D102AB07331B78984694
:102410004544ADB23102330A42465340994A5B000B
:102420009E5A4E40B6B243460733DBB29A4623006B
:10243000444698460FE002ABDA79AD18ADB23002EF
:10244000330A53408F495B005E5A4640B6B2102AA9
:1024500014D0013CE4B2002C31D0884B1B889BB2D5
:10246000002B2AD002ABD81DFFF750F80128E2D08C
:10247000824B1B889BB2002BF4D1DCE702ABD81D4A
:10248000FFF744F8012804D07C4B1B889BB2002B3B
:10249000F4D102AB07331B78ED18ADB23102360A26
:1024A0007340784A5B009E5A4E40B6B2013CE4B29B
:1024B00053460133DBB29A46CDE7444600E044463A
:1024C00002ABD81DFFF722F8012804D06B4B1B8804
:1024D0009BB2002BF4D102AB07331B78ED18ADB2E1
:1024E0003102360A7340674A5B009E5A4E40B6B2CC
:1024F00002ABD81DFFF70AF8012804D05F4B1B88F8
:102500009BB2002BF4D102AB07331B78ED18ADB2B0
:102510003102360A73405B4A5B009E5A4E40B6B2A7
:1025200002ABD81DFEF7F2FF012804D0534B1B88E5
:102530009BB2002BF4D1514B1B889BB2002B00D1D6
:1025400013E702AB07331B781B02984602ABD81D7A
:10255000FEF7DCFF012804D0484B1B889BB2002B00
:10256000F4D1464B1B889BB2002B24D002AB07331F
:102570001B7843449BB29D424BD09E424BD0424B72
:102580001B78002B0CD11020FFF70CF81920FFF757
:1025900009F80620FFF706F8002300931C00E4E684
:1025A0001020FEF7FFFF2120FEF7FCFF374B1878C5
:1025B000FEF7F8FFE7E7009B002B00D19BE2324BD0
:1025C0001B78002B2AD00323994609339846304BB9
:1025D0001B78FF2B27D02F4B00221A802E4B1B7805
:1025E000DAB20192002B27D01020FEF7DBFF162075
:1025F000FEF7D8FF294B1B78FB2B00D142E2274B7B
:102600001A78FC2A00D153E2FD2A00D168E20024A6
:10261000ABE60097D3E702230093D0E70023994667
:1026200009339846D3E7434601339BB298464B465D
:1026300001339BB29946CEE74F462B005546B34631
:1026400026009A4641E0124BD85DFFF7EBF8009B5D
:10265000012B0CD00F490B8818021B0A0C4AD25DC3
:102660005340084A5B009B5A43400B802BE0084BC9
:10267000DB5D084A11885B18138024E0881600206F
:102680008C160020FCA50010A7160020AC16002018
:102690003005002084160020A5160020AB1600206F
:1026A000C94BD85DFFF7BEF8009B012B24D0C7496A
:1026B0000B8818021B0AC44AD25D5340C44A5B000F
:1026C0009B5A43400B800137BFB2B8451BD94B46DC
:1026D0004A460432BA42F6D04A4605329742F2D010
:1026E00006339F42DCD1B84B9B5C102BABD14346E9
:1026F00001339BB29846E6E7B34BDB5DB34A1188E2
:102700005B181380DFE734005346AA465E461D007F
:10271000AE4B98461888000AFFF784F843461878AD
:10272000FFF780F8D04602ABD81DFEF715FF012851
:1027300004D0A84B1B889BB2002BF4D1A54B1B885F
:102740009BB2002B18D1A44B1B78002B09D1102071
:10275000FEF728FF1920FEF725FF0C20FEF722FFC9
:1027600003E61020FEF71EFF2120FEF71BFF9B4B08
:102770001878FEF717FFEAE702AB07331B78102B38
:102780000FD0954B1B78002B00D070E11020FEF786
:1027900009FF1920FEF706FF8220FEF703FF019CC8
:1027A000E3E5444602ABD81DFEF7D6FE012804D06F
:1027B000884B1B889BB2002BF4D1A246854B1B880B
:1027C0009BB2002B19D1844B1B78002B0AD110200F
:1027D000FEF7E8FE1920FEF7E5FE0C20FEF7E2FE0C
:1027E000019CC2E51020FEF7DDFE2120FEF7DAFE97
:1027F0007A4B1878FEF7D6FEE9E702AB07331B7871
:10280000162B12D0192B00D100E1734B1B78002B33
:1028100000D021E11020FEF7C5FE1920FEF7C2FE10
:102820000920FEF7BFFE019C9FE50237BFB23C00C6
:10283000D04605E0644B185DFEF7F4FF0134A4B206
:102840004346FB189C42F5DB624BFA2292001A8049
:1028500002ABD81DFEF780FE012804D05D4B1B881B
:102860009BB2002BF4D15B4B1B889BB2002B19D180
:10287000594B1B78002B0AD11020FEF793FE19202C
:10288000FEF790FE0C20FEF78DFE019C6DE51020FA
:10289000FEF788FE2120FEF785FE504B1878FEF7E4
:1028A00081FEE9E702AB07331B78102B0FD04A4BB0
:1028B0001B78002B00D09EE01020FEF773FE19203D
:1028C000FEF770FE0920FEF76DFE019C4DE502ABA0
:1028D000D81DFEF741FE012804D03E4B1B889BB259
:1028E000002BF4D13B4B1B889BB2002B19D13A4BE8
:1028F0001B78002B0AD11020FEF754FE1920FEF79A
:1029000051FE0C20FEF74EFE019C2EE51020FEF736
:1029100049FE2120FEF746FE304B1878FEF742FEB6
:10292000E9E702AB07331B78162B10D0192B25D003
:10293000294B1B78002B53D11020FEF733FE1920B2
:10294000FEF730FE0920FEF72DFE019C0DE5224B1F
:102950001B78002B07D11020FEF724FE1620FEF76F
:1029600021FE019C01E51020FEF71CFE2120FEF750
:1029700019FE1A4B1878FEF715FEECE702ABD81DCE
:10298000FEF7EAFD012804D0124B1B889BB2002BF6
:10299000F4D1114B1B78002B0BD11020FEF702FE57
:1029A0001920FEF7FFFD02ABD879FEF7FBFD019C75
:1029B000DBE41020FEF7F6FD2120FEF7F3FD074BC8
:1029C0001878FEF7EFFDE8E73005002084160020B8
:1029D000FCA5001088160020A7160020AC160020C9
:1029E0001020FEF7DFFD2120FEF7DCFD524B1878AA
:1029F000FEF7D8FDA0E71020FEF7D4FD2120FEF75A
:102A0000D1FD4D4B1878FEF7CDFD55E702ABD81D33
:102A1000FEF7A2FD012804D0484B1B889BB2002B77
:102A2000F4D1474B1B78002B0BD11020FEF7BAFDD9
:102A30001920FEF7B7FD02ABD879FEF7B3FD019C74
:102A400093E41020FEF7AEFD2120FEF7ABFD3A4BDC
:102A50001878FEF7A7FDE8E71020FEF7A3FD212078
:102A6000FEF7A0FD344B1878FEF79CFDD2E610204F
:102A7000FEF798FD2120FEF795FD2F4B1878FEF705
:102A800091FD83E62F4B9B7B012B0BD0022B0CD0AF
:102A9000002B04D096200002FEF7F8F8AFE5962050
:102AA0004001F9E796208001F6E79620C001F3E7A0
:102AB000244B9B7B502B0DD0D0231B068021C903B8
:102AC00059611E4BC82119801C4B1B889BB2002BDF
:102AD000FAD199E5D0231B068021C9039961F0E75B
:102AE0001849CB7B184A13801B021380897B0B4348
:102AF0001380002439E4002437E412488C256D004B
:102B00002A00002104F05EFA104B00241C80104BB8
:102B10001C8010482A00002104F054FA0E4B1C803F
:102B20000E4B1C80054B188880B205B0F0BCBB462C
:102B3000B246A946A046F0BDAC160020881600207B
:102B4000A716002030050020921600208A160020CB
:102B50008C160020500600208E16002090160020B3
:102B600010B582B06B460022DA71684B1B7A102BCD
:102B700060D01424664B1B889BB2002B00D19DE0D3
:102B80001020FEF70FFD2120FEF70CFD614B187899
:102B9000FEF708FD1020FEF705FD1620FEF702FDEA
:102BA0005D4B1B889BB2A34204D0594B1B889BB240
:102BB000002BF5D1594B00221A80574B1A80544BE9
:102BC000F532FF321A806B46D81DFEF79FFC0128B4
:102BD00004D04F4B1B889BB2002BF4D16B460733BC
:102BE0001B78502B00D07CE048488C2252000021FA
:102BF00004F0E8F9494A00231380474A1380484A01
:102C00001380484A13805020FEF70CFE454B1B886A
:102C10009BB2002B04D13E4B1B889BB2002BF5D1FD
:102C20003B4B1B889BB2002B06D13F4B1B78422BA2
:102C300057D10BE015249DE73B4B1878FEF7B2FC0B
:102C4000F3E7334B1B889BB2002B13D1304B1B880F
:102C50009BB2002B45D0334B00221A806B46D81D07
:102C6000FEF754FC0128ECD0294B1B889BB2002BAB
:102C7000F4D1E6E76B46D879FF2832D0FEF7D2FDD3
:102C80006B4607331B780A2BE0D1264B1B889BB27F
:102C9000002B04D11E4B1B889BB2002BF5D11C4B83
:102CA0001B889BB2002B1CD01F4B1878FEF77AFCB8
:102CB000174BC8221A80FDF7F9FFC7E71020FEF76F
:102CC00071FC2120FEF76EFC124B1878FEF76AFCAF
:102CD0001020FEF767FC1920FEF764FC8220FEF747
:102CE00061FC0A488C225200002104F06BF90B4A67
:102CF00000231380084A1380094A1380094A13806D
:102D0000034B188880B202B010BDC04630050020C9
:102D100088160020AC1600208C1600208A16002091
:102D20008E160020901600205006002010B583005B
:102D3000084A944663441A68402462408034144030
:102D40008022520113431C60C000034B9C46604428
:102D5000416010BD04C001400040014080000B4BA9
:102D60009C46604400290DD00823002A0CD0042280
:102D70001343026853400C221A4080235B01034333
:102D80001A6070470023F0E70022F1E704C0014019
:102D900010B501238340D02212069362936105216E
:102DA000FFF7C4FF10BD0000EFF3108072B6034BB5
:102DB0001B68002BFBD0BFF35F8F70472C0100D046
:102DC000BFF35F8F024B00221A6080F310887047B8
:102DD0002C0100D0F8B506000C001500FFF7E4FF49
:102DE000E308F718F15C07222240012393400B42CD
:102DF00005D1DBB20B433B70FFF7E2FFF8BD2100CA
:102E0000280001F055FEF0B583B0060001911400D2
:102E10001F00FFF7C9FF00E00134BC420CD8E308F3
:102E2000F518F35C0721214001228A401A42F3D1B0
:102E3000D2B21A432A7001E001246442FFF7C0FFB6
:102E4000002C02DB200003B0F0BD019B002BF9D069
:102E5000089801F02DFE0000034B1B68022018406B
:102E6000431E9841C0B2704700C00640002307E0EF
:102E7000054A9A189200BFF35F8F00211160013359
:102E80001F2BF5D97047C04640000034054A107822
:102E9000431CDBB21370172B02D9130010221A70D7
:102EA0007047C0462104002010B582B00100054CD7
:102EB000054B00931F2318222000FFF7A4FF02B048
:102EC00010BDC046740F0020FCA70010074B9B6884
:102ED000103080001950BFF35F8FBFF35F8F044B3A
:102EE0000021196082F310887047C04600ED00E0B1
:102EF000240100D010B5091A0B1F0A4A94466144F8
:102F0000094A914208D8DA0706D45B105B055B0DCD
:102F10000648184380B210BD054B064A0648992161
:102F200001F02CFDFC070000FE0F000000E0FFFF99
:102F300018A8001078AA001048A8001010B5091AA7
:102F400004394A08090B08D14905490D064B0B43C2
:102F50000380064B1343438010BD054B054A0648CA
:102F6000A12101F00BFDC04600F0FFFF00F8FFFFBC
:102F700088A800104CAA001048A800100123834024
:102F8000034A10681840431E9841C0B27047C046BB
:102F900000E100E0002904D0034B1860034B1860E7
:102FA0007047034B1860FBE780E200E000E100E0BF
:102FB00080E100E010B5012383401800FFF7EAFF2D
:102FC00010BD000001238340014A13607047C046D2
:102FD00000E200E0024B9B6810308000C058704750
:102FE00000ED00E010B5FFF7F5FF002805D0054B18
:102FF000C01A2F2803D8012010BD0020FCE70020B4
:10300000FAE7C0462404002070B504000D00EFF379
:10301000108672B60C4B1B68002BFBD0BFF35F8F82
:103020002000FFF7D7FF094B984201D0A84205D1F5
:10303000320029002000FFF749FF70BD044B054A0C
:1030400005487C2101F09AFC240100D0CD0100103C
:1030500098A80010ACAA001048A80010F0B5DE46F1
:1030600057464E464546E0B589B081460191150068
:10307000EFF3108A72B6744B1B68002BFBD0BFF3C2
:103080005F8F724B0027DF57002F40DB7C00E41975
:10309000A4006F4824180622A2566C4B1A706D4B80
:1030A0009A684B4610339B00D35898461E00181A56
:1030B0002F2838D9684B98452FD105AE674B338000
:1030C00067497B009B46D8198000614B9846404475
:1030D0000230FFF70FFF7080624BB380FF23B371A4
:1030E000F571019B07935F44BB00434407CE07C3C0
:1030F00001231C43A046524641464846FFF7E6FEE0
:1031000009B0F0BCBB46B246A946A046F0BD564B3E
:10311000564A5748CD2101F031FC564B534A54488A
:10312000D42101F02BFC01380C2103F019F80029FF
:1031300012D101239E43B34633000026DA79AA4216
:1031400011D90621595600290CDB4A005218920069
:103150003F491E008B18F1E7474B444A4448E021A1
:1031600001F00CFC1E00002E3BD005AB434A1A8038
:10317000813A5A800623F3560293002B18DABD20B9
:10318000000205AB9B469880029A9A71DD71019A04
:103190000792301D2100FFF7ADFEB080B7712C4BB8
:1031A0007A00D21992009B185A4613CA13C3A2E799
:1031B0007800C0198000264BC0180430311DB38838
:1031C000DA0A1C2A07D15B055B1502335B00C918BC
:1031D000FFF790FED5E72A4B2A4A2548A72101F0A0
:1031E000CDFB05AE1D4B33801D497B000293DB19DF
:1031F0009B00174A90461A0042440392901CFFF726
:1032000079FE7080039A101D5946FFF773FEB08057
:103210001D4B5A464146521A524153431B0DB3713E
:10322000F571019A0792029B9C466744BB00434498
:1032300007CE07C3114B5A461380813B53800123AD
:103240001C43A04657E7C046240100D0AD1600201D
:103250002404002000ED00E0CD01001000A1FFFFDC
:103260005404002000BDFFFFD0A8001094AA001055
:1032700048A80010F8A8001020A90010014800007C
:1032800094A9001084AA0010AAAA0000F0B5CE46A6
:10329000474680B583B006000D00EFF3108872B684
:1032A000554B1B68002BFBD0BFF35F8F534B9A68C5
:1032B00034001034A300D758514B9F4207D0AF427F
:1032C00000D197E001974F4BFB1A2F2B09D94246AB
:1032D00039003000FFF7FAFD03B0C0BCB946B04674
:1032E000F0BD3000FFF74AFE814600213000FFF7B5
:1032F00061FEBFF35F8FFCF7B6FF002801D0844268
:1033000011D10123019C9C430021A368AB4212D040
:103310000622A256002A0DDB53009B189B00394A57
:103320002100D418F1E7384B384A2C213848FF31B6
:1033300001F024FB2100AB4255D106256557002D35
:1033400037DB304B6A00521992009B189A68A260D2
:10335000DA79E2719B795BB2A371002B10DABD20A0
:103360000002A080274B6A00521992009B18294A3C
:1033700011789971157049463000FFF71BFEA6E7DA
:10338000201D6B005B199B001E4A9B18191D9B8812
:10339000DA0A1C2A07D15B055B1502335B00C918EA
:1033A000FFF7A8FDDDE71C4B1C4A1948A72101F0D7
:1033B000E5FA002812D100290ED0FF238B71184B9B
:1033C0008B8014490B78A3710E4A164BA41A6441E2
:1033D00063431B0D0B70CEE7094FF2E71249201D26
:1033E000FFF7ACFDC7E7114B084A60210848FF31E1
:1033F00001F0C4FA024F6AE7240100D000ED00E0BA
:10340000CD01001024040020ACA9001064AA001013
:1034100048A80010AD16002094A9001084AA00103E
:1034200000BDFFFFAAAA00005E040020D0A9001082
:1034300070B50400012606432D4BF31A2F2B28D814
:10344000FCF711FF00282BD0EFF3108C72B6294B3C
:103450001B68002BFBD0BFF35F8F254A264D210050
:10346000891A49414D432D0D6DB2244B9B68800054
:103470001B58B3421BD00021032932D81C4B4A00F1
:10348000521892009B189B795BB2AB421FD001315E
:10349000F2E71B4B1B4AC2211B48490001F06EFAA0
:1034A0001A4B184A88211848FF3101F067FA134B6C
:1034B0009B68174A1A50174B1A78A2711D70BFF3F8
:1034C0005F8F0C4B00221A608CF3108870BD084B84
:1034D0004A00501880001818FF2686710E4A828014
:1034E000E9E70E4B074ACC210748490001F046FAAC
:1034F00024040020240100D0AAAA000000ED00E06E
:10350000D8A9001030AA001048A8001000AA001086
:10351000CD010010AD16002000BDFFFF0CAA001069
:103520000022044B02E0044902C30132072AFAD9FF
:103530007047C04600E400E08080808000B583B022
:103540000100D0231B061B680648C018064B0093D9
:1035500005230022FFF757FC002801DB1F23181A60
:1035600003B000BD8016002014AA0010024B9C4638
:1035700061448900016070474000003410B50C00C0
:10358000CB68834207D10B6908009847002809D00F
:103590002068616810BD064B064A9621064849001E
:1035A00001F0ECF90023E36000200021F2E7C046BF
:1035B000C8AA00108CAD0010DCAA001070B5050080
:1035C0000C00080000F010FE200000F0F5FE084995
:1035D000200000F035FEFFF759FC064B9C46604486
:1035E000800068602C75044BA400E55070BDC04697
:1035F000F138001040000034301400200A4B1A68E3
:10360000EFF3108172B61368002BFCD0BFF35F8F0D
:10361000054B1B68BFF35F8F00221A6081F310888F
:1036200040BF0020002170474C16002010B5002933
:1036300020D003681B7B99421CD88368154CA44694
:10364000614409015B181C685968002A18D0036896
:103650001B7B9A4214D883680E4884466244120148
:103660009B181A685B6801208B4201D80ED000209D
:10367000C0B210BD084B094A09483B2101F07EF950
:10368000054B064A06483B2101F078F9A242EFD8E3
:10369000EDE7C046FFFFFF0F14AB0010F4AD0010C4
:1036A000DCAA001010B500291DD0037B99421AD85E
:1036B00004684B005B18033BE418002919D0002A6A
:1036C0001DD0914221D0002A25D0037B9A4222D8D6
:1036D000006853009B18033BC31899702178002998
:1036E0001FD1227010BD104B104A1148682101F003
:1036F00045F9104B104A0E486F3101F03FF90F4B5E
:103700000D4A0B48702101F039F90D4B0A4A08485F
:10371000712101F033F9044B044A0548682101F096
:103720002DF959702270DDE748AB001060AE001033
:1037300064AB0010B0AB00103CAE0010BCAB00108E
:10374000C8AB001070B506000D001400002914D09D
:10375000002A14D0436880689847002806D02200C9
:1037600029003000FFF79EFF280007E02A00210013
:103770003000FFF797FF200000E0100070BD080048
:10378000FCE70000F0B583B00500009201930AAB9E
:103790001C780BAB1F78002C26D003685A7B944210
:1037A00007D10123002B19D1002C3AD1200003B0FE
:1037B000F0BD002C0CD01A7B944209D81A68630023
:1037C0001B19033BD3189B78002BEBD00123E9E7AF
:1037D0003C4B3D4A3D48682101F0D0F83C4B3D4A06
:1037E0003D48652101F0CAF803689C7B002CDBD0C2
:1037F00011D01A7B94420ED81A6861000919033956
:10380000521851789973002900D1D973002393700D
:1038100053701370C8E72B4B2B4A2C48682101F0DA
:10382000ADF8002C37D02B681B7B9C4233D8AB689B
:103830002A4AA21812019B18009A1A60019A5A602B
:10384000089A9A60099ADA602E68002C29D02ED046
:10385000337B9C422BD8336862001219033A9B18C1
:1038600000229A705A701A70717B22003000FFF7A4
:1038700069FF7073844299D1287D009A019B00F002
:1038800027FD061E01D0002F17D00C9B002B00D166
:103890008CE71E708AE7124B124A0F483B2101F059
:1038A0006DF8114B114A0948A52101F067F8054B45
:1038B000054A0648682101F061F82868210000F0F7
:1038C00029FFE2E748AB001060AE001064AB0010C7
:1038D000E0AB00106CAE0010DCAA0010FFFFFF0F81
:1038E00014AB0010F4AD0010D8AA001050AE0010B8
:1038F000F0B5DE4657464E464546E0B58BB00990DA
:1039000000230893B24B8200D55833E0B14BB24A42
:10391000B2483F2101F032F8B14BB24AB2483B21E4
:1039200001F02CF8B14BB24AAF488C2101F026F8D7
:10393000B04BAF4AAC48902101F020F8A84BAE4AFA
:10394000A948402101F01AF843461A685B680998B3
:1039500000F0BEFC00239B469A466B68BFF35F8F66
:1039600000221A6089F310885346002B53D1002897
:1039700000D126E100F044FC02000B1EC6DB002053
:103980000021069007916868EFF3108972B601680C
:103990000029FCD0BFF35F8F2868447B002C35D012
:1039A000BAD0017B8C42B7D8AE689449611809013E
:1039B000B046884441460E684F68B61A9F41002FB2
:1039C000C2DC01D1002EBFD1002100F099FEA0423F
:1039D000A8D143461A685B680692079343469B68E2
:1039E0009A464346DB689B465346002BA0D0002CEA
:1039F000A4D02B681B7B9C42A0D8EA68631ED35CD2
:103A000008931B02184328610020A6E700239B4669
:103A10009A460020A1E7089B1B022343984659467B
:103A20001800D04706000F006A68EFF3108972B6DD
:103A3000136859424B41D9B2002BF9D1BFF35F8FC4
:103A4000002F26DB002F52DD2B69002B53D043457E
:103A500072D100F0D5FB02000B1E73DB01001800D1
:103A600092197B41984202D804D1914202D9012295
:103A70005242D317002B6BDB0021049101310391DB
:103A8000029459460191514600912800FFF77AFEB1
:103A900049E02B69002BD5D043451CD1069A079BE2
:103AA00010001900921BBB41994202D804D19042E8
:103AB00002D901225242D317002B12DB00210491BC
:103AC0000131039102945946019151460091280019
:103AD000FFF758FE27E04A4B454A43489F2100F034
:103AE0004DFF3C4B3C4A3D483F2100F047FF002F33
:103AF00001D1002EA8D12A68002C44D0537B9C42CF
:103B00002CD1012100293ED1D37B002B41D1D4738C
:103B1000002C50D02B681B7B9C424CD8EA68013C9F
:103B2000135D0133135500232B616A68BFF35F8F68
:103B3000136089F310881DE7314B2D4A2A48A221D2
:103B400000F01CFF234B244A24483F2100F016FFBD
:103B5000204B214A21483F2100F010FF002C0CD0BF
:103B6000137B9C4209D8106863001B19033BC318E0
:103B70009B78002BC6D00121C4E7224B224A234860
:103B8000682100F0FBFE224B224A2048F62100F07B
:103B9000F5FE002B09D0117B8B4206D81068590026
:103BA000CB18033BC3185C70B1E7164B164A174895
:103BB000682100F0E3FE0A4B0F4A0B48402100F059
:103BC000DDFE0BB0F0BCBB46B246A946A046F0BD38
:103BD0003014002008AC0010C0AD001024AC001060
:103BE00014AB0010F4AD0010DCAA00106CAC001097
:103BF000D8AD001084AC001018AE0010FFFFFF0F0E
:103C000090AC001048AB001060AE001064AB001028
:103C1000CCAC00102CAE001010B50A4B5B68002B2A
:103C200004D009480A21FFF7A1FC10BD054C074A42
:103C300020682300102100F087FC03212000FFF7FB
:103C4000BDFCEEE76C0400204C1600202D36001061
:103C500010B5064B5B68002B01D0044810BD044B27
:103C6000044A05485C2100F089FEC0466C0400202F
:103C7000F0AC001000AE0010DCAA0010F0B5DE467B
:103C800057464E464546E0B58BB0804616001F00AD
:103C9000149B9A46159B994616AB1B789B461F238F
:103CA00002AA9446634400221A7036E0002809D024
:103CB00042461268127B904204D84246D168421EA6
:103CC0008A5C4CE0454B464A4648402100F056FE8F
:103CD0000798002B79D05B46002B76D04946D04719
:103CE00004000D0003000B4300D175E000294ADBFE
:103CF00000F086FA02000B1E59DB010018001219B1
:103D00006B41984202D804D1914202D90122524219
:103D1000D317002B51DB16001F0043465A68EFF300
:103D2000108472B6136859424B41D9B20791002BE7
:103D3000F8D1BFF35F8F1F3302AA94466344049304
:103D40000023039302934B460193534600933200A2
:103D50003B004046FFF716FD031EA7D10200414677
:103D60004968BFF35F8F00250D6084F31088002B36
:103D700029D01F2302A98C4663441B78002BA7D1AE
:103D800012021043A5E730003900361BAF41B9429B
:103D900002D804D1B04202D901267642F717002F8B
:103DA000BBDA114B114A12483F2100F0E7FD0E4BE0
:103DB0000E4A0F483F2100F0E1FD0B4B0B4A0C4827
:103DC0003F2100F0DBFD012040420BB0F0BCBB46C0
:103DD000B246A946A046F0BD0798F6E714AB00101E
:103DE00018AE0010DCAA001008AC0010C0AD001026
:103DF00024AC0010F8B504004268EFF3108572B6E9
:103E0000136858424341D8B2002BF9D1BFF35F8FFA
:103E1000CBB22268567BB3421BD10120002847D089
:103E2000206988422AD0090AC9B2002B2DD0206807
:103E3000007B834229D8E668581E305C88422AD02D
:103E400000206368BFF35F8F00221A6085F310883B
:103E5000F8BD002B0CD0167BB34209D817685E0062
:103E6000F618033EBE19B678002ED7D00120D5E74C
:103E7000124B134A1348682100F080FD124B134A7D
:103E800085211348490000F079FD124B124A104871
:103E9000402100F073FD1900100000F03BFC0028E9
:103EA000CFD10E4B094A12210948FF3100F066FDBF
:103EB00023698B42C5D100232361C2E748AB0010C0
:103EC00060AE001064AB001014AD0010A8AD00107F
:103ED000DCAA001014AB001018AE001038AD0010B2
:103EE000F0B585B007000C9E1100194301D10122E5
:103EF0000023B7600A993161326073600B99716178
:103F0000D81701004240140043401D00241A8D417F
:103F100000F076F902000B1E1ADB010018001219DE
:103F20006B41984202D804D1914202D901225242F7
:103F3000D317002B12DB0121029101960A4900914F
:103F40003800FFF79BFEF060C043C00F05B0F0BD26
:103F5000064B074A07483F2100F010FD034B044A77
:103F600004483F2100F00AFD7D35001008AC001028
:103F7000C0AD001024AC0010F0B587B006000F00F3
:103F8000FCF771F900281FD106246442E517A41933
:103F90007D41BD4202D803D1B44201D9002400259D
:103FA000002D14DB0494059500F02AF902000B1E85
:103FB00013DBA41A9D41002D17DC14D0300039000A
:103FC00000F02AF907B0F0BD234800F071FD234B43
:103FD000234A24483F2100F0D1FC204B204A2148AD
:103FE0003F2100F0CBFC002CE8D0FFF731FE00238E
:103FF000029301931C4B0093049A059BFFF73EFE2E
:10400000002818DADAE7002300E00023002BD5D1DE
:10401000164B1A68EFF3108172B61368002BFCD0B0
:10402000BFF35F8F114B1B68BFF35F8F00221A60D5
:1040300081F3108820BF0499059A0D4B5B6A9A4260
:10404000E3D80B48806A884203D29A42DBD001232E
:10405000DCE70123DAE7C0463CAD001008AC0010F5
:10406000C0AD001024AC0010FD3500104C1600202F
:1040700000400540F8B504000D0000F0C1F8020052
:104080000B1E10DB20002900801859418B4202D8FA
:1040900004D1824202D901204042C117002908DB25
:1040A000FFF76AFFF8BD064B064A07483F2100F0BC
:1040B00065FC034B034A04483F2100F05FFCC04607
:1040C00008AC0010C0AD001024AC001010B5FA22EE
:1040D00092000023002102F087FEFFF7CBFF10BD06
:1040E00070B584B006000C00FFF7B2FD0023029308
:1040F0000193194B009332002300FFF7BFFD051E0B
:1041000011DD20BFFFF7A4FD2900FFF773FE134B5D
:104110005B6A9C421BD8114A926AB2421AD29C42F4
:1041200013D0012014E00D4B5B6A9C4209D80B4A66
:10413000926AB24207D29C4201D0012008E00020DE
:1041400006E0002004E0012002E0002000E0002062
:1041500004B070BD0120FBE7FD35001000400540B4
:1041600070B5EFF305833F2018401038EFF3108C43
:1041700072B6184B1B68002BFBD0BFF35F8F012377
:1041800019008140144A5163144A12781400C44043
:10419000234213D0104B5C6A114B8500EB589C42B4
:1041A00005D3104BEB580D4C8A43227007E00A4AA6
:1041B000031D9B0099589950002300E00023BFF392
:1041C0005F8F044A002111608CF31088002B00D00F
:1041D000984770BD280100D000400540B11600206E
:1041E00058160020640E002010B50100024A034B4F
:1041F0001800FEF7EFFD10BD84AE0010A0160020E1
:10420000044B5B6A034A906A1900536A9942F9D1D8
:104210007047C04600400540084B5B6A01E0074B11
:104220005B6A8B42FBD301E0044B5B6A8B4203D198
:10423000024B9B6A8342F7D37047C046004005405B
:1042400070B504000E00EFF3108572B61B4B1B68AF
:10425000002BFBD0BFF35F8F002E1CD02000FEF799
:10426000B9FE174B83420BD019002000FEF7CCFE9D
:1042700001212000FEF79EFE0123A340114A136096
:10428000114BA400E650BFF35F8F0C4B00221A6065
:1042900085F3108870BD0C4BA2000021D150012283
:1042A000A2400A490B7893430B7005492000FEF7A2
:1042B000EDFF00212000FEF77DFEE4E7280100D09D
:1042C0006141001038600540640E0020B1160020E6
:1042D000F0B5DE4600B584B00400150001921E0062
:1042E0000293FFF78DFF03958E4202D84ED185428F
:1042F0004CD9EFF3108B72B6274B1B68002BFBD009
:10430000BFF35F8F254A17780125A540EBB23B43E9
:104310001370234B5D63221D92000199D150214AF5
:10432000A100029888501B6A2B4212D11C4B1B6CB7
:104330002B4208D00020BFF35F8F174B00221A607A
:104340008BF3108823E0184B184A1948C12100F05C
:1043500015FBFFF755FF8E4214D802D1039B834211
:1043600010D80E4B1B78BB420ED00D4B1D625D6307
:104370001F222240012393400E4A1360074B1F70F7
:104380000120D8E70020D6E70120D4E7012004B0BF
:1043900080BCBB46F0BDC046280100D0B11600204D
:1043A0000040054058160020A8AE001010AF0010C5
:1043B000CCAE001080E200E0EFF3108C72B60B4B35
:1043C0001B68002BFBD0BFF35F8F01238340084A9B
:1043D000136208490A789A430A70BFF35F8F034B50
:1043E00000221A608CF310887047C046280100D064
:1043F00000400540B116002010B500291DD0037BF8
:1044000099421AD804684B005B18033BE418002952
:1044100019D0002A1DD0914221D0002A25D0037B3B
:104420009A4222D8006853009B18033BC318997026
:10443000217800291FD1227010BD104B104A11485D
:10444000682100F09BFA104B104A0E486F3100F0C3
:1044500095FA0F4B0D4A0B48702100F08FFA0D4B67
:104460000A4A0848712100F089FA044B044A0548B9
:10447000682100F083FA59702270DDE748AB001024
:1044800018B0001064AB0010B0AB001004B0001006
:10449000BCAB0010C8AB001070B506000D001400D6
:1044A000002914D0002A14D0436880689847002857
:1044B00006D0220029003000FFF79EFF280007E009
:1044C0002A0021003000FFF797FF200000E01000D5
:1044D00070BD0800FCE7000010B5002343730133F2
:1044E0008373037BC3730123027B9A4213D9002B8E
:1044F0000BD0027B934208D801685A00D218033AC5
:104500008A180133DBB25370EEE70C4B0C4A0D48AE
:10451000682100F033FA002A09D0924207D80168D6
:1045200053009B18033BCB1800225A7010BD034B5D
:10453000034A0448682100F021FAC04648AB001045
:1045400018B0001064AB001010B5017342608360B6
:10455000FFF7C2FF10BD000070B50400081E00D1B7
:1045600070BD002931D0237B99422ED822684B00A0
:104570005B18033BD3185A78002AF1D02BD0237B49
:104580009A4228D8216853009B18033BCB185D78CA
:1045900000215970002824D0237B984221D821681B
:1045A00043001B18033BCB18002159700100200069
:1045B000FFF772FF060029002000FFF7CDFF020081
:1045C00031002000FFF768FFCAE7094B094A0A4893
:1045D000682100F0D3F9064B064A0748682100F02D
:1045E000CDF9034B034A0448682100F0C7F9C046DF
:1045F00048AB001018B0001064AB001070B5050097
:104600000C001600002927D02CD0037B994229D812
:1046100003684900091903395B185A78002A27D121
:104620009A78002A2AD11978FFF796FF0300002E06
:1046300003D0EA7B002A27D1EC73002B36D1002C63
:1046400047D02B7B9C4244D82A6863001B19033B4C
:10465000D31800225A7070BD214B224A22483821BB
:1046600000F08CF9214B224A2248682100F086F99B
:10467000214B1C4A1C483A2100F080F91F4B194A73
:1046800019483B2100F07AF9002A09D0297B8A4297
:1046900006D82E6851008A18033AB2185470CBE736
:1046A000124B134A1348682100F068F9002B0AD016
:1046B0002A7B934207D82A6843001B18033BD31870
:1046C00000229A70BBE7094B094A0A48682100F0AA
:1046D00055F9064B064A0748682100F04FF9C046D5
:1046E0002CAF0010F0AF001034AF001048AB00103A
:1046F00018B0001064AB00106CAF001094AF001045
:1047000070B504000A00457B2900FFF777FF60734E
:10471000280070BD70B50400002966D0437B8B4231
:104720000ED0002911D0037B99420ED805684B00AA
:104730005B18033BED18AB78002B0CD1002055E043
:104740000121FFF7DDFF012050E0294B294A2A48CB
:10475000682100F013F9002B1FD0027B93421CD874
:1047600000685A00D318033BC218C35C8B421AD0AE
:10477000002B1BD0227B934218D820685A00D318F4
:10478000033BC01843788B4216D0002BF0D11B4B53
:104790001B4A1C48672100F0F1F8154B154A1648D2
:1047A000682100F0EBF86B78137007E0104B114AAA
:1047B0001148682100F0E2F86B7843700023AB7079
:1047C0006B7001222000FFF719FF0200617B81421C
:1047D00005D02000FFF760FE6073012006E00A4B61
:1047E000074A08486D2100F0C9F8002070BDC04696
:1047F00048AB001018B0001064AB00100CAA0010F9
:10480000D8AF001034AF0010B8AF001010B50400DE
:10481000FEF73CFB01002000FEF7A8FEFF232371FA
:10482000BFF35F8F10BD10B50400FEF72FFB010032
:104830002000FEF79BFEFF23237100236371BFF36B
:104840005F8F10BD034B9C46614489000160BFF33C
:104850005F8F70474000003410B504000120FEF760
:1048600023FB01002000FFF7EDFF10BD70B5040031
:104870000D00062000F036FAC000290001F070FC9F
:10488000C60908D00E4B9E4217D87F230340013340
:1048900035005E0800E001256562A6622C348023A5
:1048A0009B01234300221A60062000F01BFA8000BF
:1048B000A901891901F054FC70BD0026014DEBE7F8
:1048C000FEFF0000FFFF0000002909D00A22064B6E
:1048D0009C46604443425841044B4000C2527047DA
:1048E00080225200F3E7C0460080FCBF681600201B
:1048F00070B505000C00062000F0F4F9002829D05E
:10490000164B9D4227D08022D203154B1A60154BBF
:104910001A60154B9B6811009943FAD100212800B9
:10492000FFF7D2FF21002800FFF7A0FF29002C315C
:10493000EB6A602253400E321A4080235B010B4326
:104940001A600A4B2B6380239B010B4310221A60D1
:104950000323AB6470BD80221204D6E700800340BD
:1049600000E0004000F0004000C0004001030000F3
:1049700000BEFDE710B5FFF7FBFF000030B583B0C8
:104980000D001900002A0DD0084B002A0CD0084C4D
:10499000019200932B000200200002F05DFC012038
:1049A000FFF7E6FF034BF0E7024AF0E7ECB0001038
:1049B000FCB00010F8B0001070B52B4B2B4A1A60F9
:1049C0002B4B2C4A1A602C4B9A682A4B9343FAD1F2
:1049D0002A4C01E008CC9847294B9C42FAD300F0BE
:1049E00001F9234B274A1A60234B9B68DB43DB0109
:1049F000FAD1254B40229A675A671A67DA66234C28
:104A000009E0234B234A24488321FFF7B7FF200006
:104A1000FFF7FCFE0834214B9C4209D22368002B8F
:104A2000F5D0012BEDD12000FFF7FDFE0834F2E7B1
:104A30001B4DA9681B4CC022200002F0C9FAAC60D3
:104A4000FBF711FC002800D000BEFEF70FFAFEF7BE
:104A500067FDFFF7E1F8144C01E008CC9847134BD1
:104A60009C42FAD370BDC04600E00040BFCDFBFEC3
:104A700000F00040FE7F3C0000C000401005002018
:104A800020050020FFFFFF0100F001400805002085
:104A90002CB10010A4B100104CB100101005002082
:104AA00000ED00E000000020200500202805002087
:104AB0000FB400B583B0084802F09CFB049B002BA8
:104AC00007D005A90191180002F0A4FB034802F0E9
:104AD00091FB0120FFF74CFF90B10010A0B1001036
:104AE000F8B5DE4657464E464546E0B506000F008F
:104AF00015000A9A93424ED31A0E92461B0298460C
:104B00000A9A00234046514601F06CFB814674002E
:104B1000A419A4002E4B9C4664446368834200D2CF
:104B20006060331FDBB29B46012B3AD9C0239B0147
:104B30002343802212011A60264BB200D15800296B
:104B400005D0586901F00CFB01300138FDD16D0131
:104B500023685D40E0222A4080235B0123431A60E2
:104B60005A46012A28D980239B012343802212011F
:104B70001A604B4663604A4600234046514601F0A6
:104B800031FB144BB60098510120F0BCBB46B24635
:104B9000A946A046F8BD104B104A11482D21FFF739
:104BA000EDFE012FC2D1C0239B01234303221A60D3
:104BB000A368DB07FCD5CAE72168794003220A40D5
:104BC0001A60A3680125BD401D42FAD0CBE7C0465C
:104BD00000800040780F0020B4B100100CB200102B
:104BE000C8B1001030B583B00C2000F021F9FEF7F9
:104BF00033F900280DD0002304E02E4A99002E48F6
:104C000088500133092BF8D92A4B2C4A5A6203B039
:104C100030BD2B4B00229A6700F07CF9294B012212
:104C20001A60274B5B6C012BFBD1274B03221A60C8
:104C3000234B9B6B012BFBD1013300930433234A9D
:104C40000121234800F054F805230093214A012153
:104C5000214800F04DF8214B00930022022104204E
:104C6000FFF73EFF1E4D00952B000022012105207D
:104C7000FFF736FF104C009423000022002107208C
:104C8000FFF72EFF00942300002200210820FFF7E9
:104C900027FF0A4B00932300002200210920FFF781
:104CA0001FFF00952B00002200210620FFF718FFB0
:104CB000ADE7C046780F0020006CDC021BB7000097
:104CC000008000403CB0004030B00040002F6859E8
:104CD00000800240008C864700C00240001BB700E5
:104CE00040597307014B8000C0587047780F00206F
:104CF000F0B5C64600B504000F0090461D000C201C
:104D000001F02EFA06003D4A42443D4B9A4243D8F8
:104D100043011B1A9901C91AC900091889014046A3
:104D200001F01EFA0200103A98235B009A4239D82B
:104D30006B1E062B3CD8069B013B062B38D8069BE6
:104D40009D423BD343461B09B3423DD32D04069BF2
:104D50001E0335432368002B3CDB2A4B9C424AD080
:104D600080235B01284A1360284A1360284A92680E
:104D700019009143FAD12760A060221DC0239B0136
:104D8000134321221A602268002AFCDAE560082217
:104D90001A6080BCB846F0BD1E4B1F4A1F48112147
:104DA000FFF7ECFD1E4B1C4A1C481921FFF7E6FDDE
:104DB0001C4B194A19481C21FFF7E0FD1A4B164AF3
:104DC00016482221FFF7DAFD184B134A1348252114
:104DD000FFF7D4FD22683F231340BB42BDD1A36837
:104DE0001B051B0D8342B8D1E368EE22D2021340AB
:104DF000AB42B2D1CDE780239B01B3E780E84BD330
:104E000080F8A93200C0024000E0004000F00040FD
:104E100000C000401CB2001058B300107CB200105B
:104E2000BCB20010D8B2001024B300103CB3001084
:104E300080239B000343014AD362704700800540F2
:104E4000024B1A68024B5A607047C046101400208B
:104E50000080054010B50200164B8020C005186088
:104E6000154B1648186000290AD0154BE021C904DB
:104E70001960002A09D1124B802212061A6010BD57
:104E80000C4BE021C9041960F3E753019B1A980009
:104E9000801800010B4B186080235B04984202D3FA
:104EA000084B094A1A60FFF7CBFF054B8022D20559
:104EB0001A60E4E700B0054008200140FCFF010053
:104EC00000A0054010140020FFFFFF0010B50300F4
:104ED00010000C4A8024E4051460002B0DD0012240
:104EE0001343094A094CD461094C5C401462516275
:104EF00093620021FFF7AEFF10BD034B0022DA6181
:104F0000F7E7C04600B0054000800540D3C007B0B9
:104F10002D3FF84F064BAA2212011A602F22DA60A9
:104F2000044B054A1A60024B5B68002BFBDA7047A2
:104F3000004002400060024000B0FA00704710B527
:104F4000002802D00B684968984710BD0100002076
:104F500007E083001B185B00501C08601078C01825
:104F600030380A681378303BDBB2092BF1D970472F
:104F7000F0B5DE4657464E464546E0B583B093460B
:104F80001F000C9B9A460D9C0E9B99460F9B9B07FE
:104F900003D0B8460F00060022E00192A3468846DF
:104FA0004E46B9460700B44207D2551C4B4641460F
:104FB0002020B84701342A00F5E73D004F465C4603
:104FC000019B9B46B1464646B84637002E0007E097
:104FD000013C551C5346185D43463900B0472A0032
:104FE000002CF5D135003E0047460F9B9B0707D4A8
:104FF000100003B0F0BCBB46B246A946A046F0BDC7
:10500000B0464E46B9462F005D46531BB342EFD221
:10501000541C4B4641462020B8472200F5E7F0B526
:10502000CE46474680B585B0944698460C9D0D9C6B
:105030000EAB1B789946109A119B129EB7071CD491
:10504000002B0CD0F7070AD54F46002F02D10C37A2
:10505000374204D0013B02E030272F5501349442FF
:1050600001D21F2CF8D9F70707D59C4205D21F2C77
:1050700003D830272F550134F5E7F70615D5770506
:1050800005D4002C03D0944224D09C4222D00F9A05
:10509000102A2BD00F9A102A30D00F9A022A35D01E
:1050A0001F2C02D830222A5501341F2C05D84A461D
:1050B000002A31D02D222A550134039602930194FF
:1050C000009543466246FFF753FF05B0C0BCB946A2
:1050D000B046F0BD621E012C06D00F9F102F01D0EC
:1050E0001400D4E7023CD2E71400D0E7B206D1D4D2
:1050F0001F2CCFD878222A550134D1E7B206CCD55F
:105100001F2CCAD858222A550134C9E71F2CC7D8EA
:1051100060322A550134C3E7720703D52B222A5582
:105120000134CAE73207C8D520222A550134C4E722
:10513000F0B5DE4657464E464546E0B593B081464B
:105140008A46089209931CAB10CB1B789B461E9D88
:10515000219B9846002C03D1102342469A43904647
:105160008023DB0046461E4042461A4212D0002CE5
:1051700022D000260EE03031CBB2771C0AAA93551C
:105180002900200000F0ECFFAC4216D31F2F14D8EA
:105190003E0004002900200000F0E2FFC9B2092906
:1051A000E9D943469B0605D541235B18DBB20A3B90
:1051B000DBB2E2E76123F8E7270043460693209B32
:1051C00005931F9B049303955B46029301970AABDB
:1051D0000093099B089A51464846FFF720FF13B0F9
:1051E000F0BCBB46B246A946A046F0BDF0B5DE46CF
:1051F00057464E464546E0B595B0089009910A924B
:105200000B931E9E1F9C20AB1B789B46229B9946AE
:10521000239D269B9A463300234303D110335246E5
:105220009A4392468023DB0057461F4052461A425B
:1052300019D0330023432DD0002714E03032D3B2ED
:105240007A1C90460CAAD3554A462B003000210008
:1052500000F0C8FFA5421FD819D043461F2B1BD80A
:10526000474606000C004A462B003000210000F0A3
:10527000B9FFD2B2092AE1D953469B0605D541238D
:105280009B18DBB20A3BDBB2DAE76123F8E7B145F2
:10529000E3D901E00023984653460693259B0593E6
:1052A000249B04934B4603935B460293434601932E
:1052B0000CAB00930B9B0A9A09990898FFF7AFFE75
:1052C00015B0F0BCBB46B246A946A046F0BD0000F2
:1052D000F0B5DE4657464E464546E0B591B08346AA
:1052E0008A460C9298461A9C08941B9D09952200A8
:1052F0002B002000290001F004FA002800D0E5E08E
:1053000001225242D74B2000290001F0F5F9002874
:1053100000D0DBE001225242D34B2000290001F0F3
:10532000D5F9002800D0D1E000220023089E3000EB
:10533000099D290001F0CAF9002800D0DDE0089A93
:10534000099B069207938023DB001E9A1A400D9258
:105350001E9A1A4201D106231C930698079904004D
:105360000D000A000600024300D1D1E0080D4005FF
:10537000400DBE4CA44660440A03120BBC4B1343C1
:105380001F0001F0D1F9BB4ABB4B01F05CF9BB4AED
:10539000BB4B01F031F904000D000022B94B300085
:1053A000390001F020F9B84AB84B01F04CF902007D
:1053B0000B002000290001F01FF901F0CDF9814612
:1053C00001F0B2F904000D00B14AB24B01F03BF913
:1053D0000022B14B01F010F901F0BEF90600AF4A0E
:1053E000AF4B2000290001F02EF904000D00300021
:1053F00001F09AF9AB4AAC4B01F025F902000B0021
:105400002000290001F0EFF804000D0002000B005D
:1054100001F019F90A900B91A44BF31800261F050F
:1054200022002B002000290001F0E6F80E900F91D9
:1054300022002B0000208021C90501F0D4F80400CF
:105440000D0000229A4B0A980B9901F0DEF8002219
:10545000984B01F0D1F802000B000A980B9901F06B
:10546000D4F80022944B01F0C7F802000B000A9810
:105470000B9901F0CAF802000B002000290001F08E
:10548000BBF802000B000E980F9901F0BEF8002245
:10549000774B01F0B1F832003B0001F0D4F8060080
:1054A0000F0004000D00069A079B01F025F9002863
:1054B00030D001235B429C46E14400227D4B30000A
:1054C000390001F0A2F804000D0023E01E9B0493B4
:1054D0001D9B03931C9B0293089A099B00920193C6
:1054E00043460C9A5146584600F0FCF811B0F0BC07
:1054F000BB46B246A946A046F0BD00230024069351
:105500000794069680231B069C46654407951AE778
:10551000002399464B466333C62B1ED804261E9B98
:105520001B0526D52B0023430FD0644A644B0698F5
:10553000079901F0D9F8002879D00022614B06982C
:10554000079901F0C3F8002871D01C9B4B4506DD7C
:105550004A469B1A013B1C9303E00526DFE7002324
:105560001C938023DB001E9A1A431E920026002300
:1055700099461D9B9E4264D29F1B02231E9A1A408D
:105580000A921E9A134202D0002E00D000274B46EA
:10559000002B07D022002B000698079901F035F860
:1055A00006900791002200230898099901F08EF8CF
:1055B000002848D1444B1E9A1340049303971C9B28
:1055C0000293069B079C0093019443460C9A514614
:1055D000584600F087F8002E00D187E71E9B9B06F7
:1055E0003DD54525441C4346020051462800D84776
:1055F0004A46D317D2185A4005230593013E049614
:10560000002303930A3302934B46DB0F019300926E
:105610004346220051465846FFF78AFD0A9B002B5D
:1056200000D163E702005F460C9E1D9D54E01C9B69
:10563000002B9ED00D9B002B9BD01C9B013B1C93F1
:1056400097E7002799E7069C079D22002900802004
:105650000006844661440B0006920793AAE765257D
:10566000C0E7C046FFFFEF7FFFFFEFFF01FCFFFF3A
:105670000000F03FFB799F501344D33FB3C8608BC9
:10568000288AC63F0000F83F61436F63A787D23F77
:1056900071A379094F930A400000E03F1655B5BB4E
:1056A000B16B0240EF39FAFE422EE63FFF030000E5
:1056B00000002C4000002440000018402D431CEB4B
:1056C000E2361A3F80842E41FFF7FFFF541C434609
:1056D00051462020B8472200931BAB42F6D310005E
:1056E00004E7C046F0B5DE4657464E464546E0B5AF
:1056F00095B00690079193469946209F1E9A1F9B4E
:105700001000190000F0FDFF002831D101225242A3
:10571000BF4B1E981F9900F0D9FF002837D10122F6
:105720005242BC4B1E981F9900F0E6FF00283DD165
:105730000022B94B1E981F9900F0DEFF002850D1BF
:105740000022B64B1E981F9900F0C0FF002848D1D8
:10575000002200231E981F9900F0B8FF002850D1A6
:1057600000239846229B5B0500D4B6E0002458E055
:10577000229B0393219B029303230193A84B009345
:105780004B465A4607990698FFF7F2FB0EE1229B1B
:105790000393219B029304230193A24B00934B4656
:1057A0005A4607990698FFF7E3FBFFE00423229A85
:1057B0001A4022990B4210D09B4B002A0FD0042292
:1057C0002299039121990291019200934B465A46E6
:1057D00007990698FFF7CCFBE8E0944BEDE703222E
:1057E000EEE7229B0493219B039302971E9B1F9C31
:1057F000009301944B465A4607990698FFF768FDB7
:10580000D4E01E9A1F9B0020002100F0ECFE1E90A9
:105810001F9101239846A5E70CAB30221A55013F92
:1058200001341F2C01D8092FF6D81E981F9900F0BB
:1058300093FF050000F078FF02000B001E981F99EF
:1058400000F0D1FE7A4BFA009B181A685B680A9246
:105850000B9300F0F8FE0890099100F0A1FF0600FC
:1058600000F05EFF02000B000898099900F0BBFEF3
:105870000890099100226F4B00F03EFF00282ED0C7
:105880000136300000F04CFF02000B000A980B9923
:1058900000F022FF002801D001350026002F2CD176
:1058A000280000F041FF02000B001E981F9900F035
:1058B0009AFE06000F0000225E4B00F007FF002852
:1058C00046D100225B4B3000390000F015FF002864
:1058D0003ED1EB073CD501353AE0062746E70022EA
:1058E000544B0898099900F0F1FE0028D6D1002EFB
:1058F00001D0F307D2D50136D0E7AA461F2C11D824
:10590000013F0A21300000F02BFC651C30310CAB4C
:1059100019550A21300000F023FC092E0ED906008B
:105920002C00EBE755461F2C0CD87B1E002F09D00E
:105930000CAA302111551F000134F4E72B00554605
:105940001C00F0E71F2C03D80CAB2E221A55013493
:105950001F2C10D80A21280000F0DAFB661C303119
:105960000CAB19550A21280000F0D2FB051E01D00E
:105970003400EDE734000323229A1340012B1CD09E
:105980001F2C06D84346002B32D00CAB2D221A55C3
:105990000134229B0393219B029301940CAB00934F
:1059A0004B465A4607990698FFF7E2FA15B0F0BC45
:1059B000BB46B246A946A046F0BD219B002B13D0A2
:1059C0004346002B02D10C3313420FD0219B013BE5
:1059D0002193190003E00CAB30221A5501348C429C
:1059E000CED21F2CF7D9CBE72199F8E72199F6E71A
:1059F000229B5B0704D50CAB2B221A550134C8E758
:105A0000229B1B07C5D50CAB20221A550134C0E7D9
:105A1000FFFFEFFFFFFFEF7F65CDCD4165CDCDC12E
:105A200070B3001074B3001064B300106CB30010B6
:105A300018B500100000E03FF0B5DE4657464E4670
:105A40004546E0B593B082468B46904611930029B7
:105A500000D100E300275446119B1878002800D19C
:105A6000FCE2252809D07D1C43463A005946A04750
:105A7000119B013311932F00EEE7013311930025A1
:105A8000119A11780B00203BD8B2102803D883005C
:105A9000C248C3589F460B00303BDBB2092B2CD9C0
:105AA0002A292FD000230A93119B1A782E2A39D045
:105AB00000239946119A1378683BD9B2122976D8F7
:105AC0008B00B749CB589F4601231D4301321192E9
:105AD000D6E702231D4301321192D1E704231D436F
