:020000041000EA
:1000000000B5324B212058609868022188439860DF
:10001000D860186158612E4B002199600221596106
:100020000121F02299502B49196001219960352056
:1000300000F044F80222904214D00621196600F024
:1000400034F8196E01211966002018661A6600F04E
:100050002CF8196E196E196E052000F02FF8012189
:100060000842F9D1002199601B49196000215960AB
:100070001A491B48016001219960EB211966A021F2
:10008000196600F012F800219960164914480160C1
:100090000121996001BC002800D000471248134993
:1000A000086003C880F30888084703B5996A0420EC
:1000B0000142FBD001200142F8D103BD02B5186610
:1000C0001866FFF7F2FF186E186E02BD00000240BE
:1000D000000000180000070000035F00212200005C
:1000E000F4000018222000A00001001008ED00E03C
:1000F00000000000000000000000000074B24E7A12
:1001000000200420F7010010C3010010C5010010F9
:10011000C1010010C1010010C1010010C101001097
:10012000C1010010C1010010C1010010C701001081
:10013000C1010010C1010010C9010010CB01001065
:10014000CD010010CD010010CD010010CD01001037
:10015000CD010010CD010010CD010010CD01001027
:10016000CD010010CD010010CD010010CD01001017
:10017000CD010010CD010010CD010010CD01001007
:10018000CD010010CD010010CD010010CD010010F7
:10019000CD010010CD010010CD010010CD010010E7
:1001A000CD010010CD010010CD010010CD010010D7
:1001B000CD010010CD010010CD010010CD010010C7
:1001C00000BE00BE00BE00BE00BE00BE00F04BF888
:1001D000103800BEF2EB88714CCA001070CA0010D3
:1001E0003402001090A31AE700202149086006C8D5
:1001F00081F3088810471F48006800282FD10DA4FC
:100200000ECC002902D000F012F8F9E71A491B4A77
:10021000002000E001C19142FCD1194988471949E9
:1002200088471949884700BEFDE701C901C29A42C3
:10023000FBD3704770CA0010C000002028050020C2
:10024000D8CE00100000042000000420D8CE0010FA
:1002500000100420001004200000000070470B482C
:1002600006F08CFC0047EFF30580C0B27047000039
:1002700008ED00E0000000D030050020D815002077
:10028000655400101108001021540010575600004A
:1002900006005250ABB3605304C200100600525027
:1002A000861C030214C20010060052505422A29D64
:1002B00018C2001005005250DE65F468D8CE001058
:1002C000F8B5C04606480749091A8B10C90FC91866
:1002D00010B5491003D0044B002B00D0984710BD37
:1002E000280500202805002000000000054B10B55F
:1002F000002B03D00449054800E000BFFFF7E2FFF0
:1003000010BDC046000000003C13002050B000109B
:10031000014B01221A707047C8150020274B1B782B
:10032000002B1AD0D0231B0640225A6140325A615A
:10033000234B1B889BB2002B04D0214A1388013B1E
:100340009BB213801F4B1B889BB2002B04D01D4A0D
:100350001388013B9BB2138070471B4B1B78002B0B
:1003600003D0D0231B0640225A61184B1B78002B68
:1003700003D0D0231B0680225A61154A137801331B
:10038000DBB21370132B08D9D0231B0640229A61CD
:100390000D4B00221A700E4B1A700E4A137801335F
:1003A000DBB21370132BC3D9D0231B0680229A61B2
:1003B000064B00221A70074B1A70B9E7CA150020C5
:1003C000AC150020A6150020CD150020CE1500206C
:1003D000C5150020C6150020D0231B065B689B01B5
:1003E00005D5D0231B06802292049A617047D02342
:1003F0001B06802292045A61F8E7000010B5474BB3
:100400009B68474A1278DBB246498B54552B30D053
:10041000511E4448415C552935D0552941D0931E81
:100420004048C05C552843D0D31E3E49C95C55297D
:1004300050D0131F3B48C05C552854D0531F394936
:10044000CB5C552B58D0063A36498A5C552A12D1D6
:10045000354A127893420ED1344BDA782F4B9A609A
:1004600008006422002107F037FB2D4B00221A7090
:1004700001E02A4A93602A4A13780133DBB21370F1
:10048000642B42D010BD092BC7D8294A13706422AF
:10049000002107F021FB274B00221A70204B1A7015
:1004A000E9E7214800788342B9D11C4A9360E2E72A
:1004B0001D4B1B789942B7D11E4B1B78002B04D0E3
:1004C0001D4B1A78154B9A60D5E71C4B1A78134BC5
:1004D0009A60D0E7144B1B789842AAD1134B1A7834
:1004E0000E4B9A60C7E7104B1B789942A6D10F4B71
:1004F0005A780A4B9A60BEE70B4909788842A2D124
:100500000A4B9A78054B9A60B5E7064864220021A9
:1005100007F0E2FA024B00221A70B3E700C0034072
:10052000C0150020CC080020ECB2001030090020DB
:10053000C715002020040020EDB20010EEB200101C
:10054000F0B5C64600B584B004000E0017001D00CB
:1005500004F0D4F88046E117FA229200002320002C
:1005600007F0A4F902000B0002950197009640469F
:1005700004F00CFA04B080BCB846F0BD82B03E4B2B
:100580009B6910210A001A40194208D03B4B9B6915
:1005900010210A001A40194238D002B07047384B77
:1005A0000F391970374B188880B26B46D91D002A55
:1005B00009D1314B9B69DB06FBD42F4B1B680B70B9
:1005C00001320131F3E76B46DA792F4B1A542D4A89
:1005D000138801339BB2138013889BB28C22520084
:1005E00093420BD0244B5B68012B0BD0224B5B68F2
:1005F000082BD2D1254B08221A60CEE7214B0022CE
:100600001A80EFE7214B01221A60EFE7204B0F39E8
:10061000197020490B8898B201339BB20B806B464E
:10062000D91D08E0154B9B69DB06FBD4134B1B68F7
:100630000B7001320131002AF4D06B46DA79164B87
:100640001A54144B1B889BB28C22520093420BD03D
:100650000A4B5B68012B0BD0084B5B68082B9CD1C5
:100660000E4B08221A6098E70A4B00221A80EFE727
:100670000A4B01221A60EFE700800340004003406C
:10068000CD150020B01500203005002004B0034037
:10069000CE150020B4150020500600200470034041
:1006A00030B587B003AA344B30CB30C21B881380DF
:1006B000002804D0012830D0002007B030BD03AAA4
:1006C000A82313702D4800230093013368210AF0FA
:1006D00047FB6420002104F023FA294B64221A808E
:1006E000264800230093033303AA68210AF044FB41
:1006F0000A20002104F014FA214B1B889BB2002B26
:1007000004D003AB9B785BB2002BE9DB03AB18781A
:1007100000025B78C01880B2CFE703AA8823137069
:10072000164800230093013368210AF019FB642066
:10073000002104F0F5F9124B64221A800F480023BF
:100740000093033303AA68210AF016FB0A20002154
:1007500004F0E6F90A4B1B889BB2002B04D003ABD4
:100760009B785BB2002BE9DB03AB187800025B7867
:10077000C01880B2A1E7C04660B00010000500209C
:10078000A615002010B50020FFF78AFF0200114BCC
:100790001B8883420ED2C31A9BB20F498B4206D8E4
:1007A0000E4B1B88934208D90D4B01221A70094B3E
:1007B000188010BD1B1A9BB2EFE7094B1B78002B6A
:1007C000F5D0084B1B889342F1D2054B00221A70DA
:1007D000EDE7C046BE15002087130000B8150020C5
:1007E000CA150020BA15002010B504000100044805
:1007F00004F0D4FD2100034804F0D0FD10BDC04634
:10080000008003400040034010B505F06FF810BDB4
:10081000F8B5DE4657464E464546E0B507F0B2FA13
:10082000FA200121400105F0A7F8122003F006F894
:10083000132003F003F8142003F000F8152002F051
:10084000FDFF1A2002F0FAFF1B2002F0F7FF19202B
:1008500002F0F4FF072002F0F1FF062002F0EEFFA5
:10086000162002F0EBFFD02424068023DB029946F9
:10087000636280231B039846636280235B039C466C
:1008800063628026B60366628025ED04656280207F
:1008900000056062802189046162802262624023D7
:1008A00063628027FF03BB4667624F46A7614746E6
:1008B000A7616746A761A661A561A061A161A26168
:1008C000A3615B46A3618B4B8B4900228B48FFF7EA
:1008D00037FE8B4B8B4900220A20FFF731FE8A4BF3
:1008E0008A49FA225200904600224046FFF728FE2D
:1008F000874E884D310028000AF0E2F900220021DD
:1009000028000AF009FA03210D2002F065FF0321F7
:100910000C2002F061FF002201210D2002F074FF83
:10092000002201210C2002F06FFF7B4D31002800D6
:100930000AF078FA0426794B1E600121052002F0A6
:100940004BFF0121032002F047FF0121042002F0A8
:1009500043FF0121022002F03FFF0122002103207A
:1009600002F052FF6E616E49122003F0A3F80121DC
:10097000122003F075F896231B029946694E190060
:10098000300004F00BFD0221092002F025FF0221B6
:10099000082002F021FF644D4946280004F0FEFCC7
:1009A0000221102002F018FF0221112002F014FF92
:1009B000336BC0221202944613405C4A1360F36A00
:1009C000602043406E221340594989460B60F16A0A
:1009D000102319404F463960296B67463940554FFF
:1009E0003960E96A41400A4053490A60EA6A1340A3
:1009F0000B60524B9A4619004B3803F05BF801210B
:100A0000152003F02DF850239946B363736B3826F5
:100A100033404B4A13605146142003F04BF8012138
:100A2000142003F01DF84B46AB636B6B1E40454B27
:100A30001E60454A00231370444A1370444A1370E1
:100A4000444A13705B466361434B42461A80424BF3
:100A50001B889BB2002BFAD1404A1380404A138076
:100A6000404A1380404A1380404B414A1A80414B10
:100A7000414A1A8013E001F013FF16E0FFF782FEEF
:100A80003E4B00221A7014E000F0A0FF07E000F0D7
:100A900093FE04E0D0231B068022D2039A61FFF765
:100AA000B3FE374B1B78002BE5D1344B1B78002B62
:100AB000E4D1254B1B78002BECD1D0231B068022E0
:100AC000D2035A612F4B00221A7000F017F9002848
:100AD000E5D02D4B1B889BB2022BD8D11B4B1B782A
:100AE000002BD1D0194B00221A70274B1A8001F02D
:100AF0008BFBD4E788080020110300108813000046
:100B0000700800201D030010A0080020D903001069
:100B1000A08601000005002000C0034004E003405F
:100B2000FD0300100080034000400340309003406C
:100B30002C900340305003402C5003407D050010A2
:100B40003490034034500340CA150020CC150020D7
:100B5000CD150020CE150020AC150020AE150020CC
:100B6000B0150020B2150020B4150020B8150020E3
:100B700049320000BA1500202B380000C8150020AB
:100B8000C7150020C9150020AA15002030B583B074
:100B90000400174B9B6908210A001A401942F8D13A
:100BA000144B02215B5EA3420ED06B46D91D0C7024
:100BB000002A1AD10E4B9B699B06FBD408780C4B7C
:100BC000186001320131F3E76B46D91D0D230B701C
:100BD00010000028E9D1064B9B699B06FBD40D78D9
:100BE000034B1D6001300131F3E703B030BDC04657
:100BF000008003408C15002030B583B00400174BF3
:100C00009B6908210A001A401942F8D1144B0021AF
:100C10005B5EA3420ED06B46D91D0C70002A1AD120
:100C20000E4B9B699B06FBD408780C4B1860013275
:100C30000131F3E76B46D91D0D230B70100000281E
:100C4000E9D1064B9B699B06FBD40D78034B1D60D5
:100C500001300131F3E703B030BDC046004003402E
:100C60008C1500200F4B1A8892B20F4B1B889BB239
:100C70009A4215D00B4A138899B201339BB2138064
:100C80000A4B5B5C037013889BB28C225200934228
:100C900001D001207047034B00221A800120F9E7A0
:100CA0000020F7E7AE150020B01500203005002029
:100CB0000F4B1A8892B20F4B1B889BB29A4215D0E9
:100CC0000B4A138899B201339BB213800A4B5B5CC9
:100CD000037013889BB28C225200934201D00120F2
:100CE0007047034B00221A800120F9E70020F7E744
:100CF000B2150020B415002050060020F0B5CE46F5
:100D0000474680B583B000236A46D371B54A137055
:100D1000B54A1380B54BFA2252001A8000260027EC
:100D20000125002D01D100F01FFDB04B1B889BB2A7
:100D3000002B01D100F018FD6B46D81DFFF792FF84
:100D400004000128EDD1A94BFA2252001A806B460B
:100D500007331B78102B02D000260027E1E7FF188D
:100D6000BFB23102360A7340A14A5B009E5A4E4020
:100D7000B6B26B46D81DFFF775FF012804D09B4B18
:100D80001B889BB2002BF4D16B4607331B78132BC7
:100D90001FD0152B00D1FDE2212BC2D1934B1B8814
:100DA0009BB2002BBDD06B46D81DFFF75BFF01281F
:100DB00004D08E4B1B889BB2002BF4D1894B0122AF
:100DC0001A708C4B6A46073212781A700026002778
:100DD000A7E7864A128892B2002ADAD0824A012115
:100DE0001180FF18BFB23102360A7340804A5B009F
:100DF0009E5A4E40B6B26B46D81DFFF733FF01280E
:100E000004D07A4B1B889BB2002BF4D16B4607337E
:100E10001B78FF2B00D03FE2744A128892B2002A5E
:100E200000D139E2FF18BFB23102360A7340704A6E
:100E30005B009E5A4E40B6B26B46D81DFFF712FFBC
:100E4000012804D0694B1B889BB2002BF4D1674B5F
:100E50001B889BB2002B01D1002562E76B4607334C
:100E60001B7898B2DF19BFB23502320A5A40604986
:100E70005200565A6E40B6B2002819D15E4B01227C
:100E80001A706B4607331B78102B19D06B46D81D90
:100E9000FFF7E8FE012804D0544B1B889BB2002BBF
:100EA000F4D1524B1B889BB2002B22D1002538E78E
:100EB000514A00211170013BD8B201F0D9FAE0E7A4
:100EC0006B46D81DFFF7CEFE012804D0474B1B8888
:100ED0009BB2002BF4D16B4607331B78FF18BFB2CF
:100EE0003102360A7340424A5B009E5A4E40B6B207
:100EF000CCE76B46DA79414B1A70BF18BFB23002AB
:100F0000330A53403A495B005E5A4640B6B2102A53
:100F100011D06B46D81DFFF7A5FE012804D0334B36
:100F20001B889BB2002BF4D1304B1B889BB2002B4B
:100F30001AD10025F5E66B46D81DFFF793FE012870
:100F400004D02A4B1B889BB2002BF4D16B4607338D
:100F50001B78FF18BFB23102360A7340244A5B0087
:100F60009E5A4E40B6B2D4E76B4607331B78FF1843
:100F7000BFB23102360A73401D4A5B009E5A4E4092
:100F8000B6B26B46D81DFFF76DFE012804D0174B93
:100F90001B889BB2002BF4D1144B1B889BB2002BF7
:100FA00001D10025BDE66B4607331B78FF18BFB2A1
:100FB0003102360A73400E4A5B009E5A4E40B6B26A
:100FC0006B46D81DFFF74EFE012804D0074B1B8847
:100FD0009BB2002BF4D1054B1B889BB2002B0FD189
:100FE00000259EE6CB150020AA150020AC15002098
:100FF00078B00010D0150020C9150020CF150020B2
:101000006B46DD792D026B46D81DFFF72BFE0128BC
:1010100004D0974B1B889BB2002BF4D1944B1B88B8
:101020009BB2002B00D190E36B4607331B78EB1883
:101030009BB29F4202D09E4215D102240A2003F0A7
:101040009BFD8C4B1B78002B18D18B4B00221A80F8
:101050008A4B1B78DDB293421CD0894B1B78FD2B49
:1010600057D000255DE61020FFF790FD1920FFF70F
:101070008DFD0620FFF78AFD0024DFE71622814957
:101080008148FF3209F026FF804A1388033B9BB258
:101090001380DAE7904619E07B4B4A46985CFFF7ED
:1010A000ABFD012C24D074490B8818021B0A9C4606
:1010B000754A4B46D25C63465340754A5B009B5A67
:1010C00043400B80434601339BB29846C1466F4B69
:1010D0001B88023B984513DA4346022BF2D0032BC0
:1010E000F0D0042BD8D1684BDB78102BD4D1E9E7B2
:1010F000654B4A469B5C604A11885B181380E1E7A8
:101100005D4C2088000AFFF777FD2078FFF774FD1B
:1011100007E61020FFF73AFD012C00D17FE0564989
:101120000A881002120A10235340594A5B009B5A46
:1011300043400B801A20FFF729FD012C00D173E0FA
:101140004D490A881002120A1A235340504A5B0084
:101150009B5A43400B800220FFF718FD012C68D0FA
:1011600045490A881002120A02235340484A5B008C
:101170009B5A43400B80474B1878FFF707FD012C23
:101180005CD03D490A881002424B1B881B0A120A98
:1011900053403F4A5B009B5A43400B803D4B1888AD
:1011A000000AFFF7F3FC012C50D033490B881802DA
:1011B0001B0A384A12785340354A5B009B5A434019
:1011C0000B801020FFF7E2FC012C46D02A490A8848
:1011D0001002120A102353402D4A5B009B5A4340D1
:1011E0000B801F20FFF7D2FC012C3BD022490A883C
:1011F0001002120A1F235340254A5B009B5A4340AA
:101200000B801D4C2088000AFFF7C0FC2078FFF7F8
:10121000BDFC1A4B00251D70194B1D7081E5164A47
:1012200013881033138085E7134A13881A33138009
:1012300091E7114A1388023313809CE70E4A154B3D
:101240001B881B0A11885B181380A7E7114B1B78BA
:10125000094A11885B181380B3E7074A13881033D3
:101260001380BEE7044A13881F331380C9E7C046C2
:10127000AC150020CB150020A8150020C9150020B2
:10128000CF1500203305002030050020AE150020CA
:1012900078B00010B6150020002B04D1B44B1B8889
:1012A0009BB2002B6AD16B46D81DFFF7DBFC0128EF
:1012B00004D0AF4B1B889BB2002BF4D16B46D81DDA
:1012C000FFF7D0FC012804D0A94B1B889BB2002B50
:1012D000F4D16B46D81DFFF7C5FC012804D0A44B00
:1012E0001B889BB2002BF4D16B46D81DFFF7BAFCCC
:1012F000012804D09E4B1B889BB2002BF4D16B4677
:10130000D81DFFF7AFFC012804D0994B1B889BB276
:10131000002BF4D197488C225200002106F0DCFB10
:10132000954B01221A70954B00221A80944B1A801B
:101330001020FFF72BFC2120FFF728FC914B187899
:10134000FFF724FC1020FFF721FC1A20FFF71EFCFA
:101350000220FFF71BFC0120FFF718FC1820FFF705
:1013600015FC1020FFF712FC1F20FFF70FFC0020D8
:10137000FFF70CFC7420FFF709FCD2E46B46D81D84
:10138000FFF770FC01288ED0794B1B889BB2002B95
:10139000F4D188E7764A128892B2002A00D1FBE4A1
:1013A000734A64211180FF18BFB23102360A7340BC
:1013B000754A5B009E5A4E40B6B26B46D81DFFF789
:1013C00051FC012804D06A4B1B889BB2002BF4D13E
:1013D0006B4607331B78E52B26D06B46D81DFFF7ED
:1013E00041FC012804D0624B1B889BB2002BF4D136
:1013F0006B4607331B78A22B26D06B46D81DFFF710
:1014000031FC012804D05A4B1B889BB2002BF4D12D
:101410006B46DA79FD2A00D89AE1554B1B889BB2BE
:10142000002B21D100257CE4514A128892B2002A77
:10143000D3D0FF18BFB23102360A7340524A5B0064
:101440009E5A4E40B6B2C8E7494A128892B2002A64
:10145000D3D0FF18BFB23102360A73404A4A5B004C
:101460009E5A4E40B6B2C8E7BF18BFB23002330A28
:10147000534045495B005E5A4640B6B2FE2A36D01C
:10148000424B00221A706B46D81DFFF7EBFB012878
:1014900004D0374B1B889BB2002BF4D1344B1B88F4
:1014A0009BB2002B00D156E16B46DC79A1B2E71963
:1014B000BFB23002330A6340334A5B009E5A464053
:1014C000B6B2002917D1324B01221A706B4607338E
:1014D0001B78102B17D02D4B1B78002B2CD0244BB6
:1014E0001B889BB2002B57D10025FFF71AFC274B16
:1014F000FD3A1A70C7E7264B00221A70601EC0B270
:1015000000F0B6FFE2E76B46D81DFFF7ABFB012802
:1015100004D0174B1B889BB2002BF4D16B460733CA
:101520001B78FF18BFB23102360A7340164A5B00BF
:101530009E5A4E40B6B2CEE76B46D81DFFF792FBDF
:10154000012804D00A4B1B889BB2002BF4D16B46B8
:1015500007331B780F4A1370FF18BFB23102360AE7
:101560007340094A5B009E5A4E40B6B2B7E7C04688
:10157000AC15002030050020CB150020AE15002052
:10158000B0150020D015002078B00010CC15002038
:10159000C9150020CF1500206B4607331B78102B90
:1015A00029D06B46D81DFFF75DFB012804D07C4B8A
:1015B0001B889BB2002BF4D1794B1B889BB2002B6C
:1015C00000D1CBE06B4607331B78FF18BFB2310266
:1015D000360A7340734A5B009E5A4E40B6B2724B55
:1015E0001B78002B20D06E4B1B889BB2002B34D174
:1015F0000025FFF796FB6B46D81DFFF733FB01284C
:1016000004D0674B1B889BB2002BF4D16B46073389
:101610001B78FF18BFB23102360A7340614A5B0083
:101620009E5A4E40B6B2BCE76B46D81DFFF71AFB78
:10163000012804D05A4B1B889BB2002BF4D16B4677
:1016400007331B78FF18BFB23102360A7340554A80
:101650005B009E5A4E40B6B2C5E7534B1B78002B39
:1016600001D0102C12D16B46D81DFFF7FBFA0128D0
:1016700004D04B4B1B889BB2002BF4D1484B1B88EA
:101680009BB2002B1BD10025FFF74BFB6B46D81DEF
:10169000FFF7E8FA012804D0414B1B889BB2002BCE
:1016A000F4D16B4607331B78FF18BFB23102360AFC
:1016B00073403C4A5B009E5A4E40B6B2D3E76B463D
:1016C000DC7924026B46D81DFFF7CCFA012804D040
:1016D000334B1B889BB2002BF4D1334B1B78304B20
:1016E0001B889BB2002B3CD06B4607331B78E3185A
:1016F0009BB2BB4201D0B34212D10A2003F03CFAA4
:101700002A4B1B78002B15D11020FFF73FFA16202B
:10171000FFF73CFA264B02221A800025FFF701FB57
:101720001020FFF733FA1920FFF730FA0620FFF7F1
:101730002DFAE2E71020FFF729FA2120FFF726FA19
:101740001C4B1878FFF722FADEE70025FFF7E9FACD
:101750000025FFF7E6FA0025FFF7E3FA0025FFF77B
:10176000E0FA0025FFF7DDFA0D4B1B889BB2002B3A
:1017700003D10E4B1B78002B07D1094B188880B280
:1017800003B0C0BCB946B046F0BD1020FFF7FEF96B
:101790001920FFF7FBF90120FFF7F8F9EDE7C04644
:1017A000AC15002078B00010CC150020CB1500201F
:1017B000AA150020D015002030B583B06B4600225A
:1017C000DA7107E06B4607331B781A2B1FD0192BF1
:1017D00000D1BBE0744B1B889BB2002B00D197E07B
:1017E0006B46D81DFFF764FA0128F3D16B46073327
:1017F0001B78102BEED16B46D81DFFF759FA012844
:10180000E0D0694B1B889BB2002BF4D1DAE76B4622
:10181000D81DFFF74DFA012804D0634B1B889BB2FB
:10182000002BF4D16B46DC79E51D06E06B460733EF
:101830001B78102B14D0013CA4B2002C20D05A4BA2
:101840001B889BB2002B1BD06B46D81DFFF730FACC
:101850000128EBD0544B1B889BB2002BF4D1E5E759
:101860006B46D81DFFF724FA012804D04E4B1B8885
:101870009BB2002BF4D1013CA4B20135ADB2DCE740
:101880006B46D81DFFF714FA012804D0464B1B887D
:101890009BB2002BF4D16B46D81DFFF709FA012843
:1018A00004D0414B1B889BB2002BF4D16B46D81D52
:1018B000FFF7FEF9012804D03B4B1B889BB2002B9D
:1018C000F4D16B46D81DFFF7F3F9012804D0364B4D
:1018D0001B889BB2002BF4D1344B1B78002B04D116
:1018E000334B1C88641BA4B210E01020FFF74EF9A4
:1018F0002120FFF74BF92F4B1878FFF747F9EFE757
:101900002D4B185DFFF742F90134A4B2A542F7D878
:10191000254B1B889BB2002B2ED028488C256D00B0
:101920002A00002106F0D8F8254B00241C80254B06
:101930001C8021482A00002106F0CEF81C4B1C8098
:101940001C80194B188880B203B030BD6B46D81D7F
:10195000FFF7AEF9012804D0134B1B889BB2002B74
:10196000F4D11020FFF712F91920FFF70FF96B4699
:10197000D879FFF70BF9CBE7134A137801331370CB
:101980001020FFF703F92120FFF700F9094B187821
:10199000FFF7FCF81020FFF7F9F81920FFF7F6F829
:1019A0008220FFF7F3F8B8E7AC150020CB15002034
:1019B000B4150020D015002050060020300500206E
:1019C000AE150020B0150020D6150020F0B5DE467B
:1019D00057464E464546E0B585B002AB0022DA7167
:1019E00000260025002300930124002C00D1CEE323
:1019F000C24B1B889BB2002B00D1C8E302ABD81DA1
:101A0000FFF730F907000128EFD1BC4BFA22520052
:101A10001A8002AB07331B78102BE6D1B84A128824
:101A2000ED18ADB23102360A7340B64A5B009E5AD9
:101A30004E40B6B202ABD81DFFF714F9012804D00E
:101A4000AE4B1B889BB2002BF4D102AB07331B7843
:101A50001A2BCAD1A94A128892B2002AC5D0ED1811
:101A6000ADB23102360A7340A64A5B009E5A4E4020
:101A7000B6B202ABD81DFFF7F5F8012804D09F4B92
:101A80001B889BB2002BF4D102AB07331B7898461E
:101A90004544ADB23102330A42465340994A5B0095
:101AA0009E5A4E40B6B243460733DBB29A462300F5
:101AB000444698460FE002ABDA79AD18ADB2300279
:101AC000330A53408F495B005E5A4640B6B2102A33
:101AD00014D0013CE4B2002C31D0884B1B889BB25F
:101AE000002B2AD002ABD81DFFF7BCF80128E2D0AA
:101AF000824B1B889BB2002BF4D1DCE702ABD81DD4
:101B0000FFF7B0F8012804D07C4B1B889BB2002B58
:101B1000F4D102AB07331B78ED18ADB23102360AAF
:101B20007340784A5B009E5A4E40B6B2013CE4B224
:101B300053460133DBB29A46CDE7444600E04446C3
:101B400002ABD81DFFF78EF8012804D06B4B1B8821
:101B50009BB2002BF4D102AB07331B78ED18ADB26A
:101B60003102360A7340674A5B009E5A4E40B6B255
:101B700002ABD81DFFF776F8012804D05F4B1B8815
:101B80009BB2002BF4D102AB07331B78ED18ADB23A
:101B90003102360A73405B4A5B009E5A4E40B6B231
:101BA00002ABD81DFFF75EF8012804D0534B1B8809
:101BB0009BB2002BF4D1514B1B889BB2002B00D160
:101BC00013E702AB07331B781B02984602ABD81D04
:101BD000FFF748F8012804D0484B1B889BB2002B24
:101BE000F4D1464B1B889BB2002B24D002AB0733A9
:101BF0001B7843449BB29D424BD09E424BD0424BFC
:101C00001B78002B0CD11020FEF7C0FF1920FEF727
:101C1000BDFF0620FEF7BAFF002300931C00E4E698
:101C20001020FEF7B3FF2120FEF7B0FF374B1878E6
:101C3000FEF7ACFFE7E7009B002B00D1A4E2324B9C
:101C40001B78002B2AD00323994609339846304B42
:101C50001B78FF2B27D02F4B00221A802E4B1B788E
:101C6000DAB20192002B27D01020FEF78FFF16204A
:101C7000FEF78CFF294B1B78FB2B00D14BE2274B47
:101C80001A78FC2A00D15CE2FD2A00D171E200241E
:101C9000ABE60097D3E702230093D0E700239946F1
:101CA00009339846D3E7434601339BB298464B46E7
:101CB00001339BB29946CEE74F462B005546B346BB
:101CC00026009A4641E0124BD85DFEF795FF009B37
:101CD000012B0CD00F490B8818021B0A0C4AD25D4D
:101CE0005340084A5B009B5A43400B802BE0084B53
:101CF000DB5D084A11885B18138024E0AC150020D6
:101D0000B015002078B00010CB150020D0150020B1
:101D100030050020A8150020C9150020CF1500208F
:101D2000C64BD85DFEF768FF009B012B24D0C44949
:101D30000B8818021B0AC14AD25D5340C14A5B009E
:101D40009B5A43400B800137BFB2B8451BD94B4665
:101D50004A460432BA42F6D04A4605329742F2D099
:101D600006339F42DCD1B54B9B5C102BABD1434675
:101D700001339BB29846E6E7B04BDB5DB04A118871
:101D80005B181380DFE734005346AA465E461D0009
:101D9000AD4B00221A80AD4B1A80A94B984618888B
:101DA000000AFEF729FF43461878FEF725FFD046C4
:101DB00002ABD81DFEF77CFF012804D0A44B1B8882
:101DC0009BB2002BF4D1A24B1B889BB2002B18D1E5
:101DD000A04B1B78002B09D11020FEF7D7FE19204D
:101DE000FEF7D4FE0C20FEF7D1FEFEE51020FEF734
:101DF000CDFE2120FEF7CAFE974B1878FEF7C6FEEF
:101E0000EAE702AB07331B78102B0FD0914B1B78FE
:101E1000002B00D074E11020FEF7B8FE1920FEF769
:101E2000B5FE8220FEF7B2FE019CDEE5444602AB21
:101E3000D81DFEF73DFF012804D0854B1B889BB2BF
:101E4000002BF4D1A246824B1B889BB2002B19D1E8
:101E5000804B1B78002B0AD11020FEF797FE19202B
:101E6000FEF794FE0C20FEF791FE019CBDE51020CC
:101E7000FEF78CFE2120FEF789FE774B1878FEF7DF
:101E800085FEE9E702AB07331B78162B12D0192B1E
:101E900000D104E16F4B1B78002B00D025E110200E
:101EA000FEF774FE1920FEF771FE0920FEF76EFEA4
:101EB000019C9AE50237BFB23C00D04605E05F4B7B
:101EC000185DFEF799FE0134A4B24346FB189C420C
:101ED000F5DB5F4BFA2292001A8002ABD81DFEF7A9
:101EE000E7FE012804D05A4B1B889BB2002BF4D18B
:101EF000574B1B889BB2002B19D1564B1B78002BDC
:101F00000AD11020FEF742FE1920FEF73FFE0C20FA
:101F1000FEF73CFE019C68E51020FEF737FE21200D
:101F2000FEF734FE4C4B1878FEF730FEE9E702ABC3
:101F300007331B78102B0FD0464B1B78002B00D09B
:101F4000A2E01020FEF722FE1920FEF71FFE092056
:101F5000FEF71CFE019C48E502ABD81DFEF7A8FE6B
:101F6000012804D03A4B1B889BB2002BF4D1384B8C
:101F70001B889BB2002B19D1364B1B78002B0AD142
:101F80001020FEF703FE1920FEF700FE0C20FEF7DE
:101F9000FDFD019C29E51020FEF7F8FD2120FEF74C
:101FA000F5FD2D4B1878FEF7F1FDE9E702AB07339D
:101FB0001B78162B10D0192B25D0264B1B78002B05
:101FC00057D11020FEF7E2FD1920FEF7DFFD0920B2
:101FD000FEF7DCFD019C08E51E4B1B78002B07D1AA
:101FE0001020FEF7D3FD1620FEF7D0FD019CFCE487
:101FF0001020FEF7CBFD2120FEF7C8FD164B187808
:10200000FEF7C4FDECE702ABD81DFEF751FE012838
:1020100004D00F4B1B889BB2002BF4D10D4B1B78C7
:10202000002B1BD11020FEF7B1FD1920FEF7AEFDED
:1020300002ABD879FEF7AAFD019CD6E4300500205A
:10204000A815002078B00010B2150020B4150020AB
:10205000AC150020CB150020D01500201020FEF775
:1020600095FD2120FEF792FD5D4B1878FEF78EFD61
:10207000D8E71020FEF78AFD2120FEF787FD584B98
:102080001878FEF783FD9CE71020FEF77FFD2120E6
:10209000FEF77CFD524B1878FEF778FD51E702AB56
:1020A000D81DFEF705FE012804D04E4B1B889BB2BD
:1020B000002BF4D14C4B1B78002B0BD11020FEF7DA
:1020C00065FD1920FEF762FD02ABD879FEF75EFDD3
:1020D000019C8AE41020FEF759FD2120FEF756FDF1
:1020E0003F4B1878FEF752FDE8E71020FEF74EFD53
:1020F0002120FEF74BFD3A4B1878FEF747FDCEE660
:102100001020FEF743FD2120FEF740FD344B1878E8
:10211000FEF73CFD7FE6354B9B7B012B0BD0022B62
:102120000CD0002B04D096200002FEF75DFBA6E544
:1021300096204001F9E796208001F6E79620C0013D
:10214000F3E72A4B9B7B502B0DD0D0231B0680211D
:10215000C9035961234BC8211980224B1B889BB2AC
:10216000002BFAD190E5D0231B068021C903996189
:10217000F0E71E49CB7B1E4A13801B021380897B2C
:102180000B431380002430E40024FFF72EFC174893
:102190008C256D002A00002105F09EFC154B0024C3
:1021A0001C80154B1C8015482A00002105F094FC6A
:1021B000134B1C80134B1C800A4B1B889BB2002BBB
:1021C00009D0084B188880B205B0F0BCBB46B246B7
:1021D000A946A046F0BD034B188880B2F4E7C0467C
:1021E000D0150020AC150020CB15002030050020B4
:1021F000B6150020AE150020B015002050060020B6
:10220000B2150020B415002010B582B06B46002234
:10221000DA71684B1B7A102B60D01424664B1B8834
:102220009BB2002B00D19DE01020FEF7AFFC2120D7
:10223000FEF7ACFC614B1878FEF7A8FC1020FEF707
:10224000A5FC1620FEF7A2FC5D4B1B889BB2A342A7
:1022500004D0594B1B889BB2002BF5D1594B00225F
:102260001A80574B1A80544BF532FF321A806B4656
:10227000D81DFEF7F7FC012804D04F4B1B889BB2FA
:10228000002BF4D16B4607331B78502B00D07CE039
:1022900048488C225200002105F01EFC494A0023C8
:1022A0001380474A1380484A1380484A13805020BD
:1022B000FEF7A2FC454B1B889BB2002B04D13E4B82
:1022C0001B889BB2002BF5D13B4B1B889BB2002B8C
:1022D00006D13F4B1B78422B57D10BE015249DE7CD
:1022E0003B4B1878FEF752FCF3E7334B1B889BB24D
:1022F000002B13D1304B1B889BB2002B45D0334BA6
:1023000000221A806B46D81DFEF7ACFC0128ECD0E9
:10231000294B1B889BB2002BF4D1E6E76B46D8799A
:10232000FF2832D0FEF768FC6B4607331B780A2B78
:10233000E0D1264B1B889BB2002B04D11E4B1B887F
:102340009BB2002BF5D11C4B1B889BB2002B1CD0E1
:102350001F4B1878FEF71AFC174BC8221A80FEF79D
:1023600053FAC7E71020FEF711FC2120FEF70EFC00
:10237000124B1878FEF70AFC1020FEF707FC192014
:10238000FEF704FC8220FEF701FC0A488C22520072
:10239000002105F0A1FB0B4A00231380084A13809B
:1023A000094A1380094A1380034B188880B202B08F
:1023B00010BDC04630050020AC150020D01500200F
:1023C000B0150020AE150020B2150020B415002075
:1023D0005006002010B5204B00221A8004E01E4A4F
:1023E000138801339BB213801B4B1A8892B21B4B8C
:1023F0001B889BB29A4206D2174B1B889BB2184A85
:10240000D35C102BEBD1144B1B8816491448C01811
:10241000022208F03BFD00280AD1104B1B889BB21A
:102420000D4A138001300D4B1A880F4B1A8010BDD6
:10243000094B1B880D490A48C018022208F026FDE6
:10244000002806D1054B1B889BB2034A138002303B
:10245000E9E70920E7E7C046B2150020B4150020DF
:1024600050060020D8B20010BC15002030B3001078
:1024700000B5172800D9FDE18000E84B1B589F46A6
:10248000D0231B06802252039A61802212039A6194
:102490008022D2029A61802292035A618022D20461
:1024A0009A61802212059A6100BDD0231B0680220A
:1024B00052039A61802212039A618022D2025A61E9
:1024C000802292035A618022D2049A6180221205EE
:1024D0009A61E9E7D0231B06802252039A61802289
:1024E00012035A618022D2029A61802292035A61B9
:1024F0008022D2049A61802212059A61D4E7D02307
:102500001B06802252039A61802212035A618022A4
:10251000D2025A61802292035A618022D2049A61C7
:10252000802212059A61BFE7D0231B068022520346
:102530005A61802212039A618022D2029A6180221B
:1025400092039A618022D2049A61802212055A6114
:10255000AAE7D0231B06802252039A61802212032D
:102560009A618022D2029A61802292039A6180222B
:10257000D2049A61802212055A6195E7D0231B0686
:10258000802252035A61802212039A618022D20271
:102590009A61802292035A618022D2049A61802239
:1025A00012059A6180E7D0231B06802252035A61EC
:1025B000802212039A618022D2025A618022920301
:1025C0005A618022D2049A61802212059A616BE7D7
:1025D000D0231B06802252035A61802212035A61C3
:1025E0008022D2029A61802292035A618022D20410
:1025F0009A61802212059A6156E7D0231B06802239
:1026000052035A61802212035A618022D2025A6117
:10261000802292035A618022D2049A61802212059C
:102620009A6141E7D0231B06802252035A6180221F
:1026300012039A618022D2025A61802292039A6127
:102640008022D2049A61802212055A612CE7D0239D
:102650001B06802252039A61802212039A61802213
:10266000D2025A61802292039A618022D2049A6136
:10267000802212055A6117E7D0231B0680225203DD
:102680009A61802212039A618022D2029A6180228A
:1026900092039A618022D2045A61802212059A61C3
:1026A00002E7D0231B06802252039A618022120384
:1026B0009A618022D2025A61802292039A6180221A
:1026C000D2045A61802212059A61EDE6D0231B06DE
:1026D000802252039A61802212035A618022D20220
:1026E0009A61802292039A618022D2045A618022E8
:1026F00012059A61D8E6D0231B06802252039A6104
:10270000802212035A618022D2025A6180229203EF
:102710009A618022D2045A61802212059A61C3E62E
:10272000D0231B06802252035A61802212035A6171
:102730008022D2029A61802292039A618022D2047E
:102740009A61802212055A61AEE6D0231B068022D0
:1027500052039A61802212035A618022D2029A6146
:10276000802292039A618022D2049A61802212050B
:102770005A6199E6D0231B06802252035A618022B7
:1027800012039A618022D2029A61802292039A6196
:102790008022D2045A61802212059A6184E6D023F5
:1027A0001B06802252035A61802212039A61802202
:1027B000D2025A61802292039A618022D2045A6125
:1027C000802212059A616FE6D0231B0680225203F5
:1027D0005A61802212035A618022D2029A618022B9
:1027E00092039A618022D2045A61802212059A6172
:1027F0005AE6D0231B06802252035A61802212031C
:102800005A618022D2025A61802292039A61802208
:10281000D2045A61802212059A6145E678B200100E
:10282000D0231B06802252035A61802212035A6170
:102830008022D2025A61802292039A618022D204BD
:102840009A61802212055A612EE6D0231B0680224F
:1028500052039A61802212035A618022D2025A6185
:10286000802292039A618022D2049A61802212050A
:102870005A6119E6D0231B06802252039A618022F6
:1028800012039A618022D2029A61802292039A6195
:102890008022D2049A61802212059A6104E6C04621
:1028A000F0B5DE4657464E464546E0B5AB4CA5442E
:1028B000002397939693959394931422002103A851
:1028C00005F00AF9A64B1B78012B19D0022B5AD020
:1028D000042B00D116E2082B01D100F064FFA14BBC
:1028E00001221A709E4B00221A70FDF78DFF99236A
:1028F0009B009D44F0BCBB46B246A946A046F0BD35
:10290000984A00231370984A1380984A136000264F
:10291000002527E0642002F02FF90134E4B2924B45
:102920001B88002B0CD1042C0AD80120FDF7B8FE1F
:102930008D4B188000B20028ECDA00221A80E9E7FB
:10294000052C19D0884B1B88642B18D90123AB4068
:102950001E43320C854B1A70320A5A709E70013534
:10296000EDB2DD70172DBAD82800FFF781FD0A20DF
:1029700002F002F90024D8E7FDF746FFE2E7012361
:10298000AB409E43E5E7774B00241C7095949494EC
:10299000764B1C608C22520000214EA805F09CF85A
:1029A000714BDC805C801C819C8000253FE1704B7A
:1029B0009B699B06FBD408786D4B1860013201318E
:1029C000062AF4D96B4B64221A806A4B1B889BB28F
:1029D000002BFAD1684A128892B294461A00002756
:1029E00006E07818654E365C4EA84654013292B225
:1029F000624512D211006148805C1028F1D1501C50
:102A00005E4E305C1028ECD1B818365C4EA8865467
:102A10000137FFB2013292B2E8E7032B0DD819005B
:102A2000A7314EAA505C94A9C8541900AB31515C2F
:102A300095AAD15401339BB2EFE79498959F5049E2
:102A400004F071FF04F0A0FF86B24D49381C04F079
:102A50006AFF04F099FF83B29946464B64221A80BC
:102A6000484B00221A80444B1A80474908E0404BEB
:102A70009B699B06FBD408783D4B186001320131FD
:102A8000082AF4D93F4B1A8801323B4B1B889BB272
:102A90009A4204DB374B1B889BB2002BF2D1FFF725
:102AA00099FC012806D0374B00221A80324B1A803D
:102AB000354976E02F4B1B889BB2002BF3D0314B6E
:102AC00000221A802C4B1A800021304A08E0284B43
:102AD0009B699B06FBD41078254B186001310132AD
:102AE0000729F4D9274B1A880132234B1B889BB244
:102AF0009A4204DB1F4B1B889BB2002BF2D1FFF7DD
:102B000069FC01280BD003AB9888DA8880181B89F0
:102B1000C018032104F05EF8134B5880C3E7154B2F
:102B20001B889BB2002BEED01422002103A804F0D6
:102B3000D3FF002706E00A2002F01EF80137FFB29B
:102B4000042FE0D80120FDF7ABFD7B0003AA9852CB
:102B500000B20028EFDA00219952ECE79CFDFFFF5C
:102B6000C715002020040020B808002030090020EC
:102B700000400340AC150020B41500205006002092
:102B800000007A44B2150020F0B2001028B3001003
:102B9000C34B9B699B06FBD40878C14B186001327C
:102BA0000131082AF4D9BF4B1A880132BE4B1B8869
:102BB0009BB29A4204DBBD4B1B889BB2002BF2D127
:102BC000FFF708FC012845D0B94F788804F00EFBC8
:102BD000B84AB94B04F07BFA04F044FB83B2984640
:102BE000BB80F88804F002FBB44AB54B04F06FFADE
:102BF00004F038FB80B23881434632000A3A42453D
:102C000009DC0A36B34206DC4B460A3B834202DC4F
:102C10001433984272DD0123A3409D432A0CA94B33
:102C20001A702A0A5A709D700134E4B2DC70172CB5
:102C300000D954E69B4B00221A809B4B1A80FDF76B
:102C4000E3FD2000FFF714FC0A2001F095FF0022AD
:102C50009D49B5E6954B1B889BB2002BB4D0914B98
:102C600000221A80904B1A800021984A08E08C4B71
:102C70009B699B06FBD41078894B186001310132A7
:102C80000729F4D9874B1A880132874B1B889BB2DE
:102C90009A4204DB854B1B889BB2002BF2D1FFF7D5
:102CA00099FB01280BD003AB9888DA8880181B8920
:102CB000C018032103F08EFF7D4BD88084E77B4B47
:102CC0001B889BB2002BEED01422002103A804F035
:102CD00003FF002706E00A2001F04EFF0137FFB294
:102CE000042FE0D80120FDF7DBFC7B0003AA9852FB
:102CF00000B20028EFDA00219952ECE70123A3404B
:102D00001D438BE7724A00231370959394936D4A89
:102D100013608C246400220000214EA804F0DCFE25
:102D20002200002108A804F0D7FE002301939A4650
:102D300000F02BFD5A4B9B699B06FBD40878584B3F
:102D4000186001320131062AF4D9584B64221A80E6
:102D5000564B1B889BB2002BFAD1534A1788BFB23F
:102D60001A00002606E070185A4C245C4EA8445401
:102D7000013292B2BA421FD211005648805C10282C
:102D8000F1D1501C534C205C1028ECD1B018245CBD
:102D90004EA884540136F6B2013292B2E8E7190027
:102DA000A7314EAA505C94A9C8541900AB31515CAC
:102DB00095AAD15401339BB2032BF0D99498959CDA
:102DC000454904F0B0FD04F0DFFD83B29946424965
:102DD000201C04F0A8FD04F0D7FD83B20093334B10
:102DE00064221A802F4B00221A802F4B1A803B49F5
:102DF00008E02B4B9B699B06FBD40878284B186096
:102E000001320131082AF4D9264B1A880132264BA7
:102E10001B889BB29A4204DB244B1B889BB2002B7D
:102E2000F2D1FFF7D7FA012806D01E4B00221A80F4
:102E30001D4B1A8029497DE01C4B1B889BB2002B3F
:102E4000F3D0184B00221A80174B1A80244908E04F
:102E5000134B9B699B06FBD40878114B1860013219
:102E60000131072AF4D90F4B1A8801320E4B1B8807
:102E70009BB29A4204DB0D4B1B889BB2002BF2D114
:102E8000FFF7A8FA01282DD003AB9888DA888018BC
:102E90001B89C018032103F09DFE054B5880C4E731
:102EA00000400340B2150020B4150020AC150020EE
:102EB000B808002060E5D022DB792340D9CEF75353
:102EC000E3A522403009002010B3001008B3001021
:102ED000200400205006002000007A44F0B20010C8
:102EE00028B30010BF4B1B889BB2002BCCD0142200
:102EF000002103A804F0F0FD002406E00A2001F000
:102F00003BFE0134E4B2042CBED80120FDF7C8FB1F
:102F1000630003AA985200B20028EFDA0021995208
:102F2000ECE7B14B9B699B06FBD40878AE4B18606D
:102F300001320131082AF4D9AC4B1A880132AC4B6A
:102F40001B889BB29A4204DBA64B1B889BB2002BCA
:102F5000F2D1FFF73FFA01283DD0A64E708804F069
:102F600045F9A54AA54B04F0B2F804F07BF984B208
:102F7000B480F08804F03AF9A14AA24B04F0A7F813
:102F800004F070F980B230810A235B424B449B46C7
:102F9000A3420DDC4B460A339C4209DC009A130025
:102FA0000A3B834204DC1433984201DC00F0C9FB85
:102FB0008C246400220000214EA804F08DFD220024
:102FC000002108A804F088FD884B00221A80884B55
:102FD0001A808D495BE0834B1B889BB2002BBCD0D1
:102FE000824B00221A80824B1A80884908E07E4B6F
:102FF0009B699B06FBD408787B4B1860013201313A
:10300000072AF4D9794B1A880132794B1B889BB275
:103010009A4204DB734B1B889BB2002BF2D1FFF763
:10302000D9F901280BD003AB9888DA8880181B895E
:10303000C018032103F0CEFD6E4BD8808DE7694B9D
:103040001B889BB2002BEED01422002103A804F0B1
:1030500043FD002406E00A2001F08EFD0134E4B2B5
:10306000042CE0D80120FDF71BFB630003AA985253
:1030700000B20028EFDA00219952ECE75A4B9B6925
:103080009B06FBD40878584B186001320131062AA0
:10309000F4D9544B64221A80524B1C88A4B2002CE1
:1030A000FAD1534B1E88B6B22300002006E08118E7
:1030B000574F7F5C4EA98F5401339BB2B34212D25B
:1030C0001A005349C95C1029F1D1591C504F795C41
:1030D0001029ECD1C1187F5C4EA9CF540130C0B289
:1030E00001339BB2E8E72300032B0BD8D91C4EAA6F
:1030F000505C97A9C854D91D515C96AAD15401338C
:103100009BB2F1E7374B64221A80384B00221A80B9
:10311000374B1A803F49082A09D8334B9B699B06D5
:10312000FBD40878304B186001320131F3E72F4BA4
:103130001A8801322E4B1B889BB29A4204DB294B22
:103140001B889BB2002BF2D1FFF744F9012809D06C
:10315000244B64221A80254B00221A80244B1A80AB
:103160002C4977E01F4B1B889BB2002BF0D01F4BE4
:1031700000221A801E4B1A80274908E01A4B9B69CF
:103180009B06FBD40878184B186001320131072ADE
:10319000F4D9164B1A880132154B1B889BB29A4200
:1031A00004DB104B1B889BB2002BF2D1FFF712F906
:1031B00001280BD003AB9888DA8880181B89C018C7
:1031C000032103F007FD0B4B5881C1E7054B1B881A
:1031D0009BB2002BEED01422002103A804F07CFC4B
:1031E000002622E0AC15002000400340B21500206C
:1031F000B4150020B808002060E5D022DB79234018
:10320000D9CEF753E3A5224018B3001008B300103D
:1032100050060020F0B20010DCB200100A2001F0CD
:10322000ABFC0136F6B2042EC4D80120FDF738FA03
:10323000730003AA985200B20028EFDA00219952D5
:10324000ECE7B84B9B699B06FBD40878B54B18603C
:1032500001320131082AF4D9B34B1A880132B34B39
:103260001B889BB29A4204DBB14B1B889BB2002B9C
:10327000F2D1FFF7AFF8012843D0AE4B98465889FA
:1032800003F0B4FFAC4AAD4B03F021FF03F0EAFFBB
:1032900087B243469F81D88903F0A8FFA84AA94B6B
:1032A00003F015FF03F0DEFF86B243461E823800AE
:1032B00004F042FBA44904F020FB071C300004F09A
:1032C0003BFBA14904F019FB0200010E4EAB9972C1
:1032D000010C5972000A1872DA713A00390E9971AC
:1032E000390C59713F0A1F71DA709A7890461600AE
:1032F0000322190008A804F0F5FB23000021A446CE
:1033000061E08B4B1B889BB2002BB6D0864B002212
:103310001A80864B1A808D4908E0824B9B699B0678
:10332000FBD408787F4B186001320131072AF4D9A9
:103330007D4B1A8801327D4B1B889BB29A4204DB7D
:103340007B4B1B889BB2002BF2D1FFF743F801287F
:103350000BD003AB9888DA8880181B89C01803212A
:1033600003F038FC734BD88187E7714B1B889BB205
:10337000002BEED01422002103A804F0ADFB0026A0
:1033800006E00A2001F0F8FB0136F6B2042EE0D880
:103390000120FDF785F9730003AA985200B20028B6
:1033A000EFDA00219952ECE7102702AC0832A4189A
:1033B00027540131C9B2CA18033202AC18202018B0
:1033C000875401339BB2B3420BD2C81803304EAAC4
:1033D000125C102AE8D0DA1C4EAFBF5C08AA175462
:1033E000EFE7644647460337CF19102302A8182297
:1033F0008018C35501370F3302A88218D3557618A9
:103400000536B6B2634605E008AAD25C1419A4B228
:1034100001339BB2B342F7D3230A02A918228918B9
:103420008B55731C02A98A18D454414B64221A800C
:103430003D4B00221A803D4B1A80454908E0394B2C
:103440009B699B06FBD40878364B1860013201312A
:10345000082AF4D9344B1A880132344B1B889BB2AA
:103460009A4204DB324B1B889BB2002BF2D1FEF751
:10347000B1FF01281DD00135EDB2042D00D960E166
:10348000294A00231380294A13802A4A5381D38171
:10349000D38053809381138213819380FDF7B4F915
:1034A0005046FEF7E5FF0A2001F066FB002229499D
:1034B00049E41F4B1B889BB2002BDCD01A4B002227
:1034C0001A801A4B1A80023608A908E0154B9B692E
:1034D0009B06FBD40878134B1860013201319642E9
:1034E000F4D8114B1A880132104B1B889BB29A42B8
:1034F00004DB0F4B1B889BB2002BF2D1FEF76AFF57
:103500000128B8D10A4B1B889BB2002BB3D0084BC3
:1035100064221A80044B00221A80044B1A80002176
:103520000D4A24E000400340B2150020B4150020ED
:10353000AC150020B80800205EBA490C022B2440CC
:10354000E7FBA9F1D28D224000007A44E4B20010DA
:10355000FCB2001010B30010F0B20010944B9B6945
:103560009B06FBD41078924B186001310132082978
:10357000F4D9904B1A8801328F4B1B889BB29A4228
:1035800004DB8E4B1B889BB2002BF2D1FEF722FF8F
:10359000012800D06FE7894B1B889BB2002B00D11C
:1035A00069E7844B00221A80834B1A80844B08E021
:1035B0007F4989698906FBD418787D490860013202
:1035C0000133072AF4D97B4B1A8801327A4B1B88C6
:1035D0009BB29A4204DB794B1B889BB2002BF2D141
:1035E000FEF7F8FE012800D045E7744B1B889BB21C
:1035F000002B00D13FE7714B64221A806D4B0022F3
:103600001A806D4B1A806F4B08E0694989698906F9
:10361000FBD418786649086001320133082AF4D9CE
:10362000644B1A880132644B1B889BB29A4204DBBC
:10363000624B1B889BB2002BF2D1FEF7CBFE012818
:1036400000D018E75D4B1B889BB2002B00D112E71E
:10365000584A00231380584A13805B4A08E05449B3
:1036600089698906FBD41078514908600133013219
:10367000072BF4D94F4B1A8801324F4B1B889BB252
:103680009A4204DB4D4B1B889BB2002BF2D1FEF714
:10369000A1FE012800D0EEE6484B1B889BB2002B10
:1036A00000D1E8E6454B64221A80424A0023138089
:1036B000414A1380434A08E03D4989698906FBD4A1
:1036C00010783B49086001330132082BF4D9394B9B
:1036D0001A880132384B1B889BB29A4204DB374B65
:1036E0001B889BB2002BF2D1FEF774FE012800D09C
:1036F000C1E6324B1B889BB2002B00D1BBE62D4AA2
:10370000002313802C4A1380304A08E02849896935
:103710008906FBD410782649086001330132072B53
:10372000F4D9244B1A880132234B1B889BB29A424E
:1037300004DB224B1B889BB2002BF2D1FEF74AFE22
:1037400099E6234B9A8893450DDC4B460A339A42FF
:1037500009DC1F4B1A8900990B000A3B934202DCDB
:1037600014339A4218DD012352469340019A9A433A
:10377000019201990A0C174B1A700A0A5A70997033
:1037800052460132D2B29246DA705346172B01D913
:10379000FFF7A5F8002573E6012352469340019AEE
:1037A0001A430192E5E70B4B00221A60FFF797F8E6
:1037B00000400340B2150020B4150020AC150020D5
:1037C00020B30010F0B20010DCB20010E4B2001020
:1037D000B80800203009002010B58300084A94463C
:1037E00063441A68402462408034144080225201AD
:1037F00013431C60C000034B9C466044416010BDF5
:1038000004C001400040014080000B4B9C466044D6
:1038100000290DD00823002A0CD00422134302688B
:1038200053400C221A4080235B0103431A60704707
:103830000023F0E70022F1E704C0014010B50123A6
:103840008340D0221206936293610521FFF7C4FFE3
:1038500010BD0000EFF3108072B6034B1B68002B05
:10386000FBD0BFF35F8F70472C0100D0BFF35F8F99
:10387000024B00221A6080F3108870472C0100D0A0
:10388000F8B506000C001500FFF7E4FFE308F71891
:10389000F15C07222240012393400B4205D1DBB2A9
:1038A0000B433B70FFF7E2FFF8BD2100280001F059
:1038B00055FEF0B583B00600019114001F00FFF71C
:1038C000C9FF00E00134BC420CD8E308F518F35CF2
:1038D0000721214001228A401A42F3D1D2B21A4371
:1038E0002A7001E001246442FFF7C0FF002C02DBD4
:1038F000200003B0F0BD019B002BF9D0089801F027
:103900002DFE0000034B1B6802201840431E984107
:10391000C0B2704700C00640002307E0054A9A186D
:103920009200BFF35F8F0021116001331F2BF5D987
:103930007047C04640000034054A1078431CDBB293
:103940001370172B02D9130010221A707047C0464B
:103950002104002010B582B00100054C054B0093F6
:103960001F2318222000FFF7A4FF02B010BDC0469D
:10397000980E002034B30010074B9B681030800075
:103980001950BFF35F8FBFF35F8F044B00211960A5
:1039900082F310887047C04600ED00E0240100D09B
:1039A00010B5091A0B1F0A4A94466144094A91420C
:1039B00008D8DA0706D45B105B055B0D0648184390
:1039C00080B210BD054B064A0648992101F02CFD36
:1039D000FC070000FE0F000000E0FFFF50B30010E6
:1039E000B0B5001080B3001010B5091A04394A08A8
:1039F000090B08D14905490D064B0B430380064BC3
:103A00001343438010BD054B054A0648A12101F030
:103A10000BFDC04600F0FFFF00F8FFFFC0B3001031
:103A200084B5001080B3001001238340034A10685E
:103A30001840431E9841C0B27047C04600E100E004
:103A4000002904D0034B1860034B18607047034BE8
:103A50001860FBE780E200E000E100E080E100E0C8
:103A600010B5012383401800FFF7EAFF10BD0000E6
:103A700001238340014A13607047C04600E200E022
:103A8000024B9B6810308000C058704700ED00E08A
:103A900010B5FFF7F5FF002805D0054BC01A2F28F9
:103AA00003D8012010BD0020FCE70020FAE7C04643
:103AB0002404002070B504000D00EFF3108672B6E8
:103AC0000C4B1B68002BFBD0BFF35F8F2000FFF770
:103AD000D7FF094B984201D0A84205D132002900F6
:103AE0002000FFF749FF70BD044B054A05487C21C3
:103AF00001F09AFC240100D0CD010010D0B30010D9
:103B0000E4B5001080B30010F0B5DE4657464E46CF
:103B10004546E0B589B0814601911500EFF3108A62
:103B200072B6744B1B68002BFBD0BFF35F8F724BD8
:103B30000027DF57002F40DB7C00E419A4006F480A
:103B400024180622A2566C4B1A706D4B9A684B468D
:103B500010339B00D35898461E00181A2F2838D9C6
:103B6000684B98452FD105AE674B338067497B0082
:103B70009B46D8198000614B984640440230FFF7BD
:103B80000FFF7080624BB380FF23B371F571019B0F
:103B900007935F44BB00434407CE07C301231C4384
:103BA000A046524641464846FFF7E6FE09B0F0BC43
:103BB000BB46B246A946A046F0BD564B564A5748AA
:103BC000CD2101F031FC564B534A5448D42101F029
:103BD0002BFC01380C2103F025F8002912D1012318
:103BE0009E43B34633000026DA79AA4211D9062152
:103BF000595600290CDB4A00521892003F491E001A
:103C00008B18F1E7474B444A4448E02101F00CFC93
:103C10001E00002E3BD005AB434A1A80813A5A80E1
:103C20000623F3560293002B18DABD20000205ABE1
:103C30009B469880029A9A71DD71019A0792301D15
:103C40002100FFF7ADFEB080B7712C4B7A00D2197E
:103C500092009B185A4613CA13C3A2E77800C019F2
:103C60008000264BC0180430311DB388DA0A1C2AA4
:103C700007D15B055B1502335B00C918FFF790FEA7
:103C8000D5E72A4B2A4A2548A72101F0CDFB05AEEE
:103C90001D4B33801D497B000293DB199B00174AA3
:103CA00090461A0042440392901CFFF779FE708000
:103CB000039A101D5946FFF773FEB0801D4B5A46FC
:103CC0004146521A524153431B0DB371F571019A8B
:103CD0000792029B9C466744BB00434407CE07C340
:103CE000114B5A461380813B538001231C43A0464D
:103CF00057E7C046240100D0D1150020240400203D
:103D000000ED00E0CD01001000A1FFFF54040020F1
:103D100000BDFFFF08B40010CCB5001080B3001048
:103D200030B4001058B4001001480000CCB40010AA
:103D3000BCB50010AAAA0000F0B5CE46474680B533
:103D400083B006000D00EFF3108872B6554B1B6868
:103D5000002BFBD0BFF35F8F534B9A6834001034B5
:103D6000A300D758514B9F4207D0AF4200D197E0F4
:103D700001974F4BFB1A2F2B09D9424639003000CF
:103D8000FFF7FAFD03B0C0BCB946B046F0BD300045
:103D9000FFF74AFE814600213000FFF761FEBFF3C6
:103DA0005F8FFCF760FA002801D0844211D1012313
:103DB000019C9C430021A368AB4212D00622A2566C
:103DC000002A0DDB53009B189B00394A2100D418B0
:103DD000F1E7384B384A2C213848FF3101F024FBF9
:103DE0002100AB4255D106256557002D37DB304BFE
:103DF0006A00521992009B189A68A260DA79E271FF
:103E00009B795BB2A371002B10DABD200002A08069
:103E1000274B6A00521992009B18294A1178997110
:103E2000157049463000FFF71BFEA6E7201D6B000A
:103E30005B199B001E4A9B18191D9B88DA0A1C2AD5
:103E400007D15B055B1502335B00C918FFF7A8FDBE
:103E5000DDE71C4B1C4A1948A72101F0E5FA0028B0
:103E600012D100290ED0FF238B71184B8B8014497F
:103E70000B78A3710E4A164BA41A644163431B0DC1
:103E80000B70CEE7094FF2E71249201DFFF7ACFD9A
:103E9000C7E7114B084A60210848FF3101F0C4FA16
:103EA000024F6AE7240100D000ED00E0CD010010D0
:103EB00024040020E4B400109CB5001080B300106E
:103EC000D1150020CCB40010BCB5001000BDFFFF20
:103ED000AAAA00005E04002008B5001070B5040016
:103EE000012606432D4BF31A2F2B28D8FCF7BBF9DC
:103EF00000282BD0EFF3108C72B6294B1B68002BD7
:103F0000FBD0BFF35F8F254A264D2100891A494116
:103F10004D432D0D6DB2244B9B6880001B58B3425E
:103F20001BD00021032932D81C4B4A0052189200A2
:103F30009B189B795BB2AB421FD00131F2E71B4B60
:103F40001B4AC2211B48490001F06EFA1A4B184A5D
:103F500088211848FF3101F067FA134B9B68174A14
:103F60001A50174B1A78A2711D70BFF35F8F0C4B5C
:103F700000221A608CF3108870BD084B4A0050185C
:103F800080001818FF2686710E4A8280E9E70E4BE2
:103F9000074ACC210748490001F046FA24040020D2
:103FA000240100D0AAAA000000ED00E010B5001026
:103FB00068B5001080B3001038B50010CD010010B6
:103FC000D115002000BDFFFF44B500100022044BB6
:103FD00002E0044902C30132072AFAD97047C046F9
:103FE00000E400E08080808000B583B00100D02331
:103FF0001B061B680648C018064B009305230022C9
:10400000FFF757FC002801DB1F23181A03B000BD7F
:10401000A41500204CB50010024B9C466144890059
:10402000016070474000003410B50C00CB6883423B
:1040300007D10B6908009847002809D020686168FB
:1040400010BD064B064A96210648490001F0ECF9DE
:104050000023E36000200021F2E7C04600B6001014
:10406000C4B8001014B6001070B505000C000800AC
:1040700000F010FE200000F0F5FE0849200000F0DE
:1040800035FEFFF759FC064B9C4660448000686093
:104090002C75044BA400E55070BDC0469D43001034
:1040A00040000034541300200A4B1A68EFF31081CB
:1040B00072B61368002BFCD0BFF35F8F054B1B68F3
:1040C000BFF35F8F00221A6081F3108840BF002089
:1040D000002170477015002010B5002920D003681A
:1040E0001B7B99421CD88368154CA4466144090186
:1040F0005B181C685968002A18D003681B7B9A4219
:1041000014D883680E488446624412019B181A68CA
:104110005B6801208B4201D80ED00020C0B210BDD8
:10412000084B094A09483B2101F07EF9054B064A34
:1041300006483B2101F078F9A242EFD8EDE7C046EE
:10414000FFFFFF0F4CB600102CB9001014B6001082
:1041500010B500291DD0037B99421AD804684B0082
:104160005B18033BE418002919D0002A1DD09142A6
:1041700021D0002A25D0037B9A4222D80068530020
:104180009B18033BC3189970217800291FD1227016
:1041900010BD104B104A1148682101F045F9104B31
:1041A000104A0E486F3101F03FF90F4B0D4A0B4892
:1041B000702101F039F90D4B0A4A0848712101F0CC
:1041C00033F9044B044A0548682101F02DF9597070
:1041D0002270DDE780B6001098B900109CB6001080
:1041E000E8B6001074B90010F4B6001000B7001063
:1041F00070B506000D001400002914D0002A14D058
:10420000436880689847002806D0220029003000C3
:10421000FFF79EFF280007E02A0021003000FFF78B
:1042200097FF200000E0100070BD0800FCE70000D0
:10423000F0B583B00500009201930AAB1C780BAB7C
:104240001F78002C26D003685A7B944207D10123A3
:10425000002B19D1002C3AD1200003B0F0BD002C66
:104260000CD01A7B944209D81A6863001B19033BCF
:10427000D3189B78002BEBD00123E9E73C4B3D4A58
:104280003D48682101F0D0F83C4B3D4A3D4865214E
:1042900001F0CAF803689C7B002CDBD011D01A7B9C
:1042A00094420ED81A6861000919033952185178DE
:1042B0009973002900D1D973002393705370137040
:1042C000C8E72B4B2B4A2C48682101F0ADF8002C95
:1042D00037D02B681B7B9C4233D8AB682A4AA21884
:1042E00012019B18009A1A60019A5A60089A9A6003
:1042F000099ADA602E68002C29D02ED0337B9C429C
:104300002BD8336862001219033A9B1800229A7066
:104310005A701A70717B22003000FFF769FF7073CA
:10432000844299D1287D009A019B00F027FD061E4A
:1043300001D0002F17D00C9B002B00D18CE71E70F2
:104340008AE7124B124A0F483B2101F06DF8114BDE
:10435000114A0948A52101F067F8054B054A0648AE
:10436000682101F061F82868210000F029FFE2E7E8
:1043700080B6001098B900109CB6001018B7001055
:10438000A4B9001014B60010FFFFFF0F4CB60010C8
:104390002CB9001010B6001088B90010F0B5DE4638
:1043A00057464E464546E0B58BB00990002308932A
:1043B000B24B8200D55833E0B14BB24AB2483F21EC
:1043C00001F032F8B14BB24AB2483B2101F02CF86F
:1043D000B14BB24AAF488C2101F026F8B04BAF4A3E
:1043E000AC48902101F020F8A84BAE4AA9484021E2
:1043F00001F01AF843461A685B68099800F0BEFCA1
:1044000000239B469A466B68BFF35F8F00221A60B9
:1044100089F310885346002B53D1002800D126E1A0
:1044200000F044FC02000B1EC6DB002000210690B9
:1044300007916868EFF3108972B601680029FCD013
:10444000BFF35F8F2868447B002C35D0BAD0017B46
:104450008C42B7D8AE68944961180901B0468844C7
:1044600041460E684F68B61A9F41002FC2DC01D149
:10447000002EBFD1002100F099FEA042A8D14346F2
:104480001A685B680692079343469B689A464346C0
:10449000DB689B465346002BA0D0002CA4D02B6891
:1044A0001B7B9C42A0D8EA68631ED35C08931B0266
:1044B000184328610020A6E700239B469A46002067
:1044C000A1E7089B1B022343984659461800D04792
:1044D00006000F006A68EFF3108972B6136859423C
:1044E0004B41D9B2002BF9D1BFF35F8F002F26DBF0
:1044F000002F52DD2B69002B53D0434572D100F0C1
:10450000D5FB02000B1E73DB0100180092197B41E2
:10451000984202D804D1914202D901225242D317C3
:10452000002B6BDB00210491013103910294594669
:104530000191514600912800FFF77AFE49E02B696E
:10454000002BD5D043451CD1069A079B10001900BB
:10455000921BBB41994202D804D1904202D9012258
:104560005242D317002B12DB002104910131039139
:10457000029459460191514600912800FFF758FED8
:1045800027E04A4B454A43489F2100F04DFF3C4BF2
:104590003C4A3D483F2100F047FF002F01D1002E4B
:1045A000A8D12A68002C44D0537B9C422CD10121F5
:1045B00000293ED1D37B002B41D1D473002C50D0A5
:1045C0002B681B7B9C424CD8EA68013C135D01338D
:1045D000135500232B616A68BFF35F8F136089F363
:1045E00010881DE7314B2D4A2A48A22100F01CFFFC
:1045F000234B244A24483F2100F016FF204B214A38
:1046000021483F2100F010FF002C0CD0137B9C426E
:1046100009D8106863001B19033BC3189B78002B53
:10462000C6D00121C4E7224B224A2348682100F06A
:10463000FBFE224B224A2048F62100F0F5FE002B1B
:1046400009D0117B8B4206D810685900CB18033B68
:10465000C3185C70B1E7164B164A1748682100F082
:10466000E3FE0A4B0F4A0B48402100F0DDFE0BB081
:10467000F0BCBB46B246A946A046F0BD541300208C
:1046800040B70010F8B800105CB700104CB600102E
:104690002CB9001014B60010A4B7001010B9001007
:1046A000BCB7001050B90010FFFFFF0FC8B70010D3
:1046B00080B6001098B900109CB6001004B8001025
:1046C00064B9001010B50A4B5B68002B04D0094890
:1046D0000A21FFF7A1FC10BD054C074A2068230002
:1046E000102100F087FC03212000FFF7BDFCEEE75E
:1046F0006C04002070150020D940001010B5064B46
:104700005B68002B01D0044810BD044B044A0548E7
:104710005C2100F089FEC0466C04002028B800101F
:1047200038B9001014B60010F0B5DE4657464E46B4
:104730004546E0B58BB0804616001F00149B9A4694
:10474000159B994616AB1B789B461F2302AA9446DD
:10475000634400221A7036E0002809D042461268ED
:10476000127B904204D84246D168421E8A5C4CE0DB
:10477000454B464A4648402100F056FE0798002B1C
:1047800079D05B46002B76D04946D04704000D0017
:1047900003000B4300D175E000294ADB00F086FAE4
:1047A00002000B1E59DB0100180012196B419842E0
:1047B00002D804D1914202D901225242D317002BD0
:1047C00051DB16001F0043465A68EFF3108472B69F
:1047D000136859424B41D9B20791002BF8D1BFF36E
:1047E0005F8F1F3302AA944663440493002303930C
:1047F00002934B4601935346009332003B004046E0
:10480000FFF716FD031EA7D1020041464968BFF31A
:104810005F8F00250D6084F31088002B29D01F23A3
:1048200002A98C4663441B78002BA7D112021043C7
:10483000A5E730003900361BAF41B94202D804D198
:10484000B04202D901267642F717002FBBDA114B8E
:10485000114A12483F2100F0E7FD0E4B0E4A0F4867
:104860003F2100F0E1FD0B4B0B4A0C483F2100F0CB
:10487000DBFD012040420BB0F0BCBB46B246A9466E
:10488000A046F0BD0798F6E74CB6001050B90010EE
:1048900014B6001040B70010F8B800105CB7001054
:1048A000F8B504004268EFF3108572B613685842F9
:1048B0004341D8B2002BF9D1BFF35F8FCBB222684E
:1048C000567BB3421BD10120002847D02069884283
:1048D0002AD0090AC9B2002B2DD02068007B834260
:1048E00029D8E668581E305C88422AD000206368C8
:1048F000BFF35F8F00221A6085F31088F8BD002B8C
:104900000CD0167BB34209D817685E00F618033E38
:10491000BE19B678002ED7D00120D5E7124B134A26
:104920001348682100F080FD124B134A852113487B
:10493000490000F079FD124B124A1048402100F066
:1049400073FD1900100000F03BFC0028CFD10E4B86
:10495000094A12210948FF3100F066FD23698B42A4
:10496000C5D100232361C2E780B6001098B90010BA
:104970009CB600104CB80010E0B8001014B600103F
:104980004CB6001050B9001070B80010F0B585B0EA
:1049900007000C9E1100194301D101220023B760CA
:1049A0000A993161326073600B997161D817010007
:1049B0004240140043401D00241A8D4100F076F956
:1049C00002000B1E1ADB0100180012196B419842FD
:1049D00002D804D1914202D901225242D317002BAE
:1049E00012DB0121029101960A4900913800FFF77C
:1049F0009BFEF060C043C00F05B0F0BD064B074AF8
:104A000007483F2100F010FD034B044A04483F21B2
:104A100000F00AFD2940001040B70010F8B800105F
:104A20005CB70010F0B587B006000F00FBF71BFC69
:104A300000281FD106246442E517A4197D41BD4218
:104A400002D803D1B44201D900240025002D14DB83
:104A50000494059500F02AF902000B1E13DBA41A3A
:104A60009D41002D17DC14D03000390000F02AF9E8
:104A700007B0F0BD234800F071FD234B234A2448C2
:104A80003F2100F0D1FC204B204A21483F2100F07B
:104A9000CBFC002CE8D0FFF731FE002302930193FA
:104AA0001C4B0093049A059BFFF73EFE002818DA82
:104AB000DAE7002300E00023002BD5D1164B1A685B
:104AC000EFF3108172B61368002BFCD0BFF35F8F39
:104AD000114B1B68BFF35F8F00221A6081F31088AF
:104AE00020BF0499059A0D4B5B6A9A42E3D80B48A4
:104AF000806A884203D29A42DBD00123DCE701239B
:104B0000DAE7C04674B8001040B70010F8B80010DB
:104B10005CB70010A940001070150020004005404F
:104B2000F8B504000D0000F0C1F802000B1E10DB08
:104B300020002900801859418B4202D804D18242BA
:104B400002D901204042C117002908DBFFF76AFFA4
:104B5000F8BD064B064A07483F2100F065FC034BB1
:104B6000034A04483F2100F05FFCC04640B70010F4
:104B7000F8B800105CB7001010B5FA2292000023BC
:104B8000002102F093FEFFF7CBFF10BD70B584B09B
:104B900006000C00FFF7B2FD002302930193194BAE
:104BA000009332002300FFF7BFFD051E11DD20BF7B
:104BB000FFF7A4FD2900FFF773FE134B5B6A9C42CD
:104BC0001BD8114A926AB2421AD29C4213D00120D9
:104BD00014E00D4B5B6A9C4209D80B4A926AB242C0
:104BE00007D29C4201D0012008E0002006E000200E
:104BF00004E0012002E0002000E0002004B070BDCD
:104C00000120FBE7A94000100040054070B5EFF31C
:104C100005833F2018401038EFF3108C72B6184B04
:104C20001B68002BFBD0BFF35F8F0123190081406D
:104C3000144A5163144A12781400C440234213D01A
:104C4000104B5C6A114B8500EB589C4205D3104B0E
:104C5000EB580D4C8A43227007E00A4A031D9B0063
:104C600099589950002300E00023BFF35F8F044A56
:104C7000002111608CF31088002B00D0984770BD84
:104C8000280100D000400540D51500207C150020EB
:104C9000880D002010B50100024A034B1800FEF7F2
:104CA000EFFD10BDBCB90010C4150020044B5B6AB9
:104CB000034A906A1900536A9942F9D17047C04675
:104CC00000400540084B5B6A01E0074B5B6A8B4282
:104CD000FBD301E0044B5B6A8B4203D1024B9B6A1E
:104CE0008342F7D37047C0460040054070B50400CA
:104CF0000E00EFF3108572B61B4B1B68002BFBD028
:104D0000BFF35F8F002E1CD02000FEF7B9FE174BBB
:104D100083420BD019002000FEF7CCFE01212000B9
:104D2000FEF79EFE0123A340114A1360114BA4001D
:104D3000E650BFF35F8F0C4B00221A6085F310889A
:104D400070BD0C4BA2000021D1500122A2400A49A3
:104D50000B7893430B7005492000FEF7EDFF00210F
:104D60002000FEF77DFEE4E7280100D00D4C001086
:104D700038600540880D0020D5150020F0B5DE46CE
:104D800000B584B00400150001921E000293FFF7E5
:104D90008DFF03958E4202D84ED185424CD9EFF358
:104DA000108B72B6274B1B68002BFBD0BFF35F8FB5
:104DB000254A17780125A540EBB23B431370234BDE
:104DC0005D63221D92000199D150214AA1000298F1
:104DD00088501B6A2B4212D11C4B1B6C2B4208D0F3
:104DE0000020BFF35F8F174B00221A608BF31088EF
:104DF00023E0184B184A1948C12100F015FBFFF7B2
:104E000055FF8E4214D802D1039B834210D80E4B1B
:104E10001B78BB420ED00D4B1D625D631F222240EA
:104E2000012393400E4A1360074B1F700120D8E7FF
:104E30000020D6E70120D4E7012004B080BCBB46A7
:104E4000F0BDC046280100D0D51500200040054027
:104E50007C150020E0B9001048BA001004BA001018
:104E600080E200E0EFF3108C72B60B4B1B68002B56
:104E7000FBD0BFF35F8F01238340084A13620849C8
:104E80000A789A430A70BFF35F8F034B00221A60BF
:104E90008CF310887047C046280100D000400540C0
:104EA000D515002010B500291DD0037B99421AD8D2
:104EB00004684B005B18033BE418002919D0002A52
:104EC0001DD0914221D0002A25D0037B9A4222D8BE
:104ED000006853009B18033BC31899702178002980
:104EE0001FD1227010BD104B104A1148682100F0EC
:104EF0009BFA104B104A0E486F3100F095FA0F4B99
:104F00000D4A0B48702100F08FFA0D4B0A4A0848F1
:104F1000712100F089FA044B044A0548682100F029
:104F200083FA59702270DDE780B6001050BB001084
:104F30009CB60010E8B600103CBB0010F4B60010A0
:104F400000B7001070B506000D001400002914D041
:104F5000002A14D0436880689847002806D02200B1
:104F600029003000FFF79EFF280007E02A002100FB
:104F70003000FFF797FF200000E0100070BD080030
:104F8000FCE7000010B50023437301338373037BF8
:104F9000C3730123027B9A4213D9002B0BD0027BEF
:104FA000934208D801685A00D218033A8A1801338C
:104FB000DBB25370EEE70C4B0C4A0D48682100F051
:104FC00033FA002A09D0924207D8016853009B188F
:104FD000033BCB1800225A7010BD034B034A044810
:104FE000682100F021FAC04680B6001050BB0010C6
:104FF0009CB6001010B5017342608360FFF7C2FFDA
:1050000010BD000070B50400081E00D170BD00295D
:1050100031D0237B99422ED822684B005B18033B8A
:10502000D3185A78002AF1D02BD0237B9A4228D863
:10503000216853009B18033BCB185D780021597001
:10504000002824D0237B984221D8216843001B18D4
:10505000033BCB180021597001002000FFF772FFBD
:10506000060029002000FFF7CDFF020031002000DC
:10507000FFF768FFCAE7094B094A0A48682100F0B0
:10508000D3F9064B064A0748682100F0CDF9034BD7
:10509000034A0448682100F0C7F9C04680B60010F2
:1050A00050BB00109CB6001070B505000C00160037
:1050B000002927D02CD0037B994229D803684900C6
:1050C000091903395B185A78002A27D19A78002ADF
:1050D0002AD11978FFF796FF0300002E03D0EA7B50
:1050E000002A27D1EC73002B36D1002C47D02B7B24
:1050F0009C4244D82A6863001B19033BD318002242
:105100005A7070BD214B224A2248382100F08CF998
:10511000214B224A2248682100F086F9214B1C4A83
:105120001C483A2100F080F91F4B194A19483B21CD
:1051300000F07AF9002A09D0297B8A4206D82E6825
:1051400051008A18033AB2185470CBE7124B134A35
:105150001348682100F068F9002B0AD02A7B93429B
:1051600007D82A6843001B18033BD31800229A7003
:10517000BBE7094B094A0A48682100F055F9064B7C
:10518000064A0748682100F04FF9C04664BA00108B
:1051900028BB00106CBA001080B6001050BB001085
:1051A0009CB60010A4BA0010CCBA001070B5040070
:1051B0000A00457B2900FFF777FF6073280070BD68
:1051C00070B50400002966D0437B8B420ED00029C5
:1051D00011D0037B99420ED805684B005B18033B46
:1051E000ED18AB78002B0CD1002055E00121FFF722
:1051F000DDFF012050E0294B294A2A48682100F0B0
:1052000013F9002B1FD0027B93421CD800685A0070
:10521000D318033BC218C35C8B421AD0002B1BD09F
:10522000227B934218D820685A00D318033BC01839
:1052300043788B4216D0002BF0D11B4B1B4A1C48E5
:10524000672100F0F1F8154B154A1648682100F067
:10525000EBF86B78137007E0104B114A1148682186
:1052600000F0E2F86B7843700023AB706B700122A2
:105270002000FFF719FF0200617B814205D020006A
:10528000FFF760FE6073012006E00A4B074A0848FA
:105290006D2100F0C9F8002070BDC04680B6001036
:1052A00050BB00109CB6001044B5001010BB00109D
:1052B0006CBA0010F0BA001010B50400FEF73CFB09
:1052C00001002000FEF7A8FEFF232371BFF35F8FCC
:1052D00010BD10B50400FEF72FFB01002000FEF703
:1052E0009BFEFF23237100236371BFF35F8F10BD0B
:1052F000034B9C46614489000160BFF35F8F704798
:105300004000003410B504000120FEF723FB01002B
:105310002000FFF7EDFF10BD70B504000D00062062
:1053200000F036FAC000290001F07CFCC60908D064
:105330000E4B9E4217D87F230340013335005E0891
:1053400000E001256562A6622C3480239B01234383
:1053500000221A60062000F01BFA8000A9018919BA
:1053600001F060FC70BD0026014DEBE7FEFF000080
:10537000FFFF0000002909D00A22064B9C4660442A
:1053800043425841044B4000C252704780225200B1
:10539000F3E7C0460080FCBF8C15002070B5050007
:1053A0000C00062000F0F4F9002829D0164B9D428D
:1053B00027D08022D203154B1A60154B1A60154B6B
:1053C0009B6811009943FAD100212800FFF7D2FF12
:1053D00021002800FFF7A0FF29002C31EB6A602292
:1053E00053400E321A4080235B010B431A600A4B74
:1053F0002B6380239B010B4310221A600323AB64B1
:1054000070BD80221204D6E70080034000E0004017
:1054100000F0004000C000400103000000BEFDE7B6
:1054200010B5FFF7FBFF000030B583B00D00190089
:10543000002A0DD0084B002A0CD0084C0192009392
:105440002B000200200002F091FC0120FFF7E6FF94
:10545000034BF0E7024AF0E724BC001034BC001014
:1054600030BC001070B52B4B2B4A1A602B4B2C4ACA
:105470001A602C4B9A682A4B9343FAD12A4C01E0CC
:1054800008CC9847294B9C42FAD300F001F9234BF2
:10549000274A1A60234B9B68DB43DB01FAD1254B7B
:1054A00040229A675A671A67DA66234C09E0234B51
:1054B000234A24488321FFF7B7FF2000FFF7FCFEB3
:1054C0000834214B9C4209D22368002BF5D0012BD4
:1054D000EDD12000FFF7FDFE0834F2E71B4DA9686F
:1054E0001B4CC022200002F0FDFAAC60FAF7BBFEB4
:1054F000002800D000BEFEF70FFAFEF767FDFFF7A9
:10550000E1F8144C01E008CC9847134B9C42FAD3C5
:1055100070BDC04600E00040BFCDFBFE00F0004083
:10552000FE7F3C0000C00040100500202005002048
:10553000FFFFFF0100F001400805002064BC0010DF
:10554000DCBC001084BC00101005002000ED00E061
:105550000000002020050020280500200FB400B521
:1055600083B0084802F0D0FB049B002B07D005A9AC
:105570000191180002F0D8FB034802F0C5FB01209E
:10558000FFF74CFFC8BC0010D8BC0010F8B5DE46D1
:1055900057464E464546E0B506000F0015000A9AEC
:1055A00093424ED31A0E92461B0298460A9A002343
:1055B0004046514601F078FB81467400A419A400CE
:1055C0002E4B9C4664446368834200D26060331F64
:1055D000DBB29B46012B3AD9C0239B012343802297
:1055E00012011A60264BB200D158002905D0586923
:1055F00001F018FB01300138FDD16D0123685D40D9
:10560000E0222A4080235B0123431A605A46012A84
:1056100028D980239B012343802212011A604B4624
:1056200063604A4600234046514601F03DFB144B5F
:10563000B60098510120F0BCBB46B246A946A04630
:10564000F8BD104B104A11482D21FFF7EDFE012F38
:10565000C2D1C0239B01234303221A60A368DB0746
:10566000FCD5CAE72168794003220A401A60A36882
:105670000125BD401D42FAD0CBE7C0460080004066
:105680009C0E0020ECBC001044BD001000BD0010BA
:1056900030B583B00C2000F021F9FEF733F9002873
:1056A0000DD0002304E02E4A99002E488850013383
:1056B000092BF8D92A4B2C4A5A6203B030BD2B4B28
:1056C00000229A6700F088F9294B01221A60274BC3
:1056D0005B6C012BFBD1274B03221A60234B9B6B86
:1056E000012BFBD1013300930433234A01212348CA
:1056F00000F054F805230093214A0121214800F0CD
:105700004DF8214B0093002202210420FFF73EFFB9
:105710001E4D00952B00002201210520FFF736FFCA
:10572000104C00942300002200210720FFF72EFFD9
:1057300000942300002200210820FFF727FF0A4BD6
:1057400000932300002200210920FFF71FFF00958E
:105750002B00002200210620FFF718FFADE7C0460E
:105760009C0E0020006CDC021BB700000080004093
:105770003CB0004030B00040002F6859008002402B
:10578000008C864700C00240001BB70040597307D9
:10579000014B8000C05870479C0E0020F0B5C646F3
:1057A00000B504000F0090461D000C2001F03AFAED
:1057B00006003D4A42443D4B9A4243D843011B1ADE
:1057C0009901C91AC90009188901404601F02AFA4D
:1057D0000200103A98235B009A4239D86B1E062BC0
:1057E0003CD8069B013B062B38D8069B9D423BD3F9
:1057F00043461B09B3423DD32D04069B1E0335438C
:105800002368002B3CDB2A4B9C424AD080235B015F
:10581000284A1360284A1360284A92681900914365
:10582000FAD12760A060221DC0239B0113432122CF
:105830001A602268002AFCDAE56008221A6080BC3F
:10584000B846F0BD1E4B1F4A1F481121FFF7ECFD63
:105850001E4B1C4A1C481921FFF7E6FD1C4B194A38
:1058600019481C21FFF7E0FD1A4B164A1648222161
:10587000FFF7DAFD184B134A13482521FFF7D4FD33
:1058800022683F231340BB42BDD1A3681B051B0DFB
:105890008342B8D1E368EE22D2021340AB42B2D1C8
:1058A000CDE780239B01B3E780E84BD380F8A93292
:1058B00000C0024000E0004000F0004000C0004096
:1058C00054BD001090BE0010B4BD0010F4BD001017
:1058D00010BE00105CBE001074BE001080239B0040
:1058E0000343014AD362704700800540024B1A68A7
:1058F000024B5A607047C0463413002000800540B8
:1059000010B50200164B8020C0051860154B1648D4
:10591000186000290AD0154BE021C9041960002A3B
:1059200009D1124B802212061A6010BD0C4BE021E7
:10593000C9041960F3E753019B1A9800801800010D
:105940000B4B186080235B04984202D3084B094A32
:105950001A60FFF7CBFF054B8022D2051A60E4E7FF
:1059600000B0054008200140FCFF010000A00540F8
:1059700034130020FFFFFF0010B5034B034ADA6128
:10598000FFF7BEFF10BDC046008005402131B76A59
:1059900010B5030010000C4A8024E4051460002BAD
:1059A0000DD001221343094A094CD461094C5C40D3
:1059B0001462516293620021FFF7A2FF10BD034BF6
:1059C0000022DA61F7E7C04600B0054000800540DC
:1059D000D3C007B02D3FF84F064BAA2212011A6020
:1059E0002F22DA60044B054A1A60024B5B68002BD9
:1059F000FBDA7047004002400060024000B0FA004D
:105A0000704710B5002802D00B684968984710BD50
:105A10000100002007E083001B185B00501C086099
:105A20001078C01830380A681378303BDBB2092B85
:105A3000F1D97047F0B5DE4657464E464546E0B5CB
:105A400083B093461F000C9B9A460D9C0E9B994673
:105A50000F9B9B0703D0B8460F00060022E001927F
:105A6000A34688464E46B9460700B44207D2551CA5
:105A70004B4641462020B84701342A00F5E73D0057
:105A80004F465C46019B9B46B1464646B8463700AA
:105A90002E0007E0013C551C5346185D4346390073
:105AA000B0472A00002CF5D135003E0047460F9B39
:105AB0009B0707D4100003B0F0BCBB46B246A94612
:105AC000A046F0BDB0464E46B9462F005D46531B7A
:105AD000B342EFD2541C4B4641462020B847220027
