:020000041000EA
:1000000000B5324B212058609868022188439860DF
:10001000D860186158612E4B002199600221596106
:100020000121F02299502B49196001219960352056
:1000300000F044F80222904214D00621196600F024
:1000400034F8196E01211966002018661A6600F04E
:100050002CF8196E196E196E052000F02FF8012189
:100060000842F9D1002199601B49196000215960AB
:100070001A491B48016001219960EB211966A021F2
:10008000196600F012F800219960164914480160C1
:100090000121996001BC002800D000471248134993
:1000A000086003C880F30888084703B5996A0420EC
:1000B0000142FBD001200142F8D103BD02B5186610
:1000C0001866FFF7F2FF186E186E02BD00000240BE
:1000D000000000180000070000035F00212200005C
:1000E000F4000018222000A00001001008ED00E03C
:1000F00000000000000000000000000074B24E7A12
:1001000000200420F7010010C3010010C5010010F9
:10011000C1010010C1010010C1010010C101001097
:10012000C1010010C1010010C1010010C701001081
:10013000C1010010C1010010C9010010CB01001065
:10014000CD010010CD010010CD010010CD01001037
:10015000CD010010CD010010CD010010CD01001027
:10016000CD010010CD010010CD010010CD01001017
:10017000CD010010CD010010CD010010CD01001007
:10018000CD010010CD010010CD010010CD010010F7
:10019000CD010010CD010010CD010010CD010010E7
:1001A000CD010010CD010010CD010010CD010010D7
:1001B000CD010010CD010010CD010010CD010010C7
:1001C00000BE00BE00BE00BE00BE00BEEFF3058054
:1001D000103800BEF2EB887180990010A4990010CD
:1001E0003402001090A31AE700201F49086006C8D7
:1001F00081F3088810471D48006800282FD10DA4FE
:100200000ECC002902D000F012F8F9E71849194A7B
:10021000002000E001C19142FCD1174988471749ED
:1002200088471749884700BEFDE701C901C29A42C5
:10023000FBD37047A4990010C0000020D80E002006
:10024000BCA700100000042000000420BCA7001080
:10025000001004200010042000000000704709482E
:1002600005F016FE0047000008ED00E0000000D099
:10027000E00E0020B4210020095D001005070010E9
:10028000FD5D00105756000006005250ABB360539E
:100290004897001006005250861C03025897001021
:1002A000060052505422A29D5C9700100500525047
:1002B000DE65F468BCA70010F8B5C04606480749DB
:1002C000091A8B10C90FC91810B5491003D0044B77
:1002D000002B00D0984710BDD80E0020D80E00206B
:1002E00000000000054B10B5002B03D00449054861
:1002F00000E000BFFFF7E2FF10BDC04600000000B5
:1003000014210020709300100122014B1A707047D5
:10031000A2210020244B10B51B78002B16D0D0232F
:1003200040221B065A6140325A61204B1A88002A2B
:1003300003D01A88013A92B21A801D4B1A88002AFB
:1003400003D01A88013A92B21A8010BD1948037876
:10035000002B03D0D02340221B065A6116490B788C
:10036000002B03D0D02380221B065A61134A137836
:100370000133DBB21370132B06D9D02340241B06A4
:100380009C610023037013700D4A13780133DBB2B4
:100390001370132BC9D9D02380201B06986100232A
:1003A0000B701370C1E7C046A421002088210020F3
:1003B00082210020A7210020A82100209F210020C9
:1003C000A0210020D0231B065A68920103D5802269
:1003D00092049A617047802292045A61FAE7C046FB
:1003E000F8B5444D444CAE6823784448F2B2C25448
:1003F000552A2BD0C1180139097855291ED0C218A9
:10040000023A1578552D2ED0C218033A1178552985
:1004100042D0C218043A1578552D46D0C218053A74
:10042000117855294AD0C218063A1278552A4ED06A
:100430000133DBB22370642B0ED0F8BD092A1FD91B
:100440002F4F3F789742DAD1FF2232400133DBB29F
:10045000AA602370642BF0D16422002106F0B6F963
:1004600000232370E9E7264A12788A42CCD1254A34
:100470001278002A38D0244A11781E4A9160D7E7B2
:10048000224B00211A70642206F0A0F900221D4BB5
:100490001A7001232370D0E7194A1278AA42B8D102
:1004A0001B4A1178134A9160C2E7154A12788A42B2
:1004B000B4D1174A51780F4A9160B9E7104A1278BF
:1004C000AA42B0D1124A91780A4A9160B0E70C4A28
:1004D00012788A42ACD10E4B0021DA78054B9A6033
:1004E000642206F073F9D4E70A4A1178014A916050
:1004F0009EE7C04600C003409A210020A4160020B9
:1005000070960010D00D002071960010A1210020DF
:1005100008170020729600101023304930B58A6900
:10052000134220D101222E4B2E4C1A7025880F32F7
:10053000ADB210008B6918401A42FAD10A682A4BF2
:100540005A55238801339BB223808C2322889B0039
:100550009A4231D0214B5B68012B32D01F4B5B6834
:10056000082B26D030BD21498A691342FAD10122D5
:100570001F4B204C1A7023880F329DB201339BB25F
:10058000238010008B6918401A42FAD10A681A4B6E
:100590005A558C2322889B009A4219D0134B5B68D2
:1005A000012B17D0114B5B68082BDBD1134A13606A
:1005B000D8E7134A1360D5E7084B20805B68012B0E
:1005C000CCD10F4A1360054B5B68082BCAD1F0E70A
:1005D0002080E3E7094A1360E4E7C0460080034057
:1005E000A72100208C210020E00E002000400340C5
:1005F000A821002090210020101100200470034049
:1006000004B00340F0B585B004000E00170004F0FC
:1006100097FAFA22050000232000E117920006F065
:1006200019F80B00002102000297280001910096A2
:1006300004F088FB05B0F0BDF0B587B003AC210035
:100640002D4B020021CB21C11B880B80002A04D036
:100650000020012A2BD007B0F0BDA823274E23701D
:100660006821A73B00923000220008F063FC642060
:10067000002104F0CBFC6423214D00272B8002E0F5
:10068000A3787F2B0DD90323220068213000009727
:1006900008F0B6FC0A20002104F0B8FC2B88002BDF
:1006A000EED1237860781B02C01880B2D3E788238C
:1006B000124E23702200873B68210090300008F022
:1006C00039FC6420002104F0A1FC64230C4D0027B8
:1006D0002B8002E0A3787F2BE3D90323220068213B
:1006E0003000009708F08CFC0A20002104F08EFCFA
:1006F0002B88002BEED1D4E780930010B00E0020A1
:1007000082210020F0B5DE4657464E464546E0B50C
:1007100085B006F0CBF9FA200121400105F04EFA30
:10072000122003F089FC132003F086FC142003F050
:1007300083FC152003F080FC1A2003F07DFC1B20B5
:1007400003F07AFC192003F077FC072003F074FC17
:10075000062003F071FC162003F06EFC0A2003F063
:100760006BFCD02480232406DB0263629B4680233B
:100770001B0363629A4680235B036362994680236E
:100780009B0363629846802780268023FF043605FA
:100790009B04676266626362802340218022DB03E0
:1007A0006262616263628023DB000D0000220A2026
:1007B000A3623F3903F02EFC5846A0615046A06169
:1007C00048468023A06140469B04A061A761A661C2
:1007D000A36180238022DB03A261AC49A561AC4AFE
:1007E000A361AC48FFF70EFF0A20AB4AAB49FFF705
:1007F00009FFFA2304275B001800A94AA949984673
:10080000FFF700FFA84EA949300008F049FB00227D
:100810003000002108F06EFB03210D2003F0E2FB05
:1008200003210C2003F0DEFBA14E002201210D204C
:1008300003F0F0FB002201210C2003F0EBFB300061
:100840009A4908F033FC9B4B01211F60052003F0FF
:10085000C9FB0121032003F0C5FB0121042003F0A3
:10086000C1FB0121022003F0BDFB01220021032076
:1008700003F0D0FB776112208F4903F0D7FC0121F0
:10088000122003F09BFC96218C4F0902380004F0E3
:1008900061FF0221092003F0A5FB0221082003F0DB
:1008A000A1FB9621864E0902300004F053FF02217D
:1008B000102003F097FB0221112003F093FBC022CC
:1008C0003B6B1202944613407E4A602013607E49BF
:1008D0006E228946FB6A4D46434013400B6010234D
:1008E000F96A194029606546316B2940774D2960C6
:1008F000F16A41400A4076494B380A60F26A134077
:100900000B60744B19009A4603F090FC01211520EE
:1009100003F054FC5023BB6399467B6B38276E4A27
:100920003B4013605146142003F080FC0121142049
:1009300003F044FC4B46B363736B684A1F40684B3B
:10094000684E1F60002302921370674A3370137061
:10095000664A674913708023DB03636143460B805B
:100960000B889AB2002BFBD1624BD0271A80624BC6
:1009700080251A80614B624C1A80624B3F061A80B8
:10098000614BED031A000193604B1380604B1A001A
:100990000393604B1380604B9846604B9A46604BC4
:1009A0009B46604B00930023994605F0FDF84346B3
:1009B0001B78002B20D12378002B22D13378002BF9
:1009C00032D15B464A467D611A7000F02BF900284F
:1009D000EBD0009A1388022B39D102990B78002BA7
:1009E00046D04B460B70138001F048FF05F0DCF851
:1009F00043461B78002BDED002F0E4FA2378002B6C
:100A0000DCD00020FFF718FE53461B8898420DD912
:100A1000C31A454A9BB293420DD9524610804A46AA
:100A200033782270002BCCD0BD61BEE71B1A3E4A42
:100A30009BB29342F1D8019B1B8883420AD90123C0
:100A40003370534618804B462370BD61ADE700F00C
:100A500005FFAAE73378002B0DD0039B1B88834248
:100A60000DD24B463370534618804B462370A8E78F
:100A700001F082F999E7524623701080A1E75346AE
:100A800018804B462370BD618FE7C04609030010F4
:100A9000601600208813000048160020150300107F
:100AA00078160020C5030010B00E0020A0860100BB
:100AB00000C0034004E00340E10300100080034055
:100AC00000400340309003402C90034030500340DE
:100AD0002C5003401905001034900340A62100203B
:100AE00034500340A4210020A7210020A821002089
:100AF000882100208A2100208C2100208E210020C6
:100B0000A2210020902100209421002049320000E1
:100B1000962100202B380000A121002098210020E0
:100B2000A3210020862100208713000010B50400B7
:100B30000100044804F00EFE2100034804F00AFE00
:100B400010BDC046008003400040034010B505F0D2
:100B50002BF810BD08220C498B691A42FCD10B4BB3
:100B600002229B5E834206D02021074A93691942E4
:100B7000FCD1106070472021034A93691942FCD1CF
:100B80000D231360F0E7C046008003406C21002075
:100B900008220C498B691A42FCD10B4B00229B5E48
:100BA000834206D02021074A93691942FCD1106084
:100BB00070472021034A93691942FCD10D23136029
:100BC000F0E7C046004003406C210020084B198824
:100BD0004A1C92B21A80074A525C02708C22198811
:100BE0009200914201D100221A8001207047C04634
:100BF0008A210020E00E0020084B19884A1C92B27E
:100C00001A80074A525C02708C2219889200914225
:100C100001D100221A8001207047C0468E21002099
:100C200010110020F0B557464E464546DE46E0B569
:100C3000002687B004ABDE71644B654D1E700193D6
:100C4000644B654C1E800293FA235B002B800023CB
:100C50009B4699469A46614B58469846604F0023FA
:100C60009C46F5338C21FF339B4689002B88002B53
:100C700018D023883A889A42F8D02288531C9BB215
:100C8000238043469E5C23888B4220D05B462B808A
:100C9000102E22D001239C46002399462B88002049
:100CA000002BE6D16146002901D004ABDE712B8810
:100CB000002B03D1019B1B78002B41D1288880B2E7
:100CC00007B0F0BCBB46B246A946A046F0BD5346AD
:100CD00023805B462B80102EDCD104ABDE71030039
:100CE00010339BB29B464B4610221B0A3D49534092
:100CF0005B00CA5A4B461B029BB25A409146039175
:100D000022883B889A4200D1B0E12288531C9BB2D2
:100D1000238043469B5C04AAD3718C2221889200D5
:100D2000914201D152462280132B00D1BCE1152BF8
:100D300001D000F0FEFB2A88002A59D158468EE7E0
:100D4000082229498B691A42FCD1284B0220185EDF
:100D5000102833D02021244A93691942FCD1102352
:100D60001360082220498B691A42FCD119281DD032
:100D700020211D4A93691942FCD1192313600822CE
:100D800019498B691A42FCD1012807D02021164A43
:100D900093691942FCD1012313608FE72021124A85
:100DA00093691942FCD10D231360EFE720210E4A0D
:100DB00093691942FCD10D231360D9E720210A4A17
:100DC00093691942FCD10D231360C3E7A5210020CC
:100DD00088210020862100208A210020E00E0020AA
:100DE0008C21002098930010008003406C2100208B
:100DF00049466422090A4B4003995B00C95A4B4695
:100E00002A80020083461B0225329BB292B24B40DD
:100E100020883988884200D12EE12088411C89B27F
:100E200021804146095C04A8C1718C20268880007D
:100E3000864201D100202080E5290ED12888002893
:100E40000BD05A46180A414003984900415A0B32C8
:100E50001B02FF329BB292B24B40208839888842F5
:100E600000D10EE12088411C89B221804146095CF5
:100E700004A8C1718C2026888000864201D1002000
:100E80002080A22901D100F027FC268838888642DC
:100E900000D1FDE02088411C89B221804146095CD7
:100EA00004A8C1718C2026888000864201D10020D0
:100EB0002080FD2900D8FAE62888002800D1F6E62F
:100EC000521892B290461A0A03984A405200865A23
:100ED0001B029BB25E40714B9946FE2901D100F086
:100EE00048FC00234A46137022883B889A4205D06A
:100EF00004ABD81DFFF76AFE012802D02B88002B17
:100F0000F2D12B88002B00D1D1E604ABDB799A46D5
:100F1000D044434652469BB29846330A5340039A04
:100F20005B00D25A33029BB25A4053461600002B44
:100F300001D000F04AFC0122594B1A704B461B7835
:100F4000002B01D100F0F6FB2B88002B00D1AEE680
:100F500004ABDB79102B01D100F0CFFB22883B885A
:100F60009A4205D004ABD81DFFF730FE012802D00D
:100F70002B88002BF2D12B88002B00D197E604ABF5
:100F8000DA7943469B189BB29846330A5340039A3A
:100F90005B00D25A33029BB25A404B461B78160074
:100FA000002B01D100F0F4FB2B88002B00D17EE652
:100FB0004B461B78002B04D05346102B01D000F079
:100FC0002EFC22883B889A4205D004ABD81DFFF73F
:100FD000FDFD012802D02B88002BF2D12B88002B9D
:100FE00000D164E604ABDB799A4622883B889A42BA
:100FF00005D004ABD81DFFF7E9FD012802D02B88EE
:10100000002BF2D14B461B782B88002B00D14EE6EB
:10101000534604AAD2791B029B189BB243450AD0BF
:10102000B34208D01020FFF795FD1920FFF792FD7D
:101030000620FFF78FFD0A2003F0FCFF019B1B78C1
:10104000002B09D01020FFF785FD2120FFF782FD3E
:10105000144B1878FFF77EFD1020FFF77BFD16205C
:10106000FFF778FD0223029A138020E62B88002BDD
:1010700000D045E65846F2E52988002900D0C7E6A9
:10108000EBE62988002900D0E7E604A9C979F8E64B
:101090002888002800D0F8E60BE7C046A6210020EB
:1010A000A3210020AA2100202B88002B00D145E697
:1010B0000123029A13804B4613221B0A53409BB212
:1010C000039A5B00D25A4B461B029BB25A40914690
:1010D00022883B889A4200D1FBE12288531C9BB2B4
:1010E00023804346995C04ABD9718C2322889B00F2
:1010F0009A4201D153462380FF2900D0E7E22B8892
:10110000002B00D161E14B461B0A4B4003995B0069
:10111000CB5A02004946834623320902FF3289B284
:1011200092B24B4020883988884200D1E3E1208880
:10113000411C89B221804146095C8A46504604A977
:10114000C8718C2120888900884201D1002121802A
:101150002988002900D1AAE55146524492B293460B
:101160001A0A4A40039952008E5A1B029BB25E40F3
:101170005346002B00D007E2894B994601234A468B
:10118000137022883B889A4205D004ABD81DFFF724
:101190001DFD012802D02B88002BF2D12B88002BBB
:1011A00000D184E504ABDA797E4B039902931A707F
:1011B0005B469B189BB29A46330A53405B00C95A60
:1011C00033029BB259400E00102A00D106E2228859
:1011D0003B889A4205D004ABD81DFFF7F7FC0128E5
:1011E00002D02B88002BF2D12B88002B00D15EE59A
:1011F00004ABDA7953469B189BB29A46330A5340A4
:10120000039A5B00D25A33029BB25A4016002288DE
:101210003B889A4205D004ABD81DFFF7D7FC0128C4
:1012200002D02B88002BF2D12B88002B00D13EE579
:1012300004ABDA7953469B189BB29A46330A534063
:10124000039A5B00D35A3602B6B25E40B346228898
:101250003B889A4205D004ABD81DFFF7B7FC0128A4
:1012600002D02B88002BF2D12B88002B00D11EE559
:1012700004ABDE7922883B889A4205D004ABD81DA6
:10128000FFF7A4FC012802D02B88002BF2D12B8879
:10129000002B00D10BE504AAD27933029B189BB234
:1012A0009A4500D1B6E102269B4509D01020FFF7F0
:1012B00051FC1920FFF74EFC0620FFF74BFC0026DF
:1012C0000A2003F0B7FE019B1B78002B08D0404694
:1012D0003549364A07F066FF2388033B9BB22380DB
:1012E0000023334F3B804B461B78DAB2002B00D1F2
:1012F000BAE1029B1B78FD2B00D0D8E41020FFF749
:1013000029FC012E00D187E12A4B1A203B80FFF7F0
:1013100021FC294B02203B80FFF71CFC274B9E241D
:101320003B80274BE4011E88F0B2FFF713FCDD235E
:10133000300A039A43405B00D35AC0B25C403C8001
:10134000F6B2FFF707FC230A7340039E5B00F35AD3
:1013500024025C40A4B210203C80FFF7FBFB10236A
:10136000220A53405B00F35A24025C40A4B21F20BF
:101370003C80FFF7EFFB1F22230A5A405200230252
:10138000B45A5C40A4B2200A3C80FFF7E3FBE0B211
:10139000FFF7E0FB00234A461370029A137086E4BD
:1013A000A3210020A9210020E30E00202D0200002F
:1013B000842100206380FFFF5C6000004FDDFFFFA1
:1013C000922100202B88002B12D022883B889A4241
:1013D000F8D02288531C9BB2238043469B5C04AA0E
:1013E000D3718C2322889B009A4201D153462380DB
:1013F00022883B889A4200D174E02288531C9BB219
:10140000238043469B5C04AAD3718C2322889B00D3
:101410009A4201D15346238022883B889A425DD06C
:101420002288531C9BB2238043469B5C04AAD37141
:101430008C2322889B009A4201D153462380228824
:101440003B889A4253D02288531C9BB22380434648
:101450009B5C04AAD3718C2322889B009A4201D101
:10146000534623808C222330002183B292004046D1
:101470009B4605F0ABF90122019B10201A705346E0
:1014800023803B80FFF766FB2120FFF763FBBB4B0C
:101490001878FFF75FFB1020FFF75CFB1A20FFF7BF
:1014A00059FB0220FFF756FB0120FFF753FB1820E2
:1014B000FFF750FB1020FFF74DFB1F20FFF74AFB03
:1014C0000020FFF747FB7420FFF744FB5846FFF767
:1014D000C6FB2B88002B00D0FAE576E72B88002B83
:1014E0009AD1ACE72B88002B00D081E794E72B88BA
:1014F000002BA4D1B6E7288881B2002800D011E6DD
:101500002A88002A01D1FFF7D2FB9D4A180A5A44C3
:1015100092B29346FF22424003985200865A1B0221
:101520009BB25E40974BFE209946197001F02CFC4F
:1015300027E6212B01D0FFF701FC2A88002A01D1E0
:10154000FFF7FCFB21883A88914219D02288531C6E
:101550009BB2238043469B5C04AAD3718C222188D2
:101560009200914201D152462280012201990A70D3
:10157000824A137000239B4699465846FFF76FFB3B
:101580002A88002ADED1F0E77E4B994600234A469E
:1015900013705346581EC0B201F0F6FB5346102B91
:1015A00000D0EEE522883B889A4205D004ABD81DD6
:1015B000FFF70CFB012802D02B88002BF2D104ABE3
:1015C000DA795B469B189BB29B46330A5340039AD9
:1015D0005B00D35A3602B6B25E40D2E522883B8821
:1015E0009A4205D004ABD81DFFF7F0FA012802D0CB
:1015F0002B88002BF2D104ABDA7953469B189BB2AF
:101600009A46330A5340039A5B00D35A3602B6B265
:101610005E40DCE5012653E60F361A203E80FFF7D8
:1016200099FA2A2302203B80FFF794FA2C233B806F
:10163000554B1B889846D8B2FFF78CFA4346180AD8
:101640000400C0B22C343C80FFF784FA4346DBB27E
:10165000E41830003C80FFF77DFAA3191F203B807F
:101660002F34FFF777FA8EE64346A946A0461D00C1
:10167000140018E0A31E012B13D9042C02D1EB781F
:10168000102B0ED0285DFFF783FA012E1AD03A886E
:10169000295D130A4B4003995B00CB5A1202534059
:1016A0003B800134A4B243461B88023B9C42E1DBF1
:1016B0003C884D46200AFFF76BFAE0B2FFF768FA64
:1016C000FFF7F5FA3A882B5D9B183B80E9E7002984
:1016D00000D07AE62B8878E62888002801D1FFF729
:1016E000D4FB180A039E48404000305A1B02A23225
:1016F0009BB292B24340FFF7C8FB22883B889A42D4
:1017000005D004ABD81DFFF761FA012802D02B8861
:10171000002BF2D104ABDA7943469B189BB2984672
:10172000330A5340039A5B00D35A3602B6B25E4086
:10173000FFF714FC22883B889A4205D004ABD81DE1
:10174000FFF744FA012802D02B88002BF2D104AB1A
:10175000DA790E4B1A7043469B189BB29846330AAF
:101760005340039A5B00D35A3602B6B25E40FFF78D
:10177000EBFB01234A461370FFF7B6FBAA210020BA
:1017800021020000A321002092210020A921002095
:1017900022883B889A4205D004ABD81DFFF716FA81
:1017A000012802D02B88002BF2D104ABDA79434612
:1017B0009B189BB29846330A5340039A5B00D35A56
:1017C0003602B6B25E40FFF7EFFB0022224B1A70E2
:1017D0005346581EC0B201F0D7FA5346102B01D021
:1017E000FFF7ACFB22883B889A4205D004ABD81D9A
:1017F000FFF7ECF9012802D02B88002BF2D104ABC3
:10180000DA7943469B189BB29846330A5340039AB1
:101810005B00D35A3602B6B25E40FFF78FFB2288D8
:101820003B889A4205D004ABD81DFFF7CFF90128B9
:1018300002D02B88002BF2D104ABDA7943469B18F7
:101840009BB29846330A5340039A5B00D35A360240
:10185000B6B25E40FFF7B5FBA3210020F8B55746AE
:101860004E464546DE468C20E0B50027904D914E11
:10187000914C924B80002288002A64D019882A88D3
:101880009142F8D019884A1C92B21A80725C198869
:10189000814200D11F80102AEDD119882A889142F7
:1018A00000D16FE019884A1C92B21A801A88715CC4
:1018B000824200D11F801A2900D16CE01929DAD1A7
:1018C00019882A88914200D1EAE08C20198880008A
:1018D0004A1C92B21A801F88725C1100874201D1A3
:1018E000002018800820764FBB691842FCD1754B48
:1018F00002201B5E9C46102B00D114E2202770486A
:1019000083691F42FCD11023036008206C4FBB6920
:101910001842FCD16346192B00D1FCE1202768480E
:1019200083691F42FCD1192303600820644FBB69FF
:101930001842FCD1624500D1B6E12020604A93698B
:101940001842FCD111602388002B00D1C4E08C2206
:101950000027002192005C4804F038FF8C225B4B8A
:1019600030001F805A4B002192001F8004F02EFF90
:101970002F802F80208880B2F0BCBB46B246A9469B
:10198000A046F8BD2288002A00D086E773E72288A7
:10199000002A00D12DE118882A889042F7D01988B2
:1019A0004A1C92B21A808C221888715C9200904274
:1019B00001D100221A80C81D81468AB2002900D0B8
:1019C0001AE10722914619882A88914200D157E1ED
:1019D0001A88013292B21A808C22198892009142A0
:1019E00001D100221A8019882A88914200D151E140
:1019F0001A88013292B21A808C2219889200914280
:101A000001D100221A8019882A88914200D13CE134
:101A10001A88013292B21A808C221988920091425F
:101A200001D100221A8019882A88914200D136E11A
:101A30001A88013292B21A808C221988920091423F
:101A400001D100221A80234B1B78002B00D033E1F8
:101A50004B462F88FF1ABFB24F4500D373E7194B8F
:101A6000082002229B5E0D22202193469A46F319FC
:101A70009C46134B6246127890469A691042FCD1FC
:101A8000C24500D1F6E09A691142FCD142461A6083
:101A9000012290460137BFB2C4444F45EAD152E714
:101AA0002288002A00D00BE7192119321AE7C04614
:101AB0009021002010110020882100208E2100207C
:101AC000008003406C210020E00E00208A210020CD
:101AD0008C210020A5210020A34AA44913780133BA
:101AE000137008228B691A42FCD1A14B02229A5E24
:101AF000102A56D020209D498B691842FCD1102312
:101B00000B600821994883691942FCD1212A68D0C9
:101B1000202096498B691842FCD121230B600821B3
:101B2000944B92481F7883691942FCD1974250D058
:101B300020208E498B691842FCD10F6008218B4808
:101B400083691942FCD1102A3BD0202087498B6938
:101B50001842FCD110230B60082184488369194284
:101B6000FCD1192A25D0202080498B691842FCD14C
:101B700019230B6008217D4883691942FCD1822A10
:101B800007D02021794A93691942FCD1822313603E
:101B9000DDE62021754A93691942FCD10D231360BB
:101BA000EFE7202071498B691842FCD10D230B60AF
:101BB000A0E720206D498B691842FCD10D230B60F2
:101BC000D1E7202069498B691842FCD10D230B60B5
:101BD000BBE7202065498B691842FCD10D230B60BF
:101BE000A6E7202061498B691842FCD10D230B60C8
:101BF0008EE721329146073A013A92B294468C27F9
:101C00000022BF00904613E019884A1C92B21A8045
:101C10001A88715CBA4201D142461A80102916D046
:101C200062466046013A92B2002800D1CBE6944663
:101C30002288002A00D1C6E618882A889042E3D17B
:101C40002288002AF8D1E9E72288002A0DD01888D6
:101C50002A889042F8D019884A1C92B21A801A88B1
:101C6000715CBA4201D142461A804A46013292B2B0
:101C70009146D5E79A691142FCD15A461A6002E7AB
:101C80002288002A00D09EE6ADE62288002A00D0F5
:101C9000B9E6C8E62288002A00D0A4E6B3E6228886
:101CA000002A00D0BFE6CEE62020304A93691842D1
:101CB000FCD10D23136040E608222C498B691A429F
:101CC000FCD12B4B0221595E102944D02020274AF9
:101CD00093691842FCD110231360082223488369BA
:101CE0001A42FCD121292ED02020204A9369184283
:101CF000FCD12123136008221E4B1C481F788369E6
:101D00001A42FCD18F4216D02021184A93691942F9
:101D1000FCD117609CE62027144883691F42FCD140
:101D20000D230360FAE52027104883691F42FCD188
:101D30000D230360E2E520220C4B99690A42FCD195
:101D40000D221A60E0E72022084B98690242FCD17C
:101D50000D221A60C8E72022044B98690242FCD188
:101D60000D221A60B2E7C046B02100200080034077
:101D70006C210020AA210020F0B557464E4645466A
:101D8000DE460023E0B593B010AA9A46D3710493BF
:101D90000393954B954C9846954B964F9946964B89
:101DA000964E02938C239B009B46954B954D019339
:101DB000FA22002152002B88002B40D020883B883B
:101DC0009842F8D02088431C9BB22380335C208843
:101DD00058452DD02A80102BEDD110AAD3713B8805
:101DE000039B102210339BB2059353461B0A5340AA
:101DF000019A5B00D25A53461B029BB25A4092464C
:101E000022883B889A4237D02288531C9BB2238079
:101E1000B35C10AAD37122885A4501D100222280D6
:101E20001A2B02D12A88002A2CD1059B0393BFE7E5
:101E300021802A80102BD0D02B88002BBED18C2261
:101E400000213000920004F0C1FC8C220026002109
:101E50000298920026803E8004F0B8FC43461E8023
:101E60004B461E802B88288880B213B0F0BCBB463E
:101E7000B246A946A046F0BD2B88002BC0D1059BD9
:101E8000039395E703991A202A318AB29446524661
:101E9000120A4240019992B252008A5A51460802EF
:101EA00080B2424020883988884200D181E0208871
:101EB00010A9431C9BB22380335C2088CB7158450A
:101EC00001D1002020806146C91889B20391110A0E
:101ED000019859404900415A1002DA1D80B2D2B22D
:101EE00048400792002B00D1C0E28446404605904E
:101EF00003980021804648465A1ED2B206908A4670
:101F00009146080022E022880120531C9BB22380C6
:101F1000B35C22885A4501D1524622804246D218EB
:101F200092B290466246120A01995A4052008A5A69
:101F30006146090289B24A409446102B11D04A46A4
:101F40004946013AD2B200295ED091462A88002A39
:101F50005AD021883A889142D5D12A88002AF8D1CE
:101F6000DCE721883A8891421DD02288531C9BB21D
:101F70002380B35C22885A452FD0190001209AB2E1
:101F8000424492B290466246120A4A400199520077
:101F90008A5A6146090289B24A409446079A013238
:101FA000D2B20792CBE72A88002ADAD11021103268
:101FB000E6E72988002900D074E71A200399443104
:101FC00089B20391110A414001984900415A100217
:101FD000212280B24840079287E7524619002280AA
:101FE00001209AB2CCE7C0468E2100208A21002031
:101FF000902100208C21002010110020E00E0020F4
:10200000989300108821002042460392059A011EF1
:102010009046069A6046914601D010AAD371228854
:102020003B889A4200D1A5E02288531C9BB22380B2
:10203000B35C10AAD37122885A4501D100222280B4
:102040009AB29446020A01995A405200895A0002F3
:1020500080B2414020883A88904200D184E02288B2
:10206000531C9BB22380B35C10AAD37122885A45BB
:1020700000D18BE09AB203986044821892B2059224
:102080000A0A01985A405200825A090289B24A400B
:10209000924621883A88914262D02288531C9BB292
:1020A0002380B35C10AAD37122885A4501D1002243
:1020B00022802A88002A00D1B7E621883A889142F6
:1020C0005FD021884A1C92B22280725C10A9CA712A
:1020D0002188594501D1002121802988002959D022
:1020E0001B029B18059A9BB29A4200D113E29A45B3
:1020F00000D12EE2924B1B78002B00D01EE2082369
:10210000904A91690B42FCD18F4B02229B5E102BAF
:1021100000D10BE220218B4A90690142FCD11021B1
:1021200011600822874988690242FCD1192B00D12D
:10213000F4E12021834A90690142FCD11921116008
:102140000822804988690242FCD1062B00D190E127
:1021500020227C4B99690A42FCD106221A606EE665
:102160002A88002A95D1A4E72A88002A00D071E79E
:10217000624680E72B88002B00D050E710ABDB795C
:102180005EE72A88002A98D11A00A6E7002222805A
:102190009AB270E7049B002B00D150E6684B1B7885
:1021A0000393002B00D054E10021002005220433CA
:1021B0000B93033B9C46099309330891069309311D
:1021C0003378FF2B04D16046099B06990B92089344
:1021D0005E4B1A000A93002313805D4B1B78002B83
:1021E00033D0082257498B691A42FCD1564B022141
:1021F000595E102900D1D8E12020524B9A69104233
:10220000FCD110224F481A60083A83691A42FCD167
:10221000162900D1B6E120214A4B9A691142FCD11E
:1022200016221A604B4B9A461B78FB2B00D1B1E16A
:10223000FC2B00D131E2FD2B00D000E6F37BB17B1B
:10224000454A1B020B431380F9E53F4B0D930022D7
:102250009B5E421D099300230E92821D0C92321840
:102260000F92089A0B98824234D00E98824231D055
:102270000C98824241D10E98305C102800D179E14F
:10228000B25C0692102A00D16FE110009C46082231
:10229000324B9B691A42FAD1099A0690904221D09A
:1022A000069820222D4B9B691A42FAD12B4A0690A0
:1022B0001060049A6346012A00D154E10C9A180A6E
:1022C000B25C1B025040019A4000105A0A9A4340E7
:1022D0009BB21380089A501C80B2814240D9020000
:1022E0000890BFE720221D4B9B691A42FAD1069045
:1022F0001A48133A02600698D3E7B25C9446174A2C
:10230000906908220242FAD1099A62450ED0134A16
:10231000906920220242FAD1624610480260049A73
:10232000012A00D118E1089A180AC9E70B4A9069F6
:1023300020220242FAD10948133A0260E7E7C04678
:10234000A5210020008003406C2100208421002072
:10235000A3210020A9210020922100200040034059
:10236000002241460A8049460A801A0A94460822F9
:10237000BD4988690242FCD1099A624500D188E0D2
:102380002021B94A90690142FCD16146D8B20823A4
:102390001160B54A91690B42FCD1099B834270D010
:1023A0002022B14B99690A42FCD118604146484647
:1023B0000A8803889A4246D00A888846531C9BB2F2
:1023C0000B80029B81469B5C10AAD3710B885B45F6
:1023D00001D100230B802B88002B62D1039B002BA3
:1023E00000D03CE20823A14A91690B42FCD10D9B2D
:1023F00002229B5E102B00D129E220219B4A90698A
:102400000142FCD1102111600822984988690242DA
:10241000FCD1192B00D112E22021944A906901428B
:10242000FCD1192111600822904988690242FCD12F
:102430000C2B00D1FBE120228C4B99690A42FCD184
:102440000C221A60F1E42B88002BB1D1884681461A
:10245000C1E7072303210B93033B9C4609930933F0
:1024600008910320082206930931A9E60733079350
:10247000D5E520227D4B99690A42FCD10D221A60D4
:1024800066E62022784B99690A42FCD10D221A6037
:1024900086E72021744A90690142FCD10D21116028
:1024A0006EE710ABDB79102B00D186E0039B002B8D
:1024B00000D0B1E108236D4A91690B42FCD10D9B1C
:1024C00002229B5E102B00D19EE12021674A906979
:1024D0000142FCD11021116008226449886902423E
:1024E000FCD1192B00D187E12021604A906901427B
:1024F000FCD11921116008225C4988690242FCD193
:10250000822B00D170E12022584B99690A42FCD1FC
:1025100082221A6093E4012304933FE62021534A68
:1025200090690142FCD10D21116002E620214F4A41
:1025300090690142FCD10D211160EBE51020FEF7FE
:1025400009FB2120FEF706FB494B1878FEF702FB3A
:10255000D5E50223049321E6089AB05C0A9A1B1879
:102560009BB21380B6E60C9AF7E7013110009C4647
:1025700089B28CE60F9AD079102800D17CE0013125
:1025800089B2A7E62022394B99690A42FCD10D2273
:102590001A6040E6B37B022B71D8364A5B00985A2A
:1025A000FEF7C4FA53461B7842E620222F4B986967
:1025B0000242FCD10D221A601EE6414648460A88B6
:1025C00003889A4238D00A888846531C9BB20B80F5
:1025D000029B09889B5C10AAD3718C2281469200D1
:1025E000914202D1002241460A802A88002A00D165
:1025F000D6E0162B60D0192B27D143461A884B46BC
:102600001B889A4205D010ABD81DFEF7F5FA0128B9
:1026100002D02B88002BF0D1039B002B00D0D8E0F8
:102620001020FEF797FA1920FEF794FA10ABD8792C
:10263000FEF790FAFFF703FC2B88002BBFD12B8805
:1026400088468146002B00D1AAE0039B002B19D1BC
:102650001020FEF77FFA1920FEF77CFA0920FEF71A
:1026600079FAFFF7ECFBC0460040034000800340CE
:10267000AA21002098950010023189B22AE69620FE
:1026800000028DE71020FEF765FA2120FEF762FABE
:10269000784B1878FEF75EFADAE7B37B502B61D0FF
:1026A000D02380221B06D2035A61C8232B802B889B
:1026B000002BFCD1FFF7C3FB089B03339BB29B4667
:1026C000079B5B449A4623005C469B4604E0305DD2
:1026D000FEF75EFA0134A4B25445F8DBFA235C46F7
:1026E0009B002B8043461A884B461B889A4205D094
:1026F00010ABD81DFEF780FA012802D02B88002BE2
:10270000F0D12B88002B4BD010ABDB79102B9CD158
:1027100043461A884B461B889A4205D010ABD81DF9
:10272000FEF76AFA012802D02B88002BF0D12B8803
:10273000002B35D010ABDB79162B1CD0192B00D019
:1027400083E743461A884B461B889A4206D010AB53
:10275000D81DFEF751FA012800D15DE72B88002B28
:10276000EFD159E7D0231B065A6852059DD5802228
:10277000D2039A6199E7039B002B09D01020FEF742
:10278000E9F92120FEF7E6F93A4B1878FEF7E2F96D
:102790001020FEF7DFF91620FEF7DCF9FFF74FFBFC
:1027A000039B002B0AD11020FEF7D4F91920FEF765
:1027B000D1F90C20FEF7CEF9FFF741FB1020FEF710
:1027C000C9F92120FEF7C6F92A4B1878FEF7C2F99D
:1027D000E9E71020FEF7BEF92120FEF7BBF9254BF3
:1027E0001878FEF7B7F91BE72022234B99690A42B4
:1027F000FCD10D221A6086E620211F4A9069014211
:10280000FCD10D2111606FE620211B4A9069014225
:10281000FCD10D21116058E61020FEF79BF9212014
:10282000FEF798F9134B1878FEF794F942E6202248
:10283000114B99690A42FCD10D221A60FBE5202157
:102840000D4A90690142FCD10D211160E4E520217F
:10285000094A90690142FCD10D211160CDE510209B
:10286000FEF778F92120FEF775F9024B1878FEF78C
:1028700071F9B7E5AA21002000800340F0B5574662
:102880004546DE464E46E0B5B84FB94D3B7A83B07B
:10289000103B5A4253412A881433002A00D1D7E012
:1028A0000821B44882691142FCD1B34A0092022146
:1028B000525E9146102A00D17EE12020AD498A69FE
:1028C0001042FCD110220A600821AA4882691142F4
:1028D000FCD14A46212A00D166E12020A5498A6917
:1028E0001042FCD121220A600821A44AA148147890
:1028F00082691142FCD14C4500D14DE120209D4917
:102900008A691042FCD10C6008219A488269114200
:10291000FCD14A46102A00D120E1202095498A693D
:102920001042FCD110220A600821924882691142AB
:10293000FCD14A46162A00D108E120208D498A6937
:102940001042FCD116228E4E0A6002E02A88002A2C
:1029500002D032889A42F9D100238A4C23803380F6
:10296000F533FF332B80228833889A4200D1E8E088
:102970002288531C9BB22380BB5C228898468C2300
:102980009B009A4201D1002323804346502B00D064
:10299000BDE08C2200219200380003F017FF0023D5
:1029A000794A2380934633801380784A7849924647
:1029B000138008228B691A42FCD1009B00229B5E87
:1029C0009C46502B00D12FE12021714A9369194276
:1029D000FCD150231360524602E02B88002B02D01A
:1029E0001388002BF9D02B889246002B00D025E1CC
:1029F000684B0193019B1B78422B00D08BE0EF3397
:102A0000FF3399463B00474698464246082020211E
:102A1000B8460EE027887B1C9BB22380D35D984686
:102A200023884B4501D1002323802B88002B00D025
:102A300015E12B88002B00D1FEE0534600271F80B4
:102A4000278833889F42E5D12B88002BF8D1ECE70B
:102A5000082248498B691A42FCD1474B02229A5EF0
:102A6000102A00D1D8E0202042498B691842FCD1BD
:102A700010230B6008213F4883691942FCD1212AA9
:102A800000D1C1E020203B498B691842FCD12123B1
:102A90000B600821394B37481C7883691942FCD1F7
:102AA000944200D1A8E0202032498B691842FCD121
:102AB0000C6008212F4883691942FCD1102A00D1EB
:102AC00092E020202B498B691842FCD110230B6027
:102AD0000821284883691942FCD1192A00D17BE0DA
:102AE000202024498B691842FCD119230B6008214E
:102AF000204883691942FCD1822A65D020211D4AD1
:102B000093691942FCD182231D4E1E4C13601E4B4B
:102B10009B461E4B9A468C2200213800920003F0FF
:102B200055FE00235A46238033801380524613807B
:102B3000288880B203B0F0BCBB46B246A946A04686
:102B4000F0BD2B88002B00D00DE7E0E720200949DD
:102B50008A691042FCD10D220A60EEE62020054968
:102B60008A691042FCD10D220A60D6E6E00E0020F0
:102B700088210020008003406C210020AA21002031
:102B80008C2100208A2100208E210020902100200D
:102B9000004003401011002020205B498A69104248
:102BA000FCD10D220A60A9E6202057498A6910420B
:102BB000FCD10D220A6090E6202053498A69104218
:102BC000FCD10D220A6078E620214F4A9369194210
:102BD000FCD10D23136091E720204B498B691842EB
:102BE000FCD10D230B607BE7202047498B691842FD
:102BF000FCD10D230B6064E7202043498B69184208
:102C0000FCD10D230B604EE720203F498B69184211
:102C1000FCD10D230B6035E720203B498B6918421E
:102C2000FCD10D230B601EE72021384A936919421D
:102C3000FCD10D231360C7E617006CE70822344B64
:102C400031481978019383691A42FCD1894549D0EA
:102C500020202D4A93691842FCD11160CAE64346F0
:102C6000FF2BE9D0294B9B691842FBD1C44531D0D9
:102C7000264B9B691942FBD14746244B1F600A2F04
:102C800000D0D6E69046524602E02B88002B02D0B8
:102C90001388002BF9D02B889246002B32D0019B51
:102CA00019491A78082388690342FCD1009B022144
:102CB0005B5E93421ED02021134B98690142FCD1E8
:102CC0001A60C8232B80FDF741FF009B00229B5E0A
:102CD0009C469AE60D4B9B691942FBD10D270B4B85
:102CE0001F60C5E72020084A93691842FCD10D23D4
:102CF0001360ADE72021044B98690142FCD10D21FE
:102D00001960D8E7474606E70080034000400340CB
:102D1000101100200023194A10B5194C1380118896
:102D200023881848994208D30BE0138801339BB2DB
:102D3000138011882388994203D21388C35C102B17
:102D4000F3D11388C118C35C102B07D01388C118A6
:102D5000C35C102B0AD00920238810BD4B78162B9A
:102D6000F4D1238801209BB21380F5E74B78192B0F
:102D7000F1D1238802209BB21380EDE78E21002041
:102D80009021002010110020D0221206536800B5B7
:102D90005B0506D5172800D9FDE0884B80001B583D
:102DA0009F46172800D9F6E0854B80001B589F46A8
:102DB000D02380221B0652035A61802212035A61DB
:102DC0008022D2025A61802292039A618022D20428
:102DD0009A61802212055A6100BDD02380221B0611
:102DE00052035A61802212035A618022D2025A6130
:102DF000802292039A618022D2045A6180221205B5
:102E00009A61E9E7D02380221B0652035A6180228F
:102E100012035A618022D2029A61E9E7D02380220C
:102E20001B0652035A61802212039A61DDE7D02308
:102E300080221B0652035A61802212039A6180226B
:102E4000D2029A61D4E7D02380221B0652039A61F2
:102E5000802212035A618022D2029A61B3E7D02302
:102E600080221B0652035A61F2E7D02380221B0600
:102E700052039A61B6E7D02380221B0652039A615F
:102E8000C5E7D02380221B0652039A6180221203D9
:102E90009A61AAE7D02380221B0652039A61CBE7EE
:102EA000D02380221B0652039A61802212039A616A
:102EB00086E7D02380221B0652035A618022120328
:102EC0009A617DE7D02380221B0652035A6180223B
:102ED00012035A618022D2025A61802292035A61FF
:102EE0008022D2049A61802212059A6174E7D0236D
:102EF00080221B0652035A61802212035A618022EB
:102F0000D2029A61E9E7D02380221B0652035A615C
:102F1000802212039A61DDE7D02380221B06520330
:102F20005A61802212039A618022D2029A61D4E708
:102F3000D02380221B0652039A61802212039A61D9
:102F40008022D2029A613EE7D02380221B065203E0
:102F50005A61F2E7D02380221B0652039A61802235
:102F600012035A61B6E7D02380221B0652039A61EE
:102F7000C2E7D02380221B0652039A61C8E7D02300
:102F800080221B0652039A61CBE7D02380221B06C6
:102F900052039A6111E780235B03936180231B0333
:102FA00093618023DB02936180239B0393618023E1
:102FB000DB04936180231B0593610DE7A09500104E
:102FC00000960010F0B5DE4657464E464546E0B541
:102FD000AD4C1422A5440024002117A81594169482
:102FE00003F0F4FBA94B13931B78012B1AD0022B8F
:102FF00000D17BE0042B00D129E2082B00D172E044
:10300000A34B12930123129A13700023139A137087
:10301000FDF79CFD9F4B9D44F0BCBB46B246A946C4
:10302000A046F0BD9A4B9C4A1C7012939B4B1460B7
:103030001C808025D024ED0324060F920093642089
:10304000A56101F0F7FF6561C82001F0F3FF0022E0
:1030500000279146924ABA469046009D5346DEB2FA
:103060003000FFF791FE0A2001F0E4FF4B460024F8
:103070002B800120FDF7E0FA03B2DB43DB17184099
:103080002880642001F0D6FF2B880134E4B2002BA5
:1030900020D1052CEDD1FDF759FD2B88642B1DD9CE
:1030A0000123524693401F43FF2241463B0C12022C
:1030B0003A400B401343FAB212040136134336066A
:1030C0000F9A3343136001239C46E2445346182B66
:1030D000C4D197E7052CDED0642BE1D801235246FA
:1030E00093409F43E0E76C4B1C6089E78C22684B60
:1030F00092001C701293684B00210F931C601CAB54
:1031000018009B461594169403F060FB634B14AAB9
:1031100000935C805C601C81002398460193614BA6
:1031200094469A46604B57469946604B4D460A93E3
:10313000C723634409935E4B5E4E02936B461B7933
:103140009A4600233B802B80FDF700FD5046FFF799
:103150001BFE0A2001F06EFF0A9B20211800564A30
:10316000DC1D93691942FCD1037801301360A04241
:10317000F7D164233380328893B2002AFBD12A88A6
:1031800094B2002A25D00020AC46B14625005E4608
:1031900004004A4A039706E0D018005D01339BB251
:1031A00070549D4211D9D05C19001028F4D1D01868
:1031B0004778102FF0D101339BB2005D0133013409
:1031C0009BB2E4B270549D42EDD8B34665464E467C
:1031D000039F09995C464A780B7812021A438B7850
:1031E000C8781B041343000618435A46AB235946BC
:1031F000D35CAC228A5CAD21120213439C46AE2202
:103200005B46615C16909A5C6346090412060B43A8
:1032100013432B491593059303F053FA03F080FAF7
:1032200083B20922049364230298338094460300F6
:10323000002463443C8099462C80202104001E4ACF
:1032400093691942FCD10378013013604845F7D1E6
:1032500002E03388002B04D03B882A880133934254
:10326000F7DAFFF757FD012800D1BFE00023202146
:10327000114A3B802B8093691942FCD12378013499
:103280001360A145F7D120E02CFBFFFFA121002016
:10329000D00D0020D4040000081700209016002054
:1032A000FF00FFFF8E210020902100209496001047
:1032B0007496001088210020004003401011002067
:1032C00000007A443388002B04D03B882A880133DD
:1032D0009342F7DAFFF71EFD012857D0009BDB88E9
:1032E0009946009B588802F097FECB4ACB4B02F0E0
:1032F00064FE02F0A9FE009B84B29C80484602F066
:103300008BFEC74AC74B02F058FE02F09DFE009BA1
:1033100082B21A819146049A13000A3BA3422EDC22
:1033200014339C422BDCC049059803F0CAF903F022
:10333000F7F980B203000A3B4B4520DC0A30814597
:103340001DDC0123019A934042461A439046FF2216
:10335000434612021A401B0241461B0E13435246BB
:10336000C9B20904013212060B4313430F9A1360CA
:10337000019B01330193182B00D0DFE642E60123C5
:10338000019A934042469A439046E0E73388002BE7
:10339000A4D0A648002304002021A54A3B8008347D
:1033A0002B8093691942FCD1037801301360844269
:1033B000F7D102E03388002B04D03B882A88013300
:1033C0009342F7DAFFF7A6FC012801D100F0B7FD20
:1033D00014AB188A5B8A0321C01814AB9B8AC018EF
:1033E00002F088FD009B8146D8807AE73388002B65
:1033F00000D13BE700233B802B8008339C462021F3
:103400008C488B4A844493691942FCD1037801307B
:1034100013608445F7D102E03388002B04D03B8849
:103420002A8801339342F7DAFFF774FC012801D1AF
:1034300000F0A3FD14AB188A5B8A0321C01814ABFB
:103440009B8AC01802F056FD009B58800EE78C2224
:10345000794B00211C701293784B92000F931C60E3
:103460001CAB18009B461594169403F0AFF98C2200
:1034700000219200A8A803F0A9F90023109311934A
:103480006F4B14AA00936F4B94469A466E4B6F4E47
:1034900099466F4B4F460A93C723634409936D4B7C
:1034A00002936D4B0E935B46D3469A466B46402281
:1034B0009B181B780B930523049300235A46138013
:1034C000009A3B8053609360D36053801382FDF772
:1034D0003DFB0B98FFF758FC0A2001F0ABFD0A9B5F
:1034E00020211800524ADC1D93691942FCD103784F
:1034F000013013608442F7D164233380328893B261
:10350000002AFBD13A88002190B2002A20D0B4468C
:10351000B94656460E9A06E0D5186D5C01339BB24B
:103520003555984211D9D55C1C00102DF4D1D51811
:103530006F78102FF0D101339BB26D5C01330131F4
:103540009BB2C9B235559842EDD8B2464F46664651
:10355000099900254A780B7812021A438B78C878AB
:103560001B041343000652461843AB23D45C0133BB
:10357000D35C51461B02AD221C43AE238A5C1690DD
:10358000CB5C120414431B061C432749159403F01B
:1035900098F803F0C5F8244983B2201C059303F082
:1035A00090F803F0BDF883B20893642302980922CF
:1035B000844633805B462021624491461C4A1D802C
:1035C0000D903D8093691942FCD10378013013605E
:1035D0008145F7D1594602E03388002B04D00B888F
:1035E0003A8801339342F7DA8B46FFF793FB0128C1
:1035F00000D149E300235A462021138002980C4A47
:103600003B8093691942FCD10378013013608145F6
:10361000F7D1594625E0C04660E5D022DB7923404A
:10362000D9CEF753E3A5224000007A448C960010CF
:1036300000400340AC960010D00D00200817002079
:10364000901600208E21002090210020882100204B
:103650009496001074960010101100203388002BEF
:1036600004D00B883A8801339342F7DA8B46FFF790
:1036700051FB012800D143E3009BDD88588802F00C
:10368000CBFCBB4ABB4B02F098FC02F0DDFC009B7C
:1036900084B29C80280002F0BFFCB74AB74B02F00E
:1036A0008CFC02F0D1FC009B80B21881059B1A00B3
:1036B0000A3A0C92A2420BDC0A339C4208DC089ABC
:1036C00013000A3B834203DC0A32904200DC80E3B1
:1036D0008C2200219200504603F078F88C220021C1
:1036E0009200A8A803F072F800235A462021A448AB
:1036F0001380A44A3B80C41D93691942FCD103780E
:10370000013013608442F7D16423338033889DB243
:10371000002BFBD13B889CB2002B26D00020AC466E
:10372000B0462500002304005646974A019706E05C
:10373000D018005D01339BB270549D4211D9D05C0A
:1037400019001028F4D1D0184778102FF0D1013388
:103750009BB2005D013301349BB2E4B270549D42D0
:10376000EDD8B24665464646019F64235A463380EB
:103770000023202113800298824A3B8093691942DA
:10378000FCD10378013013608145F7D1594602E03E
:103790003388002B04D00B883A8801339342F7DA40
:1037A0008B46FFF7B7FA012800D1DCE264235A46C2
:1037B0003380002313802022029872493B8014003A
:1037C0008B691C401A42FAD1037801300B608145A5
:1037D000F5D1594602E03388002B04D00B883A8893
:1037E00001339342F7DA8B46FFF794FA012800D1B0
:1037F00014E1009BDB890193009B588902F00CFCCB
:10380000624A634B02F0D9FB02F01EFC009B82B2BD
:103810009A810198904602F0FFFB5E4A5E4B02F0EF
:10382000CCFB02F011FC009B82B21A82404601924E
:1038300002F04EFF594902F030FF80460390019894
:1038400002F046FF554902F028FF5146020E8A72E7
:10385000020C03004A724246CB71130E8B71130C9B
:103860004B71130A0B716B461B7B000ACB70984699
:103870008B7808720693897803220391A8A8514691
:1038800002F0AAFF03990023002900D19DE2AC4673
:10389000504645460191B04607970EE09421051920
:1038A0008900ED7814AF7F1801340199BD54A2B29C
:1038B000914218D9C2181219D578E2181E000332A5
:1038C000102DEBD1942614A9B60089198D5401331B
:1038D000A8AADBB21219D21801340199D570A2B28C
:1038E0001E009142E6D83100654646468246079F53
:1038F0009BB2069A9424033252181021A40014A8F3
:1039000000198154A8A98C461F21039C62440534E8
:10391000E4185170E04661460023A4B20A780133EE
:10392000AD189BB2ADB201319C42F7D1942114AADB
:10393000890052182B0A1355A8AB1B195D7064231C
:103940005A463380002313803B8009339C46202253
:1039500013480C49844415008B691D401A42FAD162
:10396000037801300B606045F5D159461DE0C04633
:1039700060E5D022DB792340D9CEF753E3A522407E
:103980009C96001000400340101100205EBA490CC4
:10399000022B2440E7FBA9F1D28D224000007A449B
:1039A000809600103388002B04D00B883A880133AE
:1039B0009342F7DA8B46FFF7ADF9012862D0049BFA
:1039C000013BDBB20493002B00D076E5009B9A8884
:1039D0000C9B934204DC059B0A339A4200DCF6E11F
:1039E0000123109A9340119A9A4311001192FF23D8
:1039F0000A021B020B40120E1A430B9BC9B20904A8
:103A000001330A431B0613430F9A1360109B0133C3
:103A10001093182B00D049E5FFF7F4FA3388002BF8
:103A200000D1E6E600235A4613803B8008339C46CB
:103A30002021AE48AE4A844493691942FCD10378F0
:103A4000013013608445F7D1594602E03388002BDA
:103A500004D00B883A8801339342F7DA8B46FFF79C
:103A600059F9012800D1C6E114AB188A5B8A0321F9
:103A7000C01814AB9B8AC01802F03CFA009B01905E
:103A8000D881B9E63388002B99D000235A462021EB
:103A900040461380964A3B80023493691942FCD118
:103AA0000378013513600130AC42F6D8594602E084
:103AB0003388002B04D00B883A8801339342F7DA1D
:103AC0008B46FFF727F9012800D078E73388002BD1
:103AD00000D174E764235A463380002320211380E9
:103AE0000298834A3B8093691942FCD103780130E4
:103AF00013608145F7D1594602E03388002B04D08A
:103B00000B883A8801339342F7DA8B46FFF702F9C4
:103B1000012800D053E73388002B00D14FE7002362
:103B20005A4613803B80734B20211800704A08309E
:103B300094692142FCD11C78013314608342F7D18F
:103B4000594602E03388002B04D00B883A880133B1
:103B50009342F7DA8B46FFF7DDF8012800D02EE715
:103B60003388002B00D12AE764235A463380002390
:103B70000D9913805E4A3B8020331C0090690440FD
:103B80000342FAD10878013110608945F5D15946D0
:103B900002E03388002B04D00B883A88013393422B
:103BA000F7DA8B46FFF7B6F8012800D007E733882D
:103BB000002B00D103E700235A464F4813804C4A9C
:103BC0003B8020331D0091690D400B42FAD1015D0D
:103BD00001341160082CF5D1594602E03388002BDE
:103BE00004D00B883A8801339342F7DA8B46FFF70B
:103BF00091F8012800D0E2E63388002B00D1DEE600
:103C000064235A46338000231380394A3B80203393
:103C100091690C001C401942FAD10299495D0135A5
:103C20001160092DF4D1594602E03388002B04D0ED
:103C30000B883A8801339342F7DA8B46FFF76AF82C
:103C4000012800D0BBE63388002B00D1B7E6002363
:103C50005A46138020223B802449254B9869104204
:103C6000FCD1085D01341860082CF7D1594602E0F8
:103C70003388002B04D00B883A8801339342F7DA5B
:103C80008B46FFF747F89AE63388002B00D1B1E462
:103C90001A4800235A46040020211380144A3B800E
:103CA000083493691942FCD10378013013608442CF
:103CB000F7D1594602E03388002B04D00B883A88AC
:103CC00001339342F7DA8B46FFF724F8012800D13D
:103CD000DDE014AB188A5B8A0321C01814AB9B8A01
:103CE000C01802F007F9009B588083E46896001022
:103CF00000400340A496001060960010AC9600109F
:103D00003388002B00D1B7E4B34800235A4604009F
:103D100020211380B14A3B80083493691942FCD1B9
:103D20000378013013608442F7D1594602E03388AA
:103D3000002B04D00B883A8801339342F7DA8B4684
:103D4000FEF7E8FF012800D176E014AB188A5B8A01
:103D50000321C01814AB9B8AC01802F0CBF8009B5B
:103D60000500D8808AE43388002B00D11EE59C48EA
:103D700000235A46040020211380984A3B800834CF
:103D800093691942FCD10378013013608442F7D162
:103D9000594602E03388002B04D00B883A8801335F
:103DA0009342F7DA8B46FEF7B5FF012800D199E080
:103DB00014AB188A5B8A0321C01814AB9B8AC01805
:103DC00002F098F8009B5881F0E4002191E5089BEF
:103DD0000A3B009A1289934200DD01E6089B0A33F0
:103DE0009A4200DDFCE50123109A9340119A1A4390
:103DF00011001192FBE53388002B00D134E6142228
:103E0000002117A802F0E2FC17AB984623004446B5
:103E100098460120FCF710FC030400D58CE02080BC
:103E20000A2001F007F914AA1623944602346344C9
:103E3000A342EED1444617E63388002B00D184E735
:103E40001422002117A802F0C1FC14AB9C460023E9
:103E50001625984617AC65440120FCF7EDFB0304DA
:103E60000CD420800A20023401F0E4F8A54200D1ED
:103E70006BE70120FCF7E0FB0304F2D543460A2080
:103E80002380023401F0D6F8AC42E5D15DE73388F7
:103E9000002B00D11DE71422002117A802F096FC88
:103EA00014AB9C4600231625984617AC65440120A8
:103EB000FCF7C2FB03040CD420800A20023401F07A
:103EC000B9F8A54200D104E70120FCF7B5FB0304D3
:103ED000F2D543460A202380023401F0ABF8A54214
:103EE000E5D1F6E63388002B00D161E714220021EA
:103EF00017A802F06BFC14AA162394466344984654
:103F000017AC0120FCF798FB03040CD420800A2096
:103F1000023401F08FF8A04500D149E70120FCF7F9
:103F20008BFB0304F2D500230A202380023401F026
:103F300081F84445E5D13BE70023238070E73388CF
:103F4000002B01D1FFF744FA1422002117A802F038
:103F50003DFC14AA162394466344994617AC0120ED
:103F6000FCF76AFB03042DD420800A20023401F000
:103F700061F8A145F3D1FFF72BFA3388002B01D16B
:103F8000FFF758FA1422002117A802F01FFC17AB04
:103F900003930120FCF750FB03040FD4039B18800C
:103FA0000A2001F047F814A916228C46039B6244AC
:103FB000023303939342ECD1FFF73CFA0022039BB8
:103FC0001A80EDE700230A202380023401F032F842
:103FD000A145C4D1FFF7FCF98C96001000400340C6
:103FE00060960010094A10B594464024830063444B
:103FF0001A68C0006240803414408022520113438A
:104000001C60034B9C466044416010BD04C00140ED
:1040100000400140074B80009C4660440368C90093
:1040200092000A435A400C231A4080235B01034349
:104030001A60704704C001400123D0228340120659
:1040400093629361094A40219446830063441A684D
:10405000C0004A4080311140802252011343196050
:10406000034B9C46052360444360704704C00140F5
:1040700000400140024B18688007C00F7047C046DF
:1040800000C0064070B5EFF3108C72B60D4D2B6872
:10409000002BFCD0BFF35F8F0724CB08C618C05C91
:1040A00001230C40A3401C000440034207D11843E5
:1040B0003070BFF35F8F2C608CF3108870BD1000E0
:1040C00001F0A0FE2C0100D0F8B54746CE46884648
:1040D00080B5EFF3108C72B6214D2C68002CFCD00B
:1040E000BFF35F8F9A422CD8D4080727055D0619C5
:1040F00001241740BC402C421FD0072101278946CC
:1041000009E0D408055D06194C4639001440A14069
:104110000C00294211D001329342F2D201204042D8
:10412000BFF35F8F00220E4B1A608CF310880028BB
:104130000FDBC0BCB946B046F8BD25431000357052
:10414000EEE7BFF35F8F00232B608CF31088012014
:1041500040424346002BECD0089801F053FEC04685
:104160002C0100D00021044B044ABFF35F8F02C32F
:104170009342FAD17047C046000100D0800100D0C0
:10418000044A1078431CDBB2172B00D9102313709C
:104190007047C046D10D002010B5064B064C82B0CA
:1041A0000100009318221F232000FFF78DFF02B0AB
:1041B00010BDC046B4960010681C00200123834047
:1041C000002904D0034A1360034A13607047034A6E
:1041D0001360FBE780E200E000E100E080E100E046
:1041E00001238340014A13607047C04600E200E0AB
:1041F000084B10309B688000C358002B07D0064A3C
:1042000000209B1A2F229A424041C0B270470020E2
:10421000FCE7C04600ED00E0D40D0020024B10305A
:104220009B688000C058704700ED00E070B50D003D
:10423000EFF3108672B60F4A1368002BFCD0BFF361
:104240005F8F0D4B10309B6884001B590B4A9342C3
:1042500003D09D4201D001F0EDFD074B9B681D513D
:10426000BFF35F8FBFF35F8F0022024B1A6086F3AC
:10427000108870BD240100D000ED00E0CD010010D9
:10428000F0B557464E46DE464546E0B585B00600D9
:1042900001911700EFF3108B72B6664A1368002B7A
:1042A000FCD0BFF35F8F0025634B5D579A46002D0E
:1042B00000DAA2E06B00614C02935B199B00984608
:1042C000A146C1444B4652469B79103613705C4B55
:1042D000B2009B68009299580B1B2F2B34D9594B75
:1042E000994200D0A2E0029B42469C46564B654450
:1042F000AD006353554B0232A218043B9B1A1B05B9
:10430000534A5B0D651913436B80524B0121AB80FF
:10431000FF23AB71019BEF71AB604B460B43190060
:10432000474B009A9B689950BFF35F8FBFF35F8F35
:104330000022404B1A608BF3108805B0F0BCBB46DE
:10434000B246A946A046F0BD01200A008243D379B7
:10435000BB422FD845464E4613003F491B1B5B41CD
:104360005943090D384B6353384B02356519043BEB
:104370005B1B1B05364D5B0D2B4373800426B44637
:10438000E044131F44441B1B1B055B0D1D434B46A0
:10439000997101999D8099604946DF712F4B0143C6
:1043A0001360BDE75800C01880002018C679BE42CF
:1043B00029D902000623D356002BF3DA101D8246BA
:1043C000274803900426504676424E44361A30055C
:1043D000400D844666461E48957106439680029AB3
:1043E00094466544AA00A4181C4AA3712260019B4C
:1043F000039AE771A280A36092E701F01BFD0025FC
:1044000053465D5756E7101D8246908840050015BB
:1044100084464046D444664604302018301AE026CC
:104420000005400D360230430390CBE701F002FD5A
:1044300059E7C046240100D0AB210020D40D002054
:1044400000ED00E0CD01001000A1FFFF040E0020F0
:1044500000E0FFFF01BDFFFFAAAA0000014880475E
:1044600001BD0000F0B5DE4657464E464546E0B574
:104470000C0083B0EFF3108972B6584A1368002B12
:10448000FCD0BFF35F8F564B9A68030010339F0038
:10449000D559544A9046954232D0A54243D0524E07
:1044A000AA1B2F2A2CD801228240924651464F4AFD
:1044B00012681140019151464D4A1160BFF35F8F60
:1044C000EFF305829346002A33D101232A009A4351
:1044D00093689C4208D177E04B005B189B00F3186F
:1044E0009968A1422AD01A00062151560029F3DA10
:1044F000019B002B19D052463E4B1A603B4B1A6071
:10450000374B9B68DD51BFF35F8FBFF35F8F002296
:10451000324B1A6089F3108803B0F0BCBB46B24638
:10452000A946A046F0BD1500EAE75246304B1A6096
:10453000E6E79342C9D001F07DFCC6E70621595653
:10454000002921DB4A005018800034188046A068FA
:104550009860E079D871062020569871002824DBF5
:10456000A488F01A6405241544440019E0240005C9
:10457000400D2402204398801F4B52181878920057
:10458000B21890711970B3E7594600290FD1FF3165
:1045900091711A49918018490A789A71184A9B1B9F
:1045A0005B415A43120D0A70A2E71648E3E7164A28
:1045B0001649D21A083A5002400D01439980144915
:1045C00052080A43DA8093E7062151561300002966
:1045D000B8DA5A46002AEAD14546DCE7240100D081
:1045E00000ED00E0CD010010D40D002000E100E05E
:1045F00080E100E080E200E0AB21002001BDFFFF90
:10460000AAAA000001BD00000E0E002000F0FFFF6E
:1046100000F8FFFF70B5EFF3058101240443EFF3C9
:10462000108C72B6214A1368002BFCD0BFF35F8F49
:104630001F4B05001F4AED1A6D416A43120D1E4DB6
:104640008900AE6852B27658A6421CD0062159564F
:1046500091421CD012215956914222D01E21595606
:10466000914220D02A2159560324914210D0134B55
:1046700019781A708171BFF35F8F00220B4B1A609B
:104680008CF3108870BDAB680D4C5C50EFE70024D4
:104690006100091989005B18FF2199710949998006
:1046A000E5E70124F4E70224F2E7C046240100D044
:1046B000D40D0020AAAA000000ED00E0AB210020EC
:1046C000CD01001001BDFFFF054B064A1360064AED
:1046D000136053609360D3601361536193617047BB
:1046E0008080808000E400E004E400E010B5084B26
:1046F000084C82B001000093002205232000FFF740
:10470000E3FC002801DB1F23181A02B010BDC046CD
:10471000D0960010B1210020024B9C4661448900D4
:10472000016070474000003410B50400FFF728FD19
:1047300001002000FFF7F0FFFF232371BFF35F8F1D
:1047400010BDC04610B50400FFF71AFD010020009F
:10475000FFF7E2FFFF23A380BFF35F8F10BDC046CA
:1047600010B504000120FFF717FD044B9C46604480
:1047700080002060BFF35F8F10BDC0464000003452
:10478000034B9C46614489000160BFF35F8F704713
:104790004000003483680B4810B58446614462448D
:1047A0001201090159189B185C684A68012094425B
:1047B00001D802D00020C0B210BD1A680B689A421E
:1047C000F9D8F7E7FFFFFF0F10B508000B690C00E1
:1047D0009847002802D02068616810BDE060002181
:1047E0000020FAE70A4B1968EFF3108072B60A68E6
:1047F000002AFCD0BFF35F8F1B68BFF35F8F0022DE
:104800001A6080F3108840BF002000217047C04626
:1048100050210020F8B5574645464E46DE46E0B5E5
:1048200099460CAB1C780DAB1B78070090469A4656
:104830000568002C44D1AC7B002C3BD06600296875
:104840003619033E89194B78AB73002B00D1EB73FB
:1048500000238B704B700B702E4BE218BB6812015B
:104860009B1842461A604A465A600A9A9A600B9A06
:10487000DA6000238B704B700B706B7B9B46002BB8
:1048800032D022005946A8686B68984700281DD08E
:104890005B46584629685B005B448E19033BB07049
:1048A000CA18CB5C002B00D073705B4614706B731E
:1048B0005C451AD0F0BCBB46B246A946A046F8BD3E
:1048C000660029683619033E8919C5E75B465B0017
:1048D0002A685B44033BD3189C709119925D002AAF
:1048E00000D05A705B460B706C7342464B46387D65
:1048F00000F0C2FC051E02D05346002B04D00E9BD4
:10490000002BD7D01D70D5E72100386800F0E4FEF9
:10491000F5E7C046FFFFFF0FF0B5DE4657464E46AF
:1049200045460023E0B58BB00893674B8200D4580E
:1049300000239B46099000F03FFC626806000F00D0
:10494000EFF3108572B61368002BFCD0BFF35F8FB6
:1049500023689C465B7B9946002B67D0A2685B4B23
:1049600090464B441B01984443461A685B6810000C
:104970001900801BB941002962DD099800F07CFC18
:1049800000230022984600230692079300239A46AC
:104990006368BFF35F8F5A461A6085F310885346E9
:1049A000002B08D10028C6D10BB0F0BCBB46B246E4
:1049B000A946A046F0BD089B414618024B46184345
:1049C000D047626806000F00EFF3108572B61368D7
:1049D000002BFCD0BFF35F8F002F4EDB33003B4337
:1049E00002D02369002B64D12368D97B002906D02B
:1049F0001A684800411852184946033A51709A7B88
:104A0000002A01D14A469A734A46DA734B46E16856
:104A1000013BCA5C0132CA545B4623616368BFF341
:104A20005F8F5A461A6085F3108884E700230022BE
:104A30009846002306920793002300209A46A7E792
:104A4000002901D1002898D10021604600F0C2FD64
:104A500043461A685B680692079343469B689A46EA
:104A60004346DB689846E3684B44013B1B78089358
:104A70001B020343236100208AE72369002BB3D084
:104A8000069A079B8021921BBB4109068B4202D3E9
:104A900001220F4B5242594604910121039149468C
:104AA000029141460191514620000091FFF7B2FE6C
:104AB000B2E700F081FB32003B0012184B4180212D
:104AC00009068B42E7D3E3E734210020FFFFFF0F05
:104AD000FFFFFF7F10B5144C6368002B04D00A2140
:104AE0001248FFF719FE10BD2300114A102120685B
:104AF00000F084FC032000F053FB032000F02CFCAA
:104B000003200C4900F072FBFFF73AFB0A4B9C466E
:104B100003232375D0231B061B6860446375074B72
:104B200080006060DC60DAE71C0E0020502100206D
:104B3000954700101949001040000034342100202E
:104B4000004870471C0E0020F0B54E465746DE4622
:104B50004546E0B585B0019310AB1B780600039382
:104B600000239A46994600927268EFF3108B72B652
:104B70001368002BFCD0BFF35F8F3568AC7B002C33
:104B800000D17AE067002B683F19033FDB195A78A0
:104B9000AA73002A00D1EA734B4AA118B26809012E
:104BA000521800980199106051600E9991600F9908
:104BB000D1604A469A705A701A706B7B9846002BE7
:104BC00000D171E022004146A8686B689847002830
:104BD0005CD04346404629685B004344CF19033B01
:104BE000B870CA18CB5C002B00D07B7043461470A1
:104BF0006B73444559D0F3681B19013B18787368EF
:104C0000BFF35F8F4A461A608BF310885346002B20
:104C100008D10002204305B0F0BCBB46B246A9460D
:104C2000A046F0BD039B002B4CD00E9B00200F999B
:104C30009847030004000D000B4343D0002911DA0C
:104C4000009A019B121BAB41009201938022120635
:104C5000934204D301231D4C5B4200930194039BB8
:104C60009A4681E700F0A8FA802224184D411206E6
:104C7000009401959542F2D3ECE77368BFF35F8F20
:104C80001C608BF3108801204042C4E743465B0060
:104C90002A684344033BD3189C70D119D25D002A83
:104CA00000D05A7043460B706C73307D009A019BA4
:104CB00000F0E2FA824600289DD02100306800F022
:104CC0000BFD98E70020A6E7FFFFFF0FFFFFFF7F28
:104CD000F8B542680400EFF3108572B61368002B34
:104CE000FCD0BFF35F8F2068CEB2437BB34209D0C4
:104CF000FF220A4003685700BA189B18033B9B78B1
:104D0000002B12D0FF22E3680A409B18013B090ADE
:104D10001B78C9B28B420ED000206368BFF35F8F4F
:104D200000221A6085F31088F8BD22698A42F3D107
:104D300000202361F1E7310000F0CEFCEDE7C04632
:104D4000407D7047F0B557464E46DE464546110059
:104D5000E0B585B006009C46109F194300D1E1E004
:104D60006146DB170193009353401C00019B4B40AD
:104D70001D0000980199241A8D4163460E997B60AD
:104D80000F9BBE607B6139613A6000F015FA8023A9
:104D9000001969411B0600900191994204D3012337
:104DA000664C5B42009301940023B9469A46644BDB
:104DB00003937268EFF3108B72B61368002BFCD06C
:104DC000BFF35F8F3568AC7B002C00D182E06700B9
:104DD0002B683F19033FDB195A78AA73002A00D1C8
:104DE000EA73584AA118B26809015218009801994B
:104DF00010605160039991604946D16000229A7019
:104E00005A701A706B7B9846002B00D17BE0220011
:104E10004146A8686B689847002866D043464046DC
:104E200029685B004344CF19033BB870CA18CB5CB8
:104E3000002B00D07B70434614706B73444563D0E5
:104E4000F36872681B19013B1B78BFF35F8F002169
:104E500011608BF310885246002A0DD101324F4663
:104E600092461B0223435046FB6005B0F0BCBB4694
:104E7000B246A946A046F0BD4B4648461B69984736
:104E8000071E02D14F460023EDE74B461C685D68C4
:104E900023002B434CD0002D10DA009A019B121BEB
:104EA000AB410092019380221206934204D3012366
:104EB000224C5B4200930194BA467AE700F07CF9F9
:104EC000802224184D411206009401959542EED29D
:104ED000BA466EE74F467368BFF35F8F1C608BF373
:104EE000108800239A46013BBDE743465B002A68D1
:104EF0004344033BD3189C70D119D25D002A00D0E3
:104F00005A7043460B706C73307D009A019B00F021
:104F1000B3F98246002800D192E72100306800F002
:104F2000DBFB8DE700230124002501229C4624E7BA
:104F3000B84600234F46C24695E7C046FFFFFF7FB5
:104F4000C9470010FFFFFF0FF0B504000D00062653
:104F50007642F717C64636196F4100B584B08F42C6
:104F600014D811D000F028F932003B00121A8B41FE
:104F7000002B15DC002B3ED02000290000F026F984
:104F800004B080BCB846F0BD8642EBD900260027AD
:104F900000F012F932003B00121A8B41002BE9DDC0
:104FA000002302930193154B3200009314483B00F9
:104FB000FFF7CAFD0028DFDB00239846BC46114AF4
:104FC000114F7B6A9C4504D8B96A8E42D4D99C455E
:104FD000D2D11168EFF3108072B60B68002BFCD0B1
:104FE000BFF35F8F1368BFF35F8F4146196080F393
:104FF000108820BFE5E7002ABED0D1E7E5470010C2
:105000001C0E0020502100200040054070B5040017
:105010000D0000F0D1F88023001969411B06994268
:1050200002D3012002494042FFF78EFF70BDC04607
:10503000FFFFFF7F70B5060000F0BEF8FA22040003
:105040000D00002330000021920001F003FB8023BB
:10505000001969411B06994202D3012002494042CE
:10506000FFF772FF70BDC046FFFFFF7F70B5EFF323
:10507000058305000C0084B0002B0AD0164A0020DE
:10508000536A9C4203D8926A0130AA421FD304B0EB
:1050900070BD124E02930193114B02000093300039
:1050A0000B00FFF751FD011EE8DD20BF3000FFF7C8
:1050B0000FFE094B00205A6A9442E8D89B6A0130DF
:1050C000AB42E4D2A41A631E9C41E0B2DFE7E31ACC
:1050D0005A1E9341D8B2DAE7004005401C0E00206A
:1050E000E5470010F0B5EFF30582D6464F46464639
:1050F0001000C0B51038EFF3108872B6214C236849
:10510000002BFCD0BFF35F8F0123190081401E4D9F
:105110001F006963AA461D4D29601D4D2E78AC46BF
:105120003500C5402F402B4209D1BFF35F8F276068
:1051300088F31088E0BCBA46B146A846F0BD534695
:105140005F6A144B8500EB589F420ED36246124BA8
:105150008E43EB581670BFF35F8F0022226088F3F6
:105160001088002BE6D09847E4E70C4B92009C4651
:10517000624413681360BFF35F8F0023236088F3DA
:105180001088D7E7280100D0004005403C7005405A
:10519000AF2100205C210020501B0020D03F0540A3
:1051A00010B5034B01001800024AFEF76BFF10BD5B
:1051B0009E210020EC960010034B596A0A00986A61
:1051C000596A8A42FAD1704700400540064A536A3C
:1051D0009942FCD807D1044B02E05A6A914202D1AD
:1051E0009A6A8242F9D370470040054070B50400C6
:1051F0000D00EFF3108672B61A4A1368002BFCD02C
:10520000BFF35F8F002D1BD02000FFF707F8164972
:1052100081420AD02000FFF709F801212000FEF7A3
:10522000CDFF0123A340114A1360114BA400E550A8
:10523000BFF35F8F00220B4B1A6086F3108870BD9E
:105240000121A1400A4BA200D5500A4B20001A7838
:105250008A4305491A70FFF705F900212000FEF77F
:10526000ADFFE5E7280100D0E550001038600540AB
:10527000501B0020AF210020F0B54F46D6464646D1
:10528000C0B507002F4C616A0D00A66A616AA94289
:10529000FAD18B4208D805D00120E0BCBA46B1460D
:1052A000A846F0BDB242F7D9EFF3108A72B626488D
:1052B00001680029FCD0BFF35F8F0125BD40234961
:1052C000204C8846097889462943C9B28C46414614
:1052D00060460870391D890065630A511C49B80091
:1052E0004350216A0020294219D0616A0800A66A49
:1052F000616A8142FAD18B4219D801D1B24216D8E3
:10530000CC451DD00F4B1F221D625D6301233A4027
:105310009340104A0120136043464A461A70BFF377
:105320005F8F0022084B1A608AF31088B5E70020CF
:10533000BFF35F8F0022044B1A608AF31088ACE73A
:105340000120ECE700400540280100D0AF210020FB
:105350005C21002080E200E0EFF3108C72B60A4975
:105360000B68002BFCD0BFF35F8F01238340074AFB
:105370000748136202789A430270BFF35F8F0023DD
:105380000B608CF310887047280100D00040054066
:10539000AF21002070B5050014001600002915D0BB
:1053A0000C00002A12D080686B6898472968002892
:1053B0000ED073009B196200033B1219CB18033AFD
:1053C0009C7088188A5C002A15D10670200070BD78
:1053D00063001B197200033B9219CB18033A9E70AD
:1053E00088188A5C002A02D104703400EEE75A70F3
:1053F00004703400EAE75A700670E7E730B583605E
:105400000023CCB243730133047342608373C473CB
:105410000D000068012C06D9421C0133DBB2137069
:1054200003329C42F9D1FF2129404B005B18C01880
:1054300000230338437030BDF8B505000C1E07D0BB
:10544000630001681B19033BCB185A78002A01D16D
:105450002000F8BD500080180338091800204F784C
:105460004870210058702800FFF794FF39000600AB
:105470002800FFF7E1FF0400002EE9D0002826D025
:1054800031002200A8686B689847296800280FD06F
:1054900063001B197200033B9219CB18033A9E70EC
:1054A00088188A5C002A00D05A7004703400CFE754
:1054B00073009B196200033B1219CB18033A9C70CE
:1054C00088188A5C002A00D05A700670C0E7340041
:1054D000BEE7C046F0B557464546DE464E46E0B507
:1054E0000D006B0001685B19DF1E0400C85D83B00E
:1054F0000192CA19002850D043001B18033BCB1857
:105500005E78B446002E1AD1019E002E42D0E67B72
:10551000002E04D073009B19CB18033B5D70A37B56
:10552000002B00D1A573E57300282FD10023537001
:1055300003B0F0BCBB46B246A946A046F0BD72001F
:105540006244033A8A18517888460021517089468E
:105550005970320001002000FFF71CFF43468246CD
:10556000002B07D05B0021684344033BCB185A78DB
:10557000002A16D1424651462000FFF70BFF216852
:10558000019BCA19002BC2D10028CFD043001B18A1
:10559000033BCB1800219970C8E7019B002BB6D1C3
:1055A000C4E75000801803380918487883464846F5
:1055B0004870587041462000FFF7ECFE594680467F
:1055C0002000FFF739FF414602002000FFF7E2FE0E
:1055D0008046CFE7F0B557464546DE464E46E0B535
:1055E00083B00191457B04006B0000685B19DF1EEE
:1055F000C15DC219002952D04B005B18033BC31890
:105600005E78B446002E1CD1019E002E44D0E67B6D
:10561000002E04D073009B19C318033B5D70A37B5D
:10562000002B00D1A573E573002931D10023280098
:105630005370617303B0F0BCBB46B246A946A046A6
:10564000F0BD72006244033A821850788046002010
:1056500050708146587032002000FFF79BFE434691
:105660008246002B07D05B0021684344033BCB18E4
:105670005A78002A17D1424651462000FFF78AFE89
:10568000019B01002068C219002BC0D10029CDD098
:105690004B005B18033BC31800209870C6E7019BC2
:1056A000002BB4D1C2E7500080180338091848789D
:1056B000834648464870587041462000FFF76AFE0E
:1056C000594680462000FFF7B7FE41460200200001
:1056D000FFF760FE8046CEE770B5040000292CD0AD
:1056E000437B8B422ED005684800401803382818A9
:1056F0008278002A21D053009B18033BEA5CEE1805
:105700008A4202D11BE0002A08D053009B18033BB9
:10571000EB185A788A42F6D142785A700023012257
:10572000837043702000FFF7D5FE617B02002000EC
:10573000FFF730FE6073012000E0002070BD437869
:105740003370EBE701221900FFF7C4FE60730120FC
:10575000F4E7C046F8B5040006200D0000F0C2F9D9
:10576000002844D02A4B2B49E21853425A41802347
:10577000DB039C469205284B62441A60274B1A6053
:1057800010008B689843FBD1214B254AE3185942FE
:105790004B4180215B0049009952062000F0A2F99C
:1057A0002900C00000F0CEFBC30921D14027012110
:1057B000260080256162A36200232C36AD013543AB
:1057C0002B60062000F08EF93900800000F0BAFB53
:1057D0006022E36A53400E321A4080235B01334358
:1057E0001A60104B236310232B600D3BA364F8BD9C
:1057F0000D4A934203D900230C4F0D49D8E77F226D
:105800000240013252089F011900BF181300CFE770
:105810000080FCBF00C0004000E0004000F00040FD
:105820006C21002001030000FEFF0000C0FF3F00CC
:10583000FFFF000010B50C2082B000F0ADF9FEF7BC
:1058400019FC00280ED0854B854A1A605A609A6070
:10585000DA601A615A619A61DA611A62814A5A629F
:1058600002B010BD804CA06700F03AFA01227F4BD5
:105870001A60636C012BFCD103227D4B1A607A4ABB
:10588000936B012BFCD1013301217A4A7A480093B2
:10589000043300F02DF90523784A0093012178485C
:1058A00000F026F9774B5A68FF2A02D8802252006E
:1058B0005A6080226E4B694C12011A6021690029DE
:1058C00005D0606900F03EFB01300138FDD1E022D7
:1058D0006C4B6D4819680A400260022219685140F9
:1058E00001320A40042102609A681142FCD08021F2
:1058F000664A09011160802252005A60644B23619C
:10590000644B5968FF2900D85A6003220121574B84
:105910001A60604A93681942FCD0E0231068034083
:105920005D480360126803234A4002211340594A2C
:10593000036093681942FCD08021584B090119601B
:105940008021574B490051606361564B5A68FF2ACA
:1059500000D859608022544B12011A60E169002975
:1059600005D0606900F0EEFA01300138FDD1E02386
:105970004C4A11680B404D490B6080214C4B09018A
:1059800019608021364B49005160E361494B5A68E8
:10599000FF2A00D859608022474B12011A60216A01
:1059A000002905D0606900F0CDFA01300138FDD141
:1059B000E023404A11680B4040490B608021404B76
:1059C0000901196080235B0053608022244BD202BE
:1059D00023623C4B5968914200D25A6080223A4B74
:1059E00012011A60616A002905D0606900F0AAFA04
:1059F00001300138FDD1E023324A11680B403349B0
:105A00000B608021324B090119608023DB02536057
:105A1000144B63622F4B5A68FF2A02D8802252002F
:105A20005A6080222C4B12011A60A169002905D00E
:105A3000606900F087FA01300138FDD1E023254A82
:105A400011680B4025490B608021254B0901196025
:105A500080235B005360124BA36101E76C1C0020A4
:105A6000006CDC021BB70000008000403CB000402E
:105A700030B00040002F685900800240008C8647FB
:105A800000C00240308000403090004030A0004014
:105A9000001BB7003C8000403C9000403CA0004010
:105AA000405973075480004054B000405490004067
:105AB00054A000406080004060B000406090004012
:105AC00060A000406C8000406CB000406C900040D2
:105AD0006CA000404880004048B000404890004022
